:10000000C053002075530000D72602006153000042
:1000100061530000615300006153000000000000C4
:10002000000000000000000000000000AD530000D0
:100030006153000000000000E5550000615300001E
:100040005D560000DD6D01005D5600005D5600004C
:100050005D5600005D5600005D5600005D560000D4
:100060005D5600005D5600005D5600005D560000C4
:100070005D5600005D5600005D5600005D560000B4
:100080005D5600005D5600005D5600005D560000A4
:100090005D5600005D5600005D5600005D56000094
:1000A0005D5600005D5600005D5600005D56000084
:1000B0005D5600005D5600005D5600005D56000074
:1000C0005D5600005D5600005D5600005D56000064
:1000D0005D5600005D5600005D5600005D56000054
:1000E0005D5600005D5600005D5600005D56000044
:1000F0005D5600005D5600005D5600005D56000034
:100100004FEA4102B2F1E04324BFB3F5001CDCF139
:10011000FE5C0DD901F0004C4FEAC0024CEA507071
:10012000B2F1004F40EB830008BF20F001007047A0
:1001300011F0804F21D113F13872BCBF01F00040A3
:10014000704741F480114FEA5252C2F11802C2F1D5
:10015000200C10FA0CF320FA02F018BF40F0010056
:100160004FEAC1234FEAD32303FA0CFC40EA0C0008
:1001700023FA02F34FEA4303CCE77FEA625307D145
:1001800050EA01331EBF4FF0FE4040F4400070477C
:1001900001F0004040F0FE4040F40000704700BF16
:1001A00080F0004002E000BF81F0004142001FBF2C
:1001B0005FEA410392EA030F7FEA226C7FEA236C35
:1001C0006AD04FEA1262D2EB1363C1BFD21841402A
:1001D00048404140B8BF5B42192B88BF704710F0C0
:1001E000004F40F4000020F07F4018BF404211F063
:1001F000004F41F4000121F07F4118BF494292EACB
:10020000030F3FD0A2F1010241FA03FC10EB0C00F6
:10021000C3F1200301FA03F100F0004302D5494283
:1002200060EB4000B0F5000F13D3B0F1807F06D330
:1002300040084FEA310102F10102FE2A51D2B1F128
:10024000004F40EBC25008BF20F0010040EA03001D
:100250007047490040EB0000013A28BFB0F5000F9D
:10026000EDD2B0FA80FCACF1080CB2EB0C0200FA53
:100270000CF0AABF00EBC25052421843BCBFD040A2
:100280001843704792F0000F81F4000106BF80F41C
:1002900000000132013BB5E74FEA41037FEA226CDF
:1002A00018BF7FEA236C21D092EA030F04D092F0AA
:1002B000000F08BF0846704790EA010F1CBF0020DE
:1002C000704712F07F4F04D1400028BF40F000403B
:1002D000704712F100723CBF00F50000704700F05B
:1002E000004343F0FE4040F4000070477FEA226282
:1002F00016BF08467FEA23630146420206BF5FEA53
:10030000412390EA010F40F4800070474FF0000352
:1003100004E000BF10F0004348BF40425FEA000C19
:1003200008BF704743F0964301464FF000001CE0C1
:1003300050EA010208BF70474FF000030AE000BF17
:1003400050EA010208BF704711F0004302D5404255
:1003500061EB41015FEA010C02BF844601460020C7
:1003600043F0B64308BFA3F18053A3F50003BCFAE2
:100370008CF2083AA3EBC25310DB01FA02FC63448F
:1003800000FA02FCC2F12002BCF1004F20FA02F296
:1003900043EB020008BF20F00100704702F1200289
:1003A00001FA02FCC2F1200250EA4C0021FA02F2EA
:1003B00043EB020008BF20EADC7070474FF0FF0CEF
:1003C0001CEAD0521EBF1CEAD15392EA0C0F93EAEA
:1003D0000C0F6FD01A4480EA010C400218BF5FEA8C
:1003E00041211ED04FF0006343EA501043EA5111FF
:1003F000A0FB01310CF00040B1F5000F3EBF4900F9
:1004000041EAD3715B0040EA010062F17F02FD2AFC
:100410001DD8B3F1004F40EBC25008BF20F00100DF
:10042000704790F0000F0CF0004C08BF49024CEAF6
:10043000502040EA51207F3AC2BFD2F1FF0340EA88
:10044000C250704740F400004FF00003013A5DDCF9
:1004500012F1190FDCBF00F000407047C2F100023A
:10046000410021FA02F1C2F1200200FA02FC5FEA27
:10047000310040F1000053EA4C0308BF20EADC7071
:10048000704792F0000F00F0004C02BF400010F4E3
:10049000000F013AF9D040EA0C0093F0000F01F090
:1004A000004C02BF490011F4000F013BF9D041EAB2
:1004B0000C018FE70CEAD15392EA0C0F18BF93EAB4
:1004C0000C0F0AD030F0004C18BF31F0004CD8D1DE
:1004D00080EA010000F00040704790F0000F17BF65
:1004E00090F0004F084691F0000F91F0004F14D0AB
:1004F00092EA0C0F01D142020FD193EA0C0F03D103
:100500004B0218BF084608D180EA010000F0004005
:1005100040F0FE4040F40000704740F0FE4040F4E0
:10052000400070474FF0FF0C1CEAD0521EBF1CEA7F
:10053000D15392EA0C0F93EA0C0F69D0A2EB03029D
:1005400080EA010C49024FEA402037D04FF0805337
:1005500043EA111143EA10130CF000408B4238BFFC
:100560005B0042F17D024FF4000C8B4224BF5B1A0A
:1005700040EA0C00B3EB510F24BFA3EB510340EA58
:100580005C00B3EB910F24BFA3EB910340EA9C0006
:10059000B3EBD10F24BFA3EBD10340EADC001B0176
:1005A00018BF5FEA1C1CE0D1FD2A3FF650AF8B421A
:1005B00040EBC25008BF20F0010070470CF0004C27
:1005C0004CEA50207F32C2BFD2F1FF0340EAC25052
:1005D000704740F400004FF00003013A37E792F013
:1005E000000F00F0004C02BF400010F4000F013A71
:1005F000F9D040EA0C0093F0000F01F0004C02BF6C
:10060000490011F4000F013BF9D041EA0C0195E7D4
:100610000CEAD15392EA0C0F08D142027FF47DAF6D
:1006200093EA0C0F7FF470AF084676E793EA0C0F5D
:1006300004D14B023FF44CAF08466EE730F0004C5B
:1006400018BF31F0004CCAD130F000427FF45CAFEB
:1006500031F000437FF43CAF5FE700BF4FF0FF3C59
:1006600006E000BF4FF0010C02E000BF4FF0010CAC
:100670004DF804CD4FEA40024FEA41037FEA226C75
:1006800018BF7FEA236C11D001B052EA530C18BF97
:1006900090EA010F58BFB2EB030088BFC81738BFFC
:1006A0006FEAE17018BF40F0010070477FEA226CEA
:1006B00002D15FEA402C05D17FEA236CE4D15FEAE6
:1006C000412CE1D05DF8040B704700BF844608461A
:1006D0006146FFE70FB5FFF7C9FF002848BF10F1DB
:1006E000000F0FBD4DF808EDFFF7F4FF0CBF012020
:1006F00000205DF808FB00BF4DF808EDFFF7EAFFAA
:1007000034BF012000205DF808FB00BF4DF808ED64
:10071000FFF7E0FF94BF012000205DF808FB00BF59
:100720004DF808EDFFF7D2FF94BF012000205DF8DF
:1007300008FB00BF4DF808EDFFF7C8FF34BF0120EC
:1007400000205DF808FB00BF4FEA4002B2F1FE4F07
:100750000FD34FF09E03B3EB12620DD94FEA002383
:1007600043F0004310F0004F23FA02F018BF40425C
:1007700070474FF00000704712F1610F01D1420243
:1007800005D110F0004008BF6FF0004070474FF0F7
:100790000000704742000ED2B2F1FE4F0BD34FF073
:1007A0009E03B3EB126209D44FEA002343F00043E7
:1007B00023FA02F070474FF00000704712F1610F0A
:1007C00001D1420202D14FF0FF3070474FF00000DC
:1007D000704700BF53B94AB9002908BF00281CBFA1
:1007E0004FF0FF314FF0FF3000F00CB8ADF1080CC6
:1007F0006DE904CE00F018F8DDF804E0DDE902232D
:1008000004B07047704700BF034611F8012B03F88E
:10081000012B002AF9D17047034613F8012B002A57
:10082000FBD1181A013870472DE9F0478C468E46E7
:10083000089E154604461946002B40F0D0807245AC
:1008400047D9B2FA82F74FB1C7F120030EFA07FC7D
:1008500020FA03F3BD4043EA0C0CBC404FEA154EAE
:10086000A8B2BCFBFEF8230C0EFB18CC08FB00F969
:1008700043EA0C43994528D9EB1808F1FF3204D21A
:10088000994502D9A8F102022B44A3EB0903A4B2B3
:10089000B3FBFEFC0EFB1C330CFB00F044EA0344EC
:1008A000A04214D92C190CF1FF3304D2A04202D972
:1008B000ACF102032C44241A43EA02401EB1FC406E
:1008C000002334607360BDE8F0874246DDE763468D
:1008D000F1E7002A79D0B2FA82F3002B3FD0194613
:1008E000C1F1200302FA01F52EFA03F20EFA01FE1D
:1008F00020FA03F343EA0E034FEA154E00FA01F41F
:10090000B2FBFEFCAFB20EFB1C201A0C0CFB07F86E
:1009100042EA004290455AD9AA180CF1FF3004D29D
:10092000904502D9ACF102002A44A2EB08029BB226
:10093000B2FBFEFC0EFB1C220CFB07F743EA024352
:100940009F4246D9EB180CF1FF3204D29F4202D9E4
:10095000ACF102022B44DB1B42EA004202E0AEEBA8
:10096000020301224FEA154EAFB2B3FBFEFC200C8E
:100970000EFB1C330CFB07F840EA034398452AD9C9
:10098000EB180CF1FF3004D2984502D9ACF102000B
:100990002B44A3EB0803A4B2B3FBFEFC0EFB1C33F9
:1009A0000CFB07F744EA0344A74216D92C190CF1B3
:1009B000FF3304D2A74202D9ACF102032C44E41B5A
:1009C00043EA00400F46114678E71F2188E760465A
:1009D000ABE76246BFE76046DBE76346EFE7734598
:1009E00006D916B9002108466DE7C6E9000EF9E7F9
:1009F000B3FA83F787B9734501D3824207D8841AC3
:100A00006EEB030301209C461EB900215BE73846CC
:100A1000FAE7C6E9004CF8E7C7F1200CBB4022FA20
:100A20000CF51D4320FA0CF12EFA0CF30EFA07FE1A
:100A300041EA0E014FEA154900FA07F4B3FBF9F851
:100A40001FFA85FE09FB18300B0C08FB0EFA43EA6F
:100A500000439A4502FA07F240D9EB1808F1FF303B
:100A600004D29A4502D9A8F102002B44A3EB0A0351
:100A700089B2B3FBF9F809FB183308FB0EFE41EA13
:100A800003418E452CD9691808F1FF3304D28E45F5
:100A900002D9A8F10203294443EA0040A0FB0298CE
:100AA000A1EB0E014145CE46434602D306D14C454B
:100AB00004D2B9EB020E68EB05030138002EA4D076
:100AC000B4EB0E0261EB030101FA0CFC22FA07F30E
:100AD0004CEA0303F940C6E9003196E74046C5E712
:100AE0004346D9E700000000F0B500228BB0114664
:100AF00040F6034006F01CF8044600285ED105F0DD
:100B000091FE214609AA41F2030006F011F80446BD
:100B1000002853D1099A2B4DD168D1F80100D1F8A2
:100B2000051005F1780303C3104605F0AFF921461F
:100B300009AA41F2010005F0FBFF044600283DD15F
:100B40000998C3685A7885F86F205A88A5F87220EA
:100B50001A7985F87020B3F80720A5F87420B3F847
:100B60000530A5F8763005F091F9214609AA41F241
:100B7000020005F0DDFF044600BB099FFA6805F19D
:100B80008006531C413218685968344603C4083340
:100B900093422646F7D1384605F078F995F87C302F
:100BA00013F0400314D1084A08490093CDE90132FB
:100BB0001846012221F0F0FE6FF0120420460BB01F
:100BC000F0BD00BF00000020EC930200F4610200C1
:100BD00009AA002142F2030005F0AAFF04460028FA
:100BE000ECD1099AB24BD168D1F80100D1F80510C7
:100BF00003C3104605F04AF9214609AA42F2020051
:100C000005F096FF04460028D8D1099FFE68B6F883
:100C100001309AB2BAB1F278AAB1A5F8FC30F378F3
:100C2000032B0BD00322CDE90332A24BA249009043
:100C3000CDE901030222034621F0AEFEF2789F487F
:100C4000114623F0FFFC384605F020F995F87C604A
:100C50001F2316F02006A5F8103119D14FF0FF30F0
:100C60004FF0FF3105F006FE0446002800F0B88181
:100C700002210C3005F05CFA012303704670214616
:100C8000324640F66D4005F053FF0446002895D1EA
:100C900095F89C301E0712D509AA002142F21C00CB
:100CA00005F046FF0446002888D10998C368D3F8A8
:100CB0000120D3F80530C5E9382305F0E7F895F8A9
:100CC000D8309C0626D50DF1220108A805F0CEFFEC
:100CD000044600287FF472AF4FF0FF304FF0FF3131
:100CE00005F0C8FD0646002800F07A8104210C308A
:100CF00005F01EFABDF820300380BDF82230438095
:100D00002246314642F2240005F012FF0446002834
:100D10007FF454AF95F8D830580610D509AA0021B1
:100D200042F22A0005F004FF044600287FF446AF93
:100D30000998C3685B7885F8123105F0A7F84FF081
:100D4000FF304FF0FF3105F095FD0646002800F01A
:100D5000478108210C3005F0EBF995F8D84014F0E4
:100D6000400F40F2022308BF0323A10795F8D910D2
:100D70004CBF43F02C0343F00C03A70648BF43F0DD
:100D8000400311F0090F18BF43F4006304F001049D
:100D90000246002143EA041021F019FE00223146E8
:100DA00042F2010005F0C4FE044600287FF406AFBD
:100DB00095F87C30B5F8FC109E0661D4C9B909AA33
:100DC00041F2050005F0B4FE044600287FF4F6AEBB
:100DD000B5F8FC30099C4BB9E368B3F80120A5F8DD
:100DE000FC209A883548114623F02CFC204605F05B
:100DF0004DF84FF0FF304FF0FF3105F03BFD04465A
:100E0000002800F0ED8008210C3005F091F995F8EC
:100E1000D830D907024641D429484FF0005121F07B
:100E2000D6FD2146002240F6014005F081FE044631
:100E300000287FF4C3AE014609AA4FF6014005F031
:100E400077FE002842D01F4B0094CDE90143234692
:100E500019490222184621F09FFDEB79002B40F042
:100E6000AF8006F0BDFB044600287FF4A7AE07F074
:100E700011FD044600287FF4A1AE05F04BFD9DE670
:100E80000029B6D1104B0C490090CDE90103012295
:100E9000034621F081FD6FF004048FE602A1D1E941
:100EA0000001BCE7AFF300809088000200800020C2
:100EB000D800002010940200F4610200000100201C
:100EC000108800027994020056940200099E52494B
:100ED000F468B4F80130042B96BF504A504A52F8D7
:100EE0002320CDE903234F4B02930023CDE90033A8
:100EF0000322184621F050FDB4F80130B4F8032065
:100F0000022B39D1052A37D8474B53F822304249B2
:100F1000CDE90332454B0293002303221846CDE965
:100F2000003321F039FDD4F8091063790791B4F842
:100F300007100691032BA17996BF3D4A384A52F813
:100F4000232003920024CDE904313A4B3249029325
:100F5000032223462046CDE9004421F01DFD304602
:100F600004F094FF09AA21464FF6024005F0E0FD87
:100F7000064618B1304B67E7294BC8E70998C368A4
:100F8000B3F80130A5F8C13004F080FF95F8C13006
:100F90005A077FF562AF09AA31464FF6034005F0C4
:100FA000C7FD28B1254B0096CDE9016333464FE7D5
:100FB0000998C3685B7885F8C03004F067FF4CE798
:100FC0002E78002E7FF44DAF95F8C1309B061FD5CB
:100FD0004FF0FF304FF0FF3105F04CFC044610B9E4
:100FE0006FF06804EAE506210C3005F0A1F8D5F8A9
:100FF00001300360124B9B888380214632464FF6B6
:10100000064005F095FD044600283FF42AAFD5E5DB
:101010006FF08504D2E500BFF4610200CC640200E9
:10102000319202009D940200B4640200B694020062
:10103000A4640200CE940200FB94020024950200F6
:1010400001000020000000002DE9F843D0E9073836
:10105000856903EB08042F34A5420F46164619D8BC
:10106000DFF86C80A3FB080117A3D3E90023FFF787
:10107000B1FB0346601BA0FB080123F07F4412A3D1
:10108000D3E90023FFF7A6FB20F07F403C603060EF
:10109000BDE8F883DFF838900BA3D3E90023A5FB64
:1010A0000901FFF797FB20F07F440A480A2106A3B5
:1010B000D3E90023E8FB0901FFF78CFB20F07F4018
:1010C0003C603060BDE8F8838D49FD1A07000000E0
:1010D00000CA9A3B00166BF1002800F051812DE9FF
:1010E000F04FCB4C94F85E2012F001058DB040F02B
:1010F0003481607EFF2300F00300A37615F04CFBE3
:1011000094F85E00420700F12C81627F94F8293048
:1011100004EB820204EB8303166AD3F82C8086B1B9
:10112000BB4831460FF0F4FE33785B0605D5062147
:101130000BF026FD002800F05581B54841460FF020
:10114000E7FE337813F00E0F40F0918063691BB116
:101150000C200DB0BDE8F08F0DF018FD8146002881
:1011600000F049810DF01EFD8246002800F040810C
:1011700010F014F90546002800F05A81D0F88800D4
:101180004FF6FF73AB8405F1100B002800F035819A
:1011900005F17C0205F178010BF0FEFCB5F8763024
:1011A00023F4EF6323F0070343F48C7343F001034C
:1011B000A5F8763095F8373003F03F0363F07F03EE
:1011C00085F8373095F88E3023F0070385F88E3098
:1011D00095F83C3023F00F03002785F83C304FF49E
:1011E000C023C5F88E312846C5E91277C5F8887046
:1011F000A5F88C7085F839706F85C5F82E702F654D
:10120000A5F86071A5F89471A5F88A7112F05CF8E0
:1012100085F86471C5F8689110F088FB95F89C31E9
:1012200060F3020385F89C3110F086FB95F89C3141
:1012300060F3C50385F89C3195F8623167F341038B
:10124000012185F86231284610F00AFF05F1E0001F
:1012500011F05AFEC4E9159AC4F814B0C5E9027732
:101260002F702D6116F07AFA002840F0BD80237EA1
:101270000121C3F342030DF12B008DF82B300BF04D
:101280002DFE024600287DD0414630460FF038FC46
:10129000604A614BB4F85C800721E0FB0231002515
:1012A0001846C4E9025558A3D3E900232570FFF777
:1012B00091FA60600CF09CFF00F10907B8F1000F93
:1012C00007D1357805F00F05A5F10105B5FA85F5CB
:1012D0006D09207E636865F3000010F0010520763B
:1012E00057D04E4A09920020106002254C4ADFF880
:1012F000348104930BAE019305920321CDE90200E2
:10130000069400903B46CDF81C8008962A460B9523
:101310000CF092FE31460DF0BBFC98BB42490591A2
:101320004AF2D8330093CDE90300CDE90100CDF8AE
:101330001C80089606943B46012203210B950CF075
:101340005FFE31460DF0A4FCE0B994F85E30012058
:10135000034384F85E3015F001FA00200DB0BDE8BB
:10136000F08F2A4604F15F01C0F3C00015F05AFB6C
:10137000FF28A0763FF4C9AE284615F027FAC4E648
:101380000FF056BB6369002B3FF4E2AE0FF026FB73
:10139000DEE6224A2548049303F247130694029599
:1013A00091211360A8FB000301FB08311D4B07933B
:1013B0001B4B05934FF6FF7309924FF002080393FE
:1013C0000BAE11A3D3E90023CDF82C800896FFF7CC
:1013D00001FA3B46CDE900504246284603210CF075
:1013E0002BFEAEE71220B4E60FF0F8FA0320B0E6C9
:1013F00048460DF0D1FB0720ABE605F18000C5F8AB
:101400008800C5E6AFF300808D49FD1A0700000093
:10141000101F002000CA9A3B8C49FD1A041F0020AF
:10142000790B0100EDE200009D080100002AE7842D
:1014300050460DF0BDFB48460DF0AEFBDBE700BFAC
:1014400070B5037E8AB0C3F342030D460446012102
:101450000DF1230016468DF823300BF03FFD314689
:10146000024628460FF04CFB1D4A1E4B0721E0FBAD
:101470000231184618A3D3E90023FFF7ABF96368DC
:101480009842054621D21B1A00220192164A029365
:10149000164BA21AA3FB02320221520900230A446E
:1014A00009AE099112490591CDE90333032106964E
:1014B000D2B2009318460CF015FE31460DF0E8FB51
:1014C00038B9656000200AB070BDFBD9C21A00238C
:1014D000DBE70C200AB070BD8D49FD1A0700000043
:1014E00000CA9A3B8C49FD1A101F00204FECC44ED5
:1014F000EDE20000000000002DE9F04F05468BB042
:101500008B46012002219946144617F00DFF002258
:101510000221824601200BF093FB2F494FF4D47235
:1015200028460BF019FBC61C2C4B0093F6B2019514
:101530004B463246012100200CF022FE10F0FD0F38
:1015400042D1274BA4FB0348204621A3D3E9002323
:101550004146FFF73FF9089506956B680493214BC8
:1015600020F07F47A7FB0331E01A1F4B07934FF092
:1015700007021E4B059302FB07114FF6FE7368EB43
:10158000010103934FF47A720023FFF723F9CDF89A
:1015900000B0CDE901704B463246012100200CF02D
:1015A0002FFD10F0FD0F0DD1BAF1000F02D10BB0DD
:1015B000BDE8F08F0122022110460BB0BDE8F04FCC
:1015C0000BF03EBB00DEEFE700DEBAE7AFF30080D2
:1015D0008D49FD1A07000000B00B002059120100D0
:1015E00000CA9A3B8D49FD1A41120100E55B0100DA
:1015F0002DE9F0418468A28C4FF6FF739A428CB0BB
:1016000000F0C0800546204612F0DAF82B7D012B51
:1016100000F0E680022B00F0B88033B994F88E30E9
:1016200003F01803182B00F01C8194F86471002F4C
:1016300040F0AE802B8AE68D94F93720CDE90A7709
:10164000002B00F0AC80002AC0F221810023A4F816
:101650009031AB7CA28D03F00303551C012BADB27E
:1016600000F0BA80B4F89431002B00F0BF80AB4298
:1016700040F237815B1B9BB2062BA4F894314FF0EC
:1016800000028CBF00230123E2851F4694F83C2012
:1016900063F3820284F83C2029460DF1270220469C
:1016A00011F04EFE743000F01681B4F88E312BB17B
:1016B000AB4240F2BF805B1BA4F88E31B4F88A3194
:1016C0002BB1AB4240F2C6805B1BA4F88A31E58D9A
:1016D00017B9AE4200F0AC800135ADB294F8D1300C
:1016E00013F0010609D1DDE90AC3B3BBBCF1000F59
:1016F00000F0E9801E46194630E094F9372023F0C7
:101700000103002A84F8D130C0F28A8094F8760070
:10171000C0F3C00100F0070015F09EFEB4F86E2083
:10172000B4F86C301344E28B03F23F1313441844B3
:101730008D4A8E4B0721E0FB0231184688A3D3E97E
:101740000023FFF747F8616820F07F408142DDE920
:101750000AC380F0B280461A60600021A28C24691E
:101760000694CDE903570332814D0291CDE900C6BD
:10177000D2B20121002005950CF0B4FC10F0FD0F51
:1017800040F0B4800CB0BDE8F0813D2784F864716E
:10179000394620460CB0BDE8F04110F087B9002A68
:1017A000B8BF84F8D570AB7CA28D03F00303551C41
:1017B000012BADB210D0B4F89031002B3FF452AFF2
:1017C000AB4240F29A805B1BA4F89031B4F894319C
:1017D000002B7FF44CAF59E70023A4F8943155E770
:1017E0000023A4F88E31A4F88A311EE7E38C052B80
:1017F0008BBF40F2E2424FF4FA725A4303FB0222DB
:10180000B4F8923142F2107101FB0323013BB3FBA8
:10181000F2F39BB2A4F89431002B7FF428AF35E7A4
:1018200094F87700012100F0070015F017FE75E726
:101830003D4653E70DF0FCF90146002864D0002333
:10184000A4F88E31A38CC3801B23037100680DF0B4
:10185000C1F933E70023A4F88A31204611F002FED3
:1018600035E7218DB4F88C218B1D9A42C4BF931F9C
:101870005B1AB4F88811CCBF9BB21346994256D07C
:10188000A4F88831A4F88A31A4F88E21CDE694F822
:10189000D530002B3CD0013B84F8D53004F1E00872
:1018A000404611F073FB002855D0404611F06EFB06
:1018B000002842D00023E385C8E6091A6060A3BB74
:1018C00051EA0C021ED115B9002F3FF45BAF002680
:1018D0003146334642E79DF82710204610F0E6F8DF
:1018E00050E70821204610F0E1F84BE70DF0FAF937
:1018F00084423FF447AF00DE44E73E21204610F02B
:10190000D5F83FE71E4629E70123A4F88E31D5E636
:101910000AAA0BA92846FFF797FBDDE90A23134320
:10192000BCD0237884F8D530B8E7002616E7B4F8A1
:101930008E1100297FF479AEA4E70246D4E91E0196
:101940000BF042F90028B5D194F83C301B0744BF96
:10195000238DE3857AE6FF2010F06AF8A5E700BF43
:101960008D49FD1A0700000000CA9A3B8C49FD1AF8
:1019700099120100000000002DE9F04F87B0B0F887
:101980006071BDF84C900091CDE90423B0F824318A
:10199000BDF840A01F44BFB20446A7EB090390F86E
:1019A0007600D4F81C819EB2BDF844300193C0F398
:1019B000C001BDF84830039600F00700029315F00F
:1019C0004BFDE58C052D40F2A38015FB06F5ADB26D
:1019D00040F2E24BBAF1050F40F28E80B4F86E206F
:1019E000B4F86C30134403F2D5130344764A7748B5
:1019F0000721E3FB02014FF09613E3619623238452
:101A00006FA3D3E90023FEF7E5FE564620F07F40A2
:101A100040F2E2430BFB05F203FB06F6531E334490
:101A2000B3FBF6F31FFA83FB60600BFB06F0824208
:101A30005D4653D26449801AA0FB010160A3D3E93B
:101A40000023FEF7C7FE20F07F408044B4F8242135
:101A5000B4F86031A9EB07094D44ADB213442B44EF
:101A6000A4F86031638D13441D4494F837306585C4
:101A7000DB0955D100DE00273546019B2385029BFB
:101A8000A4F8923131462046A4F826A011F084FC37
:101A90004F4B218D3344881DB3FBF6F39AB290422D
:101AA000A4F88C2104D2C1F57F41FA310A4492B2E4
:101AB000009BA4F8882113B10023A4F89431434675
:101AC0002A4639462046FFF717FD94F8623143F065
:101AD000010384F8623107B0BDE8F08F121A3A486A
:101AE000A2FB000136A3D3E90023FEF773FE20F02A
:101AF0007F40A8EB0008A9E74FF096130AF1010612
:101B0000E36196232384B6B20A204FF4FA7381E787
:101B1000039B013515FB03F5ADB24FF4FA7B59E792
:101B2000216CA36C284F01FB0233039A01FB123393
:101B3000A3640023C4F8DC3015F062FE054694F877
:101B4000D400C0F3420015F05DFE054406FB05F528
:101B5000204B1E4805F5742505F23F25A3FB0535EE
:101B6000AD0CA36C25640BFB05FB72085B44963A35
:101B7000934228BF1346C4E91123049B40F2E24973
:101B800009FB03F307212365EBFB07010CA3D3E952
:101B90000023FEF71FFE104B059AA8EB0008A3FBDD
:101BA0000230800A09FB00F0A0FB070104A3D3E97F
:101BB0000023FEF70FFE751B20F07F475DE700BF97
:101BC0008D49FD1A0700000000CA9A3B8C49FD1A96
:101BD0007FC3C90183DE1B435917B7D10000000042
:101BE0002DE9F04F0D46166895F8118009681446E6
:101BF000027FD1F8009093B08346C2F38012D0F8F0
:101C00001E008DF83720B8F1FF0FBBF8222010908E
:101C1000ADF8442057D110AB93E803000E90ADF817
:101C20003C105A46BBF82E1052F82EAB9278A27296
:101C30002181DBF82A206260DBF83A20C4F82220F8
:101C400004F122009BF83E20027105210BF046F9B9
:101C500094F8272000F03F0060F3050284F8272065
:101C60009BF83F20C2F3040184F82810BBF834101D
:101C7000E182012802F01F0289B20AD91B3202F068
:101C80001F020B2A05D8063989B240F67A429142E2
:101C900025D90021C9F8081094F82C2061F300021E
:101CA00084F82C20DBF80C400125504659468BF86F
:101CB00004500CF083FF2068257121460CF08AFF48
:101CC00013B0BDE8F08F0EAA0DF13701404614F0B5
:101CD000A3FA9DF8372002328DF83720A1E72A6851
:101CE00000215160BBF83620E78A228340F2E243AC
:101CF00003FB07F73046BBF832300B9311F060FB63
:101D00009BF83F2096F8D410520962F3430186F8FD
:101D1000D41015F075FD0A9096F8D400C0F3420077
:101D200015F070FD0A9A104407FB00F0AE4A00F56A
:101D3000742000F23F20A2FB00207A08800C963A23
:101D4000206362639BF8312040F2E24303FB02F21E
:101D50006264BBF83820A6F892213946304611F06B
:101D60001BFBA24AA249C6F898113A44B2FBF7F20B
:101D700090B2A6F88C01218B01F1060C604504DDC0
:101D8000C1F57F41FA31014488B25A46A6F888016C
:101D900012F81C3FC3F34013D2070A9300F11581D8
:101DA0004FF48072ABF81C2099F81A0014F07EFFF3
:101DB000002800F0EA80DBF82420CBF82B20BBF8C9
:101DC0002820ABF82F20B8F1FF0F00F0F880BDF805
:101DD00044201098ABF82920CBF825009DF8372037
:101DE0008BF81E200E98BDF83C20CBF81F00ABF8F6
:101DF0002320E28AABF83220228BABF83420B6F8ED
:101E00009221ABF8362096F8D420C2F342028BF828
:101E1000382030460FF0CEFAA082ABF80600D5F895
:101E20000480504659460CF0C9FE1C23A28A88F84B
:101E300004300A9BD8F800A0A8F80620002B40F038
:101E4000B180DDF828B088F81CB0414650460CF04F
:101E5000C1FE94F86700B4F85CA0B4F85E8001217C
:101E600000F0070015F0FAFAD04408F2D51808EB94
:101E700000038246DFF87C815F480721E3FB08010D
:101E80004FF09613C4E9033355A3D3E90023FEF7BB
:101E9000A1FC20F07F407060EB680B98226B40F251
:101EA000E24101FB003404F2B3440221A41A0120F0
:101EB000BF1A00220AF0C4FE48460EF0E7FFA4EB6A
:101EC0000A0447A3D3E900238246A4FB0801FEF7D6
:101ED00081FCCDF80490AB684849009120F07F4820
:101EE0000AF10202363BD2B24344012100200CF039
:101EF00047F901286BD099F81830DB074AD43046EF
:101F00000FF058FA3B4CA7FB044935A3D3E9002353
:101F1000834649462046FEF75DFCAB68384A079287
:101F2000A3F1360A374B069620F07F47A7FB033113
:101F3000E01A354B05934FF4F873089373680493D4
:101F40004FF0070303FB071169EB010100244FF475
:101F50007A7200230394FEF73DFC0BF10305EDB20A
:101F6000CDE90170CDF8008053462A460121204674
:101F70000CF046F810F0FD0F2FD10122022110467F
:101F80000AF05EFE13B0BDE8F08FCBF82B00ABF883
:101F90002F0018E7002301220093184611460CF089
:101FA000B9F8ACE794F8273043F0400384F82730C1
:101FB000201D13F005FF4FF0010B208543E70021A2
:101FC000CBF82510ABF8291008E700DEE8E60CF0A6
:101FD00089FE81458FD000DE8DE700DECDE700BFB2
:101FE0008D49FD1A0700000083DE1B437FC3C90132
:101FF000404B4C0000CA9A3B8C49FD1A6D5C0100B5
:10200000BD5B01008D49FD1AE55B01000000000089
:10201000F0B5C468636883B00546002B54D116F050
:10202000C9FC002016F0EAFC0021084616F0D8FC96
:1020300000222521082016F03FFD414B019301A805
:1020400016F026FD3F4940F25B6016F0D7FD237A7B
:10205000C3F3420262F306132372204615F060FDBB
:1020600014F0ACFE637A03F0030348BBFBB92768A6
:102070002E68384615F0AAF906446A6806F1090187
:10208000012016F003FF16F0C3FF20460EF00AFFF2
:10209000811C3246C9B2384615F09AF9054600BB94
:1020A000204615F06FF9D0B9002003B0F0BD012033
:1020B00014F04AFB4178821C007816F087FED6E7C0
:1020C000181E18BF0120F3E793F82C309B07A6D009
:1020D0001D48214616F042FC16F03AFDE4E700DE0A
:1020E000E2E71A4A1A491B4840F2114320F02FF93F
:1020F000194B0721A5FB030301FB05310EA3D3E90F
:102100000023FEF767FB15490246154820F01FF92A
:10211000002585F31188BFF36F8F0323184602DF74
:102120001048214616F01AFC16F012FD6FF08B00D5
:10213000BBE700BFAFF3008000CA9A3B000000007D
:10214000D6BE898E5555550015750100446B0200A9
:10215000906B0200206902008D49FD1AD86C0200C4
:10216000946B0200117801002DE9F043C468A28A43
:102170004FF6FF739A4283B000F0FD80064615F0DB
:1021800083FF3389628B208C94F82710A3831A4431
:1021900092B2104480B2431C23840023638301F075
:1021A0003F034906E28300F1A48094F828100093CD
:1021B00004F1290004F1220313F0C4FD0546D4E91B
:1021C0000C31A26BA08BA36303FB0022E36B8A425A
:1021D00094BF9B185B188B4228BF0B46626CE3636D
:1021E000236C94F867101A4494F82C3061F30613AA
:1021F0000021C4E9101294F87E2084F82C3012F0EB
:10220000040200F0898016F0D5FB002016F0F6FBE2
:10221000201D16F03DFC2389A17A40F25B6043EA61
:10222000014116F0EBFC284615F0E2F8214658482B
:1022300016F094FBA08916F01DFE94F8662094F821
:102240006700C2F3C003002102F0070200F007009C
:1022500016F03AFD204615F0B1FFD4F8008037683B
:10226000404615F0B3F80744726807F109010020F1
:1022700016F00CFE814616F09FFE002016F0B6FE0A
:10228000E36B94F8670003F12F02636C012100F007
:10229000070003EB420516F04DFC4D44054494F84D
:1022A000670000F00700022834D004280CBF4FF468
:1022B000BC73282301211D4416F03EFC284416F06F
:1022C0006DFEA18A03313A46C9B2404615F080F846
:1022D0000546A8B1B37A13F002062BD000252D488D
:1022E000214616F03BFB16F033FC284603B0BDE850
:1022F000F083218D04F1220213F066FD05465EE7AE
:10230000204615F03FF800283CD10025284603B0B0
:10231000BDE8F0831823CDE7D4E91A010AF054FC94
:1023200000287FF470AF94F87E3043F0040384F803
:102330007E3068E7184A194919484FF4AC7320F009
:1023400006F818480721A5FB000301FB05310EA381
:10235000D3E90023FEF73EFA1349024613481FF063
:10236000F6FF86F31188BFF36F8F0323184602DF51
:102370006FF08B05B3E70E48214616F0EFFA16F022
:10238000E7FBC2E700DEC0E700CA9A3B000000009E
:10239000E1830100F1740100C06B0200906B020048
:1023A000206902008D49FD1AE46C0200946B020062
:1023B00015750100000000002DE9F04F31F00043D9
:1023C00087B081460E4607460C460DD180F4800743
:1023D0007F0017F5000F40F2528331464846FDF763
:1023E000E5FE07B0BDE8F08F20F00048B8F1FF4FE0
:1023F000014602D8B3F1FF4F08D9B7F17E5FECD1A7
:1024000084F48004640014F5000FE4E7002823DA64
:10241000B3F1974F80F03883B3F17E5F36D3DA158E
:10242000C2F1960243FA02F505FA02F29A4225D168
:1024300005F00105C5F10205B3F17E5F27D1002C3F
:102440007EDA00214846FEF74DF9C8B1F80F07B013
:10245000BDE8F04F1FF08CB9B3F1FF4F0ED1B8F1CA
:102460007E5F00F00C8304D9002C80F20B830020E7
:10247000B7E7002CFBDA06F10040B2E70025DBE706
:1024800049464FF07E50FEF74DF8AAE70025B4F11B
:10249000804F424640F0FE82B8F1BF4F20D2B8F1E3
:1024A000D05F04D949464846FDF788FF99E729F0EF
:1024B0000040B8F1000F40D0F90F013903912943D2
:1024C00024D0B3F19A4F40F2D780654B984539D864
:1024D000002C3CDA002007B0BDE8F04F1FF040B9F7
:1024E00027F0404CBCF17E5F29F000401AD1002C4F
:1024F00004DA01464FF07E50FEF714F8002FBFF6C5
:1025000070AFA8F17E5858EA050805D1484607B0D3
:10251000BDE8F04F1FF034B9012D7FF462AF00F138
:1025200000405EE7B8F1000FC6D1002C05DA17B104
:102530006B1E59425941084689E7012D7FF451AF7E
:1025400048464EE7474B984507D9002CC2DC00208F
:1025500007B0BDE8F04F23F05FBC4FF07E51FDF7B0
:1025600023FE41490746FDF729FF40498146384689
:10257000FDF724FF804638A1D1E90001FDF7C0FD39
:102580004FF07A5182463846FDF718FF0146504613
:10259000FDF70AFE3946FDF711FF01464FF07C506A
:1025A000FDF702FE394682463846FDF707FF014631
:1025B0005046FDF703FF2E49FDF700FF0146404658
:1025C000FDF7F2FD014680464846FDF7EFFD20F499
:1025D0007F6727F00F0749463846FDF7E5FD0146BE
:1025E0004046FDF7E1FD039B013D6FF30B041D43E6
:1025F0008046214630460CBF1E4D4FF07E55FDF7FC
:10260000D3FD3946FDF7DAFE314681464046FDF7F7
:10261000D5FE01464846FDF7C9FD21460646384627
:10262000FDF7CCFE014607463046FDF7BFFD00280A
:102630000446804620F0004340F34481B3F1864FC6
:1026400040F22D8100212846FEF756F8003818BFC9
:10265000012040E7AFF30080E13D55555555D53F8A
:10266000F3FF7F3F0700803F00AAB83F70A5EC361C
:102670003BAAB83F000080BF17F0FF4F40F00B812E
:102680004FF09741FDF79AFE6FF017010246D31500
:102690007F3B0B4496490293C2F316028A4242F0F2
:1026A0007E5308DD93498A4240F3F780029A013253
:1026B0000292A3F5000300278F4A049352F827B033
:1026C000184659469A46FDF76FFD514681465846D1
:1026D000FDF76CFD01464FF07E50FDF723FF0146EC
:1026E00005904846FDF76AFE0190019B83496FF310
:1026F0000B039846049B01EA630343F0005303F580
:10270000800303EB4753414618460493FDF756FEFA
:1027100001464846FDF748FD049B81465946184648
:10272000FDF742FD01465046FDF73EFD4146FDF7EF
:1027300045FE01464846FDF737FD059A1146FDF76F
:102740003DFE019983460846FDF738FE6C498146F7
:10275000FDF734FE6B49FDF729FD4946FDF72EFED6
:102760006949FDF723FD4946FDF728FE6749FDF756
:102770001DFD4946FDF722FE6549FDF717FD494657
:10278000FDF71CFE6349FDF711FD494682464846A8
:10279000FDF714FE01465046FDF710FE4146814606
:1027A0000198FDF703FD5946FDF708FE4946FDF780
:1027B000FDFC414682464046FDF700FE5649049026
:1027C000FDF7F4FC5146FDF7F1FC20F47F6929F098
:1027D0000F0941464846FDF7F1FD4F4980464846FE
:1027E000FDF7E2FC0499FDF7DFFC01465046FDF7DA
:1027F000DBFC0199FDF7E2FD494682465846FDF7AC
:10280000DDFD01465046FDF7D1FC834601464046BA
:10281000FDF7CCFC20F47F6929F00F093F494846B9
:10282000FDF7CCFD414682464846FDF7BDFC01461A
:102830005846FDF7B9FC3A49FDF7C0FD39498046D5
:102840004846FDF7BBFD01464046FDF7AFFC364B61
:1028500053F82710FDF7AAFC80460298FDF75AFDB1
:10286000324B53F827B0814641465046FDF79EFC57
:102870005946FDF79BFC4946FDF798FC20F47F671D
:1028800027F00F0749463846FDF78EFC5946FDF7FD
:102890008BFC5146A1E60021F9E601270CE74BD15C
:1028A00023493046FDF782FC394681462046FDF734
:1028B0007BFC01464846FDF73DFF00287FF4C2AE91
:1028C00086233EE01B4A934207D900212846FDF7A4
:1028D00013FF003818BF01203AE62DD13946FDF725
:1028E00063FC3146FDF71CFF0028E9D0EDE700BF8F
:1028F00071C41C00D6B35D005877020000F0FFDF02
:1029000042F1533E55326C3E05A38B3EABAAAA3E24
:10291000B76DDB3E9A99193F000040400040763F7A
:102920004F38763FC623F6B848770200507702004A
:102930003CAA383300001643B3F17C5F40F29B8021
:10294000DB157E3B4FF400041C414444C4F3C753E1
:1029500057497F3B19412140C4F31604C3F11703C3
:1029600044F400041C41B8F1000F3846B8BF64427B
:10297000FDF71AFC074631463846FDF717FC20F4F0
:102980007F6929F00F094B494846FDF717FD394685
:1029900080464846FDF708FC01463046FDF704FC3A
:1029A0004549FDF70BFD454906464846FDF706FD3E
:1029B00001463046FDF7FAFB074601464046FDF763
:1029C000F5FB41460646FDF7EFFB01463846FDF7AD
:1029D000EBFB314680463046FDF7F0FC38490746B0
:1029E000FDF7ECFC3749FDF7DFFB3946FDF7E6FC68
:1029F0003549FDF7DBFB3946FDF7E0FC3349FDF7D0
:102A0000D3FB3946FDF7DAFC3149FDF7CFFB3946F8
:102A1000FDF7D4FC01463046FDF7C6FB07460146EC
:102A20003046FDF7CBFC4FF0804181463846FDF73C
:102A3000BBFB01464846FDF775FD4146074630465B
:102A4000FDF7BCFC4146FDF7B1FB01463846FDF7FA
:102A5000ABFB3146FDF7A8FB01464FF07E50FDF77A
:102A6000A3FB00EBC453B3F5000F06DA21461EF0BA
:102A700033FE294618E500247DE71846F9E74FF0B4
:102A80007E50AEE43046ACE4B3F1FF4F3FF4E7AC28
:102A900042460225B4F17C5F7FF422AD002FFFF6A1
:102AA0001FAD484607B0BDE8F04F23F02EB900BF78
:102AB000000080FF0072313F1872313F8CBEBF357D
:102AC0004CBB31330EEADD3555B38A38610B363BEA
:102AD000ABAA2A3E2DE9F0410D46FDF71BFC2C491F
:102AE000FDF720FD2B49FDF769FC04462A48401BF1
:102AF000FDF710FC2649FDF715FD2649FDF75EFCA4
:102B000006461EF0B3FD054620461EF017FC804623
:102B100020461EF0ABFD074630461EF00FFC1F4955
:102B200006464046FDF74AFC1D4904463846FDF777
:102B300045FC3146FDF742FC01462046FDF734FBDB
:102B40001749184E04462846FDF738FC21461EF06A
:102B50004FFB1549FDF732FC002504462946204667
:102B6000FDF7CAFD40B90F4D0E492046FDF7D8FDCF
:102B700040B92046BDE8F08120463146FDF716FBFE
:102B80000446EBE720462946FDF70EFB0446EBE73B
:102B90008096184B35FA8E3C30899D08EBDB383F28
:102BA000AD18313F0000B443E12E65422DE9F04FEE
:102BB00097B00025AD4BAE4CAE49AF4E0293032209
:102BC0002B462846CDE900551FF09FFAAB49AC488B
:102BD0001FF0A7FB21463046FFF77CFFA949FDF710
:102BE000EDFBFDF7D7FDA84BA84A9D61C3E9002680
:102BF00040F654321A8280B26422C3E902451A7543
:102C0000A34C5882A34B2560C4E90135A24BE36075
:102C10000025A24B63612561A561FDF777FB99490A
:102C2000FDF780FC4FF07E5BE06125626562A56286
:102C300021F0E7FD4FF47A72A0FB0203944CC00B25
:102C400002FB013340EA43430F932368A06801333A
:102C50002360002800F0F7810F9B181AFDF756FB40
:102C60008F49FDF75FFC8F490546FDF745FD0028BC
:102C700040F0EC8159462846FDF75CFD00B15D4609
:102C80000E95D4F8108088494046FDF735FD0028A0
:102C900000F0DF8184494046FDF744FC00210546F1
:102CA000FDF72AFD00B1002580492846FFF784FB87
:102CB0007F49FDF783FB7F49FDF778FA7E49064699
:102CC0002846FFF779FB7D49FDF778FB01467C48F4
:102CD000FDF76AFAD4F818907A49054629F00040C1
:102CE000FDF720FC59460746FDF724FD002800F0BB
:102CF000E88158467449FDF761FB01465846FDF7E7
:102D000053FA7249FDF75AFB0E99FDF757FBD4F8B9
:102D100014A0074651463046FDF746FA06460146DE
:102D20003846FDF7E9FC00B13E4607F10047394659
:102D30003046FDF7E1FC002800F0C58138465146D9
:102D4000FDF734FA624B634A666803FB06260746C2
:102D500026F07F40FDF7DAFA4FF04E51FDF72EFBDB
:102D60005D49FDF72BFB5549FDF71EFA5B49FDF761
:102D700025FB5B498246206AFDF720FB0146504651
:102D8000FDF714FA014620623846FDF70FFA55495F
:102D90000746FDF7B1FC002800F09781514B1093D6
:102DA000109B384963611846FDF708FB23F005F8CE
:102DB00083B21193344B119A47491A820E98FDF74A
:102DC000FDFA494607462846FDF7EEF90546014655
:102DD0003846FDF791FC00B13D4607F10047394602
:102DE0002846FDF789FC002800F0718138464946E5
:102DF000FDF7DCF9364B374A03FB062605466660CD
:102E000026F07F40FDF782FA4FF04E51FDF7D6FADB
:102E10000146FDF7CBF95946FDF7C6F92F49FDF7F5
:102E2000CDFA2F490746606AFDF7C8FA01463846D1
:102E3000FDF7BCF9014660622846FDF7B7F9014687
:102E400005460E98FDF7BAFA4146FDF7AFF9264957
:102E50000746FDF76FFC002840F03D810021384611
:102E6000FDF74AFC002800F034813FE0B67B020009
:102E7000E7C8FF3A84610200C809D404DE7B02007F
:102E8000F37B0200000020417C110020D4C3B2A1DA
:102E90005011002078563412286B6E4E000091437A
:102EA00000007A440AD7A33C00803E45CDCC0C3FBD
:102EB0000000F04200009643CDCC4C3F0000404063
:102EC00000006041000040413333B33E0000A041A8
:102ED0000D6619005FF36E3C0000C0408FC2753D67
:102EE000D7A3703F0000C842004443460020A561BC
:102EF000206122F062FF794F794903B2BB812846F5
:102F00001493FDF75BFA22F058FFD7E9018503B26D
:102F1000FB8140461293FDF7FDF97249FDF702FB74
:102F20007149FDF74BFA014613907048FDF73CF9E3
:102F30004FF07C51FDF742FA1EF098FB1590139864
:102F40001EF0FCF981466A48401BFDF7E3F965492C
:102F5000FDF7E8FA6449FDF731FA4FF07C51FDF7CF
:102F60002DFA1EF083FB634982464846FDF726FA98
:102F70005146FDF723FA5146FDF720FA159982468E
:102F80000846FDF71BFA01465046FDF70FF915906C
:102F900022F0BBFE159982465846FDF705F922F04E
:102FA000B4FE014650461EF023F90146FDF7FEF837
:102FB0005149FDF703FA51498246FDF7A7FB002866
:102FC00000F0C080E0685146FDF7B4FB002800F037
:102FD000B9800F9BBB61C4F80CA0494B0F9A9A6053
:102FE0007B8A0D920A22B3FBF2F102FB11339BB2F2
:102FF000CDE90B13119BB3FBF2F102FB11339BB232
:10300000CDE90913129B93FBF2F102FB11331BB2C2
:10301000002BB8BF5B429BB2CDE90713149BCDF8E0
:103020001080CDE905533B680393364B0293002390
:10303000CDE900333449032218461FF066F83348BF
:1030400021F07BFAF4E5CDF838B01AE6304B0E9358
:1030500017E630494046FDF74FFBB0B12E494046D8
:10306000FDF7A2F82D49FDF75DFA2D490546FDF75C
:10307000A5F92C49FDF79AF82B4906462846FDF795
:103080009DF92A49FDF792F824E622494046FDF7CA
:103090008BF82749FDF746FA59460546FDF74AFBE6
:1030A00000B15D4623492846FDF788F92249FDF71E
:1030B0007DF8224906462846FDF780F94FF0824107
:1030C000E0E7384616E6304639E6109768E62846C7
:1030D0008DE638460BE71A4809E700BF7C1100204F
:1030E000000020418096184B35FA8E3C278D4E3FCC
:1030F00030899D08AD18313F706DC24A00409C4533
:1031000050110020177C02008461020040420F0031
:103110000AD7A33C9A99E44500803E459A598545D3
:10312000000008430000D243000040C000003041CE
:10313000CCECA14500008E4300000B440000A0C071
:1031400000444346584C29464046C4F80CA0FFF7BB
:10315000C1FC564B564A804603FB0620606020F0B7
:103160007F40FDF7D3F84FF04E51FDF727F9514955
:10317000FDF724F95049FDF717F85049FDF71EF9FE
:103180004F490646A06AFDF719F901463046FDF79A
:103190000DF8A06201464046FDF708F8494E80460A
:1031A000002421464046FDF7A7FA002870D1454C7F
:1031B00021464046FDF7B4FA00286FD13A4B424908
:1031C000C3F81C804046FDF7F9F822F0F6FD3F4BAE
:1031D0003F4958821098FDF7A5F90E99FDF7EEF8D2
:1031E0003C4904464046FDF7E9F806462846FDF707
:1031F00091F83949FDF796F93649FDF7DFF8374977
:1032000005464846FDF778FA30B135494846FDF79E
:1032100091FA08B1DFF8C490DFF8B0A030461EF094
:103220008DF8804630461EF021FA2E49064620468B
:10323000FDF778F94146FDF7C1F81399FCF7B6FFA1
:103240002949FDF7BBF82449FDF7B8F822F0B5FD90
:103250002449CAF8040080464846FDF7AFF8014605
:103260002046FDF75FF93146FDF7A8F82946FCF73F
:103270009DFF1D49FDF7A2F81749FDF79FF822F0C1
:103280009CFD0F9BCAF808000546CAF81830A4E652
:1032900040463146FCF78AFF804682E74046214699
:1032A000FCF782FF804683E7501100200D6619006D
:1032B0005FF36E3C9A9919409A99993F8FC2753D78
:1032C000D7A3703F0000B443000020417C110020D0
:1032D0006666664035FA8E3C8096184BBD3786355B
:1032E000BD3786B5706DC24AE12E65422DE9F04FBB
:1032F00085B004461EF019FFB0FA80F0C0F11F003F
:1033000004EB8006CD00D6F8109005F1040A0B46B8
:1033100006358FB2B9F1000F0BD1E268012181406F
:103320000A43E260336124F80A70675305B0BDE8D0
:10333000F08F4FEAC906043634F806B04FEACB08DE
:1033400008F1060834F80830994511D00C4B029367
:103350000023CDE9003318460A4901221EF0EFFE92
:10336000002383F31188BFF36F8F0423184602DF15
:1033700024F80AB024F8059024F80870A753D5E77C
:103380008E7C02006C6202002DE9FF4700EBC10356
:103390000446B3F80680414502F104090CD101232B
:1033A00003FA02F2C36823EA0203C360002340F871
:1033B000293004B0BDE8F087B3F804A04FEACA078B
:1033C00006374FEAC806C35B994206F1040602D1EC
:1033D000835B994211D000250B4B0293CDE9005538
:1033E0000A492B46012228461EF0A9FE85F31188C2
:1033F000BFF36F8F0423184602DF44F8298024F8B6
:10340000078024F806A0D4E78E7C02006C620200DC
:103410001FB500EBC10304465B88DB070A460ED4E8
:103420001EF088FE34F83030C01A814207D134F8DB
:1034300031102046511A1EF07DFE824211D0002428
:10344000094B0293CDE90044084923460122204656
:103450001EF075FE84F31188BFF36F8F04231846A6
:1034600002DF04B010BD00BFB27C02006C6202003B
:103470002DE9F043884685B0002900F0908004686B
:103480000E1F361BF50826F0070604EB0609B9F8EF
:10349000027017F0010711D1424B0391CDE901737E
:1034A000414900973B46012238461EF048FE87F30B
:1034B0001188BFF36F8F0423184602DF2946204688
:1034C0001EF038FE34F83030C01A854213D0002781
:1034D000364B0293CDE900773349CDF80C803B465B
:1034E000012238461EF02BFE87F31188BFF36F8F41
:1034F0000423184602DFA15B2046691A1EF01AFE5B
:10350000A84213D000272A4B0293CDE90077264921
:10351000CDF80C803B46012238461EF010FE87F3A2
:103520001188BFF36F8F0423184602DFB9F8023009
:1035300023F00103A9F80230294620461EF0FAFDC7
:1035400004EBC00307465B88DA070CD4014620462B
:10355000FFF75EFF394620461EF001FE3A46294637
:1035600020461EF048FEA65BAE1B04EBC6035B883C
:10357000DB070DD431462046FFF74AFF314620468F
:103580001EF0EDFD2A46314620461EF034FE35463B
:103590002946204605B0BDE8F043FFF7A7BE05B0B9
:1035A000BDE8F0834B7D02006C620200FB7C0200F0
:1035B000247D02002DE9F04714464A4202EA01093F
:1035C00031EA020203461AD04A46042A4F4628BF6F
:1035D0000422A1EB090909F1FF3A1AEA090F18D0F0
:1035E0003549364A36484FF4F5731EF0B0FE35487B
:1035F0001EF0ADFE31484FF4F5711EF09FFE042918
:1036000004D82146BDE8F0471EF026BE002704225C
:10361000E1E71CB900252846BDE8F0871E68A9EB44
:10362000020204F0070302F007010B330B44E10828
:1036300001EBD20101EBD301B368994228BF1946CF
:1036400030461EF099FD80460028E3D03D1D05EB75
:10365000C00535445544B5FBF9F509FB05F5ED1BEF
:103660002C442B1F07349B1B24F00704A41BB0EB36
:10367000D30F4FEAD3074FEAE40408D201463A4693
:1036800030461EF0CEFD41463046FFF72FFE39464C
:1036900030461EF04FFDA04207D9304622461EF0AC
:1036A000C0FD21463046FFF721FE06EBC7067388B2
:1036B00043F001037380AEE7937D0200707D02004A
:1036C000AE7D0200CB7D0200B2F5802F2DE9F843DC
:1036D0000ED33E493E4A3F4840F2DD231EF037FEFE
:1036E0003D481EF034FE40F2DD2139481EF026FE32
:1036F000042A0CD83949364A36484FF439731EF03B
:1037000026FE37481EF023FE4FF43971EDE7043AE8
:10371000CD1D114425F0070521F00706A6EB05088D
:10372000B8F1170F4FEAD8070CD82E49284A294874
:1037300040F2ED231EF00BFE29481EF008FE40F279
:10374000ED21D2E7B7FA87F4C4F12002C4F12404D2
:10375000A4000734E408631C4FF00009BB42056075
:10376000AF60C5F80C900CD91F49194A194840F2AE
:1037700003331EF0ECFD1A481EF0E9FD40F2033160
:10378000B3E74946920005F1100022F043FAA2B2D5
:10379000530043F001036B803B1B9BB205EBC4015C
:1037A0005800A5F80090488025F83420A6F802902B
:1037B00025F8083005EBC70321465A8842F001027C
:1037C0005A802846BDE8F843FFF790BDE87D020027
:1037D000707D0200AE7D0200FE7D0200157E0200BB
:1037E000367E02004F7E0200787E020008B5024855
:1037F0001EF097FD002008BDAB7E02002DE9F04FC2
:1038000091B08407009302F004030293C2F3C20351
:1038100003F10103DDF868A0039205460E46059307
:1038200040F0C881041D002838D101F00706341D7E
:10383000C6F10806009B4FF000085A1E04274FF0FF
:10384000FF330193CDF81080C146C3463B460DB10E
:10385000009921600598002800F3C18094480099E0
:10386000814203D393488142C0F0B980039911F09B
:10387000020CA4EB050040F0CB80B9F10F0F40F231
:10388000CA808D498D4A8E4840F281231EF05FFD2B
:103890008C481EF05CFD40F28121B6E00729C9D8B2
:1038A0006FF01B0011B0BDE8F08F7A285AD84B2872
:1038B0000FD8472856D829282DD825284FD051D899
:1038C000202818BF23280CBF4FF0010B4FF0000B2E
:1038D0006EE04C382E2845D8DFE800F06A444444B6
:1038E0004444444444444444474444444444444495
:1038F00044544447475454546A4768446A441847F8
:103900001844447C7A47444447447A0000204FF0EE
:10391000000B042734E02A38C0B2012101FA00F07C
:1039200010EA0E0F44D110F0625C2BD110EA010BAB
:103930003ED06046013C3C44B4FBF7F47C4325B1E7
:10394000A3EB050CA444B445AAD8002800F0978046
:103950000599013905915AF8041B009177E70199FF
:10396000013901914FF0000B22E012F8010C6C2894
:1039700032D112F8023C00206C2B8346C9D10827B3
:103980003B46D7E70AF1070A2AF0070A0734FAE8A4
:1039900002BC24F0070435B106982044B0423FF63B
:1039A0007FAFC4E900BC08344FF0000B08273B464A
:1039B00012F8010F002800F08980BBF1000F7FF49E
:1039C00074AF2528F4D1019B013301934FF0010B13
:1039D0000427ECE758469AE700208346AAE70399B4
:1039E00088072FD5601B4FF0010CB0F5007FFFF466
:1039F00044AF3149314A32484FF41F731EF0A7FCDF
:103A000031481EF0A4FC4FF41F712C481EF096FCA8
:103A10004FF0000CE9E705B309F140010DEB010E91
:103A2000C0F3870001990EF8200C0EF8101CBCF1B1
:103A3000000F0ED060F07F000EF8200C08F1010896
:103A400009F10109C5F10801043406914FF6DA7E47
:103A5000AEE7049801300490F2E7BCF1000F01D00A
:103A60000136EDE7029802360028E9D10098CDE949
:103A70000632FCF7D1FEDDE906320644E0E7042B0E
:103A800008D10AF1040015B1DAF8001021600434FD
:103A900082468DE70AF1070323F0070303F1080AC2
:103AA0001DB1D3E90001C4E90001083408237FE710
:103AB0003C5E020070C10200A7B10200E67E020077
:103AC000AE7D0200357F0200147F0200631BB3F558
:103AD000806F0CD339493A4A3A4840F2D2231EF05B
:103AE00036FC39481EF033FC40F2D2218DE71DB977
:103AF000A6F10804E018D5E6029A28609B082B700E
:103B00009DF81030BAB1EB7085F80280B8F1000F63
:103B100005D008A80022C5F1010791450DD1C5F1D6
:103B2000010308AF4FF0000A01930DF1300BD145AE
:103B300012D1601BB6E66B70E6E710F8013B190680
:103B400008D507EB040CB44503F07F033FF6A8AE9D
:103B500004F8013B0132E0E7B8F1000F03D097F918
:103B60000020002A16DB029BC3B11AF80B2004F8D0
:103B7000012B0022019B18191044B0423FF690AE71
:103B8000387804F8010B00990392204622F01BF8C4
:103B9000039A14440AF1010A0137C8E73A7855F844
:103BA00022300093029B45F822300098FCF734FE47
:103BB000421CDFE76FF00D0074E600BFA7B1020002
:103BC000E67E0200AE7D02004F7F0200014B1860CE
:103BD000704700BF680100202DE9F84F05460846F0
:103BE000AB8B1907904616D501280CBF43F0100384
:103BF00043F02003AB83143528461BF0BFF80028A0
:103C000040F0B181AE49AF4AAF484FF499731EF00E
:103C10009EFB29469DE0022803F0070140F07D81CC
:103C200028461EF0BCFB052800F2FA8001A353F8D9
:103C300020F000BFF73B00001B3F0000213E0000CA
:103C4000C53C00005F3D0000BF3D000002F00702E0
:103C5000531F012B1AD80023062A2E68A4B2C5E9E7
:103C6000003309D1334603E0EA8B0132EA831B6853
:103C7000002BF9D144F00204AC8328461EF08FFBE0
:103C8000002800F05A8144F0200455E1042A0DD1A7
:103C9000A4B2AC8328461EF082FB0646002800F042
:103CA0004C8144F02004AC83002646E18749884AD1
:103CB000854840F21B131EF04AFB40F21B1184485A
:103CC0001EF03CFB49B18349814A7F484FF4AB73F6
:103CD0001EF03DFB4FF4AB71F1E72B684BB97E4909
:103CE0007B4A794840F257131EF031FB40F25711DE
:103CF000E5E72B691F684FB97849754A72484FF458
:103D0000AD731EF024FB4FF4AD71D8E7AC8B24F0FB
:103D1000070444F00604A4B2AC830E468A464FF072
:103D20000609AB68002B00F00F814FF0010B44F047
:103D30000804AC8305F1140420461BF01FF800288A
:103D400078D15F495F4A60484FF499731EF0FFFADB
:103D5000214663481EF0FBFA4FF499718EE0022968
:103D600009D060495A4A584840F25D131EF0EFFAF4
:103D700040F25D11A3E7EE8B4EB15B49544A5248C5
:103D80004FF4AF731EF0E3FA4FF4AF7197E72B696E
:103D90005F684FB951494E4A4B4840F261131EF0DB
:103DA000D6FA40F261118AE7AC8B24F0070444F0A4
:103DB0000404A4B2AC83B2464FF00409B1E7012970
:103DC00009D04A49424A40484FF4B2731EF0BFFA44
:103DD0004FF4B27173E72B684BB93F493C4A3A48FC
:103DE00040F265131EF0B3FA40F2651167E72B69E4
:103DF0009F684FB93949364A33484FF4B4731EF0BF
:103E0000A6FA4FF4B4715AE7AC8B24F0070444F0DF
:103E10000504A4B20026AC83B2464FF0050980E742
:103E20002A492B4A284840F26B131EF090FA40F2C0
:103E30006B1144E788F31188BFF36F8FBBF1000F5C
:103E40001ED1002E33D117B129492846B847EFF3C8
:103E50001188202383F31288BFF36F8F20461AF056
:103E60007FFF00284AD1174A2249174884231EF0B1
:103E70006EFA214620481EF06AFA842111481FE795
:103E8000A9680029DDD0D1F800800029D9D0D1F867
:103E900004B053464A462846D847B8F1000F04D02C
:103EA000D8F8003041469846EFE74346FAE73146F6
:103EB00053464A46284636681EF09DFAC1E700BFC1
:103EC0005580020028800200AE7D0200A7B10200EA
:103ED000827F0200A77F0200B37F0200D67F02002C
:103EE0006C800200ED7F020003800200128002005D
:103EF000753F0000818002009680020020461AF083
:103F000053FFAC8B24F00804A4B2AC83E20621D5A5
:103F100024F01003AB8304F00701D5F818A0AA8B96
:103F2000BAF1000F22F00704BFF690AE00232E680E
:103F3000C5E9003344F00104AC8304F00709894566
:103F40004FF000077FF4EDAE0EB9002FDED04FF03A
:103F5000000BECE6A3067FF54EAE24F02003AB8306
:103F600004F007015CE688F31188BFF36F8FBDE8AA
:103F7000F88F00BFF8B504460D4600F11406EFF3C4
:103F80001187202383F31288BFF36F8F30461AF016
:103F9000E7FE68B90C4A0D490D4884231EF0D7F995
:103FA0000C4831461EF0D3F9074884211EF0C6F9AB
:103FB00030461AF0F9FEA5613A4620460121BDE8D7
:103FC000F840FFF709BE00BF288002008180020090
:103FD000AE7D0200968002002DE9F04704460E46B1
:103FE0001EF0F9F9051E66DB04F11409EFF3118ADE
:103FF000202383F31288BFF36F8F48461AF0B0FE78
:10400000804660B9374A3849384884231EF09FF902
:10401000494637481EF09BF98421324843E0484620
:104020001AF0C2FEE38BA78B4FF6FF72934207F0A4
:10403000070743D0062F2CD8DFE807F01F43092BD2
:104040001F041F006FF085054FF0000802E00133E8
:10405000E383022548461AF091FE002834D1214A14
:10406000244922484FF499731EF071F949462248B9
:104070001EF06DF94FF49971CFE700233360636848
:1040800023B9C4E9006687B13D46DDE71E6066607E
:10409000F9E71A4915481A4A4FF4E4731EF057F924
:1040A00017484FF4E4711EF049F9524602212046A8
:1040B000FFF792FD3D462846BDE8F0876FF00A0500
:1040C000C2E76FF00405BFE78AF31188BFF36F8F73
:1040D000B8F1000FEFD000233A46314620461EF0DB
:1040E0008AF9E8E72880020081800200AE7D0200A4
:1040F00096800200558002006C800200128002004F
:10410000827F0200F8B5054600F11406EFF311872F
:10411000202383F31288BFF36F8F30461AF020FEFE
:1041200060B9264A2649274884231EF010F93146F3
:1041300025481EF00CF9842120482BE030461AF067
:1041400033FEAC8B04F00704022C17D0012C0CBFFB
:104150006FF004046FF0850430461AF00FFE38BB90
:10416000164A1A4917484FF499731EF0F0F8314671
:1041700017481EF0ECF84FF49971DDE7EB8B5BB953
:1041800014491048144A40F2EF131EF0E0F81248A8
:1041900040F2EF111EF0D2F8013B9BB2EB83002BF3
:1041A000DAD13A4621462846FFF716FD2046F8BDEB
:1041B00087F31188BFF36F8FF8E700BF28800200F4
:1041C00081800200AE7D02009680020055800200D0
:1041D0006C800200AC800200827F02002DE9F04179
:1041E0000F460546002850D000294ED000F1140695
:1041F000EFF31188202383F31288BFF36F8F3046CB
:104200001AF0AEFD60B9224A2249234884231EF0E9
:104210009EF8314621481EF09AF884211C4817E088
:1042200030461AF0C1FD39462846AC8B1EF09CF88A
:1042300080B104F00704231F022B0DD9184916483A
:10424000184A40F22D231EF082F8164840F22D2124
:104250001EF074F86FF0770430461AF08FFD68B9DD
:104260000B4A11490C484FF499731EF070F831460F
:104270000E481EF06CF84FF49971CFE788F311885F
:10428000BFF36F8F2046BDE8F0816FF01504F9E7AA
:104290002880020081800200AE7D0200968002002C
:1042A000BA800200827F0200558002006C8002000A
:1042B00008B54268816002F00302032A03460AD06F
:1042C0006AB908490848094A45231EF040F80748DA
:1042D00045211EF033F8006800225A6008BD002016
:1042E000FAE700BFA7B10200AE7D020031810200F3
:1042F00008B558B907490848084A40F235131EF076
:1043000026F8064840F235111EF018F8436858792F
:1043100008BD00BF8F810200AE7D02005781020000
:1043200010B548B908490948094AA0231EF00FF8FA
:104330000748A0211EF002F803681B6913B1BDE80D
:1043400010401847184610BD8F810200AE7D020054
:10435000578102002DE9F84FDFF8ECA0DFF8EC8080
:10436000AAEB08038F2B81460F460BD93849394AEF
:10437000394840F253131DF0EAFF40F2531135481B
:104380001DF0DCFF35481EF075F8064650B3BDE859
:10439000F88F237B8BB12368DB680BB120469847ED
:1043A0006368204683F806B0FFF7BAFFB0B96368C8
:1043B0000422196820461EF082F801361034544554
:1043C00015D92749234A244840F25F131DF0BFFF47
:1043D00024481DF0BCFF40F25F11D0E70BFA06F352
:1043E0001D43EAE7444605464FF0010BE7E7D0D30B
:1043F000B9F1000FCBD04FF00109002DC7D02E46E8
:1044000095FAA5F4B4FA84F409FA04F308EB041459
:104410006FEA030A25EA0305237B5BB12046FFF719
:104420007FFF38B9636804221968204606EA0A0645
:104430001EF045F8002DE3D127B14FF4A470002100
:104440001AF02EFA3546D8E79C6202008C62020010
:10445000D3810200A6810200AE7D0200A0110020DF
:104460000382020024820200014B53F820007047AF
:104470003863020008B5034608462BB1044A1360AE
:1044800000F0EAFA002008BD6FF01500FBE700BF5E
:1044900070010020144A1548002310B51370144A07
:1044A0001360144A4FF400411360FFF7E3FF124B0F
:1044B000124918468B4215D91149124A124840F246
:1044C0002B131DF044FF11481DF041FF0D4840F231
:1044D0002B111DF033FF1A1A5C6812110132227180
:1044E0001033E7E7F7D310BD4C31002071240200F0
:1044F000981100209C1100208C6202009C62020036
:1045000003820200A6810200AE7D02002482020026
:1045100070B5134D297811BB0120FFF71BFF114C1B
:10452000114EB44218D91149114A124840F2CF1322
:104530001DF00DFF10481DF00AFF0D4840F2CF118D
:104540001DF0FCFE2046FFF7D3FE18B1236820467D
:104550009B6898471034E4E7F4D301232B7070BDB7
:104560004C3100208C6202009C6202000382020037
:10457000A6810200AE7D02002482020010B504462E
:1045800008481DF077FF5CB1BFF35B8F064B53E823
:10459000001F013943E80012002AF8D1BFF35B8FF6
:1045A00010BD00BF981100209C11002070B5154B64
:1045B0001B6805469847A860134BBFF35B8F1B68C9
:1045C000BFF35B8F114C124EB44219D91149124AF4
:1045D000124840F20A231DF0BAFE11481DF0B7FE42
:1045E0000D4840F20A211DF0A9FE2046FFF780FE8B
:1045F00020B1236829461B68204698471034E3E71A
:10460000F3D370BD700100206C0100208C620200A9
:104610009C62020003820200A6810200AE7D0200BD
:1046200024820200044A054B9B1AB1EBD30F34BF1E
:1046300052F8310000207047846102008C62020051
:104640002DE9F04F87B004AFD7E90EBA3E6B0546AF
:10465000884614469946BBF1000F2CD0C7F804A039
:10466000CDF800A07A6B5B4610210020FFF7C6F85A
:1046700000280BDA29492A4A2A484FF4B4731DF05E
:1046800066FE4FF4B47126481DF058FEB0F5006F79
:10469000014612D340F2FF730393234B029300238E
:1046A000CDE900332149022218461DF02AFF0C37BC
:1046B000BD46BDE8F08F5946584604F0070205F0A4
:1046C0000704E40044EA821444EA402444EA06541D
:1046D00017360E4426F00706ADEB060D04ADBBF110
:1046E000000F13D0CDF800A07A6B5B4605F11000E7
:1046F000FFF784F8002809DA0849094A094840F216
:104700008D131DF024FE40F28D11BCE74B4622466E
:10471000414628461DF0DCFEC9E700BF7C8202004E
:1047200050820200AE7D02008682020034620200E6
:10473000406820B1034BC01A40F3CF0070474FF0E0
:10474000FF307047846102000EB403B503AB01462D
:1047500053F8042B0448019301F0B8F902B05DF856
:1047600004EB03B0704700BF3F250200CA0605D422
:104770008B064CBF02490349FFF7E6BF704700BFF5
:10478000E0B30200BE8202002DE9F04F89B004467A
:104790009DF85070DDF858A0DDF8608005920D4658
:1047A0009946002F00F0AC80914B042FDB5D0693FF
:1047B0000BD99049904A91484FF418731DF0C7FDEA
:1047C0004FF418718C481DF0B9FD08F480730793FD
:1047D0001DF073FE08F0020B024600285DD08849E8
:1047E0002046FFF7B1FF0646BBF1000F08D018F0D6
:1047F000440F54D183492A462046FFF7A5FF0644BB
:1048000008F0010353B1804B804953F82720804BB7
:104810002046002A08BF1A46FFF796FF08F4807367
:10482000002B08F0080318BF4FF00009002B62D0DE
:10483000784B794953F827202046FFF785FF054636
:10484000059B2BB175491A462046FFF77DFF0544AD
:10485000B9F1000F0CD0069B002B4FD07049714B63
:10486000042F18BF19464A462046FFF76DFF05443E
:104870006D483544159B002B48D06C4922461DF0ED
:104880001BFD002842DA6A495B4A5C4840F2BD23BE
:104890001DF05DFD40F2BD2194E70646A4E7654B9F
:1048A00018680028ABD0644B4FF47A7B1B68B5FBCB
:1048B000F3F54FF46163B5FBF0F100FB11550BFB11
:1048C00005F54FF03C0CB1FBF3F203FB1211B5FB05
:1048D000F0FEB1FBFCF300FB1E550CFB13110BFBB0
:1048E00005F50091B5FBF0F55449CDE901E5204609
:1048F000FFF72AFF83E708F00805A1E74949B2E777
:10490000012B0CBF48484E483D46B3E7179B002B90
:1049100054D0DDF85C904146B9F1100F204628BF15
:104920004FF01009FFF722FF0026B54218DC0026E1
:1049300033461AF8032043492046FFF705FF0136A6
:10494000102E13D0720703D13F492046FFF7FCFE1B
:10495000B1453346EDD83D492046FFF7F5FEEEE779
:1049600039492046FFF7F0FE0136DEE73849204698
:104970000026FFF7E9FE33461AF803203549A2F175
:1049800020035F2B28BF2E222046FFF7DDFE0136D5
:10499000102E0DD0730703D12B492046FFF7D4FE0C
:1049A000B1453346E8D828492046FFF7CDFEEEE76B
:1049B000179BB3EB0903CA441793AAD15FB118F050
:1049C000010F04D0124A11492046FFF7BDFE4146AF
:1049D0002046FFF7CBFE6268A1682068D2E9002379
:1049E0001DF09FFD636800221A6009B0BDE8F08FDA
:1049F00043BE0200FE820200CF820200AE7D0200B2
:104A0000098302000D8302004863020077920200CE
:104A1000C18202005C63020032830200388302001C
:104A2000C6820200CA8202003F250200CD5A000061
:104A30003C830200A8110020A4110020168302006C
:104A40005B250200458302004D8302004B83020078
:104A50004F83020051830200074A00210123904244
:104A600006D8064A01B901231360054B1860704748
:104A700040085B000121F2E740420F00A411002032
:104A8000A8110020F8B5074F0D4604464618B44259
:104A900001D12846F8BD14F8011BBB6801485B68CA
:104AA0009847F4E7445F020010B543681C68094862
:104AB0001FF047FD48B908490848094A99231DF0E5
:104AC00046FC074899211DF039FC23685B685C604F
:104AD00010BD00BF445F0200B2830200AE7D020041
:104AE00074830200014B036000207047A46302003E
:104AF00010B5DFF824C086B04FF42814CDE904C403
:104B00000824029404AC0194BDF8204000941EF0E7
:104B1000F1FE06B010BD00BF1800280080B50546A4
:104B20000E461746984619F0B7FF034600F0A8FD59
:104B3000DFF83C90044649F800304246394630469A
:104B4000A8470C4B1B7873B90B490C4A0C4840F230
:104B500046331DF0FCFB0B481DF0F9FB074840F203
:104B600046311DF0EBFB54F8090000F025FD00BFB5
:104B7000080000000A32002011840200E6830200CF
:104B8000AE7D02002484020008B50348034A0021D8
:104B9000121A1DF088FD08BD600600200C320020AE
:104BA0000748084A084908B5121A1DF07EFD074853
:104BB000074A0849BDE80840121A1DF076BD00BF3B
:104BC000000000206006002070C1020000000020EC
:104BD0000000002070C1020070B5064686B00D4688
:104BE000002938D08B6805934B6804930B680393B6
:104BF0000024244B24490293012223462046CDE978
:104C000000441DF054FD6B6905932B690493EB6818
:104C100003931E4B1C490094CDE901430122234616
:104C200020461DF044FDEB690393194B164900948F
:104C3000CDE901430122234620461DF038FDAB6932
:104C40000393144B10490094CDE9014301222346FC
:104C500020461DF02CFD012E0DD1EFF30583103BF6
:104C600003930D4B02930023CDE9003306493246EE
:104C700018461DF01CFD2946304606B0BDE87040C0
:104C800016F0B8BE46840200646202007584020019
:104C9000A4840200B3840200E184020030BFFFF765
:104CA000FDBF00BF2DE9F0410B4EDFF8308006EB71
:104CB0000807CC1B054632460949204620F083FFF1
:104CC000A01942460021083C20F0A4FF2C6707F100
:104CD0000800BDE8F08100BF0000000008000000EF
:104CE0009C6202002DE9F04385B00024564B0293EC
:104CF000CDE900442346804689462046534916465E
:104D000001221DF0EFFC524B9B6AD80640D5514B57
:104D10000094CDE90143204623464C4901221DF071
:104D2000E1FC11244A4B9B6A19070AD54A4B0293AE
:104D30000023CDE900334549012218461DF0D2FC7D
:104D40001224434DAB6A9A0724D50024434B0293A7
:104D5000CDE9004423463D49012220461DF0C2FC16
:104D60006F6BAB6A1B0659D53D4B38490397CDE9AC
:104D7000014300942346012220461DF0B3FCB9F103
:104D8000000F03D0AB6A23F08003AB62132403E06F
:104D90001024C7E76FF015072D4B9B6AD8070AD57B
:104DA000304B02930023CDE90033284901221846F5
:104DB0001DF098FC1424264B9B6A99060AD52A4BB1
:104DC00002930023CDE900332049012218461DF04B
:104DD00089FC15241E4DAB6ADA0602D4AB6A9B0728
:104DE0000AD56B68180507D54146384600F09AFB8E
:104DF000B8B180F309880224154B9A6A920642BF23
:104E00005A6A22F400525A629A6A42F0FF029A6287
:104E100020460023337005B0BDE8F0836FF015071E
:104E2000B4E7AB6AD906E7D51049114A114840F2F8
:104E300027131DF08CFA10481DF089FA0C4840F237
:104E400027111DF07BFA00BFF484020064620200A7
:104E500000ED00E00A8502003D8502005085020059
:104E6000688502007E8502009D850200FE850200A5
:104E7000CC850200AE7D0200488602001FB50024EA
:104E8000374B029301222346CDE9004435492046A1
:104E90001DF028FC344B9B6A9A015ED5334B314997
:104EA0000094CDE901432046234601221DF01AFC5F
:104EB0001E202D4B9B6ADB010AD52D4B029300234C
:104EC0001846CDE90033274901221DF00BFC1F20B5
:104ED000254B9B6A1C030AD5264B029300231846D8
:104EE000CDE900331F4901221DF0FCFB21201E4BA0
:104EF0009B6A59030AD5204B029300231846CDE93B
:104F00000033184901221DF0EDFB2220164B9B6A4D
:104F10009A030AD5194B029300231846CDE90033B2
:104F2000104901221DF0DEFB23200F4B9B6ADB039F
:104F30000AD5134B029300231846CDE900330949E3
:104F400001221DF0CFFB2420074A936A6FEA034336
:104F50006FEA1343936204B010BD1D20A9E700BFA0
:104F60006B8602006462020000ED00E083860200AE
:104F700096860200B0860200CE860200F38602000A
:104F80000D870200F0B585B00024434B0293CDE9B4
:104F90000044234607460E460122404920461DF0A4
:104FA000A1FB3F4B9B6ADB0465D53E4B3B4900941C
:104FB000CDE901432046234601221DF093FB172033
:104FC000374B9B6A1D050AD5374B029300231846C1
:104FD000CDE90033314901221DF084FB1820304D0A
:104FE000AB6A9C051FD50024304B02930122234657
:104FF0002046CDE9004429491DF074FBAB6BAA6A39
:1050000010040FD503932A4B24490094CDE90143A2
:105010000122234620461DF065FB1FB1AB6A23F435
:105020000043AB6219201E4B9B6A59050AD5214BE0
:10503000029300231846CDE90033184901221DF0E0
:1050400051FB1A20164A936A13F4807315D01A4B39
:10505000029300231846CDE90033104901221DF0C8
:1050600041FB1B200E4A936A43F47F439362002363
:10507000337005B0F0BD1620A2E7926A9204F1D514
:105080000E4A06490093CDE90132184601221DF06F
:1050900029FB1C20E6E700BF38870200646202009B
:1050A00000ED00E04E8702003D8502005F870200B0
:1050B000788702008D870200A88702009D85020084
:1050C0002DE9F0418D4B0446586890B0C0F30806B6
:1050D000002383F31188BFF36F8F02F07F45B5F192
:1050E0007F4F0CD102F00C05082D17D1844A854959
:1050F0000093CDE90132184601221DF0F3FA8249EE
:10510000824A834840F21B431DF021F981481DF07B
:105110001EF940F21B417D481DF010F9120746BFF1
:105120000C461D460125002CE9D00027F31E8DF802
:105130001F70092B00F2CA80DFE803F005BEC2A190
:10514000C8C8C8C8C8C6744B6E49DFF8B08100979C
:10515000CDE901730023012218461DF0C3FA8DF832
:105160001F70D8F82C6016F0020604D06B4B009725
:10517000CDE9017307E0D8F82C30002B0BDA684B2F
:105180000096CDE9016300235E49012218461DF017
:10519000A9FA002239E0D8F82C305B007FD5614BAA
:1051A00058490096CDE901630122334630461DF08F
:1051B00099FAD8F81430A26943F48073C8F814300F
:1051C000BFF34F8FBFF36F8F32F8023CD8F8142033
:1051D00022F48072C8F81420BFF34F8FBFF36F8F93
:1051E00003F47F42B2F55F4F2FD1DBB2022B2CD1FB
:1051F000236803934C4B43490096CDE90163012298
:10520000334630461DF06EFA22689DF81F30CBB948
:1052100008AE04F1200720686168334603C30834F0
:10522000BC421E46F7D10F9B002D63D0C3F308018B
:1052300021B96FEA53236FEA43230F9308A910465D
:10524000FFF7CAFC10B0BDE8F0812C4B9A6AD2B2CD
:105250003AB10DF11F0201212046FFF743FD02463E
:10526000D3E79A6A12F47F4F05D00DF11F01012098
:10527000FFF788FEF3E79B6AB3F5803F02D3FFF7A1
:10528000FDFDECE72949214A214840F2ED231DF0BC
:105290005EF827481DF05BF840F2ED213BE723491B
:1052A0001A4A1B484FF43C731DF051F821481DF079
:1052B0004EF84FF43C712EE70DF11F020021CBE7B1
:1052C0000DF11F010020D3E71B4B50E71B4A1C4B7D
:1052D0000C4910F4F87F08BF1346103ECDE90336A1
:1052E000184B02930023CDE90033012218461DF02C
:1052F000F9F94EE76FF308039FE700BF00ED00E008
:10530000EE8702006462020019880200CC85020068
:10531000AE7D02002C8802006A88020081880200AB
:10532000A2880200B0880200CF880200A7B1020064
:10533000EB8802000F8902003F890200C08702004B
:10534000D587020063890200044B5A6942F01002BB
:105350005A615A6922F008025A61704700ED00E074
:10536000EFF30880EFF3098101B57246FFF7A8FE5D
:1053700001BD00BF0B4880F3088815F0DFFA20203C
:1053800080F3118808484FF40461401880F30988BD
:10539000EFF314800221084380F31488BFF36F8F6A
:1053A00000F088F8C0530020004200201EF0040FD7
:1053B0000CBFEFF30880EFF30980816911F8021C3C
:1053C0000229FFD001B572461DF081F901BD00BF71
:1053D00040B2002807DB044A4109012300F01F0006
:1053E000834042F82130704700E100E040B20028DD
:1053F0000CDB4309064900F01F00203301228240E4
:1054000041F82320BFF34F8FBFF36F8F704700BF6A
:1054100000E100E0054B420900F01F0053F8222094
:10542000012303FA00F01040704700BF00E100E0E4
:1054300038B54B1C072B04460D460FD9114A1249AB
:1054400012486B231CF083FF11482946072322468C
:105450001CF07DFF0B486B211CF070FF40B2002850
:10546000ACBF00F160400B4A4FEA4313B8BF00F0F5
:105470000F00DBB2AABF00F56140135480F800337F
:1054800038BD00BF76890200AD890200AE7D020002
:10549000C889020014ED00E0044B054A23F07F03A5
:1054A0009360BFF34F8FBFF36F8F70470000000012
:1054B00000ED00E008B5FFF7EFFF0B4AD2F88830A7
:1054C00023F47003C2F88830EFF3148323F004034D
:1054D00083F31488BFF36F8FFFF756FBFFF760FB72
:1054E00000F0B0F816F0D4FB00ED00E042F8203CEC
:1054F000009B42F81C3C0A49019B42F8183C029B65
:1055000042F8143C21F001014FF0807342F8043C52
:1055100042F8081C0023203A02654367704700BF29
:105520001D4B0000094A0346906870B113F1160F35
:10553000006E05D0A0F14002934205D3834203D20E
:10554000814228BF0020704700207047442A002075
:1055500008B515460B4A0C4B9060026F1A600E4658
:1055600000F0A0F82C4686F309880020034B9847EA
:105570002046002100220023014C2047132702006F
:105580001D4B0000442A0020D0110020014B1022A6
:105590001A61704700ED00E0054B5A699B689A421A
:1055A0001FBF044A536843F080535360704700BFE5
:1055B000442A002000ED00E0084B9B6883420BD199
:1055C000EFF3058343B1064B5A6842F080525A60AC
:1055D0005A6A22F400425A6218F0D0BA442A0020D3
:1055E00000ED00E014498A684FF030001044EFF3FA
:1055F000098C80E8F01F202080F31288BFF36F8FA2
:105600000E4F4FF000664A698A603E60106F0C4C86
:105610002060506F0023536780F3118804B5104653
:1056200000F040F8BDE8044002F1300090E8F01FBF
:105630008CF3098870470000442A002004ED00E044
:10564000D0110020044800232021C2180133302B40
:1056500082F80013F9D1704700E100E008B5EFF3DC
:105660000583064A103B02EBC30152F83300496838
:105670008847BDE80840FFF78FBF00BF7C5F02008E
:105680000148006870470000D0110020024B034A17
:105690000348012100F096B800000420000000201B
:1056A00030640200036E054A403B1360044B402106
:1056B000C2E901131046012100F0AAB8D41100205C
:1056C00000000B151FB5144AD2F89030C3F307231E
:1056D000013B98420FD9114B029300230390CDE96F
:1056E000003318460E4901221DF046F86FF01500F0
:1056F00005B05DF804FBC2F898000B6823F01F03A7
:10570000034343F01003C2F89C308B6843F001035D
:10571000C2F8A030ECE700BF00ED00E00C8A020008
:105720004C620200F0B50E4689B01F4604460025C3
:10573000B54212DA606838B3BFB1431E18420FD0C9
:10574000134B02930023CDE9003312490395012244
:1057500018461DF011F86FF01502104609B0F0BDA3
:105760001F28EDD921680B42EAD1236805931CF06C
:10577000F3FFA36805A90343D0B20793FFF7A2FF85
:1057800010F1160FE7D0421C01350C34D0E700BFF2
:10579000328A02004C620200044B0522C3F89420B6
:1057A000BFF34F8FBFF36F8F704700BF00ED00E076
:1057B000BFF35F8F024B0022C3F89420704700BFF5
:1057C00000ED00E038B50D4D01232A780C46FFF7B7
:1057D000A9FF287016300FD1094A0A490A4840F239
:1057E00089131CF0B4FD094821461CF0B0FD0448A3
:1057F00040F289111CF0A2FD38BD00BF4E310020DF
:10580000588A0200A7B10200AE7D0200878A02001A
:1058100010B5144A002312780C46FFF783FF10F1ED
:10582000160F08D0104A0021D2F89030C3F3072396
:10583000984210DB10BD0D4A0D490E484FF4D47349
:105840001CF085FD0C4821461CF081FD07484FF4F3
:10585000D4711CF073FDC2F89800C2F8A01001309A
:10586000E2E700BF4E31002000ED00E0588A020060
:10587000A7B10200AE7D0200B38A02002DE9F04F0D
:10588000834C8449D4F890300D68C3F307239D42BC
:1058900085B013D9804A8149814840F202231CF027
:1058A00056FDD4F890207F482946C2F307221CF009
:1058B0004EFD40F2022178481CF040FDFFF778FFD2
:1058C00049680022954201F10C012DD1764F774CA9
:1058D0003D706846FFF706F9754D764E81464FF0EC
:1058E0000008C14533D13B7869490020D1F89020A8
:1058F000C2F307229342C0F2C180FFF74DFFD1F8F7
:10590000903003F47F43B3F5006F00F0BD806A4927
:10591000614A634840F27D231CF019FD67481CF082
:1059200016FD40F27D21C6E7C4F8982051F80C3CE2
:1059300023F01F03134343F01003C4F89C3051F8C5
:10594000043C43F00103C4F8A0300132BAE7009AE6
:1059500002EB08134FEA0811D3F80CA00AEA04007E
:10596000B0F5000F66D00BD8B0F5001F3CD0B0F5F5
:10597000800F52D0B0F5801F16D008F10108B0E7B3
:10598000B0F1007F61D0B0F1805F69D0B0F1807F6D
:10599000F3D19868D3F804A052581CF0DDFECDE98D
:1059A00001A240F088700BE09868D3F804A0525828
:1059B0001CF0D2FECDE901A240F0885040F4302026
:1059C0000390387801A9FFF77DFE002852DA3349A9
:1059D000314A334840F235231CF0B9FC38481CF0FA
:1059E000B6FC40F2352166E79868D3F804B0525807
:1059F0001CF0B2FE1AF0010F40EA0600CDE901B238
:105A00000390DED02F49244A254884231CF09FFCB4
:105A10002D481CF09CFC84214DE79868D3F804A025
:105A200052581CF099FE40F0C060CDE901A240F44C
:105A30000030C5E79868D3F804A052581CF08CFEDB
:105A4000CDE901A240F08270BAE79868D3F804A0CB
:105A500052581CF081FECDE901A240F48020AFE74E
:105A60009868D3F804A052581CF076FECDE901A244
:105A70002843A5E73B7801333B707EE7C1F89830B7
:105A8000C1F8A000013331E7002005B0BDE8F08F78
:105A900000ED00E03C640200588A0200A7B1020059
:105AA000AE7D0200E08A02004E3100200000F0FFCF
:105AB0000000021100000811938B0200E38B02002A
:105AC000698B0200148B02003A8B0200F0B587B09C
:105AD00007460E4614460021102268461D4620F057
