:10000000C05A0020854D0000D1470200714D00000C
:10001000714D0000714D0000714D000000000000A6
:10002000000000000000000000000000BD4D0000C6
:10003000714D000000000000F54F0000714D000000
:100040006D500000918E01006D5000006D50000059
:100050006D5000006D5000006D5000006D500000AC
:100060006D5000006D5000006D5000006D5000009C
:100070006D5000006D5000006D5000006D5000008C
:100080006D5000006D5000006D5000006D5000007C
:100090006D5000006D5000006D5000006D5000006C
:1000A0006D5000006D5000006D5000006D5000005C
:1000B0006D5000006D5000006D5000006D5000004C
:1000C0006D5000006D5000006D5000006D5000003C
:1000D0006D5000006D5000006D5000006D5000002C
:1000E0006D5000006D5000006D5000006D5000001C
:1000F0006D5000006D5000006D5000006D5000000C
:1001000080F0004002E000BF81F0004142001FBFCC
:100110005FEA410392EA030F7FEA226C7FEA236CD5
:100120006AD04FEA1262D2EB1363C1BFD2184140CA
:1001300048404140B8BF5B42192B88BF704710F060
:10014000004F40F4000020F07F4018BF404211F003
:10015000004F41F4000121F07F4118BF494292EA6B
:10016000030F3FD0A2F1010241FA03FC10EB0C0097
:10017000C3F1200301FA03F100F0004302D5494224
:1001800060EB4000B0F5000F13D3B0F1807F06D3D1
:1001900040084FEA310102F10102FE2A51D2B1F1C9
:1001A000004F40EBC25008BF20F0010040EA0300BE
:1001B0007047490040EB0000013A28BFB0F5000F3E
:1001C000EDD2B0FA80FCACF1080CB2EB0C0200FAF4
:1001D0000CF0AABF00EBC25052421843BCBFD04043
:1001E0001843704792F0000F81F4000106BF80F4BD
:1001F00000000132013BB5E74FEA41037FEA226C80
:1002000018BF7FEA236C21D092EA030F04D092F04A
:10021000000F08BF0846704790EA010F1CBF00207E
:10022000704712F07F4F04D1400028BF40F00040DB
:10023000704712F100723CBF00F50000704700F0FB
:10024000004343F0FE4040F4000070477FEA226222
:1002500016BF08467FEA23630146420206BF5FEAF3
:10026000412390EA010F40F4800070474FF00003F3
:1002700004E000BF10F0004348BF40425FEA000CBA
:1002800008BF704743F0964301464FF000001CE062
:1002900050EA010208BF70474FF000030AE000BFB8
:1002A00050EA010208BF704711F0004302D54042F6
:1002B00061EB41015FEA010C02BF84460146002068
:1002C00043F0B64308BFA3F18053A3F50003BCFA83
:1002D0008CF2083AA3EBC25310DB01FA02FC634430
:1002E00000FA02FCC2F12002BCF1004F20FA02F237
:1002F00043EB020008BF20F00100704702F120022A
:1003000001FA02FCC2F1200250EA4C0021FA02F28A
:1003100043EB020008BF20EADC7070474FF0FF0C8F
:100320001CEAD0521EBF1CEAD15392EA0C0F93EA8A
:100330000C0F6FD01A4480EA010C400218BF5FEA2C
:1003400041211ED04FF0006343EA501043EA51119F
:10035000A0FB01310CF00040B1F5000F3EBF490099
:1003600041EAD3715B0040EA010062F17F02FD2A9D
:100370001DD8B3F1004F40EBC25008BF20F0010080
:10038000704790F0000F0CF0004C08BF49024CEA97
:10039000502040EA51207F3AC2BFD2F1FF0340EA29
:1003A000C250704740F400004FF00003013A5DDC9A
:1003B00012F1190FDCBF00F000407047C2F10002DB
:1003C000410021FA02F1C2F1200200FA02FC5FEAC8
:1003D000310040F1000053EA4C0308BF20EADC7012
:1003E000704792F0000F00F0004C02BF400010F484
:1003F000000F013AF9D040EA0C0093F0000F01F031
:10040000004C02BF490011F4000F013BF9D041EA52
:100410000C018FE70CEAD15392EA0C0F18BF93EA54
:100420000C0F0AD030F0004C18BF31F0004CD8D17E
:1004300080EA010000F00040704790F0000F17BF05
:1004400090F0004F084691F0000F91F0004F14D04B
:1004500092EA0C0F01D142020FD193EA0C0F03D1A3
:100460004B0218BF084608D180EA010000F00040A6
:1004700040F0FE4040F40000704740F0FE4040F481
:10048000400070474FF0FF0C1CEAD0521EBF1CEA20
:10049000D15392EA0C0F93EA0C0F69D0A2EB03023E
:1004A00080EA010C49024FEA402037D04FF08053D8
:1004B00043EA111143EA10130CF000408B4238BF9D
:1004C0005B0042F17D024FF4000C8B4224BF5B1AAB
:1004D00040EA0C00B3EB510F24BFA3EB510340EAF9
:1004E0005C00B3EB910F24BFA3EB910340EA9C00A7
:1004F000B3EBD10F24BFA3EBD10340EADC001B0117
:1005000018BF5FEA1C1CE0D1FD2A3FF650AF8B42BA
:1005100040EBC25008BF20F0010070470CF0004CC7
:100520004CEA50207F32C2BFD2F1FF0340EAC250F2
:10053000704740F400004FF00003013A37E792F0B3
:10054000000F00F0004C02BF400010F4000F013A11
:10055000F9D040EA0C0093F0000F01F0004C02BF0C
:10056000490011F4000F013BF9D041EA0C0195E775
:100570000CEAD15392EA0C0F08D142027FF47DAF0E
:1005800093EA0C0F7FF470AF084676E793EA0C0FFE
:1005900004D14B023FF44CAF08466EE730F0004CFC
:1005A00018BF31F0004CCAD130F000427FF45CAF8C
:1005B00031F000437FF43CAF5FE700BF4FF0FF3CFA
:1005C00006E000BF4FF0010C02E000BF4FF0010C4D
:1005D0004DF804CD4FEA40024FEA41037FEA226C16
:1005E00018BF7FEA236C11D001B052EA530C18BF38
:1005F00090EA010F58BFB2EB030088BFC81738BF9D
:100600006FEAE17018BF40F0010070477FEA226C8A
:1006100002D15FEA402C05D17FEA236CE4D15FEA86
:10062000412CE1D05DF8040B704700BF84460846BA
:100630006146FFE70FB5FFF7C9FF002848BF10F17B
:10064000000F0FBD4DF808EDFFF7F4FF0CBF0120C0
:1006500000205DF808FB00BF4DF808EDFFF7EAFF4A
:1006600034BF012000205DF808FB00BF4DF808ED05
:10067000FFF7E0FF94BF012000205DF808FB00BFFA
:100680004DF808EDFFF7D2FF94BF012000205DF880
:1006900008FB00BF4DF808EDFFF7C8FF34BF01208D
:1006A00000205DF808FB00BF4FEA4002B2F1FE4FA8
:1006B0000FD34FF09E03B3EB12620DD94FEA002324
:1006C00043F0004310F0004F23FA02F018BF4042FD
:1006D00070474FF00000704712F1610F01D14202E4
:1006E00005D110F0004008BF6FF0004070474FF098
:1006F0000000704742000ED2B2F1FE4F0BD34FF014
:100700009E03B3EB126209D44FEA002343F0004387
:1007100023FA02F070474FF00000704712F1610FAA
:1007200001D1420202D14FF0FF3070474FF000007C
:10073000704700BF53B94AB9002908BF00281CBF41
:100740004FF0FF314FF0FF3000F00CB8ADF1080C66
:100750006DE904CE00F018F8DDF804E0DDE90223CD
:1007600004B07047704700BF034611F8012B03F82F
:10077000012B002AF9D17047034613F8012B002AF8
:10078000FBD1181A013870472DE9F0478C468E4688
:10079000089E154604461946002B40F0D08072454D
:1007A00047D9B2FA82F74FB1C7F120030EFA07FC1E
:1007B00020FA03F3BD4043EA0C0CBC404FEA154E4F
:1007C000A8B2BCFBFEF8230C0EFB18CC08FB00F90A
:1007D00043EA0C43994528D9EB1808F1FF3204D2BB
:1007E000994502D9A8F102022B44A3EB0903A4B254
:1007F000B3FBFEFC0EFB1C330CFB00F044EA03448D
:10080000A04214D92C190CF1FF3304D2A04202D912
:10081000ACF102032C44241A43EA02401EB1FC400E
:10082000002334607360BDE8F0874246DDE763462D
:10083000F1E7002A79D0B2FA82F3002B3FD01946B3
:10084000C1F1200302FA01F52EFA03F20EFA01FEBD
:1008500020FA03F343EA0E034FEA154E00FA01F4BF
:10086000B2FBFEFCAFB20EFB1C201A0C0CFB07F80F
:1008700042EA004290455AD9AA180CF1FF3004D23E
:10088000904502D9ACF102002A44A2EB08029BB2C7
:10089000B2FBFEFC0EFB1C220CFB07F743EA0243F3
:1008A0009F4246D9EB180CF1FF3204D29F4202D985
:1008B000ACF102022B44DB1B42EA004202E0AEEB49
:1008C000020301224FEA154EAFB2B3FBFEFC200C2F
:1008D0000EFB1C330CFB07F840EA034398452AD96A
:1008E000EB180CF1FF3004D2984502D9ACF10200AC
:1008F0002B44A3EB0803A4B2B3FBFEFC0EFB1C339A
:100900000CFB07F744EA0344A74216D92C190CF153
:10091000FF3304D2A74202D9ACF102032C44E41BFA
:1009200043EA00400F46114678E71F2188E76046FA
:10093000ABE76246BFE76046DBE76346EFE7734538
:1009400006D916B9002108466DE7C6E9000EF9E799
:10095000B3FA83F787B9734501D3824207D8841A63
:100960006EEB030301209C461EB900215BE738466D
:10097000FAE7C6E9004CF8E7C7F1200CBB4022FAC1
:100980000CF51D4320FA0CF12EFA0CF30EFA07FEBB
:1009900041EA0E014FEA154900FA07F4B3FBF9F8F2
:1009A0001FFA85FE09FB18300B0C08FB0EFA43EA10
:1009B00000439A4502FA07F240D9EB1808F1FF30DC
:1009C00004D29A4502D9A8F102002B44A3EB0A03F2
:1009D00089B2B3FBF9F809FB183308FB0EFE41EAB4
:1009E00003418E452CD9691808F1FF3304D28E4596
:1009F00002D9A8F10203294443EA0040A0FB02986F
:100A0000A1EB0E014145CE46434602D306D14C45EB
:100A100004D2B9EB020E68EB05030138002EA4D016
:100A2000B4EB0E0261EB030101FA0CFC22FA07F3AE
:100A30004CEA0303F940C6E9003196E74046C5E7B2
:100A40004346D9E700000000F0B500228BB0114604
:100A500040F6034006F0AAFB044600285ED106F0EB
:100A600069F9214609AA41F2030006F09FFB0446FA
:100A7000002853D1099A2B4DD168D1F80100D1F843
:100A8000051005F1780303C3104604F0CDFF21469D
:100A900009AA41F2010006F089FB044600283DD175
:100AA0000998C3685A7885F86F205A88A5F872208B
:100AB0001A7985F87020B3F80720A5F87420B3F8E8
:100AC0000530A5F8763004F0AFFF214609AA41F2BF
:100AD000020006F06BFB044600BB099FFA6805F1B3
:100AE0008006531C413218685968344603C40833E1
:100AF00093422646F7D1384604F096FF95F87C30AD
:100B000013F0400314D1084A08490093CDE901329B
:100B10001846012224F009F86FF0120420460BB0A9
:100B2000F0BD00BF000000208CBF020064870200FF
:100B300009AA002142F2030006F038FB044600280F
:100B4000ECD1099AB24BD168D1F80100D1F8051067
:100B500003C3104604F068FF214609AA42F20200CE
:100B600006F024FB04460028D8D1099FFE68B6F899
:100B700001309AB2BAB1F278AAB1A5F8FC30F37894
:100B8000032B0BD00322CDE90332A24BA2490090E4
:100B9000CDE901030222034623F0C7FFF2789F4804
:100BA000114625F0F6FF384604F03EFF95F87C60CC
:100BB0001F2316F02006A5F8103119D14FF0FF3091
:100BC0004FF0FF3106F0DEF80446002800F0B8814F
:100BD00002210C3005F07AF801230370467021469B
:100BE000324640F66D4006F0E1FA0446002895D101
:100BF00095F89C301E0712D509AA002142F21C006C
:100C000006F0D4FA0446002888D10998C368D3F8BE
:100C10000120D3F80530C5E9382304F005FF95F825
:100C2000D8309C0626D50DF1220108A806F05CFB01
:100C3000044600287FF472AF4FF0FF304FF0FF31D1
:100C400006F0A0F80646002800F07A8104210C3056
:100C500005F03CF8BDF820300380BDF82230438019
:100C60002246314642F2240006F0A0FA044600284B
:100C70007FF454AF95F8D830580610D509AA002152
:100C800042F22A0006F092FA044600287FF446AFAA
:100C90000998C3685B7885F8123104F0C5FE4FF0FF
:100CA000FF304FF0FF3106F06DF80646002800F0E7
:100CB000478108210C3005F009F895F8D84014F068
:100CC000400F40F2022308BF0323A10795F8D91073
:100CD0004CBF43F02C0343F00C03A70648BF43F07E
:100CE000400311F0090F18BF43F4006304F001043E
:100CF0000246002143EA041023F047FF0022314658
:100D000042F2010006F052FA044600287FF406AFD2
:100D100095F87C30B5F8FC109E0661D4C9B909AAD3
:100D200041F2050006F042FA044600287FF4F6AED0
:100D3000B5F8FC30099C4BB9E368B3F80120A5F87D
:100D4000FC209A883548114625F023FF204604F000
:100D50006BFE4FF0FF304FF0FF3106F013F8044602
:100D6000002800F0ED8008210C3004F0AFFF95F86A
:100D7000D830D907024641D429484FF0005123F01A
:100D800004FF2146002240F6014006F00FFA044617
:100D900000287FF4C3AE014609AA4FF6014006F0D1
:100DA00005FA002842D01F4B0094CDE901432346A9
:100DB00019490222184623F0B8FEEB79002B40F0C7
:100DC000AF8007F097FA044600287FF4A7AE09F039
:100DD00067FA044600287FF4A1AE06F0D9F89DE634
:100DE0000029B6D1104B0C490090CDE90103012236
:100DF000034623F09AFE6FF004048FE602A1D1E9C6
:100E00000001BCE7AFF30080908800020080002062
:100E1000D8000020B0BF020064870200000100205B
:100E20001088000219C00200F6BF0200099E524954
:100E3000F468B4F80130042B96BF504A504A52F877
:100E40002320CDE903234F4B02930023CDE9003348
:100E50000322184623F069FEB4F80130B4F80320E9
:100E6000022B39D1052A37D8474B53F82230424953
:100E7000CDE90332454B0293002303221846CDE906
:100E8000003323F052FED4F8091063790791B4F8C7
:100E900007100691032BA17996BF3D4A384A52F8B4
:100EA000232003920024CDE904313A4B32490293C6
:100EB000032223462046CDE9004423F036FE304687
:100EC00004F0B2FD09AA21464FF6024006F06EF981
:100ED000064618B1304B67E7294BC8E70998C36845
:100EE000B3F80130A5F8C13004F09EFD95F8C1308B
:100EF0005A077FF562AF09AA31464FF6034006F064
:100F000055F928B1254B0096CDE9016333464FE7EB
:100F10000998C3685B7885F8C03004F085FD4CE71C
:100F20002E78002E7FF44DAF95F8C1309B061FD56B
:100F30004FF0FF304FF0FF3105F024FF044610B9A9
:100F40006FF06804EAE506210C3004F0BFFED5F826
:100F500001300360124B9B888380214632464FF656
:100F6000064006F023F9044600283FF42AAFD5E5F1
:100F70006FF08504D2E500BF648702006C8B02002D
:100F8000A1BD02003DC00200548B020056C0020009
:100F9000448B02006EC002009BC00200C4C002006D
:100FA00001000020000000002DE9F843D0E90738D7
:100FB000856903EB08042F34A5420F46164619D85D
:100FC000DFF86C80A3FB080117A3D3E90023FFF728
:100FD000B1FB0346601BA0FB080123F07F4412A372
:100FE000D3E90023FFF7A6FB20F07F403C60306090
:100FF000BDE8F883DFF838900BA3D3E90023A5FB05
:101000000901FFF797FB20F07F440A480A2106A355
:10101000D3E90023E8FB0901FFF78CFB20F07F40B8
:101020003C603060BDE8F8838D49FD1A0700000080
:1010300000CA9A3B00166BF1002800F051812DE99F
:10104000F04FCB4C94F85E2012F001058DB040F0CB
:101050003481607EFF2300F00300A37617F0F6FBD7
:1010600094F85E00420700F12C81627F94F82930E9
:1010700004EB820204EB8303166AD3F82C8086B15A
:10108000BB48314611F09EFF33785B0605D506213B
:101090000DF0D0FD002800F05581B548414611F013
:1010A00091FF337813F00E0F40F0918063691BB10C
:1010B0000C200DB0BDE8F08F0FF0C2FD8146002876
:1010C00000F049810FF0C8FD8246002800F0408101
:1010D00012F0BEF90546002800F05A81D0F88800C9
:1010E0004FF6FF73AB8405F1100B002800F035813B
:1010F00005F17C0205F178010DF0A8FDB5F8763018
:1011000023F4EF6323F0070343F48C7343F00103EC
:10111000A5F8763095F8373003F03F0363F07F038E
:1011200085F8373095F88E3023F0070385F88E3038
:1011300095F83C3023F00F03002785F83C304FF43E
:10114000C023C5F88E312846C5E91277C5F88870E6
:10115000A5F88C7085F839706F85C5F82E702F65ED
:10116000A5F86071A5F89471A5F88A7114F006F9D4
:1011700085F86471C5F8689112F032FC95F89C31DD
:1011800060F3020385F89C3112F030FC95F89C3135
:1011900060F3C50385F89C3195F8623167F341032C
:1011A000012185F86231284612F0B4FF05F1E00014
:1011B00013F004FFC4E9159AC4F814B0C5E9027726
:1011C0002F702D6118F024FB002840F0BD80237E95
:1011D0000121C3F342030DF12B008DF82B300DF0EC
:1011E000D7FE024600287DD04146304611F0E2FC91
:1011F000604A614BB4F85C800721E0FB02310025B6
:101200001846C4E9025558A3D3E900232570FFF717
:1012100091FA60600FF046F800F10907B8F1000F8D
:1012200007D1357805F00F05A5F10105B5FA85F56B
:101230006D09207E636865F3000010F001052076DB
:1012400057D04E4A09920020106002254C4ADFF820
:10125000348104930BAE019305920321CDE9020082
:10126000069400903B46CDF81C8008962A460B95C4
:101270000EF03CFF31460FF065FD98BB42490591E9
:101280004AF2D8330093CDE90300CDE90100CDF84F
:101290001C80089606943B46012203210B950EF014
:1012A00009FF31460FF04EFDE0B994F85E300120A1
:1012B000034384F85E3017F0ABFA00200DB0BDE8B0
:1012C000F08F2A4604F15F01C0F3C00017F004FC60
:1012D000FF28A0763FF4C9AE284617F0D1FAC4E63D
:1012E00011F000BC6369002B3FF4E2AE11F0D0FBBB
:1012F000DEE6224A2548049303F24713069402953A
:1013000091211360A8FB000301FB08311D4B0793DB
:101310001B4B05934FF6FF7309924FF0020803939E
:101320000BAE11A3D3E90023CDF82C800896FFF76C
:1013300001FA3B46CDE900504246284603210EF013
:10134000D5FEAEE71220B4E611F0A2FB0320B0E612
:1013500048460FF07BFC0720ABE605F18000C5F89E
:101360008800C5E6AFF300808D49FD1A0700000034
:101370007420002000CA9A3B8C49FD1A6820002086
:101380002D2C0100A103010051290100002AE7844E
:1013900050460FF067FC48460FF058FCDBE700BFF3
:1013A00070B5037E8AB0C3F342030D4604460121A3
:1013B0000DF1230016468DF823300DF0E9FD31467E
:1013C0000246284611F0F6FB1D4A1E4B0721E0FBA2
:1013D0000231184618A3D3E90023FFF7ABF963687D
:1013E0009842054621D21B1A00220192164A029306
:1013F000164BA21AA3FB02320221520900230A440F
:1014000009AE099112490591CDE9033303210696EE
:10141000D2B2009318460EF0BFFE31460FF092FC98
:1014200038B9656000200AB070BDFBD9C21A00232C
:10143000DBE70C200AB070BD8D49FD1A07000000E3
:1014400000CA9A3B8C49FD1A742000204FECC44E10
:10145000A1030100000000002DE9F04F05468BB00C
:101460008B46012002219946144619F0B7FF00224D
:101470000221824601200DF03DFC2F494FF4D47229
:1014800028460DF0C3FBC61C2C4B0093F6B2019509
:101490004B463246012100200EF0CCFE10F0FD0F2D
:1014A00042D1274BA4FB0348204621A3D3E90023C4
:1014B0004146FFF73FF9089506956B680493214B69
:1014C00020F07F47A7FB0331E01A1F4B07934FF033
:1014D00007021E4B059302FB07114FF6FE7368EBE4
:1014E000010103934FF47A720023FFF723F9CDF83B
:1014F00000B0CDE901704B463246012100200EF0CC
:10150000D9FD10F0FD0F0DD1BAF1000F02D10BB0D3
:10151000BDE8F08F0122022110460BB0BDE8F04F6C
:101520000DF0E8BB00DEEFE700DEBAE7AFF30080C6
:101530008D49FD1A07000000380D00200D33010011
:1015400000CA9A3B8D49FD1AF5320100997C0100D1
:101550002DE9F0418468A28C4FF6FF739A428CB05B
:1015600000F0C0800546204614F084F92B7D012B45
:1015700000F0E680022B00F0B88033B994F88E308A
:1015800003F01803182B00F01C8194F86471002FED
:1015900040F0AE802B8AE68D94F93720CDE90A77AA
:1015A000002B00F0AC80002AC0F221810023A4F8B7
:1015B0009031AB7CA28D03F00303551C012BADB21F
:1015C00000F0BA80B4F89431002B00F0BF80AB4239
:1015D00040F237815B1B9BB2062BA4F894314FF08D
:1015E00000028CBF00230123E2851F4694F83C20B3
:1015F00063F3820284F83C2029460DF1270220463D
:1016000013F0F8FE743000F01681B4F88E312BB16F
:10161000AB4240F2BF805B1BA4F88E31B4F88A3134
:101620002BB1AB4240F2C6805B1BA4F88A31E58D3A
:1016300017B9AE4200F0AC800135ADB294F8D130AC
:1016400013F0010609D1DDE90AC3B3BBBCF1000FF9
:1016500000F0E9801E46194630E094F9372023F067
:101660000103002A84F8D130C0F28A8094F8760011
:10167000C0F3C00100F0070017F048FFB4F86E2077
:10168000B4F86C301344E28B03F23F131344184454
:101690008D4A8E4B0721E0FB0231184688A3D3E91F
:1016A0000023FFF747F8616820F07F408142DDE9C1
:1016B0000AC380F0B280461A60600021A28C2469BF
:1016C0000694CDE903570332814D0291CDE900C65E
:1016D000D2B20121002005950EF05EFD10F0FD0F45
:1016E00040F0B4800CB0BDE8F0813D2784F864710F
:1016F000394620460CB0BDE8F04112F031BA002A5C
:10170000B8BF84F8D570AB7CA28D03F00303551CE1
:10171000012BADB210D0B4F89031002B3FF452AF92
:10172000AB4240F29A805B1BA4F89031B4F894313C
:10173000002B7FF44CAF59E70023A4F8943155E710
:101740000023A4F88E31A4F88A311EE7E38C052B20
:101750008BBF40F2E2424FF4FA725A4303FB02227B
:10176000B4F8923142F2107101FB0323013BB3FB49
:10177000F2F39BB2A4F89431002B7FF428AF35E745
:1017800094F87700012100F0070017F0C1FE75E71B
:101790003D4653E70FF0A6FA0146002864D0002327
:1017A000A4F88E31A38CC3801B23037100680FF053
:1017B0006BFA33E70023A4F88A31204613F0ACFE1D
:1017C00035E7218DB4F88C218B1D9A42C4BF931F3D
:1017D0005B1AB4F88811CCBF9BB21346994256D01D
:1017E000A4F88831A4F88A31A4F88E21CDE694F8C3
:1017F000D530002B3CD0013B84F8D53004F1E00813
:10180000404613F01DFC002855D0404613F018FC4C
:10181000002842D00023E385C8E6091A6060A3BB14
:1018200051EA0C021ED115B9002F3FF45BAF002620
:101830003146334642E79DF82710204612F090F9D2
:1018400050E70821204612F08BF94BE70FF0A4FA7D
:1018500084423FF447AF00DE44E73E21204612F0C9
:101860007FF93FE71E4629E70123A4F88E31D5E62C
:101870000AAA0BA92846FFF797FBDDE90A231343C1
:10188000BCD0237884F8D530B8E7002616E7B4F842
:101890008E1100297FF479AEA4E70246D4E91E0137
:1018A0000DF0ECF90028B5D194F83C301B0744BF8B
:1018B000238DE3857AE6FF2012F014F9A5E700BF37
:1018C0008D49FD1A0700000000CA9A3B8C49FD1A99
:1018D0004D330100000000002DE9F04F87B0B0F853
:1018E0006071BDF84C900091CDE90423B0F824312B
:1018F000BDF840A01F44BFB20446A7EB090390F80F
:101900007600D4F81C819EB2BDF844300193C0F338
:10191000C001BDF84830039600F00700029317F0AD
:10192000F5FDE58C052D40F2A38015FB06F5ADB263
:1019300040F2E24BBAF1050F40F28E80B4F86E200F
:10194000B4F86C30134403F2D5130344764A774855
:101950000721E3FB02014FF09613E36196232384F2
:101960006FA3D3E90023FEF7E5FE564620F07F4043
:1019700040F2E2430BFB05F203FB06F6531E334431
:10198000B3FBF6F31FFA83FB60600BFB06F08242A9
:101990005D4653D26449801AA0FB010160A3D3E9DC
:1019A0000023FEF7C7FE20F07F408044B4F82421D6
:1019B000B4F86031A9EB07094D44ADB213442B4490
:1019C000A4F86031638D13441D4494F83730658565
:1019D000DB0955D100DE00273546019B2385029B9C
:1019E000A4F8923131462046A4F826A013F02EFD2B
:1019F0004F4B218D3344881DB3FBF6F39AB29042CE
:101A0000A4F88C2104D2C1F57F41FA310A4492B284
:101A1000009BA4F8882113B10023A4F89431434615
:101A20002A4639462046FFF717FD94F8623143F005
:101A3000010384F8623107B0BDE8F08F121A3A480A
:101A4000A2FB000136A3D3E90023FEF773FE20F0CA
:101A50007F40A8EB0008A9E74FF096130AF10106B2
:101A6000E36196232384B6B20A204FF4FA7381E728
:101A7000039B013515FB03F5ADB24FF4FA7B59E733
:101A8000216CA36C284F01FB0233039A01FB123334
:101A9000A3640023C4F8DC3017F00CFF054694F86B
:101AA000D400C0F3420017F007FF054406FB05F51C
:101AB000204B1E4805F5742505F23F25A3FB05358F
:101AC000AD0CA36C25640BFB05FB72085B44963AD6
:101AD000934228BF1346C4E91123049B40F2E24914
:101AE00009FB03F307212365EBFB07010CA3D3E9F3
:101AF0000023FEF71FFE104B059AA8EB0008A3FB7E
:101B00000230800A09FB00F0A0FB070104A3D3E91F
:101B10000023FEF70FFE751B20F07F475DE700BF37
:101B20008D49FD1A0700000000CA9A3B8C49FD1A36
:101B30007FC3C90183DE1B435917B7D100000000E2
:101B40002DE9F04F0D46166895F811800968144686
:101B5000027FD1F8009093B08346C2F38012D0F890
:101B60001E008DF83720B8F1FF0FBBF8222010902F
:101B7000ADF8442057D110AB93E803000E90ADF8B8
:101B80003C105A46BBF82E1052F82EAB9278A27237
:101B90002181DBF82A206260DBF83A20C4F8222099
:101BA00004F122009BF83E20027105210DF0F0F9AE
:101BB00094F8272000F03F0060F3050284F8272006
:101BC0009BF83F20C2F3040184F82810BBF83410BE
:101BD000E182012802F01F0289B20AD91B3202F009
:101BE0001F020B2A05D8063989B240F67A42914283
:101BF00025D90021C9F8081094F82C2061F30002BF
:101C000084F82C20DBF80C400125504659468BF80F
:101C100004500FF02DF82068257121460FF034F89C
:101C200013B0BDE8F08F0EAA0DF13701404616F053
:101C30004DFB9DF8372002328DF83720A1E72A6846
:101C400000215160BBF83620E78A228340F2E2434C
:101C500003FB07F73046BBF832300B9313F00AFC56
:101C60009BF83F2096F8D410520962F3430186F89E
:101C7000D41017F01FFE0A9096F8D400C0F342006B
:101C800017F01AFE0A9A104407FB00F0AE4A00F55E
:101C9000742000F23F20A2FB00207A08800C963AC4
:101CA000206362639BF8312040F2E24303FB02F2BF
:101CB0006264BBF83820A6F892213946304613F00A
:101CC000C5FBA24AA249C6F898113A44B2FBF7F202
:101CD00090B2A6F88C01218B01F1060C604504DD61
:101CE000C1F57F41FA31014488B25A46A6F888010D
:101CF00012F81C3FC3F34013D2070A9300F1158179
:101D00004FF48072ABF81C2099F81A0017F028F8ED
:101D1000002800F0EA80DBF82420CBF82B20BBF869
:101D20002820ABF82F20B8F1FF0F00F0F880BDF8A5
:101D300044201098ABF82920CBF825009DF83720D7
:101D40008BF81E200E98BDF83C20CBF81F00ABF896
:101D50002320E28AABF83220228BABF83420B6F88D
:101D60009221ABF8362096F8D420C2F342028BF8C9
:101D70003820304611F078FBA082ABF80600D5F889
:101D80000480504659460EF073FF1C23A28A88F83F
:101D900004300A9BD8F800A0A8F80620002B40F0D9
:101DA000B180DDF828B088F81CB0414650460EF0EE
:101DB0006BFF94F86700B4F85CA0B4F85E80012172
:101DC00000F0070017F0A4FBD04408F2D51808EB88
:101DD00000038246DFF87C815F480721E3FB0801AE
:101DE0004FF09613C4E9033355A3D3E90023FEF75C
:101DF000A1FC20F07F407060EB680B98226B40F2F2
:101E0000E24101FB003404F2B3440221A41A012090
:101E1000BF1A00220CF06EFF484611F091F8A4EBB7
:101E20000A0447A3D3E900238246A4FB0801FEF776
:101E300081FCCDF80490AB684849009120F07F48C0
:101E40000AF10202363BD2B24344012100200EF0D7
:101E5000F1F901286BD099F81830DB074AD43046E5
:101E600011F002FB3B4CA7FB044935A3D3E9002347
:101E7000834649462046FEF75DFCAB68384A079228
:101E8000A3F1360A374B069620F07F47A7FB0331B4
:101E9000E01A354B05934FF4F87308937368049375
:101EA0004FF0070303FB071169EB010100244FF416
:101EB0007A7200230394FEF73DFC0BF10305EDB2AB
:101EC000CDE90170CDF8008053462A460121204615
:101ED0000EF0F0F810F0FD0F2FD101220221104674
:101EE0000CF008FF13B0BDE8F08FCBF82B00ABF877
:101EF0002F0018E7002301220093184611460EF028
:101F000063F9ACE794F8273043F0400384F82730B6
:101F1000201D15F0AFFF4FF0010B208543E7002196
:101F2000CBF82510ABF8291008E700DEE8E60EF044
:101F300033FF81458FD000DE8DE700DECDE700BFA7
:101F40008D49FD1A0700000083DE1B437FC3C901D2
:101F5000404B4C0000CA9A3B8C49FD1A217D010080
:101F6000717C01008D49FD1A997C01000000000080
:101F7000F0B5C468636883B00546002B54D118F0EF
:101F800073FD002018F094FD0021084618F082FD32
:101F900000222521082018F0E9FD414B019301A8FA
:101FA00018F0D0FD3F4940F25B6018F081FE237AC3
:101FB000C3F3420262F306132372204617F00AFEAF
:101FC00016F056FF637A03F0030348BBFBB927689A
:101FD0002E68384617F054FA06446A6806F109017B
:101FE000012018F0ADFF19F06DF8204610F0B4FF95
:101FF000811C3246C9B2384617F044FA054600BB88
:10200000204617F019FAD0B9002003B0F0BD012026
:1020100016F0F4FB4178821C007818F031FFD6E707
:10202000181E18BF0120F3E793F82C309B07A6D0A9
:102030001D48214618F0ECFC18F0E4FDE4E700DE52
:10204000E2E71A4A1A491B4840F2114322F0FCF910
:10205000194B0721A5FB030301FB05310EA3D3E9AF
:102060000023FEF767FB15490246154822F0ECF9FC
:10207000002585F31188BFF36F8F0323184602DF15
:102080001048214618F0C4FC18F0BCFD6FF08B001E
:10209000BBE700BFAFF3008000CA9A3B000000001E
:1020A000D6BE898E55555500C995010094920200FF
:1020B000E0920200709002008D49FD1A28940200FF
:1020C000E4920200C59801002DE9F043C468A28A99
:1020D0004FF6FF739A4283B000F0FD80064618F079
:1020E0002DF83389628B208C94F82710A3831A442F
:1020F00092B2104480B2431C23840023638301F016
:102100003F034906E28300F1A48094F8281000936D
:1021100004F1290004F1220315F06EFE0546D4E90E
:102120000C31A26BA08BA36303FB0022E36B8A42FA
:1021300094BF9B185B188B4228BF0B46626CE3630D
:10214000236C94F867101A4494F82C3061F306134A
:102150000021C4E9101294F87E2084F82C3012F08B
:10216000040200F0898018F07FFC002018F0A0FC29
:10217000201D18F0E7FC2389A17A40F25B6043EA56
:10218000014118F095FD284617F08CF92146584872
:1021900018F03EFCA08918F0C7FE94F8662094F869
:1021A0006700C2F3C003002102F0070200F007003D
:1021B00018F0E4FD204618F05BF8D4F8008037688A
:1021C000404617F05DF90744726807F109010020E5
:1021D00018F0B6FE814618F049FF002018F060FFA5
:1021E000E36B94F8670003F12F02636C012100F0A8
:1021F000070003EB420518F0F7FC4D44054494F842
:10220000670000F00700022834D004280CBF4FF408
:10221000BC73282301211D4418F0E8FC284418F061
:1022200017FFA18A03313A46C9B2404617F02AF98E
:102230000546A8B1B37A13F002062BD000252D482D
:10224000214618F0E5FB18F0DDFC284603B0BDE898
:10225000F083218D04F1220215F010FE05465EE7A1
:10226000204617F0E9F800283CD10025284603B0A5
:10227000BDE8F0831823CDE7D4E91A010CF0FEFC89
:1022800000287FF470AF94F87E3043F0040384F8A4
:102290007E3068E7184A194919484FF4AC7322F0A8
:1022A000D3F818480721A5FB000301FB05310EA355
:1022B000D3E90023FEF73EFA13490246134822F001
:1022C000C3F886F31188BFF36F8F0323184602DF2C
:1022D0006FF08B05B3E70E48214618F099FB18F014
:1022E00091FCC2E700DEC0E700CA9A3B0000000094
:1022F00095A40100A595010010930200E092020050
:10230000709002008D49FD1A34940200E49202009C
:10231000C99501002DE9F0410D46FDF7ABFF2C49B1
:10232000FEF7B0F82B49FDF7F9FF04462A48401B99
:10233000FDF7A0FF2649FEF7A5F82649FDF7EEFFB9
:10234000064621F0EDF90546204621F051F8804679
:10235000204621F0E5F90746304621F049F81F49AB
:1023600006464046FDF7DAFF1D4904463846FDF7AC
:10237000D5FF3146FDF7D2FF01462046FDF7C4FEEA
:102380001749184E04462846FDF7C8FF214620F09D
:1023900089FF1549FDF7C2FF00250446294620465E
:1023A000FEF75AF940B90F4D0E492046FEF768F97D
:1023B00040B92046BDE8F08120463146FDF7A6FE33
:1023C0000446EBE720462946FDF79EFE0446EBE770
:1023D0008096184B35FA8E3C30899D08EBDB383FF0
:1023E000AD18313F0000B443E12E654230B50C46D4
:1023F0008FB071B1114BCDE90313114B0293002340
:10240000CDE900330F490222184621F0E8FE0FB053
:1024100030BD0D4A06AD012111700146284607F076
:1024200007FE0A4B07490395CDE901430094234673
:102430000322204621F0D3FEE9E700BF8DE302002E
:102440000EA30200FC870200B232002031A302007A
:102450007FB50C4A002313700B4A13700B4A13709C
:102460000B4A13700B4A0093CDE903120A4A0B4939
:10247000CDE901321846032221F0B1FE07B05DF824
:1024800004FB00BFB2320020B5320020B43200207D
:10249000B33200208DE302003FA30200FC8702005C
:1024A0001FB501290B4B0C490CBF012200221A70E9
:1024B0000A4A0B4B08BF134603930A4B02930023AF
:1024C000CDE900330322184621F089FE05B05DF8FE
:1024D00004FB00BFB5320020FC87020060A30200AD
:1024E00068A3020071A302001FB501290B4B0C4920
:1024F0000CBF012200221A700A4A0B4B08BF134678
:1025000003930A4B02930023CDE9003303221846BC
:1025100021F065FE05B05DF804FB00BFB432002079
:10252000FC87020060A3020068A302008EA30200E1
:102530001FB501290B4B0C490CBF012200221A7058
:102540000A4A0B4B08BF134603930A4B029300231E
:10255000CDE900330322184621F041FE05B05DF8B5
:1025600004FB00BFB3320020FC87020060A302001E
:1025700068A30200AAA302007FB5BDF820401D4653
:1025800054BB012B28D113785A1E092A27D8154E7F
:10259000154933710393154B0094CDE9014320464F
:1025A0002346032221F01BFE36794FF47A735E43F3
:1025B000214640F2E7304FF400444FF47A72002392
:1025C000E6FB0401FEF7B6F802460B4608481DF08C
:1025D0006DF8284604B070BD6FF00C00FAE76FF09C
:1025E0001200F7E7F4010020FC870200C3A30200F9
:1025F000180700201D4BAF221A7059225A701C4A2E
:1026000011689970C1F30720090C1971090A5971F1
:102610005168D8709971C1F30720090C1972090A21
:1026200059729168D8719972C1F30720090C197316
:10263000090A5973B2F90C109973C1F30721D973C0
:10264000118A1974090A5974518A9974090AD9743A
:10265000117D926919755A75C2F30721120CDA754A
:10266000120AD87299751A76704700BFB6320020E8
:10267000DC12002070B504468AB060B1264B02938C
:102680000023CDE90033039024490122184621F0AC
:10269000A6FD0AB070BD224B224E20490090CDE924
:1026A00001030322034621F09AFDFFF7A3FF0FCE9B
:1026B00005AD0FC533682B601B49009423460222E9
:1026C00005A805F001FF054630B1184B0390CDE990
:1026D000014300942346D7E7154B0090CDE9010351
:1026E0000E490346032221F07AFD124B1C794FF468
:1026F0007A735C43294640F2E7304FF400454FF4CB
:102700007A720023E4FB0501FEF714F802460B463B
:1027100009481CF0CBFFBCE7E5A30200FC870200E0
:1027200004A4020020880200D88802001AA4020033
:102730003FA40200F4010020180700202DE9F04F0B
:10274000B4498B681E2001331C24B3FBF0F200FB5C
:102750001232B3FBF4F004FB10303E3093B08870BB
:1027600028208B60B3FBF0F400FB1433C3F1640347
:1027700002EB8202CB7002F62E12A74B92B20A80B5
:102780001A7009225A7024F0E3FA4FF47A72A0FB0F
:10279000020302FB0133C00BA04AA14E40EA4343AF
:1027A00011931368B6F90C40013313602046FDF70E
:1027B00061FDB4F57A7F0746C0F2F48140F6B73385
:1027C0009C4240F3F18141F26F739C4240F3EE81F1
:1027D00042F227339C4240F3EB81924D308AFDF761
:1027E00049FD9149FDF74EFE014680462846FDF71A
:1027F0008BFC8E490546FDF74DFF002840F0DC813B
:102800008B492846FDF728FF002800F0D38188492E
:102810004046FDF77BFC87498146FDF71DFF08B167
:10282000DFF8109280494846FDF778FD25F06CFDF1
:10283000B4F57A7F85B23582C0F2C08140F6B733F5
:102840009C4240F3BD8141F26F739C4240F3BA81D8
:1028500042F227339C4240F3B78142F6F7239C4271
:1028600040F3B581002421463846FDF74FFC7249FC
:102870000746FDF70FFF002800F0AC816E4825F0F9
:1028800043FD03B2B381684910932046FDF746FD2E
:1028900025F03AFDD6E9018704B2F4814046FDF700
:1028A000E9FC6649FDF7EEFD6549FDF737FD014698
:1028B0000F906448FDF728FC4FF07C51FDF72EFD8A
:1028C00020F02EFF82460F9820F092FD0E905E4879
:1028D000C01BFDF7CFFC5949FDF7D4FD5849FDF762
:1028E0001DFD4FF07C51FDF719FD20F019FF5749F0
:1028F00083460E98FDF712FD5946FDF70FFD594628
:10290000FDF70CFD514683465046FDF707FD014695
:102910005846FDF7FBFB824625F09EFC5146834658
:102920004FF07E50FDF7F0FB25F096FC014658462F
:1029300020F0B8FC0146FDF7E9FB4549DFF8E0A0CF
:10294000FDF7ECFC4349FDF791FE002840F08A803A
:1029500039464046FFF7DEFC3349FDF7DFFC25F042
:10296000D3FC3D49708280464846FDF78BFD814689
:102970001FFA88F0FDF77EFC2B49FDF783FD3049F7
:10298000FDF7CCFC834620F033FD8046584620F00E
:10299000C7FE2F4983464846FDF774FD4146FDF7C3
:1029A000BDFC0F99FDF7B2FB2C49FDF7B7FC23499D
:1029B000FDF7B4FC25F0A8FC2949706080460E980C
:1029C000FDF74AFE002800F0078125482049FDF761
:1029D000A5FC01464846FDF755FD5946FDF79EFC0E
:1029E00006463846FDF746FC1449FDF74BFD1449F1
:1029F000FDF794FC01463046FDF788FB1749FDF7CB
:102A00008DFC0E49FDF78AFC25F07EFC0746CAF8CE
:102A1000080027E0F4010020CF320020D812002067
:102A2000DC12002000805444000020410000C0401F
:102A30000000C0C00000824300E02B468096184B87
:102A400035FA8E3C278D4E3F30899D08AD18313FB9
:102A5000706DC24A00409C4566666640E12E654244
:102A6000BD378635BAF81210119BCAF818300A2201
:102A7000B1FBF2F002FB101189B2CDE90B01B5FBFD
:102A8000F2F102FB1155ADB2CDE9091594FBF2F15B
:102A900002FB114424B2002CB8BF64420D93109B7A
:102AA000CDF81080A4B2CDE90714CDE90573DAF8AA
:102AB000003003930024494B4949029303222346E3
:102AC0002046CDE9004421F08AFBFFF793FD4548FD
:102AD00023462246022105F0DDFC50B1424B039013
:102AE000CDE901433E49009423460222204621F0CD
:102AF00076FB3E4B1B78002B3BD03D4B1B7883B1C4
:102B00003C493D48022221F079FB50B13B4B0293F6
:102B100000230390CDE9003331490222184621F009
:102B20005EFB374B1B7883B136493748012221F0D1
:102B300065FB50B1354B029300230390CDE9003380
:102B400027490222184621F04AFB314B1B7883B1FA
:102B500030493148012221F051FB50B12F4B0293F3
:102B600000230390CDE900331D490222184621F0CD
:102B700036FB2B4B1C794FF47A735C434FF40045C2
:102B800040F2E73000214FF47A720023E4FB0501A4
:102B9000FDF7D0FD024623480B4613B0BDE8F04FC9
:102BA0001CF084BD204D19E6204D17E6204D15E69A
:102BB000204D13E629462BE61F4929E61F4C52E615
:102BC0001F4C50E61F4C4EE64FF081444BE64FF051
:102BD0007F5448E6384652E60E98F7E673A40200A2
:102BE000FC870200D8880200D5A40200B23200207F
:102BF000B5320020CF32002010890200FDA402006F
:102C0000B4320020F60100204C89020022A5020007
:102C1000B3320020F70100208889020046A5020097
:102C2000F40100201807002000008C430000AF438F
:102C30000000E143000016440000C0400000404195
:102C4000000020410000E040F0B585B000251E4B9B
:102C50001E4E1F4F1F49029303222B462846CDE9E3
:102C6000005521F0BCFA31463846FFF753FB1A4CA9
:102C70001A4B1B49C4E9003740F654332382C4E998
:102C80000265FDF74BFBFDF735FD64232375154BFE
:102C9000154A1D60154B6082B3F900301370C3F301
:102CA00007235370A561FFF7A5FC114811491CF0DB
:102CB000C5FB114804F086FC4FF0FF314FF0FF30A8
:102CC0001DF048FEF8E700BF67A50200E7C8FF3A1D
:102CD000C809D404FC870200DC120020D4C3B2A1CE
:102CE00000002041D8120020CF320020F401002043
:102CF000180700203D270000752600002DE9F04F41
:102D000085B0044621F08EFAB0FA80F0C0F11F00C1
:102D100004EB8006CD00D6F8109005F1040A0B46AE
:102D200006358FB2B9F1000F0BD1E2680121814065
:102D30000A43E260336124F80A70675305B0BDE8C6
:102D4000F08F4FEAC906043634F806B04FEACB08D4
:102D500008F1060834F80830994511D00C4B02935D
:102D60000023CDE9003318460A49012221F064FA14
:102D7000002383F31188BFF36F8F0423184602DF0B
:102D800024F80AB024F8059024F80870A753D5E772
:102D90009FA50200DC8702002DE9FF4700EBC1037D
:102DA0000446B3F80680414502F104090CD1012321
:102DB00003FA02F2C36823EA0203C360002340F867
:102DC000293004B0BDE8F087B3F804A04FEACA0781
:102DD00006374FEAC806C35B994206F1040602D1E2
:102DE000835B994211D000250B4B0293CDE900552E
:102DF0000A492B460122284621F01EFA85F3118844
:102E0000BFF36F8F0423184602DF44F8298024F8AB
:102E1000078024F806A0D4E79FA50200DC87020003
:102E20001FB500EBC10304465B88DB070A460ED4DE
:102E300021F0FDF934F83030C01A814207D134F85E
:102E400031102046511A21F0F2F9824211D00024AB
:102E5000094B0293CDE9004408492346012220464C
:102E600021F0EAF984F31188BFF36F8F0423184629
:102E700002DF04B010BD00BFC3A50200DC87020062
:102E80002DE9F043884685B0002900F09080046861
:102E90000E1F361BF50826F0070604EB0609B9F8E5
:102EA000027017F0010711D1424B0391CDE9017374
:102EB000414900973B460122384621F0BDF987F38E
:102EC0001188BFF36F8F0423184602DF294620467E
:102ED00021F0ADF934F83030C01A854213D0002704
:102EE000364B0293CDE900773349CDF80C803B4651
:102EF0000122384621F0A0F987F31188BFF36F8FC4
:102F00000423184602DFA15B2046691A21F08FF9DD
:102F1000A84213D000272A4B0293CDE90077264917
:102F2000CDF80C803B460122384621F085F987F325
:102F30001188BFF36F8F0423184602DFB9F80230FF
:102F400023F00103A9F802302946204621F06FF949
:102F500004EBC00307465B88DA070CD40146204621
:102F6000FFF75EFF3946204621F076F93A462946BA
:102F7000204621F0BDF9A65BAE1B04EBC6035B88BF
:102F8000DB070DD431462046FFF74AFF3146204685
:102F900021F062F92A463146204621F0A9F935464A
:102FA0002946204605B0BDE8F043FFF7A7BE05B0AF
:102FB000BDE8F0835CA60200DC8702000CA60200DC
:102FC00035A602002DE9F04714464A4202EA0109FB
:102FD00031EA020203461AD04A46042A4F4628BF65
:102FE0000422A1EB090909F1FF3A1AEA090F18D0E6
:102FF0003549364A36484FF4F57321F025FA3548FD
:1030000021F022FA31484FF4F57121F014FA042925
:1030100004D82146BDE8F04721F09BB900270422DF
:10302000E1E71CB900252846BDE8F0871E68A9EB3A
:10303000020204F0070302F007010B330B44E1081E
:1030400001EBD20101EBD301B368994228BF1946C5
:10305000304621F00EF980460028E3D03D1D05EBF7
:10306000C00535445544B5FBF9F509FB05F5ED1BE5
:103070002C442B1F07349B1B24F00704A41BB0EB2C
:10308000D30F4FEAD3074FEAE40408D201463A4689
:10309000304621F043F941463046FFF72FFE3946CE
:1030A000304621F0C4F8A04207D93046224621F02C
:1030B00035F921463046FFF721FE06EBC706738837
:1030C00043F001037380AEE7A4A6020081A60200CC
:1030D000BFA60200DCA60200B2F5802F2DE9F8435E
:1030E0000ED33E493E4A3F4840F2DD2321F0ACF981
:1030F0003D4821F0A9F940F2DD21394821F09BF942
:10310000042A0CD83949364A36484FF4397321F02D
:103110009BF9374821F098F94FF43971EDE7043AFB
:10312000CD1D114425F0070521F00706A6EB050883
:10313000B8F1170F4FEAD8070CD82E49284A29486A
:1031400040F2ED2321F080F9294821F07DF940F289
:10315000ED21D2E7B7FA87F4C4F12002C4F12404C8
:10316000A4000734E408631C4FF00009BB4205606B
:10317000AF60C5F80C900CD91F49194A194840F2A4
:10318000033321F061F91A4821F05EF940F203316E
:10319000B3E74946920005F1100024F0E2FFA2B225
:1031A000530043F001036B803B1B9BB205EBC40152
:1031B0005800A5F80090488025F83420A6F8029021
:1031C00025F8083005EBC70321465A8842F0010272
:1031D0005A802846BDE8F843FFF790BDF9A60200E3
:1031E00081A60200BFA602000FA7020026A70200C8
:1031F00047A7020060A7020089A7020008B502489D
:1032000021F00CF9002008BDBCA702002DE9F04F09
:1032100091B08407009302F004030293C2F3C20347
:1032200003F10103DDF868A0039205460E460593FD
:1032300040F0C881041D002838D101F00706341D74
:10324000C6F10806009B4FF000085A1E04274FF0F5
:10325000FF330193CDF81080C146C3463B460DB104
:10326000009921600598002800F3C18094480099D6
:10327000814203D393488142C0F0B980039911F091
:10328000020CA4EB050040F0CB80B9F10F0F40F227
:10329000CA808D498D4A8E4840F2812321F0D4F8AE
:1032A0008C4821F0D1F840F28121B6E00729C9D835
:1032B0006FF01B0011B0BDE8F08F7A285AD84B2868
:1032C0000FD8472856D829282DD825284FD051D88F
:1032D000202818BF23280CBF4FF0010B4FF0000B24
:1032E0006EE04C382E2845D8DFE800F06A444444AC
:1032F000444444444444444447444444444444448B
:1033000044544447475454546A4768446A441847ED
:103310001844447C7A47444447447A0000204FF0E4
:10332000000B042734E02A38C0B2012101FA00F072
:1033300010EA0E0F44D110F0625C2BD110EA010BA1
:103340003ED06046013C3C44B4FBF7F47C4325B1DD
:10335000A3EB050CA444B445AAD8002800F097803C
:103360000599013905915AF8041B009177E70199F5
:10337000013901914FF0000B22E012F8010C6C288A
:1033800032D112F8023C00206C2B8346C9D10827A9
:103390003B46D7E70AF1070A2AF0070A0734FAE89A
:1033A00002BC24F0070435B106982044B0423FF631
:1033B0007FAFC4E900BC08344FF0000B08273B4640
:1033C00012F8010F002800F08980BBF1000F7FF494
:1033D00074AF2528F4D1019B013301934FF0010B09
:1033E0000427ECE758469AE700208346AAE70399AA
:1033F00088072FD5601B4FF0010CB0F5007FFFF45C
:1034000044AF3149314A32484FF41F7321F01CF860
:10341000314821F019F84FF41F712C4821F00BF8B6
:103420004FF0000CE9E705B309F140010DEB010E87
:10343000C0F3870001990EF8200C0EF8101CBCF1A7
:10344000000F0ED060F07F000EF8200C08F101088C
:1034500009F10109C5F10801043406914FF6DA7E3D
:10346000AEE7049801300490F2E7BCF1000F01D000
:103470000136EDE7029802360028E9D10098CDE93F
:103480000632FDF779F9DDE906320644E0E7042B60
:1034900008D10AF1040015B1DAF8001021600434F3
:1034A00082468DE70AF1070323F0070303F1080AB8
:1034B0001DB1D3E90001C4E90001083408237FE706
:1034C0008C83020088F1020053E10200F7A702009A
:1034D000BFA6020046A8020025A80200631BB3F5A0
:1034E000806F0CD339493A4A3A4840F2D22320F04F
:1034F000ABFF394820F0A8FF40F2D2218DE71DB97B
:10350000A6F10804E018D5E6029A28609B082B7003
:103510009DF81030BAB1EB7085F80280B8F1000F59
:1035200005D008A80022C5F1010791450DD1C5F1CC
:10353000010308AF4FF0000A01930DF1300BD145A4
:1035400012D1601BB6E66B70E6E710F8013B190676
:1035500008D507EB040CB44503F07F033FF6A8AE93
:1035600004F8013B0132E0E7B8F1000F03D097F90E
:103570000020002A16DB029BC3B11AF80B2004F8C6
:10358000012B0022019B18191044B0423FF690AE67
:10359000387804F8010B00990392204624F0BAFD14
:1035A000039A14440AF1010A0137C8E73A7855F83A
:1035B00022300093029B45F822300098FDF7DCF89A
:1035C000421CDFE76FF00D0074E600BF53E102001C
:1035D000F7A70200BFA6020060A80200014B186016
:1035E000704700BF000200202DE9F84F054608464D
:1035F000AB8B1907904616D501280CBF43F010037A
:1036000043F02003AB83143528461DF011FC00283D
:1036100040F0B181AE49AF4AAF484FF4997320F002
:1036200013FF29469DE0022803F0070140F07D8149
:10363000284620F031FF052800F2FA8001A353F854
:1036400020F000BF073600002B39000031380000A1
:10365000D53600006F370000CF37000002F00702B8
:10366000531F012B1AD80023062A2E68A4B2C5E9DD
:10367000003309D1334603E0EA8B0132EA831B6849
:10368000002BF9D144F00204AC83284620F004FF5B
:10369000002800F05A8144F0200455E1042A0DD19D
:1036A000A4B2AC83284620F0F7FE0646002800F0BE
:1036B0004C8144F02004AC83002646E18749884AC7
:1036C000854840F21B1320F0BFFE40F21B118448D6
:1036D00020F0B1FE49B18349814A7F484FF4AB7372
:1036E00020F0B2FE4FF4AB71F1E72B684BB97E4985
:1036F0007B4A794840F2571320F0A6FE40F257115A
:10370000E5E72B691F684FB97849754A72484FF44D
:10371000AD7320F099FE4FF4AD71D8E7AC8B24F077
:10372000070444F00604A4B2AC830E468A464FF068
:103730000609AB68002B00F00F814FF0010B44F03D
:103740000804AC8305F1140420461DF071FB002829
:1037500078D15F495F4A60484FF4997320F074FE56
:103760002146634820F070FE4FF499718EE00229E3
:1037700009D060495A4A584840F25D1320F064FE6F
:1037800040F25D11A3E7EE8B4EB15B49544A5248BB
:103790004FF4AF7320F058FE4FF4AF7197E72B69E9
:1037A0005F684FB951494E4A4B4840F2611320F0CF
:1037B0004BFE40F261118AE7AC8B24F0070444F021
:1037C0000404A4B2AC83B2464FF00409B1E7012966
:1037D00009D04A49424A40484FF4B27320F034FEBF
:1037E0004FF4B27173E72B684BB93F493C4A3A48F2
:1037F00040F2651320F028FE40F2651167E72B695F
:103800009F684FB93949364A33484FF4B47320F0B2
:103810001BFE4FF4B4715AE7AC8B24F0070444F05C
:103820000504A4B20026AC83B2464FF0050980E738
:103830002A492B4A284840F26B1320F005FE40F23B
:103840006B1144E788F31188BFF36F8FBBF1000F52
:103850001ED1002E33D117B129492846B847EFF3BE
:103860001188202383F31288BFF36F8F20461DF049
:10387000D1FA00284AD1174A22491748842320F058
:10388000E3FD2146204820F0DFFD842111481FE799
:10389000A9680029DDD0D1F800800029D9D0D1F85D
:1038A00004B053464A462846D847B8F1000F04D022
:1038B000D8F8003041469846EFE74346FAE73146EC
:1038C00053464A462846366820F012FEC1E700BF3C
:1038D00066A9020039A90200BFA6020053E1020056
:1038E00093A80200B8A80200C4A80200E7A802003A
:1038F0007DA90200FEA8020014A9020023A902006B
:103900008539000092A90200A7A9020020461DF0F7
:10391000A5FAAC8B24F00804A4B2AC83E20621D54E
:1039200024F01003AB8304F00701D5F818A0AA8B8C
:10393000BAF1000F22F00704BFF690AE00232E6804
:10394000C5E9003344F00104AC8304F0070989455C
:103950004FF000077FF4EDAE0EB9002FDED04FF030
:10396000000BECE6A3067FF54EAE24F02003AB83FC
:1039700004F007015CE688F31188BFF36F8FBDE8A0
:10398000F88F00BFF8B504460D4600F11406EFF3BA
:103990001187202383F31288BFF36F8F30461DF009
:1039A00039FA68B90C4A0D490D48842320F04CFDC2
:1039B0000C48314620F048FD0748842120F03BFDAB
:1039C00030461DF04BFAA5613A4620460121BDE87C
:1039D000F840FFF709BE00BF39A9020092A9020012
:1039E000BFA60200A7A902002DE9F04704460E4633
:1039F00020F06EFD051E66DB04F11409EFF3118A59
:103A0000202383F31288BFF36F8F48461DF002FA1C
:103A1000804660B9374A38493848842320F014FD7D
:103A20004946374820F010FD8421324843E048469B
:103A30001DF014FAE38BA78B4FF6FF72934207F049
:103A4000070743D0062F2CD8DFE807F01F43092BC8
:103A50001F041F006FF085054FF0000802E00133DE
:103A6000E383022548461DF0E3F9002834D1214ABA
:103A7000244922484FF4997320F0E6FC4946224835
:103A800020F0E2FC4FF49971CFE7002333606368C4
:103A900023B9C4E9006687B13D46DDE71E60666074
:103AA000F9E71A4915481A4A4FF4E47320F0CCFCA0
:103AB00017484FF4E47120F0BEFC52460221204624
:103AC000FFF792FD3D462846BDE8F0876FF00A05F6
:103AD000C2E76FF00405BFE78AF31188BFF36F8F69
:103AE000B8F1000FEFD000233A463146204620F0CF
:103AF000FFFCE8E739A9020092A90200BFA6020074
:103B0000A7A9020066A902007DA9020023A902005C
:103B100093A80200F8B5054600F11406EFF31187EB
:103B2000202383F31288BFF36F8F30461DF072F9A4
:103B300060B9264A26492748842320F085FC31466F
:103B4000254820F081FC842120482BE030461DF0E0
:103B500085F9AC8B04F00704022C17D0012C0CBFA4
:103B60006FF004046FF0850430461DF061F938BB36
:103B7000164A1A4917484FF4997320F065FC3146EC
:103B8000174820F061FC4FF49971DDE7EB8B5BB9CE
:103B900014491048144A40F2EF1320F055FC124823
:103BA00040F2EF1120F047FC013B9BB2EB83002B6E
:103BB000DAD13A4621462846FFF716FD2046F8BDE1
:103BC00087F31188BFF36F8FF8E700BF39A90200B0
:103BD00092A90200BFA60200A7A9020066A90200DE
:103BE0007DA90200BDA9020093A802002DE9F041C1
:103BF0000F460546002850D000294ED000F114068B
:103C0000EFF31188202383F31288BFF36F8F3046C0
:103C10001DF000F960B9224A22492348842320F08C
:103C200013FC3146214820F00FFC84211C4817E08A
:103C300030461DF013F939462846AC8B20F011FCB4
:103C400080B104F00704231F022B0DD91849164830
:103C5000184A40F22D2320F0F7FB164840F22D21A0
:103C600020F0E9FB6FF0770430461DF0E1F868B909
:103C70000B4A11490C484FF4997320F0E5FB31468B
:103C80000E4820F0E1FB4FF49971CFE788F31188DB
:103C9000BFF36F8F2046BDE8F0816FF01504F9E7A0
:103CA00039A9020092A90200BFA60200A7A902003A
:103CB000CBA9020093A8020066A902007DA9020018
:103CC00008B54268816002F00302032A03460AD065
:103CD0006AB908490848094A452320F0B5FB074856
:103CE000452120F0A8FB006800225A6008BD002092
:103CF000FAE700BF53E10200BFA6020042AA020099
:103D000008B558B907490848084A40F2351320F069
:103D10009BFB064840F2351120F08DFB4368587933
:103D200008BD00BFA0AA0200BFA6020068AA020048
:103D300010B548B908490948094AA02320F084FB76
:103D40000748A02120F077FB03681B6913B1BDE889
:103D500010401847184610BDA0AA0200BFA60200D6
:103D600068AA02002DE9F84FDFF8ECA0DFF8EC803C
:103D7000AAEB08038F2B81460F460BD93849394AE5
:103D8000394840F2531320F05FFB40F2531135489D
:103D900020F051FB354820F0EAFB064650B3BDE861
:103DA000F88F237B8BB12368DB680BB120469847E3
:103DB0006368204683F806B0FFF7BAFFB0B96368BE
:103DC00004221968204620F0F7FB013610345445D0
:103DD00015D92749234A244840F25F1320F034FBC9
:103DE000244820F031FB40F25F11D0E70BFA06F3D4
:103DF0001D43EAE7444605464FF0010BE7E7D0D301
:103E0000B9F1000FCBD04FF00109002DC7D02E46DD
:103E100095FAA5F4B4FA84F409FA04F308EB04144F
:103E20006FEA030A25EA0305237B5BB12046FFF70F
:103E30007FFF38B9636804221968204606EA0A063B
:103E400020F0BAFB002DE3D127B14FF4A47000217C
:103E50001CF080FD3546D8E7148802000488020073
:103E6000E4AA0200B7AA0200BFA6020000130020C5
:103E700014AB020035AB0200014B53F82000704731
:103E8000D889020008B5034608462BB1044A1360DE
:103E900000F0EAFA002008BD6FF01500FBE700BF54
:103EA00008020020144A1548002310B51370144A64
:103EB0001360144A4FF400411360FFF7E3FF124B05
:103EC000124918468B4215D91149124A124840F23C
:103ED0002B1320F0B9FA114820F0B6FA0D4840F241
:103EE0002B1120F0A8FA1A1A5C6812110132227103
:103EF0001033E7E7F7D310BDD13200206B45020045
:103F0000F8120020FC12002004880200148802002D
:103F100014AB0200B7AA0200BFA6020035AB020034
:103F200070B5134D297811BB0120FFF71BFF114C11
:103F3000114EB44218D91149114A124840F2CF1318
:103F400020F082FA104820F07FFA0D4840F2CF119D
:103F500020F071FA2046FFF7D3FE18B123682046FF
:103F60009B6898471034E4E7F4D301232B7070BDAD
:103F7000D1320020048802001488020014AB020031
:103F8000B7AA0200BFA6020035AB020010B5044676
:103F9000084820F0ECFA5CB1BFF35B8F064B53E8A6
:103FA000001F013943E80012002AF8D1BFF35B8FEC
:103FB00010BD00BFF8120020FC12002070B5154B98
:103FC0001B6805469847A860134BBFF35B8F1B68BF
:103FD000BFF35B8F114C124EB44219D91149124AEA
:103FE000124840F20A2320F02FFA114820F02CFA50
:103FF0000D4840F20A2120F01EFA2046FFF780FE0D
:1040000020B1236829461B68204698471034E3E70F
:10401000F3D370BD080200200402002004880200CF
:104020001488020014AB0200B7AA0200BFA6020067
:1040300035AB0200044A054B9B1AB1EBD30F34BFDA
:1040400052F8310000207047FC860200048802000C
:104050002DE9F04F87B004AFD7E90EBA3E6B0546A5
:10406000884614469946BBF1000F2CD0C7F804A02F
:10407000CDF800A07A6B5B4610210020FFF7C6F850
:1040800000280BDA29492A4A2A484FF4B47320F051
:10409000DBF94FF4B471264820F0CDF9B0F5006F8C
:1040A000014612D340F2FF730393234B0293002384
:1040B000CDE9003321490222184620F09FFA0C373F
:1040C000BD46BDE8F08F5946584604F0070205F09A
:1040D0000704E40044EA821444EA402444EA065413
:1040E00017360E4426F00706ADEB060D04ADBBF106
:1040F000000F13D0CDF800A07A6B5B4605F11000DD
:10410000FFF784F8002809DA0849094A094840F20B
:104110008D1320F099F940F28D11BCE74B462246F1
:104120004146284620F051FAC9E700BF8DAB020096
:1041300061AB0200BFA6020097AB0200A487020099
:10414000406820B1034BC01A40F3CF0070474FF0D6
:10415000FF307047FC8602000EB403B503AB014686
:1041600053F8042B0448019301F0B8F902B05DF84C
:1041700004EB03B0704700BF39460200CA0605D4FD
:104180008B064CBF02490349FFF7E6BF704700BFEB
:104190008CE30200CFAB02002DE9F04F89B004465A
:1041A0009DF85070DDF858A0DDF8608005920D464E
:1041B0009946002F00F0AC80914B042FDB5D0693F5
:1041C0000BD99049904A91484FF4187320F03CF96C
:1041D0004FF418718C4820F02EF908F4807307937F
:1041E00020F0E8F908F0020B024600285DD088496B
:1041F0002046FFF7B1FF0646BBF1000F08D018F0CC
:10420000440F54D183492A462046FFF7A5FF0644B0
:1042100008F0010353B1804B804953F82720804BAD
:104220002046002A08BF1A46FFF796FF08F480735D
:10423000002B08F0080318BF4FF00009002B62D0D4
:10424000784B794953F827202046FFF785FF05462C
:10425000059B2BB175491A462046FFF77DFF0544A3
:10426000B9F1000F0CD0069B002B4FD07049714B59
:10427000042F18BF19464A462046FFF76DFF054434
:104280006D483544159B002B48D06C49224620F0E0
:1042900090F8002842DA6A495B4A5C4840F2BD2344
:1042A00020F0D2F840F2BD2194E70646A4E7654B22
:1042B00018680028ABD0644B4FF47A7B1B68B5FBC1
:1042C000F3F54FF46163B5FBF0F100FB11550BFB07
:1042D00005F54FF03C0CB1FBF3F203FB1211B5FBFB
:1042E000F0FEB1FBFCF300FB1E550CFB13110BFBA6
:1042F00005F50091B5FBF0F55449CDE901E52046FF
:10430000FFF72AFF83E708F00805A1E74949B2E76C
:10431000012B0CBF48484E483D46B3E7179B002B86
:1043200054D0DDF85C904146B9F1100F204628BF0B
:104330004FF01009FFF722FF0026B54218DC0026D7
:1043400033461AF8032043492046FFF705FF01369C
:10435000102E13D0720703D13F492046FFF7FCFE11
:10436000B1453346EDD83D492046FFF7F5FEEEE76F
:1043700039492046FFF7F0FE0136DEE7384920468E
:104380000026FFF7E9FE33461AF803203549A2F16B
:1043900020035F2B28BF2E222046FFF7DDFE0136CB
:1043A000102E0DD0730703D12B492046FFF7D4FE02
:1043B000B1453346E8D828492046FFF7CDFEEEE761
:1043C000179BB3EB0903CA441793AAD15FB118F046
:1043D000010F04D0124A11492046FFF7BDFE4146A5
:1043E0002046FFF7CBFE6268A1682068D2E900236F
:1043F00020F014F9636800221A6009B0BDE8F08F5C
:1044000044EE02000FAC0200E0AB0200BFA60200C7
:104410001AAC02001EAC0200E8890200E7BD0200EF
:10442000D2AB0200FC89020043AC020049AC02009E
:10443000D7AB0200DBAB020039460200DD540000BE
:104440004DAC0200081300200413002027AC02002A
:104450005546020056AC02005EAC02005CAC0200A5
:1044600060AC020062AC0200074A002101239042C6
:1044700006D8064A01B901231360054B186070473E
:1044800040085B000121F2E740420F0004130020C6
:1044900008130020F8B5074F0D4604464618B442ED
:1044A00001D12846F8BD14F8011BBB6801485B68C0
:1044B0009847F4E79484020010B543681C680948E3
:1044C00022F0E2FA48B908490848094A99231FF03E
:1044D000BBFF074899211FF0AEFF23685B685C6053
:1044E00010BD00BF94840200C3AC0200BFA602004E
:1044F00085AC0200014B036000207047448A020033
:1045000010B5DFF824C086B04FF42814CDE904C4F8
:104510000824029404AC0194BDF82040009421F0DA
:104520001FFC06B010BD00BF1800280080B505466E
:104530000E46174698461CF009FB034600F0A8FDFE
:10454000DFF83C90044649F8003042463946304690
:10455000A8470C4B1B7873B90B490C4A0C4840F226
:1045600046331FF071FF0B481FF06EFF074840F203
:1045700046311FF060FF54F8090000F025FD00BF30
:10458000080000001234002022AD0200F7AC020047
:10459000BFA6020035AD020008B50348034A00215A
:1045A000121A20F0FDF808BD18070020143400206E
:1045B0000748084A084908B5121A20F0F3F80748D6
:1045C000074A0849BDE80840121A20F0EBB800BFBE
:1045D000000000201807002088F1020000000020E1
:1045E0000000002088F1020070B5064686B00D4636
:1045F000002938D08B6805934B6804930B680393AC
:104600000024244B24490293012223462046CDE96D
:10461000004420F0C9F86B6905932B690493EB689B
:1046200003931E4B1C490094CDE90143012223460C
:10463000204620F0B9F8EB690393194B1649009412
:10464000CDE9014301222346204620F0ADF8AB69B5
:104650000393144B10490094CDE9014301222346F2
:10466000204620F0A1F8012E0DD1EFF30583103B79
:1046700003930D4B02930023CDE9003306493246E4
:10468000184620F091F82946304606B0BDE8704043
:1046900019F00ABA57AD0200D487020086AD0200B5
:1046A000B5AD0200C4AD0200F2AD020030BFFFF7AD
:1046B000FDBF00BF2DE9F0410B4EDFF8308006EB67
:1046C0000807CC1B054632460949204623F022FD47
:1046D000A01942460021083C23F043FD2C6707F156
:1046E0000800BDE8F08100BF0000000008000000E5
:1046F000148802002DE9F04385B00024564B029344
:10470000CDE9004423468046894620465349164653
:10471000012220F064F8524B9B6AD80640D5514BD9
:104720000094CDE90143204623464C49012220F064
:1047300056F811244A4B9B6A19070AD54A4B029333
:104740000023CDE9003345490122184620F047F8FF
:104750001224434DAB6A9A0724D50024434B02939D
:10476000CDE9004423463D490122204620F037F898
:104770006F6BAB6A1B0659D53D4B38490397CDE9A2
:104780000143009423460122204620F028F8B9F185
:10479000000F03D0AB6A23F08003AB62132403E065
:1047A0001024C7E76FF015072D4B9B6AD8070AD571
:1047B000304B02930023CDE90033284901221846EB
:1047C00020F00DF81424264B9B6A99060AD52A4B33
:1047D00002930023CDE900332049012218461FF03F
:1047E000FEFF15241E4DAB6ADA0602D4AB6A9B07A6
:1047F0000AD56B68180507D54146384600F09AFB84
:10480000B8B180F309880224154B9A6A920642BF18
:104810005A6A22F400525A629A6A42F0FF029A627D
:1048200020460023337005B0BDE8F0836FF0150714
:10483000B4E7AB6AD906E7D51049114A114840F2EE
:1048400027131FF001FE10481FF0FEFD0C4840F238
:1048500027111FF0F0FD00BF05AE0200D487020053
:1048600000ED00E01BAE02004EAE020061AE0200A1
:1048700079AE02008FAE0200AEAE02000FAF0200B2
:10488000DDAE0200BFA6020059AF02001FB5002432
:10489000374B029301222346CDE900443549204697
:1048A0001FF09DFF344B9B6A9A015ED5334B314913
:1048B0000094CDE901432046234601221FF08FFFDB
:1048C0001E202D4B9B6ADB010AD52D4B0293002342
:1048D0001846CDE90033274901221FF080FF1F2031
:1048E000254B9B6A1C030AD5264B029300231846CE
:1048F000CDE900331F4901221FF071FF21201E4B1B
:104900009B6A59030AD5204B029300231846CDE930
:104910000033184901221FF062FF2220164B9B6AC8
:104920009A030AD5194B029300231846CDE90033A8
:10493000104901221FF053FF23200F4B9B6ADB031A
:104940000AD5134B029300231846CDE900330949D9
:1049500001221FF044FF2420074A936A6FEA0343B1
:104960006FEA1343936204B010BD1D20A9E700BF96
:104970007CAF0200D487020000ED00E094AF02009B
:10498000A7AF0200C1AF0200DFAF020004B0020017
:104990001EB00200F0B585B00024434B0293CDE970
:1049A0000044234607460E460122404920461FF098
:1049B00016FF3F4B9B6ADB0465D53E4B3B49009499
:1049C000CDE901432046234601221FF008FF1720AE
:1049D000374B9B6A1D050AD5374B029300231846B7
:1049E000CDE90033314901221FF0F9FE1820304D86
:1049F000AB6A9C051FD50024304B0293012223464D
:104A00002046CDE9004429491FF0E9FEAB6BAA6AB4
:104A100010040FD503932A4B24490094CDE9014398
:104A20000122234620461FF0DAFE1FB1AB6A23F4B1
:104A30000043AB6219201E4B9B6A59050AD5214BD6
:104A4000029300231846CDE90033184901221FF0D4
:104A5000C6FE1A20164A936A13F4807315D01A4BB7
:104A6000029300231846CDE90033104901221FF0BC
:104A7000B6FE1B200E4A936A43F47F4393620023E1
:104A8000337005B0F0BD1620A2E7926A9204F1D50A
:104A90000E4A06490093CDE90132184601221FF063
:104AA0009EFE1C20E6E700BF49B00200D48702004A
:104AB00000ED00E05FB002004EAE020070B00200F8
:104AC00089B002009EB00200B9B00200AEAE020092
:104AD0002DE9F0418D4B0446586890B0C0F30806AC
:104AE000002383F31188BFF36F8F02F07F45B5F188
:104AF0007F4F0CD102F00C05082D17D1844A85494F
:104B00000093CDE90132184601221FF068FE824968
:104B1000824A834840F21B431FF096FC81481FF0F5
:104B200093FC40F21B417D481FF085FC120746BFF5
:104B30000C461D460125002CE9D00027F31E8DF8F8
:104B40001F70092B00F2CA80DFE803F005BEC2A186
:104B5000C8C8C8C8C8C6744B6E49DFF8B081009792
:104B6000CDE901730023012218461FF038FE8DF8AD
:104B70001F70D8F82C6016F0020604D06B4B00971B
:104B8000CDE9017307E0D8F82C30002B0BDA684B25
:104B90000096CDE9016300235E49012218461FF00B
:104BA0001EFE002239E0D8F82C305B007FD5614B27
:104BB00058490096CDE901630122334630461FF083
:104BC0000EFED8F81430A26943F48073C8F814308C
:104BD000BFF34F8FBFF36F8F32F8023CD8F8142029
:104BE00022F48072C8F81420BFF34F8FBFF36F8F89
:104BF00003F47F42B2F55F4F2FD1DBB2022B2CD1F1
:104C0000236803934C4B43490096CDE9016301228D
:104C1000334630461FF0E3FD22689DF81F30CBB9C4
:104C200008AE04F1200720686168334603C30834E6
:104C3000BC421E46F7D10F9B002D63D0C3F3080181
:104C400021B96FEA53236FEA43230F9308A9104653
:104C5000FFF7CAFC10B0BDE8F0812C4B9A6AD2B2C3
:104C60003AB10DF11F0201212046FFF743FD024634
:104C7000D3E79A6A12F47F4F05D00DF11F0101208E
:104C8000FFF788FEF3E79B6AB3F5803F02D3FFF797
:104C9000FDFDECE72949214A214840F2ED231FF0B0
:104CA000D3FB27481FF0D0FB40F2ED213BE723491F
:104CB0001A4A1B484FF43C731FF0C6FB21481FF0F3
:104CC000C3FB4FF43C712EE70DF11F020021CBE72F
:104CD0000DF11F010020D3E71B4B50E71B4A1C4B73
:104CE0000C4910F4F87F08BF1346103ECDE9033697
:104CF000184B02930023CDE90033012218461FF020
:104D00006EFD4EE76FF308039FE700BF00ED00E084
:104D1000FFB00200D48702002AB10200DDAE02001B
:104D2000BFA602003DB102007BB1020092B10200B9
:104D3000B3B10200C1B10200E0B1020053E10200D0
:104D4000FCB1020020B2020050B20200D1B0020059
:104D5000E6B0020074B20200044B5A6942F010023D
:104D60005A615A6922F008025A61704700ED00E06A
:104D7000EFF30880EFF3098101B57246FFF7A8FE53
:104D800001BD00BF0B4880F3088817F031FE2020DA
:104D900080F3118808484FF40461401880F30988B3
:104DA000EFF314800221084380F31488BFF36F8F60
:104DB00000F088F8C05A0020004900201EF0040FBF
:104DC0000CBFEFF30880EFF30980816911F8021C32
:104DD0000229FFD001B572461FF0F6FC01BD00BFED
:104DE00040B2002807DB044A4109012300F01F00FC
:104DF000834042F82130704700E100E040B20028D3
:104E00000CDB4309064900F01F00203301228240D9
:104E100041F82320BFF34F8FBFF36F8F704700BF60
:104E200000E100E0054B420900F01F0053F822208A
:104E3000012303FA00F01040704700BF00E100E0DA
:104E400038B54B1C072B04460D460FD9114A1249A1
:104E500012486B231FF0F8FA11482946072322460F
:104E60001FF0F2FA0B486B211FF0E5FA40B2002860
:104E7000ACBF00F160400B4A4FEA4313B8BF00F0EB
:104E80000F00DBB2AABF00F56140135480F8003375
:104E900038BD00BF87B20200BEB20200BFA602004A
:104EA000D9B2020014ED00E0044B054A23F07F0361
:104EB0009360BFF34F8FBFF36F8F70470000000008
:104EC00000ED00E008B5FFF7EFFF0B4AD2F888309D
:104ED00023F47003C2F88830EFF3148323F0040343
:104EE00083F31488BFF36F8FFFF756FBFFF760FB68
:104EF00000F0B0F818F026FF00ED00E042F8203C8A
:104F0000009B42F81C3C0A49019B42F8183C029B5A
:104F100042F8143C21F001014FF0807342F8043C48
:104F200042F8081C0023203A02654367704700BF1F
:104F30002D450000094A0346906870B113F1160F21
:104F4000006E05D0A0F14002934205D3834203D204
:104F5000814228BF0020704700207047A82B002006
:104F600008B515460B4A0C4B9060026F1A600E464E
:104F700000F0A0F82C4686F309880020034B9847E0
:104F80002046002100220023014C20470D4802004A
:104F90002D450000A82B002030130020014B1022CB
:104FA0001A61704700ED00E0054B5A699B689A4210
:104FB0001FBF044A536843F080535360704700BFDB
:104FC000A82B002000ED00E0084B9B6883420BD12A
:104FD000EFF3058343B1064B5A6842F080525A60A2
:104FE0005A6A22F400425A621AF022BEA82B00200C
:104FF00000ED00E014498A684FF030001044EFF3F0
:10500000098C80E8F01F202080F31288BFF36F8F97
:105010000E4F4FF000664A698A603E60106F0C4C7C
:105020002060506F0023536780F3118804B5104649
:1050300000F040F8BDE8044002F1300090E8F01FB5
:105040008CF3098870470000A82B002004ED00E0D5
:1050500030130020044800232021C2180133302BD4
:1050600082F80013F9D1704700E100E008B5EFF3D2
:105070000583064A103B02EBC30152F8330049682E
:105080008847BDE80840FFF78FBF00BFCC8402000F
:10509000014800687047000030130020024B034AAB
:1050A0000348012100F096B8000004200000002011
:1050B000D08A0200036E054A403B1360044B402136
:1050C000C2E901131046012100F0AAB834130020F0
:1050D00000000B151FB5144AD2F89030C3F3072314
:1050E000013B98420FD9114B029300230390CDE965
:1050F000003318460E4901221FF0BBFB6FF015006C
:1051000005B05DF804FBC2F898000B6823F01F039C
:10511000034343F01003C2F89C308B6843F0010353
:10512000C2F8A030ECE700BF00ED00E01DB30200C4
:10513000BC870200F0B50E4689B01F460446002524
:10514000B54212DA606838B3BFB1431E18420FD0BF
:10515000134B02930023CDE900331249039501223A
:1051600018461FF086FB6FF01502104609B0F0BD1F
:105170001F28EDD921680B42EAD1236805931FF05F
:1051800068FBA36805A90343D0B20793FFF7A2FF0A
:1051900010F1160FE7D0421C01350C34D0E700BFE8
:1051A00043B30200BC870200044B0522C3F89420DD
:1051B000BFF34F8FBFF36F8F704700BF00ED00E06C
:1051C000BFF35F8F024B0022C3F89420704700BFEB
:1051D00000ED00E038B50D4D01232A780C46FFF7AD
:1051E000A9FF287016300FD1094A0A490A4840F22F
:1051F00089131FF029F9094821461FF025F90448B1
:1052000040F289111FF017F938BD00BFD3320020DA
:1052100069B3020053E10200BFA6020098B3020086
:1052200010B5144A002312780C46FFF783FF10F1E3
:10523000160F08D0104A0021D2F89030C3F307238C
:10524000984210DB10BD0D4A0D490E484FF4D4733F
:105250001FF0FAF80C4821461FF0F6F807484FF403
:10526000D4711FF0E8F8C2F89800C2F8A01001301D
:10527000E2E700BFD332002000ED00E069B3020096
:1052800053E10200BFA60200C4B302002DE9F04FB3
:10529000834C8449D4F890300D68C3F307239D42B2
:1052A00085B013D9804A8149814840F202231FF01A
:1052B000CBF8D4F890207F482946C2F307221FF08C
:1052C000C3F840F2022178481FF0B5F8FFF778FFE5
:1052D00049680022954201F10C012DD1764F774C9F
:1052E0003D706846FFF706F9754D764E81464FF0E2
:1052F0000008C14533D13B7869490020D1F890209E
:10530000C2F307229342C0F2C180FFF74DFFD1F8EC
:10531000903003F47F43B3F5006F00F0BD806A491D
:10532000614A634840F27D231FF08EF867481FF002
:105330008BF840F27D21C6E7C4F8982051F80C3C68
:1053400023F01F03134343F01003C4F89C3051F8BB
:10535000043C43F00103C4F8A0300132BAE7009ADC
:1053600002EB08134FEA0811D3F80CA00AEA040074
:10537000B0F5000F66D00BD8B0F5001F3CD0B0F5EB
:10538000800F52D0B0F5801F16D008F10108B0E7A9
:10539000B0F1007F61D0B0F1805F69D0B0F1807F63
:1053A000F3D19868D3F804A052581FF052FACDE90F
:1053B00001A240F088700BE09868D3F804A052581E
:1053C0001FF047FACDE901A240F0885040F43020A8
:1053D0000390387801A9FFF77DFE002852DA33499F
:1053E000314A334840F235231FF02EF838481FF079
:1053F0002BF840F2352166E79868D3F804B052588C
:105400001FF027FA1AF0010F40EA0600CDE901B2B9
:105410000390DED02F49244A254884231FF014F836
:105420002D481FF011F884214DE79868D3F804A0A7
:1054300052581FF00EFA40F0C060CDE901A240F4CE
:105440000030C5E79868D3F804A052581FF001FA5D
:10545000CDE901A240F08270BAE79868D3F804A0C1
:1054600052581FF0F6F9CDE901A240F48020AFE7D1
:105470009868D3F804A052581FF0EBF9CDE901A2C7
:105480002843A5E73B7801333B707EE7C1F89830AD
:10549000C1F8A000013331E7002005B0BDE8F08F6E
:1054A00000ED00E0DC8A020069B3020053E1020073
:1054B000BFA60200F1B30200D33200200000F0FFCB
:1054C0000000021100000811A4B40200F4B40200AC
:1054D0007AB4020025B402004BB40200F0B587B0E4
:1054E00007460E4614460021102268461D4622F04B
:1054F00038FE02238DF802302A46054B01932146DF
:105500006846CDE904761DF089FC07B0F0BD00BF08
:105510009348020008B5024B1B689847002008BD5D
:1055200040130020034B044A1860937843F00203B1
:1055300093707047401300202C02002008B50649E4
:10554000064821F00701C1F1005202F58022FDF763
:10555000C3FD002008BD00BF1F6F002044130020C2
:1055600008B509484FF0FF324FF0FF3318F030FE16
:1055700048B106490648074A7F231EF065FF0548E3
:105580007F211EF058FF08BD3C0200205EB50200DE
:10559000BFA6020024B50200014818F0E1BE00BF1A
:1055A0003C02002038B50546FFF7DAFF08482A46D6
:1055B0000821FDF707FD044628B925B1FFF768FD6E
:1055C000044B0C221A50FFF7E7FF204638BD00BFFE
:1055D000441300200C00000010B50446FFF7C0FF84
:1055E00021460348FDF74CFCBDE81040FFF7D4BF4F
:1055F0004413002070B5A0FB015434B92846FFF7CE
:10560000D1FF064640B9304670BDFFF741FD054B5E
:105610000C221A500026F6E72A46214622F0A1FD68
:10562000F1E700BF0C00000070B54169867A0B4DB0
:10563000044659B1437ADB0706D42C2303FB0653F7
:105640005B6A1B689B689847002363612C20214696
:1056500000FB0650BDE8704021F08DBAE405002043
:10566000024B2C2202FB0030704700BFE4050020F3
:10567000827A064B2C2101FB02339A6A1B7F1B3373
:10568000801A23F00303B0FBF3F07047E405002019
:1056900038B5074B827A2C2404FB02335B6AD3E9CA
:1056A00001240C601568FFF7E3FF04FB005038BDD0
:1056B000E405002008B543684BB107490748084A8C
:1056C00063231EF0C1FE064863211EF0B4FE038270
:1056D0004369C36008BD00BF91B50200BFA60200C8
:1056E0006CB502002DE9FF47054668460391174651
:1056F0001C4621F02FFBDDE9008955B95C495D4A64
:105700005D484FF485731EF09FFE4FF48571594834
:1057100018E005F11406EFF3118A202383F31288B1
:10572000BFF36F8F30461BF075FB68B9534A54497D
:10573000514884231EF088FE314652481EF084FEF4
:1057400084214E481EF077FE30461BF087FB6B8BA2
:10575000002B5AD02A8B9A4239D90022002328469E
:1057600019F026F80446002831D030461BF060FBC3
:1057700068B9424A444940484FF499731EF064FEA8
:10578000314642481EF060FE4FF49971D9E78AF322
:105790001188BFF36F8F039D002D59D042464B46B1
:1057A000684621F0FCFAA27A394B2C2101FB023326
:1057B00020465B6A1B6803A91E68DDE90023B04729
:1057C0006061002837D12046FFF72EFF2EE06C8B5A
:1057D000631E6B8330461BF02BFB0028C9D08AF375
:1057E0001188BFF36F8F2B7F2A8B1B33121BAC6A80
:1057F00023F0030302FB0344254B264AEB1A9B10BC
:105800005343A3722B7FE372C5E730461BF010FBB6
:105810000028AED08AF31188BFF36F8F23463A4633
:10582000284618F0C5FF04460028B4D100242046BD
:1058300004B0BDE8F087039B9D420BD916490D4A81
:105840000D4840F25F131EF0FFFD40F25F115EE76E
:1058500065612B460021012222816160E27A638228
:1058600004F1180022F07DFC2046FFF723FFDEE75D
:10587000A1D102006CB50200BFA6020039A9020046
:1058800092A90200A7A9020066A902007DA9020050
:10589000E4050020A38B2EBAABB5020070B50C4610
:1058A000054658B92849294A29484FF4D3731EF0B0
:1058B000CBFD4FF4D37125481EF0BDFD49B92549F4
:1058C000224A234840F2A7131EF0BEFD40F2A71162
:1058D000F1E7EFF31186202383F31288BFF36F8F74
:1058E0001D481BF097FA60B91C4A1D4918488423CB
:1058F0001EF0AAFD18491B481EF0A6FD842117487A
:10590000DAE715481BF0AAFA002323606B689BB9FD
:10591000C5E9004410481BF08BFA80B90F4A1249C0
:105920000B484FF499731EF08FFD0B490F481EF082
:105930008BFD4FF49971E2E71C606C60EAE786F337
:105940001188BFF36F8F70BD3BC402006CB50200BD
:10595000BFA602001ABC02005013002039A90200A1
:1059600092A90200A7A9020066A902007DA902006F
:1059700070B5044658B923492348244A40F2B3136A
:105980001EF062FD214840F2B3111EF054FDEFF30A
:105990001186202383F31288BFF36F8F1C481BF0FE
:1059A00039FA60B91B4A1C49174884231EF04CFD84
:1059B00017491A481EF048FD84211648E5E71448A7
:1059C0001BF04CFA25682DB162682B682360954264
:1059D00008BF63600E481BF02BFA68B90D4A1049E6
:1059E00009484FF499731EF02FFD09490D481EF028
:1059F0002BFD4FF49971E0E786F31188BFF36F8FA9
:105A0000284670BD3BC40200BFA602006CB5020070
:105A10005013002039A9020092A90200A7A9020090
:105A200066A902007DA902002DE9F041044618B3E1
:105A3000204F00264FF02C08254605F10802646827
:105A4000BFF35B8F52E8003F591E42E80010002868
:105A5000F8D1BFF35B8F13F0FF0319D1164A174932
:105A6000174840F2D7131EF0EFFC294615481EF0E8
:105A7000EBFC40F2D71108E013490F4A10484FF4ED
:105A8000E2731EF0E1FC4FF4E2710B481EF0D3FC10
:105A9000012B0AD1AB7AEE6008FB03736E601B6AC0
:105AA000284623B19847002CC6D1BDE8F081FFF706
:105AB000BBFDF8E7E40500206CB50200BCB50200B0
:105AC000BFA60200C9B502001ABC020038B50446E0
:105AD00058B91549154A16484FF4FE731EF0B4FC28
