:10000000805A002019420000292D020005420000FC
:10001000054200000542000005420000000000000B
:10002000000000000000000000000000514200003D
:100030000542000000000000894400000542000065
:1000400001450000F182010001450000014500006A
:100050000145000001450000014500000145000088
:100060000145000001450000014500000145000078
:100070000145000001450000014500000145000068
:100080000145000001450000014500000145000058
:100090000145000001450000014500000145000048
:1000A0000145000001450000014500000145000038
:1000B0000145000001450000014500000145000028
:1000C0000145000001450000014500000145000018
:1000D0000145000001450000014500000145000008
:1000E00001450000014500000145000001450000F8
:1000F00001450000014500000145000001450000E8
:1001000053B94AB9002908BF00281CBF4FF0FF317E
:100110004FF0FF3000F00CB8ADF1080C6DE904CEE3
:1001200000F018F8DDF804E0DDE9022304B07047C0
:10013000704700BF034611F8012B03F8012B002A7A
:10014000F9D17047034613F8012B002AFBD1181A86
:10015000013870472DE9F0478C468E46089E1546BB
:1001600004461946002B40F0D080724547D9B2FAB8
:1001700082F74FB1C7F120030EFA07FC20FA03F310
:10018000BD4043EA0C0CBC404FEA154EA8B2BCFB84
:10019000FEF8230C0EFB18CC08FB00F943EA0C43D5
:1001A000994528D9EB1808F1FF3204D2994502D9B4
:1001B000A8F102022B44A3EB0903A4B2B3FBFEFC9B
:1001C0000EFB1C330CFB00F044EA0344A04214D99C
:1001D0002C190CF1FF3304D2A04202D9ACF1020376
:1001E0002C44241A43EA02401EB1FC400023346030
:1001F0007360BDE8F0874246DDE76346F1E7002A19
:1002000079D0B2FA82F3002B3FD01946C1F1200316
:1002100002FA01F52EFA03F20EFA01FE20FA03F3B8
:1002200043EA0E034FEA154E00FA01F4B2FBFEFC5E
:10023000AFB20EFB1C201A0C0CFB07F842EA00427E
:1002400090455AD9AA180CF1FF3004D2904502D932
:10025000ACF102002A44A2EB08029BB2B2FBFEFC06
:100260000EFB1C220CFB07F743EA02439F4246D9D0
:10027000EB180CF1FF3204D29F4202D9ACF102021A
:100280002B44DB1B42EA004202E0AEEB02030122F8
:100290004FEA154EAFB2B3FBFEFC200C0EFB1C3335
:1002A0000CFB07F840EA034398452AD9EB180CF1F8
:1002B000FF3004D2984502D9ACF102002B44A3EBE5
:1002C0000803A4B2B3FBFEFC0EFB1C330CFB07F7C8
:1002D00044EA0344A74216D92C190CF1FF3304D287
:1002E000A74202D9ACF102032C44E41B43EA0040CC
:1002F0000F46114678E71F2188E76046ABE7624664
:10030000BFE76046DBE76346EFE7734506D916B9FA
:10031000002108466DE7C6E9000EF9E7B3FA83F756
:1003200087B9734501D3824207D8841A6EEB030361
:1003300001209C461EB900215BE73846FAE7C6E972
:10034000004CF8E7C7F1200CBB4022FA0CF51D4326
:1003500020FA0CF12EFA0CF30EFA07FE41EA0E0118
:100360004FEA154900FA07F4B3FBF9F81FFA85FEC6
:1003700009FB18300B0C08FB0EFA43EA00439A45C0
:1003800002FA07F240D9EB1808F1FF3004D29A457F
:1003900002D9A8F102002B44A3EB0A0389B2B3FBF4
:1003A000F9F809FB183308FB0EFE41EA03418E45BC
:1003B0002CD9691808F1FF3304D28E4502D9A8F16F
:1003C0000203294443EA0040A0FB0298A1EB0E017E
:1003D0004145CE46434602D306D14C4504D2B9EB43
:1003E000020E68EB05030138002EA4D0B4EB0E0218
:1003F00061EB030101FA0CFC22FA07F34CEA030358
:10040000F940C6E9003196E74046C5E74346D9E7DB
:10041000F0B500228BB0114640F6034006F010F90B
:10042000044600285ED105F0CFFE214609AA41F21C
:10043000030006F005F90446002853D1099A2B4D14
:10044000D168D1F80100D1F8051005F1780303C394
:10045000104604F033FD214609AA41F2010006F0DE
:10046000EFF8044600283DD10998C3685A7885F80A
:100470006F205A88A5F872201A7985F87020B3F891
:100480000720A5F87420B3F80530A5F8763004F0FD
:1004900015FD214609AA41F2020006F0D1F80446F2
:1004A00000BB099FFA6805F18006531C41321868A9
:1004B0005968344603C4083393422646F7D1384678
:1004C00004F0FCFC95F87C3013F0400314D1084A8A
:1004D00008490093CDE901321846012222F0D1FDEE
:1004E0006FF0120420460BB0F0BD00BF00000020EA
:1004F000699F0200A06B020009AA002142F20300DA
:1005000006F09EF804460028ECD1099AB24BD16857
:10051000D1F80100D1F8051003C3104604F0CEFC59
:10052000214609AA42F2020006F08AF80446002891
:10053000D8D1099FFE68B6F801309AB2BAB1F27804
:10054000AAB1A5F8FC30F378032B0BD00322CDE938
:100550000332A24BA2490090CDE9010302220346D7
:1005600022F08FFDF2789F48114624F0BEFD3846F8
:1005700004F0A4FC95F87C601F2316F02006A5F873
:10058000103119D14FF0FF304FF0FF3105F044FE2C
:100590000446002800F0B88102210C3004F0E0FD90
:1005A0000123037046702146324640F66D4006F046
:1005B00047F80446002895D195F89C301E0712D5BF
:1005C00009AA002142F21C0006F03AF8044600286D
:1005D00088D10998C368D3F80120D3F80530C5E95C
:1005E000382304F06BFC95F8D8309C0626D50DF125
:1005F000220108A806F0C2F8044600287FF472AF72
:100600004FF0FF304FF0FF3105F006FE06460028A0
:1006100000F07A8104210C3004F0A2FDBDF82030F6
:100620000380BDF8223043802246314642F2240046
:1006300006F006F8044600287FF454AF95F8D83049
:10064000580610D509AA002142F22A0005F0F8FF49
:10065000044600287FF446AF0998C3685B7885F8A4
:10066000123104F02BFC4FF0FF304FF0FF3105F05A
:10067000D3FD0646002800F0478108210C3004F025
:100680006FFD95F8D84014F0400F40F2022308BFE8
:100690000323A10795F8D9104CBF43F02C0343F076
:1006A0000C03A70648BF43F0400311F0090F18BF21
:1006B00043F4006304F001040246002143EA0410FD
:1006C00022F00FFD0022314642F2010005F0B8FF92
:1006D000044600287FF406AF95F87C30B5F8FC108E
:1006E0009E0661D4C9B909AA41F2050005F0A8FF28
:1006F000044600287FF4F6AEB5F8FC30099C4BB9EF
:10070000E368B3F80120A5F8FC209A883548114623
:1007100024F0EBFC204604F0D1FB4FF0FF304FF00B
:10072000FF3105F079FD0446002800F0ED80082136
:100730000C3004F015FD95F8D830D907024641D4A5
:1007400029484FF0005122F0CCFC2146002240F60F
:10075000014005F075FF044600287FF4C3AE014652
:1007600009AA4FF6014005F06BFF002842D01F4B4D
:100770000094CDE90143234619490222184622F08C
:1007800080FCEB79002B40F0AF8006F0FDFF0446C3
:1007900000287FF4A7AE08F0B3FF044600287FF4DA
:1007A000A1AE05F03FFE9DE60029B6D1104B0C49E5
:1007B0000090CDE901030122034622F062FC6FF0B4
:1007C00004048FE602A1D1E90001BCE7AFF3008089
:1007D0009088000200800020D80000208D9F020039
:1007E000A06B02000001002010880002F69F0200AA
:1007F000D39F0200099E5249F468B4F80130042BDB
:1008000096BF504A504A52F82320CDE903234F4B5C
:1008100002930023CDE900330322184622F031FC75
:10082000B4F80130B4F80320022B39D1052A37D8A7
:10083000474B53F822304249CDE90332454B0293EE
:10084000002303221846CDE9003322F01AFCD4F825
:10085000091063790791B4F807100691032BA17969
:1008600096BF3D4A384A52F8232003920024CDE92E
:1008700004313A4B32490293032223462046CDE904
:10088000004422F0FEFB304604F018FB09AA214682
:100890004FF6024005F0D4FE064618B1304B67E72C
:1008A000294BC8E70998C368B3F80130A5F8C130EF
:1008B00004F004FB95F8C1305A077FF562AF09AA2E
:1008C00031464FF6034005F0BBFE28B1254B00969C
:1008D000CDE9016333464FE70998C3685B7885F833
:1008E000C03004F0EBFA4CE72E78002E7FF44DAFC9
:1008F00095F8C1309B061FD54FF0FF304FF0FF3108
:1009000005F08AFC044610B96FF06804EAE5062198
:100910000C3004F025FCD5F801300360124B9B88A5
:100920008380214632464FF6064005F089FE044694
:1009300000283FF42AAFD5E56FF08504D2E500BF6B
:10094000A06B0200A46F0200989D02001AA0020092
:100950008C6F020033A002007C6F02004BA00200EB
:1009600078A00200A1A00200010000200000000009
:100970002DE9F843D0E90738856903EB08042F34E3
:10098000A5420F46164619D8DFF86C80A3FB080174
:1009900017A3D3E90023FFF7B3FB0346601BA0FBBB
:1009A000080123F07F4412A3D3E90023FFF7A8FB3B
:1009B00020F07F403C603060BDE8F883DFF838907D
:1009C0000BA3D3E90023A5FB0901FFF799FB20F056
:1009D0007F440A480A2106A3D3E90023E8FB090162
:1009E000FFF78EFB20F07F403C603060BDE8F8836D
:1009F0008D49FD1A0700000000CA9A3B00166BF1F2
:100A0000002800F051812DE9F04FCB4C94F85E2086
:100A100012F001058DB040F03481607EFF2300F0BC
:100A20000300A37617F042F994F85E00420700F144
:100A30002C81627F94F8293004EB820204EB83035B
:100A4000166AD3F82C8086B1BB48314611F0EAFC17
:100A500033785B0605D506210DF01CFB002800F05D
:100A60005581B548414611F0DDFC337813F00E0F87
:100A700040F0918063691BB10C200DB0BDE8F08F90
:100A80000FF00EFB8146002800F049810FF014FBA7
:100A90008246002800F0408111F00AFF0546002838
:100AA00000F05A81D0F888004FF6FF73AB8405F14F
:100AB000100B002800F0358105F17C0205F178016A
:100AC0000DF0F4FAB5F8763023F4EF6323F0070362
:100AD00043F48C7343F00103A5F8763095F8373072
:100AE00003F03F0363F07F0385F8373095F88E30CD
:100AF00023F0070385F88E3095F83C3023F00F0380
:100B0000002785F83C304FF4C023C5F88E312846C5
:100B1000C5E91277C5F88870A5F88C7085F839702A
:100B20006F85C5F82E702F65A5F86071A5F89471D2
:100B3000A5F88A7113F052FE85F86471C5F86891C2
:100B400012F07EF995F89C3160F3020385F89C3130
:100B500012F07CF995F89C3160F3C50385F89C315F
:100B600095F8623167F34103012185F86231284627
:100B700012F000FD05F1E00013F050FCC4E9159AF5
:100B8000C4F814B0C5E902772F702D6118F070F821
:100B9000002840F0BD80237E0121C3F342030DF104
:100BA0002B008DF82B300DF023FC024600287DD061
:100BB0004146304611F02EFA604A614BB4F85C8031
:100BC0000721E0FB023100251846C4E9025558A36D
:100BD000D3E900232570FFF793FA60600EF092FDD1
:100BE00000F10907B8F1000F07D1357805F00F05BE
:100BF000A5F10105B5FA85F56D09207E636865F3F9
:100C0000000010F00105207657D04E4A09920020CE
:100C1000106002254C4ADFF8348104930BAE019337
:100C200005920321CDE90200069400903B46CDF8E1
:100C30001C8008962A460B950EF088FC31460FF072
:100C4000B1FA98BB424905914AF2D8330093CDE9F5
:100C50000300CDE90100CDF81C80089606943B46C0
:100C6000012203210B950EF055FC31460FF09AFA44
:100C7000E0B994F85E300120034384F85E3016F04A
:100C8000F7FF00200DB0BDE8F08F2A4604F15F01A8
:100C9000C0F3C00017F050F9FF28A0763FF4C9AEAA
:100CA000284617F01DF8C4E611F04CB96369002B13
:100CB0003FF4E2AE11F01CF9DEE6224A2548049327
:100CC00003F247130694029591211360A8FB0003D9
:100CD00001FB08311D4B07931B4B05934FF6FF7328
:100CE00009924FF0020803930BAE11A3D3E900233E
:100CF000CDF82C800896FFF703FA3B46CDE900506B
:100D00004246284603210EF021FCAEE71220B4E64D
:100D100011F0EEF80320B0E648460FF0C7F90720BF
:100D2000ABE605F18000C5F88800C5E6AFF30080AA
:100D30008D49FD1A070000006420002000CA9A3B7C
:100D40008C49FD1A582000208D20010001F8000078
:100D5000B11D0100002AE78450460FF0B3F9484660
:100D60000FF0A4F9DBE700BF70B5037E8AB0C3F3D0
:100D700042030D46044601210DF1230016468DF86D
:100D800023300DF035FB31460246284611F042F97A
:100D90001D4A1E4B0721E0FB0231184618A3D3E978
:100DA0000023FFF7ADF963689842054621D21B1A6C
:100DB00000220192164A0293164BA21AA3FB02329A
:100DC0000221520900230A4409AE099112490591F2
:100DD000CDE9033303210696D2B2009318460EF0F4
:100DE0000BFC31460FF0DEF938B9656000200AB01F
:100DF00070BDFBD9C21A0023DBE70C200AB070BD1E
:100E00008D49FD1A0700000000CA9A3B8C49FD1A63
:100E1000642000204FECC44E01F8000000000000E8
:100E20002DE9F04F05468BB08B46012002219946F3
:100E3000144619F003FD00220221824601200DF024
:100E400089F92F494FF4D47228460DF00FF9C61CCA
:100E50002C4B0093F6B201954B46324601210020FF
:100E60000EF018FC10F0FD0F42D1274BA4FB0348F5
:100E7000204621A3D3E900234146FFF741F9089515
:100E800006956B680493214B20F07F47A7FB033145
:100E9000E01A1F4B07934FF007021E4B059302FB0E
:100EA00007114FF6FE7368EB010103934FF47A725A
:100EB0000023FFF725F9CDF800B0CDE901704B46CE
:100EC0003246012100200EF025FB10F0FD0F0DD160
:100ED000BAF1000F02D10BB0BDE8F08F0122022160
:100EE00010460BB0BDE8F04F0DF034B900DEEFE76F
:100EF00000DEBAE7AFF300808D49FD1A070000005D
:100F0000480D00206D27010000CA9A3B8D49FD1A4B
:100F100055270100F97001002DE9F0418468A28C89
:100F20004FF6FF739A428CB000F0C0800546204611
:100F300013F0D0FE2B7D012B00F0E680022B00F099
:100F4000B88033B994F88E3003F01803182B00F0F2
:100F50001C8194F86471002F40F0AE802B8AE68DDE
:100F600094F93720CDE90A77002B00F0AC80002AF5
:100F7000C0F221810023A4F89031AB7CA28D03F054
:100F80000303551C012BADB200F0BA80B4F89431C4
:100F9000002B00F0BF80AB4240F237815B1B9BB25D
:100FA000062BA4F894314FF000028CBF00230123DC
:100FB000E2851F4694F83C2063F3820284F83C20CB
:100FC00029460DF12702204613F044FC743000F04E
:100FD0001681B4F88E312BB1AB4240F2BF805B1B5F
:100FE000A4F88E31B4F88A312BB1AB4240F2C680FE
:100FF0005B1BA4F88A31E58D17B9AE4200F0AC80D6
:101000000135ADB294F8D13013F0010609D1DDE914
:101010000AC3B3BBBCF1000F00F0E9801E461946BD
:1010200030E094F9372023F00103002A84F8D1300E
:10103000C0F28A8094F87600C0F3C00100F0070087
:1010400017F094FCB4F86E20B4F86C301344E28BC3
:1010500003F23F13134418448D4A8E4B0721E0FBE3
:101060000231184688A3D3E90023FFF749F86168E5
:1010700020F07F408142DDE90AC380F0B280461A49
:1010800060600021A28C24690694CDE903570332E5
:10109000814D0291CDE900C6D2B201210020059513
:1010A0000EF0AAFA10F0FD0F40F0B4800CB0BDE8CD
:1010B000F0813D2784F86471394620460CB0BDE8C4
:1010C000F04111F07DBF002AB8BF84F8D570AB7C29
:1010D000A28D03F00303551C012BADB210D0B4F860
:1010E0009031002B3FF452AFAB4240F29A805B1B31
:1010F000A4F89031B4F89431002B7FF44CAF59E749
:101100000023A4F8943155E70023A4F88E31A4F805
:101110008A311EE7E38C052B8BBF40F2E2424FF48D
:10112000FA725A4303FB0222B4F8923142F2107170
:1011300001FB0323013BB3FBF2F39BB2A4F8943110
:10114000002B7FF428AF35E794F87700012100F0F9
:10115000070017F00DFC75E73D4653E70EF0F2FF70
:101160000146002864D00023A4F88E31A38CC380EC
:101170001B23037100680EF0B7FF33E70023A4F8C8
:101180008A31204613F0F8FB35E7218DB4F88C2125
:101190008B1D9A42C4BF931F5B1AB4F88811CCBF51
:1011A0009BB21346994256D0A4F88831A4F88A31EC
:1011B000A4F88E21CDE694F8D530002B3CD0013B2D
:1011C00084F8D53004F1E008404613F069F90028AE
:1011D00055D0404613F064F9002842D00023E3853F
:1011E000C8E6091A6060A3BB51EA0C021ED115B90A
:1011F000002F3FF45BAF00263146334642E79DF8AF
:101200002710204611F0DCFE50E70821204611F09F
:10121000D7FE4BE70EF0F0FF84423FF447AF00DE0D
:1012200044E73E21204611F0CBFE3FE71E4629E76A
:101230000123A4F88E31D5E60AAA0BA92846FFF7A8
:1012400097FBDDE90A231343BCD0237884F8D5301B
:10125000B8E7002616E7B4F88E1100297FF479AEBE
:10126000A4E70246D4E91E010CF038FF0028B5D1EE
:1012700094F83C301B0744BF238DE3857AE6FF20BA
:1012800011F060FEA5E700BF8D49FD1A07000000C0
:1012900000CA9A3B8C49FD1AAD27010000000000EE
:1012A0002DE9F04F87B0B0F86071BDF84C90009117
:1012B000CDE90423B0F82431BDF840A01F44BFB2EB
:1012C0000446A7EB090390F87600D4F81C819EB27F
:1012D000BDF844300193C0F3C001BDF84830039617
:1012E00000F00700029317F041FBE58C052D40F25A
:1012F000A38015FB06F5ADB240F2E24BBAF1050F43
:1013000040F28E80B4F86E20B4F86C30134403F2CF
:10131000D5130344764A77480721E3FB02014FF0D7
:101320009613E361962323846FA3D3E90023FEF78A
:10133000E7FE564620F07F4040F2E2430BFB05F209
:1013400003FB06F6531E3344B3FBF6F31FFA83FB8D
:1013500060600BFB06F082425D4653D26449801AFE
:10136000A0FB010160A3D3E90023FEF7C9FE20F032
:101370007F408044B4F82421B4F86031A9EB070918
:101380004D44ADB213442B44A4F86031638D134433
:101390001D4494F837306585DB0955D100DE002700
:1013A0003546019B2385029BA4F8923131462046A5
:1013B000A4F826A013F07AFA4F4B218D3344881DF0
:1013C000B3FBF6F39AB29042A4F88C2104D2C1F593
:1013D0007F41FA310A4492B2009BA4F8882113B1EC
:1013E0000023A4F8943143462A4639462046FFF7A5
:1013F00017FD94F8623143F0010384F8623107B0BD
:10140000BDE8F08F121A3A48A2FB000136A3D3E9D7
:101410000023FEF775FE20F07F40A8EB0008A9E747
:101420004FF096130AF10106E36196232384B6B2C6
:101430000A204FF4FA7381E7039B013515FB03F58E
:10144000ADB24FF4FA7B59E7216CA36C284F01FB36
:101450000233039A01FB1233A3640023C4F8DC3087
:1014600017F058FC054694F8D400C0F3420017F07A
:1014700053FC054406FB05F5204B1E4805F5742575
:1014800005F23F25A3FB0535AD0CA36C25640BFBD2
:1014900005FB72085B44963A934228BF1346C4E9A1
:1014A0001123049B40F2E24909FB03F30721236562
:1014B000EBFB07010CA3D3E90023FEF721FE104B41
:1014C000059AA8EB0008A3FB0230800A09FB00F094
:1014D000A0FB070104A3D3E90023FEF711FE751B4F
:1014E00020F07F475DE700BF8D49FD1A070000002F
:1014F00000CA9A3B8C49FD1A7FC3C90183DE1B4396
:101500005917B7D1000000002DE9F04F0D461668BD
:1015100095F8118009681446027FD1F8009093B0C5
:101520008346C2F38012D0F81E008DF83720B8F140
:10153000FF0FBBF822201090ADF8442057D110AB1C
:1015400093E803000E90ADF83C105A46BBF82E10FD
:1015500052F82EAB9278A2722181DBF82A206260C9
:10156000DBF83A20C4F8222004F122009BF83E2048
:10157000027105210CF03CFF94F8272000F03F0099
:1015800060F3050284F827209BF83F20C2F3040192
:1015900084F82810BBF83410E182012802F01F0201
:1015A00089B20AD91B3202F01F020B2A05D806396C
:1015B00089B240F67A42914225D90021C9F8081033
:1015C00094F82C2061F3000284F82C20DBF80C4006
:1015D0000125504659468BF804500EF079FD2068DD
:1015E000257121460EF080FD13B0BDE8F08F0EAAE4
:1015F0000DF13701404616F099F89DF83720023278
:101600008DF83720A1E72A6800215160BBF8362009
:10161000E78A228340F2E24303FB07F73046BBF838
:1016200032300B9313F056F99BF83F2096F8D41004
:10163000520962F3430186F8D41017F06BFB0A904D
:1016400096F8D400C0F3420017F066FB0A9A1044E3
:1016500007FB00F0AE4A00F5742000F23F20A2FB29
:1016600000207A08800C963A206362639BF8312050
:1016700040F2E24303FB02F26264BBF83820A6F8B2
:1016800092213946304613F011F9A24AA249C6F810
:1016900098113A44B2FBF7F290B2A6F88C01218B74
:1016A00001F1060C604504DDC1F57F41FA310144CA
:1016B00088B25A46A6F8880112F81C3FC3F34013BB
:1016C000D2070A9300F115814FF48072ABF81C2009
:1016D00099F81A0016F074FD002800F0EA80DBF893
:1016E0002420CBF82B20BBF82820ABF82F20B8F112
:1016F000FF0F00F0F880BDF844201098ABF82920C7
:10170000CBF825009DF837208BF81E200E98BDF8E9
:101710003C20CBF81F00ABF82320E28AABF8322044
:10172000228BABF83420B6F89221ABF8362096F82D
:10173000D420C2F342028BF83820304611F0C4F8AE
:10174000A082ABF80600D5F80480504659460EF04A
:10175000BFFC1C23A28A88F804300A9BD8F800A09A
:10176000A8F80620002B40F0B180DDF828B088F8FA
:101770001CB0414650460EF0B7FC94F86700B4F830
:101780005CA0B4F85E80012100F0070017F0F0F8CB
:10179000D04408F2D51808EB00038246DFF87C81BC
:1017A0005F480721E3FB08014FF09613C4E90333B8
:1017B00055A3D3E90023FEF7A3FC20F07F4070601F
:1017C000EB680B98226B40F2E24101FB003404F21B
:1017D000B3440221A41A0120BF1A00220CF0BAFC63
:1017E000484610F0DDFDA4EB0A0447A3D3E900232B
:1017F0008246A4FB0801FEF783FCCDF80490AB6899
:101800004849009120F07F480AF10202363BD2B2EB
:101810004344012100200DF03DFF01286BD099F8D1
:101820001830DB074AD4304611F04EF83B4CA7FB8A
:10183000044935A3D3E90023834649462046FEF7F1
:101840005FFCAB68384A0792A3F1360A374B06961D
:1018500020F07F47A7FB0331E01A354B05934FF487
:10186000F8730893736804934FF0070303FB0711A1
:1018700069EB010100244FF47A7200230394FEF710
:101880003FFC0BF10305EDB2CDE90170CDF800800E
:1018900053462A46012120460DF03CFE10F0FD0F74
:1018A0002FD10122022110460CF054FC13B0BDE8E8
:1018B000F08FCBF82B00ABF82F0018E700230122A4
:1018C0000093184611460DF0AFFEACE794F82730B0
:1018D00043F0400384F82730201D15F0FBFC4FF047
:1018E000010B208543E70021CBF82510ABF8291028
:1018F00008E700DEE8E60EF07FFC81458FD000DED1
:101900008DE700DECDE700BF8D49FD1A070000001E
:1019100083DE1B437FC3C901404B4C0000CA9A3B86
:101920008C49FD1A81710100D17001008D49FD1AA9
:10193000F970010000000000F0B5C468636883B06E
:101940000546002B54D118F0BFFA002018F0E0FA39
:101950000021084618F0CEFA00222521082018F0B0
:1019600035FB414B019301A818F01CFB3F4940F2A5
:101970005B6018F0CDFB237AC3F3420262F30613D7
:101980002372204617F056FB16F0A2FC637A03F090
:10199000030348BBFBB927682E68384616F0A0FF42
:1019A00006446A6806F10901012018F0F9FC18F0F4
:1019B000B9FD204610F000FD811C3246C9B2384600
:1019C00016F090FF054600BB204616F065FFD0B923
:1019D000002003B0F0BD012016F040F94178821CD0
:1019E000007818F07DFCD6E7181E18BF0120F3E739
:1019F00093F82C309B07A6D01D48214618F038FAE2
:101A000018F030FBE4E700DEE2E71A4A1A491B4807
:101A100040F2114320F0C4FF194B0721A5FB03033B
:101A200001FB05310EA3D3E90023FEF769FB15493D
:101A30000246154820F0B4FF002585F31188BFF356
:101A40006F8F0323184602DF1048214618F010FA62
:101A500018F008FB6FF08B00BBE700BFAFF300800E
:101A600000CA9A3B00000000D6BE898E555555002D
:101A7000298A0100CC76020018770200A8740200BF
:101A80008D49FD1A607802001C770200258D010047
:101A90002DE9F043C468A28A4FF6FF739A4283B0DF
:101AA00000F0FD80064617F079FD3389628B208CAB
:101AB00094F82710A3831A4492B2104480B2431CB6
:101AC00023840023638301F03F034906E28300F18E
:101AD000A48094F82810009304F1290004F1220353
:101AE00015F0BAFB0546D4E90C31A26BA08BA363B9
:101AF00003FB0022E36B8A4294BF9B185B188B4266
:101B000028BF0B46626CE363236C94F867101A4499
:101B100094F82C3061F306130021C4E9101294F8F4
:101B20007E2084F82C3012F0040200F0898018F036
:101B3000CBF9002018F0ECF9201D18F033FA2389B6
:101B4000A17A40F25B6043EA014118F0E1FA2846CD
:101B500016F0D8FE2146584818F08AF9A08918F0E6
:101B600013FC94F8662094F86700C2F3C0030021C8
:101B700002F0070200F0070018F030FB204617F0D3
:101B8000A7FDD4F800803768404616F0A9FE074448
:101B9000726807F10901002018F002FC814618F074
:101BA00095FC002018F0ACFCE36B94F8670003F19F
:101BB0002F02636C012100F0070003EB420518F0CF
:101BC00043FA4D44054494F8670000F007000228EA
:101BD00034D004280CBF4FF4BC73282301211D44CA
:101BE00018F034FA284418F063FCA18A03313A460D
:101BF000C9B2404616F076FE0546A8B1B37A13F096
:101C000002062BD000252D48214618F031F918F096
:101C100029FA284603B0BDE8F083218D04F12202A1
:101C200015F05CFB05465EE7204616F035FE002801
:101C30003CD10025284603B0BDE8F0831823CDE74A
:101C4000D4E91A010CF04AFA00287FF470AF94F836
:101C50007E3043F0040384F87E3068E7184A19495F
:101C600019484FF4AC7320F09BFE18480721A5FBE0
:101C7000000301FB05310EA3D3E90023FEF740FA70
:101C800013490246134820F08BFE86F31188BFF3F8
:101C90006F8F0323184602DF6FF08B05B3E70E4802
:101CA000214618F0E5F818F0DDF9C2E700DEC0E7DC
:101CB00000CA9A3B00000000F5980100058A010067
:101CC0004877020018770200A87402008D49FD1AB7
:101CD0006C7802001C770200298A010070B5054665
:101CE0008AB060B1274B02930023CDE90033039003
:101CF00025490122184620F01EFD0AB070BD234B75
:101D0000234E21490090CDE901030322034620F030
:101D100012FD0FCE05AC0FC43368236001261D4BA6
:101D20001D490096022205A805F0FEFD044630B1CB
:101D30001A4B0390CDE9015300952B46D8E7184B79
:101D40000393184B0090CDE901030F49034603228A
:101D500020F0F1FC144B1D794FF47A735D4321465A
:101D600040F2E7304FF400444FF47A720023E5FB71
:101D70000401FEF7C5F902460B460C481CF0C6FEEE
:101D8000BBE700BF56830200386C02007583020077
:101D9000506C0200086D0200106D02008B8302007F
:101DA000B0830200CA830200F4010020280700204B
:101DB00030B50C468FB071B1114BCDE90313114B07
:101DC00002930023CDE900330F490222184620F088
:101DD000B2FC0FB030BD0D4A06AD012111700146B5
:101DE000284607F055FB0A4B07490395CDE9014307
:101DF000009423460322204620F09DFCE9E700BF23
:101E00006AC30200E2830200386C0200A2320020A2
:101E1000058402007FB50C4A002313700B4A13702F
:101E20000B4A13700B4A13700B4A0093CDE903124F
:101E30000A4A0B49CDE901321846032220F07BFC07
:101E400007B05DF804FB00BFA2320020A5320020DD
:101E5000A4320020A33200206AC3020013840200CF
:101E6000386C02001FB501290B4B0C490CBF012235
:101E700000221A700A4A0B4B08BF134603930A4B01
:101E800002930023CDE900330322184620F053FCCF
:101E900005B05DF804FB00BFA5320020386C0200DD
:101EA000348402003C840200458402001FB50129ED
:101EB0000B4B0C490CBF012200221A700A4A0B4B33
:101EC00008BF134603930A4B02930023CDE9003366
:101ED0000322184620F02FFC05B05DF804FB00BF7C
:101EE000A4320020386C0200348402003C840200DA
:101EF000628402001FB501290B4B0C490CBF012263
:101F000000221A700A4A0B4B08BF134603930A4B70
:101F100002930023CDE900330322184620F00BFC86
:101F200005B05DF804FB00BFA3320020386C02004E
:101F3000348402003C8402007E8402007FB5BDF838
:101F400020401D4654BB012B28D113785A1E092A64
:101F500027D8154E154933710393154B0094CDE9DD
:101F6000014320462346032220F0E5FB36794FF457
:101F70007A735E43214640F2E7304FF400444FF459
:101F80007A720023E6FB0401FEF7BAF802460B461C
:101F900008481CF0BBFD284604B070BD6FF00C0073
:101FA000FAE76FF01200F7E7F4010020386C020046
:101FB000978402002807002070B54C4CA2681E23AD
:101FC00001321C25B2FBF3F1B2FBF5F003FB11214A
:101FD00005FB1020282501EB8101B2FBF5F605FB7E
:101FE0001626434D01F62E118AB00BB229703E30F1
:101FF0000921C6F164066970C0B22179A260F6B207
:102000002380A070E67006906420CDE9076193FB01
:10201000F0F100FB11331BB2002BB8BF5B429BB247
:10202000CDE904130026334B03920293CDE90066F9
:10203000334631490322304620F07DFB2F4B1B787D
:10204000002B3BD02E4B1B7883B12E480222294611
:1020500020F080FB50B12C4B0390CDE90163264961
:10206000009633460222304620F065FB274B1B7852
:1020700083B127492748012220F06CFB50B1264B41
:10208000029300230390CDE900331B490222184636
:1020900020F051FB214B1B7883B1214921480122BB
:1020A00020F058FB50B1204B029300230390CDE960
:1020B000003311490222184620F03DFB24794FF4E9
:1020C0007A735C434FF4004540F2E73000214FF44F
:1020D0007A720023E4FB0501FEF712F8024613486A
:1020E0000B460AB0BDE870401CF010BDF4010020A2
:1020F000A6320020B9840200386C0200A23200200F
:10210000A5320020486D0200F6840200A4320020AF
:10211000F6010020846D02001B850200A33200201E
:10212000F7010020C06D02003F8502002807002053
:102130001FB5104B029300231846CDE900330E491A
:10214000032220F0F8FA0D4B0D4AB3F900300D4888
:1021500013700D49C3F3072353701CF09FFB0B480A
:1021600004F07AFC4FF0FF314FF0FF301DF022FEFB
:10217000F8E700BF60850200386C0200F40100201F
:10218000A632002028070020B91F0000DD1C000037
:102190002DE9F04F85B0044620F0F0FAB0FA80F057
:1021A000C0F11F0004EB8006CD00D6F8109005F1B9
:1021B000040A0B4606358FB2B9F1000F0BD1E26865
:1021C000012181400A43E260336124F80A706753B9
:1021D00005B0BDE8F08F4FEAC906043634F806B002
:1021E0004FEACB0808F1060834F80830994511D0B9
:1021F0000C4B02930023CDE9003318460A49012213
:1022000020F0C6FA002383F31188BFF36F8F0423F5
:10221000184602DF24F80AB024F8059024F8087064
:10222000A753D5E796850200186C02002DE9FF47F9
:1022300000EBC1030446B3F80680414502F10409EE
:102240000CD1012303FA02F2C36823EA0203C3603C
:10225000002340F8293004B0BDE8F087B3F804A0AB
:102260004FEACA0706374FEAC806C35B994206F130
:10227000040602D1835B994211D000250B4B0293D7
:10228000CDE900550A492B460122284620F080FA64
:1022900085F31188BFF36F8F0423184602DF44F8DB
:1022A000298024F8078024F806A0D4E79685020048
:1022B000186C02001FB500EBC10304465B88DB0706
:1022C0000A460ED420F05FFA34F83030C01A81424A
:1022D00007D134F831102046511A20F054FA8242C6
:1022E00011D00024094B0293CDE90044084923464C
:1022F0000122204620F04CFA84F31188BFF36F8F3F
:102300000423184602DF04B010BD00BFBA850200E6
:10231000186C02002DE9F043884685B0002900F0D2
:10232000908004680E1F361BF50826F0070604EBA4
:102330000609B9F8027017F0010711D1424B039159
:10234000CDE90173414900973B460122384620F010
:102350001FFA87F31188BFF36F8F0423184602DF3B
:102360002946204620F00FFA34F83030C01A854252
:1023700013D00027364B0293CDE900773349CDF8CF
:102380000C803B460122384620F002FA87F3118880
:10239000BFF36F8F0423184602DFA15B2046691A42
:1023A00020F0F1F9A84213D000272A4B0293CDE97F
:1023B00000772649CDF80C803B460122384620F0B4
:1023C000E7F987F31188BFF36F8F0423184602DF04
:1023D000B9F8023023F00103A9F80230294620465B
:1023E00020F0D1F904EBC00307465B88DA070CD470
:1023F00001462046FFF75EFF3946204620F0D8F917
:102400003A462946204620F01FFAA65BAE1B04EB95
:10241000C6035B88DB070DD431462046FFF74AFF31
:102420003146204620F0C4F92A463146204620F0A5
:102430000BFA35462946204605B0BDE8F043FFF7C4
:10244000A7BE05B0BDE8F08353860200186C0200F9
:10245000038602002C8602002DE9F04714464A420A
:1024600002EA010931EA020203461AD04A46042A66
:102470004F4628BF0422A1EB090909F1FF3A1AEAE5
:10248000090F18D03549364A36484FF4F57320F015
:1024900087FA354820F084FA31484FF4F57120F07E
:1024A00076FA042904D82146BDE8F04720F0FDB9AA
:1024B00000270422E1E71CB900252846BDE8F08783
:1024C0001E68A9EB020204F0070302F007010B33B8
:1024D0000B44E10801EBD20101EBD301B36899424F
:1024E00028BF1946304620F070F980460028E3D016
:1024F0003D1D05EBC00535445544B5FBF9F509FB19
:1025000005F5ED1B2C442B1F07349B1B24F00704FF
:10251000A41BB0EBD30F4FEAD3074FEAE40408D271
:1025200001463A46304620F0A5F941463046FFF7CD
:102530002FFE3946304620F026F9A04207D9304612
:10254000224620F097F921463046FFF721FE06EBA0
:10255000C706738843F001037380AEE79B860200D1
:1025600078860200B6860200D3860200B2F5802F7C
:102570002DE9F8430ED33E493E4A3F4840F2DD2361
:1025800020F00EFA3D4820F00BFA40F2DD213948E8
:1025900020F0FDF9042A0CD83949364A36484FF460
:1025A000397320F0FDF9374820F0FAF94FF439710A
:1025B000EDE7043ACD1D114425F0070521F007068B
:1025C000A6EB0508B8F1170F4FEAD8070CD82E492B
:1025D000284A294840F2ED2320F0E2F9294820F06A
:1025E000DFF940F2ED21D2E7B7FA87F4C4F1200217
:1025F000C4F12404A4000734E408631C4FF000096C
:10260000BB420560AF60C5F80C900CD91F49194A50
:10261000194840F2033320F0C3F91A4820F0C0F9FA
:1026200040F20331B3E74946920005F1100024F06F
:1026300044F8A2B2530043F001036B803B1B9BB2F2
:1026400005EBC4015800A5F80090488025F8342017
:10265000A6F8029025F8083005EBC70321465A88F2
:1026600042F001025A802846BDE8F843FFF790BDCA
:10267000F086020078860200B68602000687020015
:102680001D8702003E8702005787020080870200F4
:1026900008B5024820F06EF9002008BDB38702009B
:1026A0002DE9F04F91B08407009302F004030293E8
:1026B000C2F3C20303F10103DDF868A003920546EB
:1026C0000E46059340F0C881041D002838D101F062
:1026D0000706341DC6F10806009B4FF000085A1E7D
:1026E00004274FF0FF330193CDF81080C146C34655
:1026F0003B460DB1009921600598002800F3C18088
:1027000094480099814203D393488142C0F0B98034
:10271000039911F0020CA4EB050040F0CB80B9F155
:102720000F0F40F2CA808D498D4A8E4840F28123B6
:1027300020F036F98C4820F033F940F28121B6E0E0
:102740000729C9D86FF01B0011B0BDE8F08F7A28B7
:102750005AD84B280FD8472856D829282DD82528AD
:102760004FD051D8202818BF23280CBF4FF0010BA1
:102770004FF0000B6EE04C382E2845D8DFE800F013
:102780006A444444444444444444444447444444E0
:102790004444444444544447475454546A47684466
:1027A0006A4418471844447C7A47444447447A00B2
:1027B00000204FF0000B042734E02A38C0B201217A
:1027C00001FA00F010EA0E0F44D110F0625C2BD138
:1027D00010EA010B3ED06046013C3C44B4FBF7F4E8
:1027E0007C4325B1A3EB050CA444B445AAD800282A
:1027F00000F097800599013905915AF8041B009162
:1028000077E70199013901914FF0000B22E012F8AE
:10281000010C6C2832D112F8023C00206C2B83464C
:10282000C9D108273B46D7E70AF1070A2AF0070A69
:102830000734FAE802BC24F0070435B106982044B6
:10284000B0423FF67FAFC4E900BC08344FF0000B44
:1028500008273B4612F8010F002800F08980BBF1E1
:10286000000F7FF474AF2528F4D1019B013301934D
:102870004FF0010B0427ECE758469AE70020834607
:10288000AAE7039988072FD5601B4FF0010CB0F51C
:10289000007FFFF444AF3149314A32484FF41F738F
:1028A00020F07EF8314820F07BF84FF41F712C485F
:1028B00020F06DF84FF0000CE9E705B309F1400195
:1028C0000DEB010EC0F3870001990EF8200C0EF8F5
:1028D000101CBCF1000F0ED060F07F000EF8200C31
:1028E00008F1010809F10109C5F108010434069154
:1028F0004FF6DA7EAEE7049801300490F2E7BCF1BF
:10290000000F01D00136EDE7029802360028E9D128
:102910000098CDE90632FDF715FCDDE906320644E4
:10292000E0E7042B08D10AF1040015B1DAF8001031
:102930002160043482468DE70AF1070323F0070380
:1029400003F1080A1DB1D3E90001C4E9000108340C
:1029500008237FE7C867020068D1020030C1020087
:10296000EE870200B68602003D8802001C88020045
:10297000631BB3F5806F0CD339493A4A3A4840F2A9
:10298000D22320F00DF8394820F00AF840F2D22185
:102990008DE71DB9A6F10804E018D5E6029A286073
:1029A0009B082B709DF81030BAB1EB7085F802804F
:1029B000B8F1000F05D008A80022C5F10107914524
:1029C0000DD1C5F1010308AF4FF0000A01930DF1DD
:1029D000300BD14512D1601BB6E66B70E6E710F8FC
:1029E000013B190608D507EB040CB44503F07F033F
:1029F0003FF6A8AE04F8013B0132E0E7B8F1000F62
:102A000003D097F90020002A16DB029BC3B11AF805
:102A10000B2004F8012B0022019B18191044B0422E
:102A20003FF690AE387804F8010B009903922046E7
:102A300023F01CFE039A14440AF1010A0137C8E787
:102A40003A7855F822300093029B45F822300098DE
:102A5000FDF778FB421CDFE76FF00D0074E600BF66
:102A600030C10200EE870200B686020057880200DD
:102A7000014B1860704700BF000200202DE9F84F9D
:102A800005460846AB8B1907904616D501280CBFA2
:102A900043F0100343F02003AB83143528461DF0A8
:102AA000F7FB002840F0B181AE49AF4AAF484FF480
:102AB00099731FF075FF29469DE0022803F0070176
:102AC00040F07D8128461FF093FF052800F2FA8030
:102AD00001A353F820F000BF9B2A0000BF2D000087
:102AE000C52C0000692B0000032C0000632C0000A3
:102AF00002F00702531F012B1AD80023062A2E6862
:102B0000A4B2C5E9003309D1334603E0EA8B0132B0
:102B1000EA831B68002BF9D144F00204AC832846F9
:102B20001FF066FF002800F05A8144F0200455E1B0
:102B3000042A0DD1A4B2AC8328461FF059FF0646E3
:102B4000002800F04C8144F02004AC83002646E1CC
:102B50008749884A854840F21B131FF021FF40F245
:102B60001B1184481FF013FF49B18349814A7F48F4
:102B70004FF4AB731FF014FF4FF4AB71F1E72B6808
:102B80004BB97E497B4A794840F257131FF008FF42
:102B900040F25711E5E72B691F684FB97849754A2C
:102BA00072484FF4AD731FF0FBFE4FF4AD71D8E7E0
:102BB000AC8B24F0070444F00604A4B2AC830E46A8
:102BC0008A464FF00609AB68002B00F00F814FF0EA
:102BD000010B44F00804AC8305F1140420461DF0F9
:102BE00057FB002878D15F495F4A60484FF49973DA
:102BF0001FF0D6FE214663481FF0D2FE4FF49971B4
:102C00008EE0022909D060495A4A584840F25D13C3
:102C10001FF0C6FE40F25D11A3E7EE8B4EB15B499B
:102C2000544A52484FF4AF731FF0BAFE4FF4AF71DD
:102C300097E72B695F684FB951494E4A4B4840F2BC
:102C400061131FF0ADFE40F261118AE7AC8B24F0F6
:102C5000070444F00404A4B2AC83B2464FF0040964
:102C6000B1E7012909D04A49424A40484FF4B273BA
:102C70001FF096FE4FF4B27173E72B684BB93F49D2
:102C80003C4A3A4840F265131FF08AFE40F2651153
:102C900067E72B699F684FB93949364A33484FF483
:102CA000B4731FF07DFE4FF4B4715AE7AC8B24F07F
:102CB000070444F00504A4B20026AC83B2464FF0EA
:102CC000050980E72A492B4A284840F26B131FF078
:102CD00067FE40F26B1144E788F31188BFF36F8FF2
:102CE000BBF1000F1ED1002E33D117B12949284660
:102CF000B847EFF31188202383F31288BFF36F8F57
:102D000020461DF0B7FA00284AD1174A2249174831
:102D100084231FF045FE214620481FF041FE8421F8
:102D200011481FE7A9680029DDD0D1F800800029EB
:102D3000D9D0D1F804B053464A462846D847B8F10E
:102D4000000F04D0D8F8003041469846EFE74346DC
:102D5000FAE7314653464A46284636681FF074FE65
:102D6000C1E700BF5D89020030890200B68602001B
:102D700030C102008A880200AF880200BB880200CE
:102D8000DE88020074890200F58802000B890200C7
:102D90001A890200192E0000898902009E8902000A
:102DA00020461DF08BFAAC8B24F00804A4B2AC834F
:102DB000E20621D524F01003AB8304F00701D5F817
:102DC00018A0AA8BBAF1000F22F00704BFF690AE4C
:102DD00000232E68C5E9003344F00104AC8304F0FD
:102DE000070989454FF000077FF4EDAE0EB9002FBB
:102DF000DED04FF0000BECE6A3067FF54EAE24F0DC
:102E00002003AB8304F007015CE688F31188BFF36D
:102E10006F8FBDE8F88F00BFF8B504460D4600F18E
:102E20001406EFF31187202383F31288BFF36F8F0B
:102E300030461DF01FFA68B90C4A0D490D4884232D
:102E40001FF0AEFD0C4831461FF0AAFD0748842153
:102E50001FF09DFD30461DF031FAA5613A4620462F
:102E60000121BDE8F840FFF709BE00BF308902002C
:102E700089890200B68602009E8902002DE9F0478A
:102E800004460E461FF0D0FD051E66DB04F1140952
:102E9000EFF3118A202383F31288BFF36F8F484624
:102EA0001DF0E8F9804660B9374A3849384884232C
:102EB0001FF076FD494637481FF072FD84213248E5
:102EC00043E048461DF0FAF9E38BA78B4FF6FF72FB
:102ED000934207F0070743D0062F2CD8DFE807F00E
:102EE0001F43092B1F041F006FF085054FF00008DA
:102EF00002E00133E383022548461DF0C9F90028AA
:102F000034D1214A244922484FF499731FF048FDD7
:102F1000494622481FF044FD4FF49971CFE7002342
:102F20003360636823B9C4E9006687B13D46DDE7D5
:102F30001E606660F9E71A4915481A4A4FF4E473AF
:102F40001FF02EFD17484FF4E4711FF020FD52468C
:102F500002212046FFF792FD3D462846BDE8F08756
:102F60006FF00A05C2E76FF00405BFE78AF3118826
:102F7000BFF36F8FB8F1000FEFD000233A46314610
:102F800020461FF061FDE8E73089020089890200D0
:102F9000B68602009E8902005D89020074890200E3
:102FA0001A8902008A880200F8B5054600F1140665
:102FB000EFF31187202383F31288BFF36F8F30461E
:102FC0001DF058F960B9264A2649274884231FF086
:102FD000E7FC314625481FF0E3FC842120482BE024
:102FE00030461DF06BF9AC8B04F00704022C17D0AF
:102FF000012C0CBF6FF004046FF0850430461DF007
:1030000047F938BB164A1A4917484FF499731FF00D
:10301000C7FC314617481FF0C3FC4FF49971DDE738
:10302000EB8B5BB914491048144A40F2EF131FF0C0
:10303000B7FC124840F2EF111FF0A9FC013B9BB214
:10304000EB83002BDAD13A4621462846FFF716FDDE
:103050002046F8BD87F31188BFF36F8FF8E700BFF4
:103060003089020089890200B68602009E8902002A
:103070005D89020074890200B48902008A88020016
:103080002DE9F0410F460546002850D000294ED0CA
:1030900000F11406EFF31188202383F31288BFF3A5
:1030A0006F8F30461DF0E6F860B9224A2249234866
:1030B00084231FF075FC314621481FF071FC8421E8
:1030C0001C4817E030461DF0F9F839462846AC8B0D
:1030D0001FF073FC80B104F00704231F022B0DD9ED
:1030E00018491648184A40F22D231FF059FC16487B
:1030F00040F22D211FF04BFC6FF0770430461DF09D
:10310000C7F868B90B4A11490C484FF499731FF07E
:1031100047FC31460E481FF043FC4FF49971CFE74E
:1031200088F31188BFF36F8F2046BDE8F0816FF000
:103130001504F9E73089020089890200B686020089
:103140009E890200C28902008A8802005D8902000D
:103150007489020008B54268816002F00302032A04
:1031600003460AD06AB908490848094A45231FF0AE
:1031700017FC074845211FF00AFC006800225A602E
:1031800008BD0020FAE700BF30C10200B686020089
:10319000398A020008B558B907490848084A40F278
:1031A00035131FF0FDFB064840F235111FF0EFFB11
:1031B0004368587908BD00BF978A0200B6860200AE
:1031C0005F8A020010B548B908490948094AA02396
:1031D0001FF0E6FB0748A0211FF0D9FB03681B691D
:1031E00013B1BDE810401847184610BD978A020079
:1031F000B68602005F8A02002DE9F84FDFF8ECA0E6
:10320000DFF8EC80AAEB08038F2B81460F460BD921
:103210003849394A394840F253131FF0C1FB40F294
:10322000531135481FF0B3FB35481FF04CFC0646E0
:1032300050B3BDE8F88F237B8BB12368DB680BB1FB
:10324000204698476368204683F806B0FFF7BAFF28
:10325000B0B963680422196820461FF059FC013692
:103260001034544515D92749234A244840F25F13A6
:103270001FF096FB24481FF093FB40F25F11D0E74C
:103280000BFA06F31D43EAE7444605464FF0010BEF
:10329000E7E7D0D3B9F1000FCBD04FF00109002DF3
:1032A000C7D02E4695FAA5F4B4FA84F409FA04F3CB
:1032B00008EB04146FEA030A25EA0305237B5BB1DC
:1032C0002046FFF77FFF38B963680422196820465B
:1032D00006EA0A061FF01CFC002DE3D127B14FF4CB
:1032E000A47000211CF066FD3546D8E7506C020042
:1032F000406C0200DB8A0200AE8A0200B686020041
:10330000F01200200B8B02002C8B0200014B53F8B3
:1033100020007047106E020008B5034608462BB126
:10332000044A136000F0EAFA002008BD6FF01500AF
:10333000FBE700BF08020020144A1548002310B51F
:103340001370144A1360144A4FF400411360FFF7DE
:10335000E3FF124B124918468B4215D91149124A04
:10336000124840F22B131FF01BFB11481FF018FBF3
:103370000D4840F22B111FF00AFB1A1A5C6812115B
:10338000013222711033E7E7F7D310BDA8320020D5
:10339000C32A0200E8120020EC120020406C020058
:1033A000506C02000B8B0200AE8A0200B68602004F
:1033B0002C8B020070B5134D297811BB0120FFF74B
:1033C0001BFF114C114EB44218D91149114A124831
:1033D00040F2CF131FF0E4FA10481FF0E1FA0D4855
:1033E00040F2CF111FF0D3FA2046FFF7D3FE18B1F9
:1033F000236820469B6898471034E4E7F4D3012300
:103400002B7070BDA8320020406C0200506C02008E
:103410000B8B0200AE8A0200B68602002C8B0200E3
:1034200010B5044608481FF04EFB5CB1BFF35B8F3C
:10343000064B53E8001F013943E80012002AF8D177
:10344000BFF35B8F10BD00BFE8120020EC1200201C
:1034500070B5154B1B6805469847A860134BBFF322
:103460005B8F1B68BFF35B8F114C124EB44219D9AE
:103470001149124A124840F20A231FF091FA1148EA
:103480001FF08EFA0D4840F20A211FF080FA204604
:10349000FFF780FE20B1236829461B682046984725
:1034A0001034E3E7F3D370BD0802002004020020CB
:1034B000406C0200506C02000B8B0200AE8A0200CE
:1034C000B68602002C8B0200044A054B9B1AB1EB16
:1034D000D30F34BF52F8310000207047386B020020
:1034E000406C02002DE9F04F87B004AFD7E90EBA67
:1034F0003E6B0546884614469946BBF1000F2CD01A
:10350000C7F804A0CDF800A07A6B5B46102100201C
:10351000FFF7C6F800280BDA29492A4A2A484FF44F
:10352000B4731FF03DFA4FF4B47126481FF02FFA20
:10353000B0F5006F014612D340F2FF730393234BA3
:1035400002930023CDE900332149022218461FF0DF
:1035500001FB0C37BD46BDE8F08F5946584604F0D4
:10356000070205F00704E40044EA821444EA402418
:1035700044EA065417360E4426F00706ADEB060D56
:1035800004ADBBF1000F13D0CDF800A07A6B5B4601
:1035900005F11000FFF784F8002809DA0849094A04
:1035A000094840F28D131FF0FBF940F28D11BCE782
:1035B0004B462246414628461FF0B3FAC9E700BFF2
:1035C000848B0200588B0200B68602008E8B0200AC
:1035D000E06B0200406820B1034BC01A40F3CF00FB
:1035E00070474FF0FF307047386B02000EB403B5E0
:1035F00003AB014653F8042B0448019301F0B8F9DA
:1036000002B05DF804EB03B0704700BF912B0200DD
:10361000CA0605D48B064CBF02490349FFF7E6BF33
:10362000704700BF69C30200C68B02002DE9F04F4E
:1036300089B004469DF85070DDF858A0DDF8608030
:1036400005920D469946002F00F0AC80914B042F57
:10365000DB5D06930BD99049904A91484FF418735B
:103660001FF09EF94FF418718C481FF090F908F480
:10367000807307931FF04AFA08F0020B02460028F5
:103680005DD088492046FFF7B1FF0646BBF1000F29
:1036900008D018F0440F54D183492A462046FFF73A
:1036A000A5FF064408F0010353B1804B804953F84D
:1036B0002720804B2046002A08BF1A46FFF796FFB6
:1036C00008F48073002B08F0080318BF4FF00009BE
:1036D000002B62D0784B794953F827202046FFF71A
:1036E00085FF0546059B2BB175491A462046FFF715
:1036F0007DFF0544B9F1000F0CD0069B002B4FD085
:103700007049714B042F18BF19464A462046FFF7EF
:103710006DFF05446D483544159B002B48D06C491E
:1037200022461FF0F2F8002842DA6A495B4A5C48F8
:1037300040F2BD231FF034F940F2BD2194E7064664
:10374000A4E7654B18680028ABD0644B4FF47A7B34
:103750001B68B5FBF3F54FF46163B5FBF0F100FBBB
:1037600011550BFB05F54FF03C0CB1FBF3F203FBDD
:103770001211B5FBF0FEB1FBFCF300FB1E550CFB78
:1037800013110BFB05F50091B5FBF0F55449CDE99C
:1037900001E52046FFF72AFF83E708F00805A1E7C7
:1037A0004949B2E7012B0CBF48484E483D46B3E7B4
:1037B000179B002B54D0DDF85C904146B9F1100FF7
:1037C000204628BF4FF01009FFF722FF0026B54220
:1037D00018DC002633461AF8032043492046FFF739
:1037E00005FF0136102E13D0720703D13F49204642
:1037F000FFF7FCFEB1453346EDD83D492046FFF7C3
:10380000F5FEEEE739492046FFF7F0FE0136DEE728
:10381000384920460026FFF7E9FE33461AF8032010
:103820003549A2F120035F2B28BF2E222046FFF747
:10383000DDFE0136102E0DD0730703D12B49204633
:10384000FFF7D4FEB1453346E8D828492046FFF7B4
:10385000CDFEEEE7179BB3EB0903CA441793AAD139
:103860005FB118F0010F04D0124A11492046FFF74A
:10387000BDFE41462046FFF7CBFE6268A168206886
:10388000D2E900231FF076F9636800221A6009B0BC
:10389000BDE8F08F21CE0200068C0200D78B02001B
:1038A000B6860200118C0200158C0200206E020008
:1038B000DE9D0200C98B0200346E02003A8C0200C9
:1038C000408C0200CE8B0200D28B0200912B0200B2
:1038D00071490000448C0200F8120020F41200200C
:1038E0001E8C0200AD2B02004D8C0200558C020094
:1038F000538C0200578C0200598C0200074A0021A9
:103900000123904206D8064A01B901231360054BF2
:103910001860704740085B000121F2E740420F0049
:10392000F4120020F8120020F8B5074F0D460446A7
:103930004618B44201D12846F8BD14F8011BBB68F3
:1039400001485B689847F4E7D068020010B5436807
:103950001C68094821F044FB48B908490848094A4D
:1039600099231FF01DF8074899211FF010F82368CC
:103970005B685C6010BD00BFD0680200BA8C0200BA
:10398000B68602007C8C0200014B03600020704769
:103990007C6E020010B5DFF824C086B04FF4281406
:1039A000CDE904C40824029404AC0194BDF820407D
:1039B000009420F081FC06B010BD00BF1800280064
:1039C00080B505460E46174698461CF0EFFA0346AA
:1039D00000F0A8FDDFF83C90044649F8003042466C
:1039E00039463046A8470C4B1B7873B90B490C4A33
:1039F0000C4840F246331EF0D3FF0B481EF0D0FFB8
:103A0000074840F246311EF0C2FF54F8090000F0AA
:103A100025FD00BF08000000E9330020198D0200D9
:103A2000EE8C0200B68602002C8D020008B5034819
:103A3000034A0021121A1FF05FF908BD2807002071
:103A4000EC3300200748084A084908B5121A1FF04D
:103A500055F90748074A0849BDE80840121A1FF0FF
:103A60004DB900BF000000202807002068D10200E7
:103A7000000000200000002068D1020070B506465A
:103A800086B00D46002938D08B6805934B680493A7
:103A90000B6803930024244B2449029301222346FC
:103AA0002046CDE900441FF02BF96B6905932B6983
:103AB0000493EB6803931E4B1C490094CDE901432A
:103AC0000122234620461FF01BF9EB690393194B93
:103AD00016490094CDE901430122234620461FF0F8
:103AE0000FF9AB690393144B10490094CDE90143DE
:103AF0000122234620461FF003F9012E0DD1EFF3DA
:103B00000583103B03930D4B02930023CDE9003353
:103B10000649324618461FF0F3F82946304606B0EB
:103B2000BDE8704019F0F0B94E8D0200106C020033
:103B30007D8D0200AC8D0200BB8D0200E98D02007C
:103B400030BFFFF7FDBF00BF2DE9F0410B4EDFF89E
:103B5000308006EB0807CC1B054632460949204653
:103B600022F084FDA01942460021083C22F0A5FD68
:103B70002C6707F10800BDE8F08100BF00000000DD
:103B800008000000506C02002DE9F04385B00024CD
:103B9000564B0293CDE90044234680468946204691
:103BA0005349164601221FF0C6F8524B9B6AD806AD
:103BB00040D5514B0094CDE90143204623464C4962
:103BC00001221FF0B8F811244A4B9B6A19070AD545
:103BD0004A4B02930023CDE90033454901221846A0
:103BE0001FF0A9F81224434DAB6A9A0724D500248C
:103BF000434B0293CDE9004423463D490122204630
:103C00001FF099F86F6BAB6A1B0659D53D4B3849CD
:103C10000397CDE9014300942346012220461FF07B
:103C20008AF8B9F1000F03D0AB6A23F08003AB62CE
:103C3000132403E01024C7E76FF015072D4B9B6A90
:103C4000D8070AD5304B02930023CDE90033284929
:103C5000012218461FF06FF81424264B9B6A990620
:103C60000AD52A4B02930023CDE9003320490122D3
:103C700018461FF060F815241E4DAB6ADA0602D410
:103C8000AB6A9B070AD56B68180507D541463846CD
:103C900000F09AFBB8B180F309880224154B9A6AA8
:103CA000920642BF5A6A22F400525A629A6A42F05D
:103CB000FF029A6220460023337005B0BDE8F0830E
:103CC0006FF01507B4E7AB6AD906E7D51049114A7A
:103CD000114840F227131EF063FE10481EF060FEEC
:103CE0000C4840F227111EF052FE00BFFC8D02006E
:103CF000106C020000ED00E0128E0200458E020002
:103D0000588E0200708E0200868E0200A58E020080
:103D1000068F0200D48E0200B6860200508F020089
:103D20001FB50024374B029301222346CDE90044FE
:103D3000354920461EF0FFFF344B9B6A9A015ED541
:103D4000334B31490094CDE90143204623460122FB
:103D50001EF0F1FF1E202D4B9B6ADB010AD52D4B77
:103D6000029300231846CDE90033274901221EF0B3
:103D7000E2FF1F20254B9B6A1C030AD5264B0293AA
:103D800000231846CDE900331F4901221EF0D3FF5E
:103D900021201E4B9B6A59030AD5204B0293002316
:103DA0001846CDE90033184901221EF0C4FF222035
:103DB000164B9B6A9A030AD5194B029300231846A7
:103DC000CDE90033104901221EF0B5FF23200F4B2F
:103DD0009B6ADB030AD5134B029300231846CDE9F7
:103DE0000033094901221EF0A6FF2420074A936AE6
:103DF0006FEA03436FEA1343936204B010BD1D20C2
:103E0000A9E700BF738F0200106C020000ED00E014
:103E10008B8F02009E8F0200B88F0200D68F0200A7
:103E2000FB8F020015900200F0B585B00024434BD3
:103E30000293CDE90044234607460E46012240493D
:103E400020461EF078FF3F4B9B6ADB0465D53E4B56
:103E50003B490094CDE901432046234601221EF050
:103E60006AFF1720374B9B6A1D050AD5374B029313
:103E700000231846CDE90033314901221EF05BFFD3
:103E80001820304DAB6A9C051FD50024304B02939F
:103E9000012223462046CDE9004429491EF04BFF6C
:103EA000AB6BAA6A10040FD503932A4B24490094E4
:103EB000CDE901430122234620461EF03CFF1FB1FD
:103EC000AB6A23F40043AB6219201E4B9B6A590571
:103ED0000AD5214B029300231846CDE90033184937
:103EE00001221EF028FF1A20164A936A13F48073E9
:103EF00015D01A4B029300231846CDE90033104920
:103F000001221EF018FF1B200E4A936A43F47F43E0
:103F100093620023337005B0F0BD1620A2E7926AC9
:103F20009204F1D50E4A06490093CDE901321846B4
:103F300001221EF000FF1C20E6E700BF40900200B7
:103F4000106C020000ED00E056900200458E020069
:103F5000679002008090020095900200B0900200ED
:103F6000A58E02002DE9F0418D4B0446586890B0B3
:103F7000C0F30806002383F31188BFF36F8F02F0AC
:103F80007F45B5F17F4F0CD102F00C05082D17D1FC
:103F9000844A85490093CDE90132184601221EF07A
:103FA000CAFE8249824A834840F21B431EF0F8FC55
:103FB00081481EF0F5FC40F21B417D481EF0E7FCF5
:103FC000120746BF0C461D460125002CE9D00027EC
:103FD000F31E8DF81F70092B00F2CA80DFE803F092
:103FE00005BEC2A1C8C8C8C8C8C6744B6E49DFF8B0
:103FF000B0810097CDE901730023012218461EF01D
:104000009AFE8DF81F70D8F82C6016F0020604D0C6
:104010006B4B0097CDE9017307E0D8F82C30002BEB
:104020000BDA684B0096CDE9016300235E4901225B
:1040300018461EF080FE002239E0D8F82C305B00D4
:104040007FD5614B58490096CDE901630122334683
:1040500030461EF070FED8F81430A26943F4807325
:10406000C8F81430BFF34F8FBFF36F8F32F8023CA4
:10407000D8F8142022F48072C8F81420BFF34F8FB0
:10408000BFF36F8F03F47F42B2F55F4F2FD1DBB2E6
:10409000022B2CD1236803934C4B43490096CDE966
:1040A00001630122334630461EF045FE22689DF82A
:1040B0001F30CBB908AE04F1200720686168334691
:1040C00003C30834BC421E46F7D10F9B002D63D0BA
:1040D000C3F3080121B96FEA53236FEA43230F9317
:1040E00008A91046FFF7CAFC10B0BDE8F0812C4BC0
:1040F0009A6AD2B23AB10DF11F0201212046FFF7B0
:1041000043FD0246D3E79A6A12F47F4F05D00DF1C2
:104110001F010120FFF788FEF3E79B6AB3F5803F9C
:1041200002D3FFF7FDFDECE72949214A214840F27F
:10413000ED231EF035FC27481EF032FC40F2ED2145
:104140003BE723491A4A1B484FF43C731EF028FCF6
:1041500021481EF025FC4FF43C712EE70DF11F02A3
:104160000021CBE70DF11F010020D3E71B4B50E7E7
:104170001B4A1C4B0C4910F4F87F08BF1346103E35
:10418000CDE90336184B02930023CDE90033012219
:1041900018461EF0D0FD4EE76FF308039FE700BFFF
:1041A00000ED00E0F6900200106C02002191020088
:1041B000D48E0200B6860200349102007291020091
:1041C00089910200AA910200B8910200D7910200E1
:1041D00030C10200F39102001792020047920200E0
:1041E000C8900200DD9002006B920200044B5A69F5
:1041F00042F010025A615A6922F008025A6170476F
:1042000000ED00E0EFF30880EFF3098101B572469D
:10421000FFF7A8FE01BD00BF0B4880F3088817F028
:1042200017FE202080F3118808484FF404614018DD
:1042300080F30988EFF314800221084380F3148887
:10424000BFF36F8F00F088F8805A0020C04800202C
:104250001EF0040F0CBFEFF30880EFF309808169B3
:1042600011F8021C0229FFD001B572461EF058FD5C
:1042700001BD00BF40B2002807DB044A4109012309
:1042800000F01F00834042F82130704700E100E059
:1042900040B200280CDB4309064900F01F00203320
:1042A0000122824041F82320BFF34F8FBFF36F8F6D
:1042B000704700BF00E100E0054B420900F01F001D
:1042C00053F82220012303FA00F01040704700BF8A
:1042D00000E100E038B54B1C072B04460D460FD912
:1042E000114A124912486B231EF05AFB1148294605
:1042F000072322461EF054FB0B486B211EF047FBA0
:1043000040B20028ACBF00F160400B4A4FEA4313B3
:10431000B8BF00F00F00DBB2AABF00F56140135434
:1043200080F8003338BD00BF7E920200B5920200D3
:10433000B6860200D092020014ED00E0044B054A5C
:1043400023F07F039360BFF34F8FBFF36F8F7047EE
:104350000000000000ED00E008B5FFF7EFFF0B4A9A
:10436000D2F8883023F47003C2F88830EFF3148356
:1043700023F0040383F31488BFF36F8FFFF756FB1A
:10438000FFF760FB00F0B0F818F00CFF00ED00E064
:1043900042F8203C009B42F81C3C0A49019B42F831
:1043A000183C029B42F8143C21F001014FF080734D
:1043B00042F8043C42F8081C0023203A0265436797
:1043C000704700BFC1390000094A0346906870B1C8
:1043D00013F1160F006E05D0A0F14002934205D3F1
:1043E000834203D2814228BF0020704700207047DB
:1043F000982B002008B515460B4A0C4B9060026FB5
:104400001A600E4600F0A0F82C4686F309880020BA
:10441000034B98472046002100220023014C2047EF
:10442000652D0200C1390000982B002020130020C8
:10443000014B10221A61704700ED00E0054B5A69EC
:104440009B689A421FBF044A536843F080535360ED
:10445000704700BF982B002000ED00E0084B9B68E0
:1044600083420BD1EFF3058343B1064B5A6842F008
:1044700080525A605A6A22F400425A621AF008BE08
:10448000982B002000ED00E014498A684FF03000BE
:104490001044EFF3098C80E8F01F202080F312888D
:1044A000BFF36F8F0E4F4FF000664A698A603E601F
:1044B000106F0C4C2060506F0023536780F31188FD
:1044C00004B5104600F040F8BDE8044002F13000A9
:1044D00090E8F01F8CF3098870470000982B0020AB
:1044E00004ED00E020130020044800232021C2181E
:1044F0000133302B82F80013F9D1704700E100E05E
:1045000008B5EFF30583064A103B02EBC30152F8EE
:10451000330049688847BDE80840FFF78FBF00BFF8
:10452000086902000148006870470000201300205D
:10453000024B034A0348012100F096B80000042012
:1045400000000020086F0200036E054A403B136024
:10455000044B4021C2E901131046012100F0AAB822
:104560002413002000000B151FB5144AD2F8903018
:10457000C3F30723013B98420FD9114B0293002349
:104580000390CDE9003318460E4901221EF01DFCB0
:104590006FF0150005B05DF804FBC2F898000B68D9
:1045A00023F01F03034343F01003C2F89C308B68D1
:1045B00043F00103C2F8A030ECE700BF00ED00E0DB
:1045C00014930200F86B0200F0B50E4689B01F4646
:1045D00004460025B54212DA606838B3BFB1431E05
:1045E00018420FD0134B02930023CDE90033124938
:1045F0000395012218461EF0E8FB6FF015021046E5
:1046000009B0F0BD1F28EDD921680B42EAD123681B
:1046100005931EF0CAFBA36805A90343D0B2079314
:10462000FFF7A2FF10F1160FE7D0421C01350C3442
:10463000D0E700BF3A930200F86B0200044B05225A
:10464000C3F89420BFF34F8FBFF36F8F704700BF45
:1046500000ED00E0BFF35F8F024B0022C3F894200F
:10466000704700BF00ED00E038B50D4D01232A78FA
:104670000C46FFF7A9FF287016300FD1094A0A49E6
:104680000A4840F289131EF08BF9094821461EF0B2
:1046900087F9044840F289111EF079F938BD00BF4E
:1046A000AA3200206093020030C10200B6860200E8
:1046B0008F93020010B5144A002312780C46FFF7BE
:1046C00083FF10F1160F08D0104A0021D2F8903065
:1046D000C3F30723984210DB10BD0D4A0D490E4865
:1046E0004FF4D4731EF05CF90C4821461EF058F9C3
:1046F00007484FF4D4711EF04AF9C2F89800C2F886
:10470000A0100130E2E700BFAA32002000ED00E077
:104710006093020030C10200B6860200BB93020023
:104720002DE9F04F834C8449D4F890300D68C3F3E1
:1047300007239D4285B013D9804A8149814840F2C0
:1047400002231EF02DF9D4F890207F482946C2F3A9
:1047500007221EF025F940F2022178481EF017F9D1
:10476000FFF778FF49680022954201F10C012DD135
:10477000764F774C3D706846FFF706F9754D764EDB
:1047800081464FF00008C14533D13B78694900208C
:10479000D1F89020C2F307229342C0F2C180FFF704
:1047A0004DFFD1F8903003F47F43B3F5006F00F074
:1047B000BD806A49614A634840F27D231EF0F0F8EB
:1047C00067481EF0EDF840F27D21C6E7C4F8982056
:1047D00051F80C3C23F01F03134343F01003C4F8BB
:1047E0009C3051F8043C43F00103C4F8A03001327E
:1047F000BAE7009A02EB08134FEA0811D3F80CA0AD
:104800000AEA0400B0F5000F66D00BD8B0F5001F1F
:104810003CD0B0F5800F52D0B0F5801F16D008F113
:104820000108B0E7B0F1007F61D0B0F1805F69D0DE
:10483000B0F1807FF3D19868D3F804A052581EF0ED
:10484000B4FACDE901A240F088700BE09868D3F883
:1048500004A052581EF0A9FACDE901A240F08850F8
:1048600040F430200390387801A9FFF77DFE00283E
:1048700052DA3349314A334840F235231EF090F87A
:1048800038481EF08DF840F2352166E79868D3F875
:1048900004B052581EF089FA1AF0010F40EA0600DF
:1048A000CDE901B20390DED02F49244A2548842364
:1048B0001EF076F82D481EF073F884214DE79868B5
:1048C000D3F804A052581EF070FA40F0C060CDE951
:1048D00001A240F40030C5E79868D3F804A052580C
:1048E0001EF063FACDE901A240F08270BAE7986841
:1048F000D3F804A052581EF058FACDE901A240F4B2
:104900008020AFE79868D3F804A052581EF04DFA03
:10491000CDE901A22843A5E73B7801333B707EE750
:10492000C1F89830C1F8A000013331E7002005B08C
:10493000BDE8F08F00ED00E0146F0200609302000C
:1049400030C10200B6860200E8930200AA320020BD
:104950000000F0FF00000211000008119B9402000B
:10496000EB940200719402001C9402004294020035
:10497000F0B587B007460E4614460021102268465F
:104980001D4621F09AFE02238DF802302A46054B7F
:10499000019321466846CDE904761DF06FFC07B00F
:1049A000F0BD00BFEB2D020008B5024B1B68984715
:1049B000002008BD30130020034B044A1860937890
:1049C00043F0020393707047301300202C02002044
:1049D00008B50649064821F00701C1F1005202F569
:1049E0008022FDF7C3FD002008BD00BFDF6E002060
:1049F0003413002008B509484FF0FF324FF0FF3361
:104A000018F016FE48B106490648074A7F231DF0F4
:104A1000C7FF05487F211DF0BAFF08BD3C020020FA
:104A200055950200B68602001B950200014818F059
:104A3000C7BE00BF3C02002038B50546FFF7DAFFCD
:104A400008482A460821FDF707FD044628B925B184
:104A5000FFF768FD044B0C221A50FFF7E7FF2046D2
:104A600038BD00BF341300200C00000010B5044610
:104A7000FFF7C0FF21460348FDF74CFCBDE810409E
:104A8000FFF7D4BF3413002070B5A0FB015434B934
:104A90002846FFF7D1FF064640B9304670BDFFF704
:104AA00041FD054B0C221A500026F6E72A46214606
:104AB00021F003FEF1E700BF0C00000070B5416972
:104AC000867A0B4D044659B1437ADB0706D42C2372
:104AD00003FB06535B6A1B689B689847002363616E
:104AE0002C20214600FB0650BDE8704020F0EFBAB4
:104AF000F4050020024B2C2202FB0030704700BF5F
:104B0000F4050020827A064B2C2101FB02339A6ABD
:104B10001B7F1B33801A23F00303B0FBF3F07047B5
:104B2000F405002038B5074B827A2C2404FB0233AD
:104B30005B6AD3E901240C601568FFF7E3FF04FB0F
:104B4000005038BDF405002008B543684BB1074953
:104B50000748084A63231DF023FF064863211DF020
:104B600016FF03824369C36008BD00BF8895020039
:104B7000B6860200639502002DE9FF4705466846A8
:104B8000039117461C4620F091FBDDE9008955B9D9
:104B90005C495D4A5D484FF485731DF001FF4FF499
:104BA0008571594818E005F11406EFF3118A2023A6
:104BB00083F31288BFF36F8F30461BF05BFB68B93D
:104BC000534A5449514884231DF0EAFE3146524865
:104BD0001DF0E6FE84214E481DF0D9FE30461BF044
:104BE0006DFB6B8B002B5AD02A8B9A4239D900224D
:104BF0000023284619F00CF80446002831D030462E
:104C00001BF046FB68B9424A444940484FF4997347
:104C10001DF0C6FE314642481DF0C2FE4FF49971A8
:104C2000D9E78AF31188BFF36F8F039D002D59D008
:104C300042464B46684620F05EFBA27A394B2C2157
:104C400001FB023320465B6A1B6803A91E68DDE98D
:104C50000023B0476061002837D12046FFF72EFFC0
:104C60002EE06C8B631E6B8330461BF011FB00281B
:104C7000C9D08AF31188BFF36F8F2B7F2A8B1B3328
:104C8000121BAC6A23F0030302FB0344254B264AA4
:104C9000EB1A9B105343A3722B7FE372C5E7304698
:104CA0001BF0F6FA0028AED08AF31188BFF36F8F9D
:104CB00023463A46284618F0ABFF04460028B4D1F4
:104CC0000024204604B0BDE8F087039B9D420BD929
:104CD00016490D4A0D4840F25F131DF061FE40F287
:104CE0005F115EE765612B46002101222281616030
:104CF000E27A638204F1180021F0DFFC2046FFF71E
:104D000023FFDEE77EB1020063950200B686020053
:104D100030890200898902009E8902005D890200B3
:104D200074890200F4050020A38B2EBAA29502001C
:104D300070B50C46054658B92849294A29484FF408
:104D4000D3731DF02DFE4FF4D37125481DF01FFEC7
:104D500049B92549224A234840F2A7131DF020FEF5
:104D600040F2A711F1E7EFF31186202383F31288B5
:104D7000BFF36F8F1D481BF07DFA60B91C4A1D49B7
:104D8000184884231DF00CFE18491B481DF008FE2E
:104D900084211748DAE715481BF090FA00232360B6
:104DA0006B689BB9C5E9004410481BF071FA80B9E3
:104DB0000F4A12490B484FF499731DF0F1FD0B494E
:104DC0000F481DF0EDFD4FF49971E2E71C606C6037
:104DD000EAE786F31188BFF36F8F70BD18A4020055
:104DE00063950200B6860200119C02004013002069
:104DF00030890200898902009E8902005D890200D3
:104E00007489020070B5044658B923492348244ADE
:104E100040F2B3131DF0C4FD214840F2B3111DF060
:104E2000B6FDEFF31186202383F31288BFF36F8F53
:104E30001C481BF01FFA60B91B4A1C491748842301
:104E40001DF0AEFD17491A481DF0AAFD8421164831
:104E5000E5E714481BF032FA25682DB162682B682B
:104E60002360954208BF63600E481BF011FA68B9D1
:104E70000D4A104909484FF499731DF091FD0949F5
:104E80000D481DF08DFD4FF49971E0E786F3118810
:104E9000BFF36F8F284670BD18A40200B6860200CB
:104EA00063950200401300203089020089890200C6
:104EB0009E8902005D890200748902002DE9F0419B
:104EC000044618B3204F00264FF02C08254605F164
:104ED00008026468BFF35B8F52E8003F591E42E846
:104EE00000100028F8D1BFF35B8F13F0FF0319D136
:104EF000164A1749174840F2D7131DF051FD2946AD
:104F000015481DF04DFD40F2D71108E013490F4A36
:104F100010484FF4E2731DF043FD4FF4E2710B486B
:104F20001DF035FD012B0AD1AB7AEE6008FB03734F
:104F30006E601B6A284623B19847002CC6D1BDE895
:104F4000F081FFF7BBFDF8E7F40500206395020050
:104F5000B3950200B6860200C0950200119C0200C3
:104F600038B5044658B91549154A16484FF4FE732A
:104F70001DF016FD4FF4FE7111481DF008FD00F103
:104F80000802BFF35B8F52E8003F591C42E800154E
:104F9000002DF8D1BFF35B8FDBB2FF2B0DD1084A98
:104FA000094908484FF400731DF0FAFC21460748F0
:104FB0001DF0F6FC4FF40071DEE738BD119C0200D5
:104FC00063950200B6860200D5950200E5950200C1
:104FD00008B5034658B908490848094A40F2492328
:104FE0001DF0DEFC064840F249211DF0D0FC1846B9
:104FF0005B68002BFBD108BD119C0200B686020045
:105000006395020070B50D46044658B90F49104A21
:1050100010484FF415731DF0C3FC4FF415710C4884
:105020001DF0B5FC49B90C49094A0A4840F255231C
:105030001DF0B6FC40F25521F1E746681EB1084666
:10504000FFF7C6FF4660656070BD00BFF7980200BD
:1050500063950200B68602002096020038B5054628
:105060000C4659B90C490D480D4A4FF418731DF000
:1050700097FC0B484FF418711DF089FC20B9BDE86E
:1050800038400846FFF76CBFFFF7A2FF2146FFF745
:10509000B9FF284638BD00BF20960200B686020040
:1050A00063950200034610B5084659B91649174AD8
:1050B000174840F275231DF073FC40F27521134828
:1050C0001DF065FCCBB15A684AB912490F4A104825
:1050D0004FF41E731DF064FC4FF41E71EFE78A421B
:1050E00009D00D49094A0A4840F279231DF058FCBD
:1050F00040F27921E3E74A685A604468002343603C
:10510000FFF7DCFE204610BD2096020063950200EA
:10511000B6860200019602000F96020008B548B953
:105120000B490C4A0C482B231DF03AFC2B21094853
:105130001DF02DFC83883BB10849064A06482C2304
:105140001DF02EFC2C21F2E783680B44036008BDA0
:10515000119C02002D960200B686020059960200AC
:1051600070B5034605688288DC889E68A818A41A72
:10517000AD1B641BA14209D906490748074A3E23D3
:105180001DF00EFC05483E211DF001FC0A449A80EA
:1051900070BD00BF68960200B68602002D96020020
:1051A00008B5034600689A68821A91420BD90949EA
:1051B00009480A4A40F255131DF0F2FB074840F235
:1051C00055111DF0E4FB9A88401A1144186099802B
:1051D00008BD00BF9C960200B68602002D96020014
:1051E00008B582888A4203460BD2094909480A4A0F
:1051F00040F2C3131DF0D4FB074840F2C3111DF069
:10520000C6FB521A828000680844186008BD00BFBF
:105210008C960200B68602002D96020008B5034661
:1052200000689A888A420BD208490948094A40F224
:10523000CF131DF0B5FB074840F2CF111DF0A7FBBF
:10524000521A01449A80196008BD00BF8C96020072
:10525000B68602002D9602000C4B0122C3F84025B1
:105260004FF080434FF08051C3F87825D1F83001DA
:10527000082805D1D1F83411022908BFC3F838260F
:105280000122C3F880250020704700BF00E00140E4
:1052900048B1054B054A1B68B3FBF2F35843044B76
:1052A00043F00103184770473005002040420F00CB
:1052B000006D020008B5054A054B136010463C23FB
:1052C000536016F09BFE002008BD00BF4413002071
:1052D0003FC00F0070B50B7892B006460C4607AD84
:1052E000032B31D8DFE803F0022A2C2E1949284677
:1052F000FAF720FF059563780493A3780393E37886
:1053000002932379019363790093A379124A1E21B2
:105310000AA81CF089FF10AD0AAB32461C4603CC2C
:10532000AC4210605160234602F10802F6D12068B9
:105330001060A3889380304612B070BD0749D6E74D
:105340000749D4E70749D2E7074A0A2128461CF053
:105350006BFFCFE7D3960200F5960200DA960200C3
:10536000E1960200EB96020071BA02000E4B402952
:1053700070B528BF40210D4C46181D46B04203F1C0
:10538000020304D1002305F81130074870BD0278EC
:105390001209A25C03F8022C10F8012B02F00F0294
:1053A000A25C03F8012CE9E7AB32002040CE0200FA
:1053B00010B586B0094B0A4803930024CDE9044494
:1053C00019F0E2F903AB0093064905480A234FF4AC
:1053D000B06219F0F3F9204606B010BD1F97020025
:1053E00058070020003400200146014819F082BA15
:1053F00058070020014601481FF0D8BE580700207A
:10540000884208B501F1100310D9984213D20E4911
:105410000E4A0F4840F2B3231DF0C2FA0D481DF0AA
:10542000BFFA0A4840F2B3211DF0B1FAEFD000F103
:1054300010029142EAE7013813F8012D00F8012F1C
:105440008B42F9D108BD00BF5A970200289702008D
:10545000B6860200B197020038B5044608462378A4
:10546000012B11D0022B21D02BBB1A4B0A4603F182
:10547000100153F8045B42F8045B8B42F9D1638856
:105480001A0A8270C37038BD124B0A4603F110012C
:1054900053F8045B42F8045B8B42F9D163681A0C41
:1054A000190E42700170C3F30722EAE7611CBDE8E0
:1054B0003840FFF7A5BF084A0849094837231DF0BF
:1054C0006FFA217807481DF06BFA034837211DF069
:1054D0005EFA00BF51CE0200E397020030C1020025
:1054E000B68602001398020010B51DF070FD1FF083
:1054F0006DFE044608B91AF095FCBFF35B8F064BAE
:105500001B68BFF35B8F0BB10A2098471CB9BDE83D
:1055100010401AF0F5BC10BD4C130020811EC9B21A
:105520001E2938B5044604D81A4820FA01F1C907E3
:105530000CD41949194A1A487A231DF031FA19482E
:105540001DF02EFA15487A211DF021FA16481DF09B
:1055500058FC0546D0B1082C1AD00CD8022C10D01B
:10556000042C15D011490E48114A52231DF018FA87
:105570000F485221E8E7102C01D0202CF2D1052150
:1055800000E0042105F10C001DF052FC284638BD56
:105590000221F7E7410000405A9802002B980200D0
:1055A000B68602009F980200D006002030C102009B
:1055B000BF9802000F2810B50CD80D280CD90A4846
:1055C0001DF01FFC044618B104210C301DF030FC06
:1055D000204610BD1328F2D009B10448F0E7BDE819
:1055E00010400220FFF79ABFFC0600204C06002066
:1055F00038B50B6805460C464BB90E490E480F4AA4
:10560000FA231DF0CDF90D48FA211DF0C0F94A68C2
:10561000DA600B684A895A820868FFF74FFC204617
:105620001022002121F049F82846BDE838401DF03D
:10563000CEBC00BFF1980200B68602002B98020093
:105640002DE9F84305460C461F4616464AB9264939
:10565000264A2748D6231DF0A3F9D62123481DF05A
:1056600096F938B92349214A2148D7231DF098F9E2
:10567000D721F3E74A69CB689A4207D11E491B4AF2
:105680001B48DB231DF08CF9DB21E7E708461DF002
:10569000B6FC804638B11949144A1548DD231DF07F
:1056A0007FF9DD21DAE701F10C09484605F10C012B
:1056B0001DF0ABFBE36862692E829B1A13FA86F336
:1056C0006B8201236B7231464846FFF789FDE36820
:1056D0007B60638AC4F80C807B81A4F812803C60F4
:1056E0002846BDE8F88300BFBC9602002B98020054
:1056F000B6860200FE98020003990200209902007B
:1057000038B5C5682B7893B9B5F801400F2120460C
:1057100003F0DCF9EB78054650B90A4A118831B933
:105720006FEA04506FEA10501080074A137038BDBA
:105730000373012103F0E6F82846BDE8384003F082
:105740004FB800BF783200202C33002010B586B04F
:1057500003AB002400930749074805944FF0FF333B
:105760004FF48062CDE9034419F028F8204606B0D2
:1057700010BD00BFC0390020F807002010B5084C4C
:105780000146062294F86E0003F060FE38B994F8E2
:105790006E000449BDE81040052203F057BE10BD5D
:1057A0000000002026CE02001FB501460B48FFF77F
:1057B000BFFA0B490B481FF0F9FC00280ADA0A4B24
:1057C000029300230390CDE90033084901221846D3
:1057D0001DF057FC05B05DF804FB00BF340100204C
:1057E000F00200209808002048990200A06B0200F7
:1057F0001FB501210C30FFF711FD03780393064B11
:1058000002930023CDE900330449012218461DF01C
:1058100038FC05B05DF804FB65990200A06B02003E
:105820001FB5C3681C880121204603F04FF90346C9
:1058300050B9084A08490394CDE9010200900122B9
:105840001DF01FFC04B010BD04B0BDE8104002F014
:10585000C7BF00BF87990200A06B02001FB5C368D5
:10586000B3F801400121204603F030F9034650B956
:10587000074A08490394CDE90102009001221DF076
:1058800000FC04B010BD04B0BDE8104002F0A8BF99
:1058900087990200A06B02007FB5C3681D788DB99F
:1058A000B3F801600F21304603F010F9044658B9EF
:1058B0000A4B0B490396CDE90103009003460122F0
:1058C0001DF0DFFB04B070BD294603F01BF8204635
:1058D00004B0BDE8704002F083BF00BFAB99020086
:1058E000A06B020030B502EBC303044687B0084644
:1058F0009A4202D16FF05E0016E0114611F8085B83
:10590000A54217D1038A517899420FD9CDE90334C2
:10591000094B029300231846CDE9003307490122C1
:105920001DF0AFFB6FF0150007B030BD536898470E
:105930000020F9E70A46DBE7D1990200A06B0200DC
:1059400070B586B005460C46FFF7CCFF5F3011D12D
:10595000268AE0683146FFF709FD074B02930023D2
:10596000CDE90460CDE900330449039502221846CD
:105970001DF087FB06B070BDF3990200A06B02001A
:1059800010B5012104460C30FFF748FC2146034ABC
:105990000078BDE810400223FFF7D2BFE86F020095
:1059A00070B5494886B0FFF72DFA0446002867D045
:1059B00000F10C0528461DF049FA022804D00428FD
:1059C00060D0424B039004E0238A032B09D8039351
:1059D0003F4B02930023CDE900333E490122184694
:1059E0002BE004212846FFF719FCFF234288068894
:1059F0002376238AC6F30B009A4260830FD0CDE949
:105A00000332354B02930023CDE9003331490122A3
:105A100018461DF036FB2046FFF750FA1BE00F2119
:105A200003F054F8054658B9638B03932B4B29496F
:105A30000090CDE90103012203461DF022FBEAE7B5
:105A400003F070F8320B20762146284602F000FE63
:105A5000284602F0C5FE224BD3F8343183B12149E8
:105A600021481FF0A3FB00280ADA204B02930023F1
:105A70000390CDE900331749012218461DF001FBC0
:105A800006B070BD28460221FFF7C8FB0546007826
:105A90003E2812D01DF0D4FA10F002060DD1144A9F
:105AA0001449154840F698431CF07AFF86F3118894
:105AB000BFF36F8F0323184602DF104A28780623AE
:105AC0002146FFF73DFFA6E734010020DE9A0200E1
:105AD000159A0200A06B0200369A02005A9A020040
