:10000000C05A0020E1520000C54D0200CD52000050
:10001000CD520000CD520000CD5200000000000083
:100020000000000000000000000000001953000064
:10003000CD5200000000000051550000CD520000DC
:10004000C955000071940100C9550000C955000050
:10005000C9550000C9550000C9550000C955000028
:10006000C9550000C9550000C9550000C955000018
:10007000C9550000C9550000C9550000C955000008
:10008000C9550000C9550000C9550000C9550000F8
:10009000C9550000C9550000C9550000C9550000E8
:1000A000C9550000C9550000C9550000C9550000D8
:1000B000C9550000C9550000C9550000C9550000C8
:1000C000C9550000C9550000C9550000C9550000B8
:1000D000C9550000C9550000C9550000C9550000A8
:1000E000C9550000C9550000C9550000C955000098
:1000F000C9550000C9550000C9550000C955000088
:1001000081F0004102E000BF83F0004330B54FEAC8
:1001100041044FEA430594EA050F08BF90EA020F35
:100120001FBF54EA000C55EA020C7FEA645C7FEAC8
:10013000655C00F0E2804FEA5454D4EB5555B8BFEB
:100140006D420CDD2C4480EA020281EA030382EA5C
:10015000000083EA010180EA020281EA0303362DEE
:1001600088BF30BD11F0004F4FEA01314FF4801CC1
:100170004CEA113102D0404261EB410113F0004FD3
:100180004FEA03334CEA133302D0524263EB43038A
:1001900094EA050F00F0A780A4F10104D5F1200E28
:1001A0000DDB02FA0EFC22FA05F2801841F1000183
:1001B00003FA0EF2801843FA05F359410EE0A5F157
:1001C00020050EF1200E012A03FA0EFC28BF4CF088
:1001D000020C43FA05F3C01851EBE37101F000453E
:1001E00007D54FF0000EDCF1000C7EEB00006EEB4B
:1001F0000101B1F5801F1BD3B1F5001F0CD34908D5
:100200005FEA30004FEA3C0C04F101044FEA44522B
:1002100012F5800F80F09A80BCF1004F08BF5FEAB2
:10022000500C50F1000041EB045141EA050130BD92
:100230005FEA4C0C404141EB0101013C28BFB1F5A4
:10024000801FE9D291F0000F04BF01460020B1FAEF
:1002500081F308BF2033A3F10B03B3F120020CDAC2
:100260000C3208DD02F1140CC2F10C0201FA0CF0A0
:1002700021FA02F10CE002F11402D8BFC2F1200C05
:1002800001FA02F120FA0CFCDCBF41EA0C019040BB
:10029000E41AA2BF01EB0451294330BD6FEA040404
:1002A0001F3C1CDA0C340EDC04F11404C4F12002EF
:1002B00020FA04F001FA02F340EA030021FA04F301
:1002C00045EA030130BDC4F10C04C4F1200220FA58
:1002D00002F001FA04F340EA0300294630BD21FA96
:1002E00004F0294630BD94F0000F83F4801306BF5C
:1002F00081F480110134013D4EE77FEA645C18BF50
:100300007FEA655C29D094EA050F08BF90EA020FE6
:1003100005D054EA000C04BF1946104630BD91EADE
:10032000030F1EBF0021002030BD5FEA545C05D1E1
:100330004000494128BF41F0004130BD14F5800420
:100340003CBF01F5801130BD01F0004545F0FE4194
:1003500041F470014FF0000030BD7FEA645C1ABFC9
:10036000194610467FEA655C1CBF0B46024650EA00
:10037000013406BF52EA033591EA030F41F400212C
:1003800030BD00BF90F0000F04BF0021704730B5B2
:100390004FF4806404F132044FF000054FF0000187
:1003A00050E700BF90F0000F04BF0021704730B548
:1003B0004FF4806404F1320410F0004548BF40421D
:1003C0004FF000013EE700BF42004FEAE2014FEA72
:1003D00031014FEA02701FBF12F07F4393F07F4F4D
:1003E00081F06051704732F07F4208BF704793F050
:1003F0007F4F04BF41F40021704730B54FF4607463
:1004000001F0004521F000411CE700BF50EA010265
:1004100008BF704730B54FF000050AE050EA01020E
:1004200008BF704730B511F0004502D5404261EB7E
:1004300041014FF4806404F132045FEA915C3FF4BF
:10044000D8AE4FF003025FEADC0C18BF03325FEA5C
:10045000DC0C18BF033202EBDC02C2F1200300FA0D
:1004600003FC20FA02F001FA03FE40EA0E0021FA32
:1004700002F11444BDE600BF80F0004002E000BF7E
:1004800081F0004142001FBF5FEA410392EA030F7F
:100490007FEA226C7FEA236C6AD04FEA1262D2EBC9
:1004A0001363C1BFD218414048404140B8BF5B42CE
:1004B000192B88BF704710F0004F40F4000020F067
:1004C0007F4018BF404211F0004F41F4000121F07D
:1004D0007F4118BF494292EA030F3FD0A2F10102C7
:1004E00041FA03FC10EB0C00C3F1200301FA03F105
:1004F00000F0004302D5494260EB4000B0F5000F28
:1005000013D3B0F1807F06D340084FEA310102F1E6
:100510000102FE2A51D2B1F1004F40EBC25008BF98
:1005200020F0010040EA03007047490040EB000062
:10053000013A28BFB0F5000FEDD2B0FA80FCACF163
:10054000080CB2EB0C0200FA0CF0AABF00EBC25090
:1005500052421843BCBFD0401843704792F0000F7E
:1005600081F4000106BF80F400000132013BB5E7D1
:100570004FEA41037FEA226C18BF7FEA236C21D047
:1005800092EA030F04D092F0000F08BF08467047AC
:1005900090EA010F1CBF0020704712F07F4F04D17A
:1005A000400028BF40F00040704712F100723CBF8D
:1005B00000F50000704700F0004343F0FE4040F4B7
:1005C000000070477FEA226216BF08467FEA236375
:1005D0000146420206BF5FEA412390EA010F40F460
:1005E000800070474FF0000304E000BF10F00043AC
:1005F00048BF40425FEA000C08BF704743F0964393
:1006000001464FF000001CE050EA010208BF7047AD
:100610004FF000030AE000BF50EA010208BF704734
:1006200011F0004302D5404261EB41015FEA010C49
:1006300002BF84460146002043F0B64308BFA3F141
:100640008053A3F50003BCFA8CF2083AA3EBC25323
:1006500010DB01FA02FC634400FA02FCC2F1200242
:10066000BCF1004F20FA02F243EB020008BF20F079
:100670000100704702F1200201FA02FCC2F12002DF
:1006800050EA4C0021FA02F243EB020008BF20EAD4
:10069000DC7070474FF0FF0C1CEAD0521EBF1CEA02
:1006A000D15392EA0C0F93EA0C0F6FD01A4480EAF0
:1006B000010C400218BF5FEA41211ED04FF00063D9
:1006C00043EA501043EA5111A0FB01310CF0004005
:1006D000B1F5000F3EBF490041EAD3715B0040EA2B
:1006E000010062F17F02FD2A1DD8B3F1004F40EBFB
:1006F000C25008BF20F00100704790F0000F0CF0CE
:10070000004C08BF49024CEA502040EA51207F3A91
:10071000C2BFD2F1FF0340EAC250704740F400006C
:100720004FF00003013A5DDC12F1190FDCBF00F05D
:1007300000407047C2F10002410021FA02F1C2F10B
:10074000200200FA02FC5FEA310040F1000053EAA7
:100750004C0308BF20EADC70704792F0000F00F0F5
:10076000004C02BF400010F4000F013AF9D040EAFB
:100770000C0093F0000F01F0004C02BF490011F48F
:10078000000F013BF9D041EA0C018FE70CEAD1538D
:1007900092EA0C0F18BF93EA0C0F0AD030F0004C0D
:1007A00018BF31F0004CD8D180EA010000F00040C1
:1007B000704790F0000F17BF90F0004F084691F07F
:1007C000000F91F0004F14D092EA0C0F01D14202B9
:1007D0000FD193EA0C0F03D14B0218BF084608D182
:1007E00080EA010000F0004040F0FE4040F40000CC
:1007F000704740F0FE4040F4400070474FF0FF0C5F
:100800001CEAD0521EBF1CEAD15392EA0C0F93EAA5
:100810000C0F69D0A2EB030280EA010C49024FEAF7
:10082000402037D04FF0805343EA111143EA1013B0
:100830000CF000408B4238BF5B0042F17D024FF468
:10084000000C8B4224BF5B1A40EA0C00B3EB510F43
:1008500024BFA3EB510340EA5C00B3EB910F24BF2C
:10086000A3EB910340EA9C00B3EBD10F24BFA3EBB1
:10087000D10340EADC001B0118BF5FEA1C1CE0D179
:10088000FD2A3FF650AF8B4240EBC25008BF20F02C
:10089000010070470CF0004C4CEA50207F32C2BF80
:1008A000D2F1FF0340EAC250704740F400004FF01D
:1008B0000003013A37E792F0000F00F0004C02BF4E
:1008C000400010F4000F013AF9D040EA0C0093F018
:1008D000000F01F0004C02BF490011F4000F013B72
:1008E000F9D041EA0C0195E70CEAD15392EA0C0FDA
:1008F00008D142027FF47DAF93EA0C0F7FF470AF12
:10090000084676E793EA0C0F04D14B023FF44CAF54
:1009100008466EE730F0004C18BF31F0004CCAD1E9
:1009200030F000427FF45CAF31F000437FF43CAF25
:100930005FE700BF4FF0FF3C06E000BF4FF0010C47
:1009400002E000BF4FF0010C4DF804CD4FEA400229
:100950004FEA41037FEA226C18BF7FEA236C11D073
:1009600001B052EA530C18BF90EA010F58BFB2EB26
:10097000030088BFC81738BF6FEAE17018BF40F0A6
:10098000010070477FEA226C02D15FEA402C05D15A
:100990007FEA236CE4D15FEA412CE1D05DF8040BDF
:1009A000704700BF844608466146FFE70FB5FFF772
:1009B000C9FF002848BF10F1000F0FBD4DF808ED2A
:1009C000FFF7F4FF0CBF012000205DF808FB00BF1B
:1009D0004DF808EDFFF7EAFF34BF012000205DF875
:1009E00008FB00BF4DF808EDFFF7E0FF94BF0120C2
:1009F00000205DF808FB00BF4DF808EDFFF7D2FFBF
:100A000094BF012000205DF808FB00BF4DF808ED01
:100A1000FFF7C8FF34BF012000205DF808FB00BFCE
:100A20004FEA4002B2F1FE4F0FD34FF09E03B3EBFB
:100A300012620DD94FEA002343F0004310F0004F3B
:100A400023FA02F018BF404270474FF00000704791
:100A500012F1610F01D1420205D110F0004008BF30
:100A60006FF0004070474FF00000704742000ED218
:100A7000B2F1FE4F0BD34FF09E03B3EB126209D4D9
:100A80004FEA002343F0004323FA02F070474FF08F
:100A90000000704712F1610F01D1420202D14FF004
:100AA000FF3070474FF00000704700BF53B94AB99C
:100AB000002908BF00281CBF4FF0FF314FF0FF3066
:100AC00000F00CB8ADF1080C6DE904CE00F018F898
:100AD000DDF804E0DDE9022304B07047704700BF91
:100AE000034611F8012B03F8012B002AF9D17047B6
:100AF000034613F8012B002AFBD1181A013870475E
:100B00002DE9F0478C468E46089E15460446194648
:100B1000002B40F0D080724547D9B2FA82F74FB12E
:100B2000C7F120030EFA07FC20FA03F3BD4043EAA5
:100B30000C0CBC404FEA154EA8B2BCFBFEF8230CCF
:100B40000EFB18CC08FB00F943EA0C43994528D961
:100B5000EB1808F1FF3204D2994502D9A8F102023C
:100B60002B44A3EB0903A4B2B3FBFEFC0EFB1C3326
:100B70000CFB00F044EA0344A04214D92C190CF1F8
:100B8000FF3304D2A04202D9ACF102032C44241A50
:100B900043EA02401EB1FC40002334607360BDE8AC
:100BA000F0874246DDE76346F1E7002A79D0B2FAE2
:100BB00082F3002B3FD01946C1F1200302FA01F560
:100BC0002EFA03F20EFA01FE20FA03F343EA0E03B3
:100BD0004FEA154E00FA01F4B2FBFEFCAFB20EFB79
:100BE0001C201A0C0CFB07F842EA004290455AD927
:100BF000AA180CF1FF3004D2904502D9ACF10200E2
:100C00002A44A2EB08029BB2B2FBFEFC0EFB1C22A4
:100C10000CFB07F743EA02439F4246D9EB180CF15D
:100C2000FF3204D29F4202D9ACF102022B44DB1BFB
:100C300042EA004202E0AEEB020301224FEA154E07
:100C4000AFB2B3FBFEFC200C0EFB1C330CFB07F811
:100C500040EA034398452AD9EB180CF1FF3004D23F
:100C6000984502D9ACF102002B44A3EB0803A4B2CF
:100C7000B3FBFEFC0EFB1C330CFB07F744EA0344FA
:100C8000A74216D92C190CF1FF3304D2A74202D97E
:100C9000ACF102032C44E41B43EA00400F4611462A
:100CA00078E71F2188E76046ABE76246BFE760460A
:100CB000DBE76346EFE7734506D916B9002108461E
:100CC0006DE7C6E9000EF9E7B3FA83F787B9734514
:100CD00001D3824207D8841A6EEB030301209C469D
:100CE0001EB900215BE73846FAE7C6E9004CF8E791
:100CF000C7F1200CBB4022FA0CF51D4320FA0CF181
:100D00002EFA0CF30EFA07FE41EA0E014FEA1549DE
:100D100000FA07F4B3FBF9F81FFA85FE09FB183057
:100D20000B0C08FB0EFA43EA00439A4502FA07F25D
:100D300040D9EB1808F1FF3004D29A4502D9A8F146
:100D400002002B44A3EB0A0389B2B3FBF9F809FBB9
:100D5000183308FB0EFE41EA03418E452CD9691871
:100D600008F1FF3304D28E4502D9A8F102032944C9
:100D700043EA0040A0FB0298A1EB0E014145CE469C
:100D8000434602D306D14C4504D2B9EB020E68EBC0
:100D900005030138002EA4D0B4EB0E0261EB030171
:100DA00001FA0CFC22FA07F34CEA0303F940C6E906
:100DB000003196E74046C5E74346D9E7000000000A
:100DC000F0B500228BB0114640F6034006F0DEFC81
:100DD000044600285ED106F09DFA214609AA41F298
:100DE000030006F0D3FC0446002853D1099A2B4D8A
:100DF000D168D1F80100D1F8051005F1780303C3DB
:100E0000104605F0BFF8214609AA41F2010006F09C
:100E1000BDFC044600283DD10998C3685A7885F87E
:100E20006F205A88A5F872201A7985F87020B3F8D7
:100E30000720A5F87420B3F80530A5F8763005F042
:100E4000A1F8214609AA41F2020006F09FFC0446DF
:100E500000BB099FFA6805F18006531C41321868EF
:100E60005968344603C4083393422646F7D13846BE
:100E700005F088F895F87C3013F0400314D1084A47
:100E800008490093CDE901321846012224F04AF9BD
:100E90006FF0120420460BB0F0BD00BF0000002030
:100EA000F3C502005C8D020009AA002142F2030092
:100EB00006F06CFC04460028ECD1099AB24BD168CC
:100EC000D1F80100D1F8051003C3104605F05AF817
:100ED000214609AA42F2020006F058FC0446002806
:100EE000D8D1099FFE68B6F801309AB2BAB1F2784B
:100EF000AAB1A5F8FC30F378032B0BD00322CDE97F
:100F00000332A24BA2490090CDE90103022203461D
:100F100024F008F9F2789F48114626F037F9384650
:100F200005F030F895F87C601F2316F02006A5F830
:100F3000103119D14FF0FF304FF0FF3106F012FAA7
:100F40000446002800F0B88102210C3005F06CF94D
:100F50000123037046702146324640F66D4006F08C
:100F600015FC0446002895D195F89C301E0712D533
:100F700009AA002142F21C0006F008FC04460028E1
:100F800088D10998C368D3F80120D3F80530C5E9A2
:100F9000382304F0F7FF95F8D8309C0626D50DF1DC
:100FA000220108A806F090FC044600287FF472AFE6
:100FB0004FF0FF304FF0FF3106F0D4F9064600281D
:100FC00000F07A8104210C3005F02EF9BDF82030B4
:100FD0000380BDF8223043802246314642F224008D
:100FE00006F0D4FB044600287FF454AF95F8D830BF
:100FF000580610D509AA002142F22A0006F0C6FBC5
:10100000044600287FF446AF0998C3685B7885F8EA
:10101000123104F0B7FF4FF0FF304FF0FF3106F010
:10102000A1F90646002800F0478108210C3005F0A0
:10103000FBF895F8D84014F0400F40F2022308BFA7
:101040000323A10795F8D9104CBF43F02C0343F0BC
:101050000C03A70648BF43F0400311F0090F18BF67
:1010600043F4006304F001040246002143EA041043
:1010700024F088F80022314642F2010006F086FB97
:10108000044600287FF406AF95F87C30B5F8FC10D4
:101090009E0661D4C9B909AA41F2050006F076FBA3
:1010A000044600287FF4F6AEB5F8FC30099C4BB935
:1010B000E368B3F80120A5F8FC209A88354811466A
:1010C00026F064F8204604F05DFF4FF0FF304FF04B
:1010D000FF3106F047F90446002800F0ED800821B2
:1010E0000C3005F0A1F895F8D830D907024641D464
:1010F00029484FF0005124F045F82146002240F6DF
:10110000014006F043FB044600287FF4C3AE0146CD
:1011100009AA4FF6014006F039FB002842D01F4BC8
:101120000094CDE90143234619490222184623F0D1
:10113000F9FFEB79002B40F0AF8007F0CBFB0446C2
:1011400000287FF4A7AE09F09BFB044600287FF43B
:10115000A1AE06F00DFA9DE60029B6D1104B0C4960
:101160000090CDE901030122034623F0DBFF6FF07D
:1011700004048FE602A1D1E90001BCE7AFF30080CF
:101180009088000200800020D800002017C60200CE
:101190005C8D0200000100201088000280C6020061
:1011A0005DC60200099E5249F468B4F80130042B70
:1011B00096BF504A504A52F82320CDE903234F4BA3
:1011C00002930023CDE900330322184623F0AAFF3F
:1011D000B4F80130B4F80320022B39D1052A37D8EE
:1011E000474B53F822304249CDE90332454B029335
:1011F000002303221846CDE9003323F093FFD4F8EF
:10120000091063790791B4F807100691032BA179AF
:1012100096BF3D4A384A52F8232003920024CDE974
:1012200004313A4B32490293032223462046CDE94A
:10123000004423F077FF304604F0A4FE09AA2146BB
:101240004FF6024006F0A2FA064618B1304B67E7A7
:10125000294BC8E70998C368B3F80130A5F8C13035
:1012600004F090FE95F8C1305A077FF562AF09AAE5
:1012700031464FF6034006F089FA28B1254B009617
:10128000CDE9016333464FE70998C3685B7885F879
:10129000C03004F077FE4CE72E78002E7FF44DAF7F
:1012A00095F8C1309B061FD54FF0FF304FF0FF314E
:1012B00006F058F8044610B96FF06804EAE5062114
:1012C0000C3004F0B1FFD5F801300360124B9B885D
:1012D0008380214632464FF6064006F057FA044610
:1012E00000283FF42AAFD5E56FF08504D2E500BFB2
:1012F0005C8D02005C91020008C40200A4C60200DA
:1013000044910200BDC6020034910200D5C602001D
:1013100002C702002BC702000100002000000000ED
:101320002DE9F843D0E90738856903EB08042F3429
:10133000A5420F46164619D8DFF86C80A3FB0801BA
:1013400017A3D3E90023FFF7B1FB0346601BA0FB03
:10135000080123F07F4412A3D3E90023FFF7A6FB83
:1013600020F07F403C603060BDE8F883DFF83890C3
:101370000BA3D3E90023A5FB0901FFF797FB20F09E
:101380007F440A480A2106A3D3E90023E8FB0901A8
:10139000FFF78CFB20F07F403C603060BDE8F883B5
:1013A0008D49FD1A0700000000CA9A3B00166BF138
:1013B000002800F051812DE9F04FCB4C94F85E20CD
:1013C00012F001058DB040F03481607EFF2300F003
:1013D0000300A37617F02AFD94F85E00420700F19F
:1013E0002C81627F94F8293004EB820204EB8303A2
:1013F000166AD3F82C8086B1BB48314612F0D2F879
:1014000033785B0605D506210DF004FF002800F0B7
:101410005581B548414612F0C5F8337813F00E0FE8
:1014200040F0918063691BB10C200DB0BDE8F08FD6
:101430000FF0F6FE8146002800F049810FF0FCFE17
:101440008246002800F0408112F0F2FA054600289A
:1014500000F05A81D0F888004FF6FF73AB8405F195
:10146000100B002800F0358105F17C0205F17801B0
:101470000DF0DCFEB5F8763023F4EF6323F00703BC
:1014800043F48C7343F00103A5F8763095F83730B8
:1014900003F03F0363F07F0385F8373095F88E3013
:1014A00023F0070385F88E3095F83C3023F00F03C6
:1014B000002785F83C304FF4C023C5F88E3128460C
:1014C000C5E91277C5F88870A5F88C7085F8397071
:1014D0006F85C5F82E702F65A5F86071A5F8947119
:1014E000A5F88A7114F03AFA85F86471C5F8689124
:1014F00012F066FD95F89C3160F3020385F89C318B
:1015000012F064FD95F89C3160F3C50385F89C31B9
:1015100095F8623167F34103012185F8623128466D
:1015200013F0E8F805F1E00014F038F8C4E9159A72
:10153000C4F814B0C5E902772F702D6118F058FC7B
:10154000002840F0BD80237E0121C3F342030DF14A
:101550002B008DF82B300EF00BF8024600287DD0C2
:101560004146304611F016FE604A614BB4F85C808B
:101570000721E0FB023100251846C4E9025558A3B3
:10158000D3E900232570FFF791FA60600FF07AF934
:1015900000F10907B8F1000F07D1357805F00F0504
:1015A000A5F10105B5FA85F56D09207E636865F33F
:1015B000000010F00105207657D04E4A0992002015
:1015C000106002254C4ADFF8348104930BAE01937E
:1015D00005920321CDE90200069400903B46CDF828
:1015E0001C8008962A460B950FF070F831460FF0D4
:1015F00099FE98BB424905914AF2D8330093CDE950
:101600000300CDE90100CDF81C80089606943B4606
:10161000012203210B950FF03DF831460FF082FEB9
:10162000E0B994F85E300120034384F85E3017F08F
:10163000DFFB00200DB0BDE8F08F2A4604F15F010A
:10164000C0F3C00017F038FDFF28A0763FF4C9AE04
:10165000284617F005FCC4E611F034BD6369002B81
:101660003FF4E2AE11F004FDDEE6224A2548049381
:1016700003F247130694029591211360A8FB00031F
:1016800001FB08311D4B07931B4B05934FF6FF736E
:1016900009924FF0020803930BAE11A3D3E9002384
:1016A000CDF82C800896FFF701FA3B46CDE90050B3
:1016B0004246284603210FF009F8AEE71220B4E6AF
:1016C00011F0D6FC0320B0E648460FF0AFFD07202E
:1016D000ABE605F18000C5F88800C5E6AFF30080F1
:1016E0008D49FD1A070000007820002000CA9A3BAF
:1016F0008C49FD1A6C2000200D3201008109010087
:10170000312F0100002AE78450460FF09BFD484628
:101710000FF08CFDDBE700BF70B5037E8AB0C3F32A
:1017200042030D46044601210DF1230016468DF8B3
:1017300023300DF01DFF31460246284611F02AFDE8
:101740001D4A1E4B0721E0FB0231184618A3D3E9BE
:101750000023FFF7ABF963689842054621D21B1AB4
:1017600000220192164A0293164BA21AA3FB0232E0
:101770000221520900230A4409AE09911249059138
:10178000CDE9033303210696D2B2009318460EF03A
:10179000F3FF31460FF0C6FD38B9656000200AB08E
:1017A00070BDFBD9C21A0023DBE70C200AB070BD64
:1017B0008D49FD1A0700000000CA9A3B8C49FD1AAA
:1017C000782000204FECC44E810901000000000089
:1017D0002DE9F04F05468BB08B460120022199463A
:1017E00014461AF0EBF800220221824601200DF087
:1017F00071FD2F494FF4D47228460DF0F7FCC61C3A
:101800002C4B0093F6B201954B4632460121002045
:101810000FF000F810F0FD0F42D1274BA4FB034856
:10182000204621A3D3E900234146FFF73FF908955D
:1018300006956B680493214B20F07F47A7FB03318B
:10184000E01A1F4B07934FF007021E4B059302FB54
:1018500007114FF6FE7368EB010103934FF47A72A0
:101860000023FFF723F9CDF800B0CDE901704B4616
:101870003246012100200EF00DFF10F0FD0F0DD1BA
:10188000BAF1000F02D10BB0BDE8F08F01220221A6
:1018900010460BB0BDE8F04F0DF01CBD00DEEFE7C9
:1018A00000DEBAE7AFF300808D49FD1A07000000A3
:1018B000380D0020ED38010000CA9A3B8D49FD1A11
:1018C000D5380100798201002DE9F0418468A28CAD
:1018D0004FF6FF739A428CB000F0C0800546204658
:1018E00014F0B8FA2B7D012B00F0E680022B00F0FB
:1018F000B88033B994F88E3003F01803182B00F039
:101900001C8194F86471002F40F0AE802B8AE68D24
:1019100094F93720CDE90A77002B00F0AC80002A3B
:10192000C0F221810023A4F89031AB7CA28D03F09A
:101930000303551C012BADB200F0BA80B4F894310A
:10194000002B00F0BF80AB4240F237815B1B9BB2A3
:10195000062BA4F894314FF000028CBF0023012322
:10196000E2851F4694F83C2063F3820284F83C2011
:1019700029460DF12702204614F02CF8743000F0AF
:101980001681B4F88E312BB1AB4240F2BF805B1BA5
:10199000A4F88E31B4F88A312BB1AB4240F2C68044
:1019A0005B1BA4F88A31E58D17B9AE4200F0AC801C
:1019B0000135ADB294F8D13013F0010609D1DDE95B
:1019C0000AC3B3BBBCF1000F00F0E9801E46194604
:1019D00030E094F9372023F00103002A84F8D13055
:1019E000C0F28A8094F87600C0F3C00100F00700CE
:1019F00018F07CF8B4F86E20B4F86C301344E28B25
:101A000003F23F13134418448D4A8E4B0721E0FB29
:101A10000231184688A3D3E90023FFF747F861682D
:101A200020F07F408142DDE90AC380F0B280461A8F
:101A300060600021A28C24690694CDE9035703322B
:101A4000814D0291CDE900C6D2B201210020059559
:101A50000EF092FE10F0FD0F40F0B4800CB0BDE827
:101A6000F0813D2784F86471394620460CB0BDE80A
:101A7000F04112F065BB002AB8BF84F8D570AB7C8A
:101A8000A28D03F00303551C012BADB210D0B4F8A6
:101A90009031002B3FF452AFAB4240F29A805B1B77
:101AA000A4F89031B4F89431002B7FF44CAF59E78F
:101AB0000023A4F8943155E70023A4F88E31A4F84C
:101AC0008A311EE7E38C052B8BBF40F2E2424FF4D4
:101AD000FA725A4303FB0222B4F8923142F21071B7
:101AE00001FB0323013BB3FBF2F39BB2A4F8943157
:101AF000002B7FF428AF35E794F87700012100F040
:101B0000070017F0F5FF75E73D4653E70FF0DAFBE6
:101B10000146002864D00023A4F88E31A38CC38032
:101B20001B23037100680FF09FFB33E70023A4F829
:101B30008A31204613F0E0FF35E7218DB4F88C217F
:101B40008B1D9A42C4BF931F5B1AB4F88811CCBF97
:101B50009BB21346994256D0A4F88831A4F88A3132
:101B6000A4F88E21CDE694F8D530002B3CD0013B73
:101B700084F8D53004F1E008404613F051FD002808
:101B800055D0404613F04CFD002842D00023E38599
:101B9000C8E6091A6060A3BB51EA0C021ED115B950
:101BA000002F3FF45BAF00263146334642E79DF8F5
:101BB0002710204612F0C4FA50E70821204612F000
:101BC000BFFA4BE70FF0D8FB84423FF447AF00DE8B
:101BD00044E73E21204612F0B3FA3FE71E4629E7CC
:101BE0000123A4F88E31D5E60AAA0BA92846FFF7EF
:101BF00097FBDDE90A231343BCD0237884F8D53062
:101C0000B8E7002616E7B4F88E1100297FF479AE04
:101C1000A4E70246D4E91E010DF020FB0028B5D14F
:101C200094F83C301B0744BF238DE3857AE6FF2000
:101C300012F048FAA5E700BF8D49FD1A0700000021
:101C400000CA9A3B8C49FD1A2D39010000000000A2
:101C50002DE9F04F87B0B0F86071BDF84C9000915D
:101C6000CDE90423B0F82431BDF840A01F44BFB231
:101C70000446A7EB090390F87600D4F81C819EB2C5
:101C8000BDF844300193C0F3C001BDF8483003965D
:101C900000F00700029317F029FFE58C052D40F2B4
:101CA000A38015FB06F5ADB240F2E24BBAF1050F89
:101CB00040F28E80B4F86E20B4F86C30134403F216
:101CC000D5130344764A77480721E3FB02014FF01E
:101CD0009613E361962323846FA3D3E90023FEF7D1
:101CE000E5FE564620F07F4040F2E2430BFB05F252
:101CF00003FB06F6531E3344B3FBF6F31FFA83FBD4
:101D000060600BFB06F082425D4653D26449801A44
:101D1000A0FB010160A3D3E90023FEF7C7FE20F07A
:101D20007F408044B4F82421B4F86031A9EB07095E
:101D30004D44ADB213442B44A4F86031638D134479
:101D40001D4494F837306585DB0955D100DE002746
:101D50003546019B2385029BA4F8923131462046EB
:101D6000A4F826A013F062FE4F4B218D3344881D4A
:101D7000B3FBF6F39AB29042A4F88C2104D2C1F5D9
:101D80007F41FA310A4492B2009BA4F8882113B132
:101D90000023A4F8943143462A4639462046FFF7EB
:101DA00017FD94F8623143F0010384F8623107B003
:101DB000BDE8F08F121A3A48A2FB000136A3D3E91E
:101DC0000023FEF773FE20F07F40A8EB0008A9E790
:101DD0004FF096130AF10106E36196232384B6B20D
:101DE0000A204FF4FA7381E7039B013515FB03F5D5
:101DF000ADB24FF4FA7B59E7216CA36C284F01FB7D
:101E00000233039A01FB1233A3640023C4F8DC30CD
:101E100018F040F8054694F8D400C0F3420018F0DA
:101E20003BF8054406FB05F5204B1E4805F57425D7
:101E300005F23F25A3FB0535AD0CA36C25640BFB18
:101E400005FB72085B44963A934228BF1346C4E9E7
:101E50001123049B40F2E24909FB03F307212365A8
:101E6000EBFB07010CA3D3E90023FEF71FFE104B89
:101E7000059AA8EB0008A3FB0230800A09FB00F0DA
:101E8000A0FB070104A3D3E90023FEF70FFE751B97
:101E900020F07F475DE700BF8D49FD1A0700000075
:101EA00000CA9A3B8C49FD1A7FC3C90183DE1B43DC
:101EB0005917B7D1000000002DE9F04F0D46166804
:101EC00095F8118009681446027FD1F8009093B00C
:101ED0008346C2F38012D0F81E008DF83720B8F187
:101EE000FF0FBBF822201090ADF8442057D110AB63
:101EF00093E803000E90ADF83C105A46BBF82E1044
:101F000052F82EAB9278A2722181DBF82A2062600F
:101F1000DBF83A20C4F8222004F122009BF83E208E
:101F2000027105210DF024FB94F8272000F03F00FA
:101F300060F3050284F827209BF83F20C2F30401D8
:101F400084F82810BBF83410E182012802F01F0247
:101F500089B20AD91B3202F01F020B2A05D80639B2
:101F600089B240F67A42914225D90021C9F8081079
:101F700094F82C2061F3000284F82C20DBF80C404C
:101F80000125504659468BF804500FF061F920683E
:101F9000257121460FF068F913B0BDE8F08F0EAA45
:101FA0000DF13701404616F081FC9DF837200232D2
:101FB0008DF83720A1E72A6800215160BBF8362050
:101FC000E78A228340F2E24303FB07F73046BBF87F
:101FD00032300B9313F03EFD9BF83F2096F8D4105F
:101FE000520962F3430186F8D41017F053FF0A90A8
:101FF00096F8D400C0F3420017F04EFF0A9A10443E
:1020000007FB00F0AE4A00F5742000F23F20A2FB6F
:1020100000207A08800C963A206362639BF8312096
:1020200040F2E24303FB02F26264BBF83820A6F8F8
:1020300092213946304613F0F9FCA24AA249C6F86B
:1020400098113A44B2FBF7F290B2A6F88C01218BBA
:1020500001F1060C604504DDC1F57F41FA31014410
:1020600088B25A46A6F8880112F81C3FC3F3401301
:10207000D2070A9300F115814FF48072ABF81C204F
:1020800099F81A0017F05CF9002800F0EA80DBF8F4
:102090002420CBF82B20BBF82820ABF82F20B8F158
:1020A000FF0F00F0F880BDF844201098ABF829200D
:1020B000CBF825009DF837208BF81E200E98BDF830
:1020C0003C20CBF81F00ABF82320E28AABF832208B
:1020D000228BABF83420B6F89221ABF8362096F874
:1020E000D420C2F342028BF83820304611F0ACFC09
:1020F000A082ABF80600D5F80480504659460FF090
:10210000A7F81C23A28A88F804300A9BD8F800A0FC
:10211000A8F80620002B40F0B180DDF828B088F840
:102120001CB0414650460FF09FF894F86700B4F891
:102130005CA0B4F85E80012100F0070017F0D8FC25
:10214000D04408F2D51808EB00038246DFF87C8102
:102150005F480721E3FB08014FF09613C4E90333FE
:1021600055A3D3E90023FEF7A1FC20F07F40706067
:10217000EB680B98226B40F2E24101FB003404F261
:10218000B3440221A41A0120BF1A00220DF0A2F8C4
:10219000484611F0C5F9A4EB0A0447A3D3E900238C
:1021A0008246A4FB0801FEF781FCCDF80490AB68E1
:1021B0004849009120F07F480AF10202363BD2B232
:1021C0004344012100200EF025FB01286BD099F833
:1021D0001830DB074AD4304611F036FC3B4CA7FBE5
:1021E000044935A3D3E90023834649462046FEF738
:1021F0005DFCAB68384A0792A3F1360A374B069666
:1022000020F07F47A7FB0331E01A354B05934FF4CD
:10221000F8730893736804934FF0070303FB0711E7
:1022200069EB010100244FF47A7200230394FEF756
:102230003DFC0BF10305EDB2CDE90170CDF8008056
:1022400053462A46012120460EF024FA10F0FD0FD5
:102250002FD10122022110460DF03CF813B0BDE849
:10226000F08FCBF82B00ABF82F0018E700230122EA
:102270000093184611460EF097FAACE794F8273011
:1022800043F0400384F82730201D16F0E3F84FF0A8
:10229000010B208543E70021CBF82510ABF829106E
:1022A00008E700DEE8E60FF067F881458FD000DE32
:1022B0008DE700DECDE700BF8D49FD1A0700000065
:1022C00083DE1B437FC3C901404B4C0000CA9A3BCD
:1022D0008C49FD1A01830100518201008D49FD1ACC
:1022E0007982010000000000F0B5C468636883B023
:1022F0000546002B54D118F0A7FE002018F0C8FEA8
:102300000021084618F0B6FE00222521082018F00A
:102310001DFF414B019301A818F004FF3F4940F213
:102320005B6018F0B5FF237AC3F3420262F3061331
:102330002372204617F03EFF17F08AF8637A03F005
:10234000030348BBFBB927682E68384617F088FBA3
:1023500006446A6806F10901012019F0E1F819F054
:10236000A1F9204611F0E8F8811C3246C9B238467E
:1023700017F078FB054600BB204617F04DFBD0B99F
:10238000002003B0F0BD012016F028FD4178821C2A
:10239000007819F065F8D6E7181E18BF0120F3E79A
:1023A00093F82C309B07A6D01D48214618F020FE3C
:1023B00018F018FFE4E700DEE2E71A4A1A491B4862
:1023C00040F2114322F03AFB194B0721A5FB03030E
:1023D00001FB05310EA3D3E90023FEF767FB154986
:1023E0000246154822F02AFB002585F31188BFF329
:1023F0006F8F0323184602DF1048214618F0F8FDBE
:1024000018F0F0FE6FF08B00BBE700BFAFF3008069
:1024100000CA9A3B00000000D6BE898E5555550073
:10242000A99B010084980200D098020060960200E7
:102430008D49FD1A189A0200D4980200A59E010049
:102440002DE9F043C468A28A4FF6FF739A4283B025
:1024500000F0FD80064618F061F93389628B208C0C
:1024600094F82710A3831A4492B2104480B2431CFC
:1024700023840023638301F03F034906E28300F1D4
:10248000A48094F82810009304F1290004F1220399
:1024900015F0A2FF0546D4E90C31A26BA08BA36313
:1024A00003FB0022E36B8A4294BF9B185B188B42AC
:1024B00028BF0B46626CE363236C94F867101A44E0
:1024C00094F82C3061F306130021C4E9101294F83B
:1024D0007E2084F82C3012F0040200F0898018F07D
:1024E000B3FD002018F0D4FD201D18F01BFE238939
:1024F000A17A40F25B6043EA014118F0C9FE284628
:1025000017F0C0FA2146584818F072FDA08918F05B
:10251000FBFF94F8662094F86700C2F3C003002123
:1025200002F0070200F0070018F018FF204618F02C
:102530008FF9D4F800803768404617F091FA0744C5
:10254000726807F10901002018F0EAFF814619F0CE
:102550007DF8002019F094F8E36B94F8670003F11C
:102560002F02636C012100F0070003EB420518F015
:102570002BFE4D44054494F8670000F00700022844
:1025800034D004280CBF4FF4BC73282301211D4410
:1025900018F01CFE284419F04BF8A18A03313A4682
:1025A000C9B2404617F05EFA0546A8B1B37A13F0F7
:1025B00002062BD000252D48214618F019FD18F0F1
:1025C00011FE284603B0BDE8F083218D04F12202FC
:1025D00015F044FF05465EE7204617F01DFA002877
:1025E0003CD10025284603B0BDE8F0831823CDE791
:1025F000D4E91A010CF032FE00287FF470AF94F891
:102600007E3043F0040384F87E3068E7184A1949A5
:1026100019484FF4AC7322F011FA18480721A5FBB2
:10262000000301FB05310EA3D3E90023FEF73EFAB8
:1026300013490246134822F001FA86F31188BFF3CA
:102640006F8F0323184602DF6FF08B05B3E70E4848
:10265000214618F0CDFC18F0C5FDC2E700DEC0E74A
:1026600000CA9A3B0000000075AA0100859B01008A
:1026700000990200D0980200609602008D49FD1A70
:10268000249A0200D4980200A99B010070B5054667
:102690002A48401B0C46FDF7A9FF2949FEF7AEF872
:1026A0002849FDF7F7FF4FF07C51FDF7F3FF21F0CC
:1026B00027FB06462448001BFDF798FF2049FEF73C
:1026C0009DF82049FDF7E6FF4FF07C51FDF7E2FF52
:1026D00021F016FB04462846FDF788FF1849FEF74F
:1026E0008DF81849FDF7D6FF21F072F91749FDF76B
:1026F000D1FF2146FDF7CEFF2146FDF7CBFF314646
:1027000004463046FDF7C6FF01462046FDF7BAFEF7
:10271000054626F09EF8294604464FF07E50FDF708
:10272000AFFE26F096F80146204621F0ABF80146B0
:10273000FDF7A8FE0649FDF7ADFF70BD482D8D1BC6
:102740008096184B35FA8E3C000E9E08BA1C313F1D
:10275000706DC24A30B50C468FB071B1114BCDE9E6
:102760000313114B02930023CDE900330F490222DA
:10277000184622F02EF80FB030BD0D4A06AD0121EB
:1027800011700146284607F043FF0A4B074903959D
:10279000CDE90143009423460322204622F019F894
:1027A000E9E700BF7AE90200FEA80200F48D02000A
:1027B000B632002021A902007FB50C4A0023137015
:1027C0000B4A13700B4A13700B4A13700B4A009399
:1027D000CDE903120A4A0B49CDE90132184603221A
:1027E00021F0F7FF07B05DF804FB00BFB632002010
:1027F000B9320020B8320020B73200207AE9020056
:102800002FA90200F48D02001FB501290B4B0C49C2
:102810000CBF012200221A700A4A0B4B08BF134654
:1028200003930A4B02930023CDE900330322184699
:1028300021F0CFFF05B05DF804FB00BFB9320020E6
:10284000F48D020050A9020058A9020061A90200FB
:102850001FB501290B4B0C490CBF012200221A7035
:102860000A4A0B4B08BF134603930A4B02930023FB
:10287000CDE900330322184621F0ABFF05B05DF827
:1028800004FB00BFB8320020F48D020050A9020002
:1028900058A902007EA902001FB501290B4B0C4963
:1028A0000CBF012200221A700A4A0B4B08BF1346C4
:1028B00003930A4B02930023CDE900330322184609
:1028C00021F087FF05B05DF804FB00BFB7320020A0
:1028D000F48D020050A9020058A902009AA9020032
:1028E0007FB5BDF820401D4654BB012B28D113787D
:1028F0005A1E092A27D8154E154933710393154BD3
:102900000094CDE9014320462346032221F061FFD4
:1029100036794FF47A735E43214640F2E7304FF444
:1029200000444FF47A720023E6FB0401FEF7BEF880
:1029300002460B4608481DF0A9F9284604B070BDB0
:102940006FF00C00FAE76FF01200F7E7F4010020D7
:10295000F48D0200B3A90200180700202DE9F04110
:102960000D46FDF743FE2C49FDF748FF2B49FDF7C7
:1029700091FE04462A48401BFDF738FE2649FDF724
:102980003DFF2649FDF786FE064621F0B9F90546CA
:10299000204621F01DF88046204621F0B1F9074677
:1029A000304621F015F81F4906464046FDF772FEF5
:1029B0001D4904463846FDF76DFE3146FDF76AFEB7
:1029C00001462046FDF75CFD1749184E044628468F
:1029D000FDF760FE214620F055FF1549FDF75AFE30
:1029E0000025044629462046FDF7F2FF40B90F4D69
:1029F0000E492046FEF700F840B92046BDE8F081B8
:102A000020463146FDF73EFD0446EBE720462946C9
:102A1000FDF736FD0446EBE78096184B35FA8E3C01
:102A2000000E9E0809D8383FBA1C313F0000B4435D
:102A3000E12E65421D4BAF221A7059225A701C4A72
:102A400011689970C1F30720090C1971090A5971AD
:102A50005168D8709971C1F30720090C1972090ADD
:102A600059729168D8719972C1F30720090C1973D2
:102A7000090A5973B2F90C109973C1F30721D9737C
:102A8000D1891974090A5974118A9974090AD97477
:102A9000917C526919755A75C2F30721120CDA75C7
:102AA000120AD87299751A76704700BFBA320020A0
:102AB000E412002070B504468AB060B1264B029340
:102AC0000023CDE90033039024490122184621F068
:102AD00080FE0AB070BD224B224E20490090CDE905
:102AE00001030322034621F074FEFFF7A3FF0FCE7C
:102AF00005AD0FC533682B601B49009423460222A5
:102B000005A805F0D1FF054630B1184B0390CDE97B
:102B1000014300942346D7E7154B0090CDE901030C
:102B20000E490346032221F054FE124B1C794FF448
:102B30007A735C43294640F2E7304FF400454FF486
:102B40007A720023E4FB0501FDF7B0FF02460B4655
:102B500009481DF09BF8BCE7D5A90200F48D0200DE
:102B6000F4A90200108E0200C88E02000AAA020018
:102B70002FAA0200F4010020180700202DE9F04FD1
:102B8000884EB3681E2101331C20B3FBF1F201FB18
:102B90001232B3FBF0F100FB11313E3195B0B17050
:102BA0002821B360B3FBF1F001FB1033C3F16403E0
:102BB00002EB8202F37002F62E127B4B92B232804D
:102BC0001A7009225A7024F0C0FB4FF47A72A0FBED
:102BD0000203764C764D02FB0133C00BD4E9019B16
:102BE00040EA434313936B685946013348466B6090
:102BF000FFF74CFD8046E089FDF7F8FC6D49FDF7D5
:102C0000FDFD6D491090FDF745FD0746208AFDF753
:102C1000EDFC6849FDF7F2FD39460F904046FDF79F
:102C2000E1FE002800F0EA80644B654AC4E9013205
:102C30004FF07E512960914698462F686149384689
:102C4000FDF7C6FE002840F054815F493846FDF785
:102C5000BFFE002840F050815C493846FDF7B8FEC1
:102C6000002840F04C815A493846FDF7B1FE002853
:102C700000F04881DFF85CA149464046FFF76EFE50
:102C80000F99DFF85481DFF85491FDF7F9FB834683
:102C900041465846FDF7BAFE002840F03681DFF87D
:102CA0004081DFF8389141465846FDF791FE0028F3
:102CB00040F031814FF082415846FDF7A7FE0028D1
:102CC00040F031814FF041415846FDF781FE002828
:102CD00000F027814FF041410F98DFF80091FDF798
:102CE000D1FB4FF00008834641465846FDF770FE81
:102CF000002840F01B81DFF8E48041465846FDF78C
:102D00007BFE002840F018812A495846FDF7C2FC96
:102D1000FDF7ACFE109920825046FDF7B1FB31491A
:102D20008046FDF773FE002840F00E812E49404694
:102D3000FDF74EFE002800F005812B491098FDF7A5
:102D4000A1FB2A498046FDF743FE002800F0FE80E3
:102D500026481849FDF79EFCFDF788FE2449E081CE
:102D60003846FDF735FE002800F00281214938463B
:102D7000FDF790FCFDF754FE1F4900F57A783846C0
:102D8000FDF788FCFDF772FE0FFA88F800F1C8071E
:102D9000BFB240F627239F42A4F80C8098BF40F6AC
:102DA000282703E1F4010020D3320020E4120020A0
:102DB000D812002000002041E4388E3E482D8D1BA3
:102DC000000E9E080AD7A33D8FC2F53D9A99593F40
:102DD0003333733F0000AF43000034430000B4437B
:102DE000000034C30000C0400000C0C000008243A7
:102DF000CDCCCC3D00A00C460080BB454846FDF73D
:102E0000F5FB5349FDF7FAFC524980460F98FDF750
:102E100041FC504981464046FDF73CFC20F0D8FD7E
:102E20004D49FDF737FC8246484620F0D1FD119010
:102E3000484620F065FF12905846FDF7D7FB4449FD
:102E4000FDF7DCFC119981463846FDF723FC424929
:102E5000FDF7D4FC4146FDF715FB3D49FDF71AFC93
:102E600025F04FFD1299606080463846FDF712FC50
:102E70004FF07E5107465046FDF7AAFD70B34FF064
:102E80007E513846FDF7BAFC4946FDF7FBFA30495A
:102E9000FDF700FC25F035FD0146A0608146404667
:102EA000FFF7F4FBD5F808A0074600215046FDF7D0
:102EB000ADFD48B151463846FDF7A0FC01464FF044
:102EC0007E50FDF7DDFA2860D5F800A000273946CE
:102ED0005046FDF77DFD18B12F60AEE65146D0E7B4
:102EE0004FF07E5739465046FDF790FD0028F3D14C
:102EF000A3E6DFF868A0BFE6DFF864A0BCE6DFF871
:102F000064A0B9E6DFF860A0B6E658464946FDF78A
:102F1000B7FA8346BCE658464946FDF7B3FA8346FE
:102F2000C1E65946D8E64FF08241D5E658464946B3
:102F3000FDF7A8FA8346D7E658464146FDF7A0FAC2
:102F40008346DAE64146F9E60849F7E6404600E7F7
:102F50008096184B35FA8E3C006CD947000091439F
:102F60000000964300005C44000082430000C04023
:102F700073493846FDF72CFD002800F0C38021F08E
:102F80001EFC4FF4FA73B0FBF3F202FB130000F5E2
:102F90001C501030A08121F012FCC823B0FBF3F2CA
:102FA00002FB130707F5EA570C37BFB294F81280FB
:102FB000E78140F282632382B8F1000F0CD06B6886
:102FC0001E22B3FBF2F102FB11332BB908F1FF38DB
:102FD0005FFA88F884F81280139B28686361FDF714
:102FE000F3F9A6230622CDE909320A22CDE90C0124
:102FF000B7FBF2F302FB1377BFB29BB2CDF82C8084
:1030000008970793B4F90C300693A3680593636897
:1030100004932368039300244A4B4B4902930322F1
:1030200023462046CDE9004421F0D3FBFFF702FD03
:10303000464823462246022105F01CFD50B1444B70
:103040000390CDE9014340490094234602222046E3
:1030500021F0BFFB3F4B1B78002B3BD03E4B1B7836
:1030600083B13E493E48022221F0C2FB50B13D4BA4
:10307000029300230390CDE900333349022218461E
:1030800021F0A7FB384B1B7883B13849384801221F
:1030900021F0AEFB50B1374B029300230390CDE9F2
:1030A000003329490222184621F093FB324B1B784A
:1030B00083B132493248012221F09AFB50B1314BA1
:1030C000029300230390CDE900331F4902221846E2
:1030D00021F07FFB34794FF47A735C434FF4004561
:1030E00040F2E73000214FF47A720023E4FB05013F
:1030F000FDF7DCFC024624480B4615B0BDE8F04F56
:103100001CF0C4BD0E493846FDF7BAF91F49FDF75A
:1031100075FB1F490746FDF7BDFAFDF781FC1D4908
:10312000C0F51C583846FDF7B5FAFDF79FFC08F1CD
:103130001008C0F5EA570FFA88F80C3728E600BFE8
:103140006666663F63AA0200F48D0200C88E020024
:10315000C2AA0200B6320020B9320020D3320020C9
:10316000008F0200EAAA0200B8320020F601002017
:103170003C8F02000FAB0200B7320020F7010020A5
:10318000788F020033AB020018070020CDCCCC3D75
:1031900000A00C460080BB45F0B585B00025204F4F
:1031A000204E214B2149029303222B462846CDE98C
:1031B000005521F00EFB39463046FFF7CFFB1C4C83
:1031C0001C4B1D49A760C4E900361C4BE360FDF7AA
:1031D00061FAFDF74BFC6423394620823046A37424
:1031E0006561FFF753FA164B00221A6098605D6024
:1031F000144B154AB3F900301370C3F3072353700F
:10320000FFF718FC114812491CF008FC114804F0A3
:10321000C9FC4FF0FF314FF0FF301DF08BFEF8E797
:10322000E7C8FF3AC809D40454AB0200F48D020089
:10323000E4120020D4C3B2A1000020410000540BCE
:10324000D8120020F4010020D332002018070020FB
:103250007D2B0000B52A00002DE9F04F85B0044613
:1032600021F0DAFAB0FA80F0C0F11F0004EB80061A
:10327000CD00D6F8109005F1040A0B4606358FB242
:10328000B9F1000F0BD1E268012181400A43E260ED
:10329000336124F80A70675305B0BDE8F08F4FEA38
:1032A000C906043634F806B04FEACB0808F1060820
:1032B00034F80830994511D00C4B02930023CDE926
:1032C000003318460A49012221F0B0FA002383F3A3
:1032D0001188BFF36F8F0423184602DF24F80AB069
:1032E00024F8059024F80870A753D5E78CAB0200AA
:1032F000D48D02002DE9FF4700EBC1030446B3F86B
:103300000680414502F104090CD1012303FA02F2BF
:10331000C36823EA0203C360002340F8293004B0E5
:10332000BDE8F087B3F804A04FEACA0706374FEAB2
:10333000C806C35B994206F1040602D1835B994239
:1033400011D000250B4B0293CDE900550A492B46BD
:103350000122284621F06AFA85F31188BFF36F8FA6
:103360000423184602DF44F8298024F8078024F853
:1033700006A0D4E78CAB0200D48D02001FB500EB91
:10338000C10304465B88DB070A460ED421F049FAE4
:1033900034F83030C01A814207D134F83110204659
:1033A000511A21F03EFA824211D00024094B0293B7
:1033B000CDE90044084923460122204621F036FA8F
:1033C00084F31188BFF36F8F0423184602DF04B023
:1033D00010BD00BFB0AB0200D48D02002DE9F04358
:1033E000884685B0002900F0908004680E1F361BC7
:1033F000F50826F0070604EB0609B9F8027017F085
:10340000010711D1424B0391CDE901734149009766
:103410003B460122384621F009FA87F31188BFF3B1
:103420006F8F0423184602DF2946204621F0F9F960
:1034300034F83030C01A854213D00027364B02933F
:10344000CDE900773349CDF80C803B460122384660
:1034500021F0ECF987F31188BFF36F8F042318462E
:1034600002DFA15B2046691A21F0DBF9A84213D0E4
:1034700000272A4B0293CDE900772649CDF80C802E
:103480003B460122384621F0D1F987F31188BFF37A
:103490006F8F0423184602DFB9F8023023F00103CE
:1034A000A9F802302946204621F0BBF904EBC003FD
:1034B00007465B88DA070CD401462046FFF75EFF1B
:1034C0003946204621F0C2F93A462946204621F0E5
:1034D00009FAA65BAE1B04EBC6035B88DB070DD4C1
:1034E00031462046FFF74AFF3146204621F0AEF92B
:1034F0002A463146204621F0F5F935462946204630
:1035000005B0BDE8F043FFF7A7BE05B0BDE8F08306
:1035100049AC0200D48D0200F9AB020022AC0200DB
:103520002DE9F04714464A4202EA010931EA020253
:1035300003461AD04A46042A4F4628BF0422A1EB6C
:10354000090909F1FF3A1AEA090F18D03549364A34
:1035500036484FF4F57321F071FA354821F06EFAD0
:1035600031484FF4F57121F060FA042904D821465E
:10357000BDE8F04721F0E7B900270422E1E71CB9D4
:1035800000252846BDE8F0871E68A9EB020204F07A
:10359000070302F007010B330B44E10801EBD201F2
:1035A00001EBD301B368994228BF1946304621F098
:1035B0005AF980460028E3D03D1D05EBC00535448F
:1035C0005544B5FBF9F509FB05F5ED1B2C442B1F04
:1035D00007349B1B24F00704A41BB0EBD30F4FEA66
:1035E000D3074FEAE40408D201463A46304621F0B8
:1035F0008FF941463046FFF72FFE3946304621F01D
:1036000010F9A04207D93046224621F081F921461F
:103610003046FFF721FE06EBC706738843F001032F
:103620007380AEE791AC02006EAC0200ACAC02005D
:10363000C9AC0200B2F5802F2DE9F8430ED33E4904
:103640003E4A3F4840F2DD2321F0F8F93D4821F0A1
:10365000F5F940F2DD21394821F0E7F9042A0CD8C8
:103660003949364A36484FF4397321F0E7F937487B
:1036700021F0E4F94FF43971EDE7043ACD1D11441E
:1036800025F0070521F00706A6EB0508B8F1170F8E
:103690004FEAD8070CD82E49284A294840F2ED2392
:1036A00021F0CCF9294821F0C9F940F2ED21D2E707
:1036B000B7FA87F4C4F12002C4F12404A40007344B
:1036C000E408631C4FF00009BB420560AF60C5F819
:1036D0000C900CD91F49194A194840F2033321F0C4
:1036E000ADF91A4821F0AAF940F20331B3E749468F
:1036F000920005F1100025F031F8A2B2530043F01A
:1037000001036B803B1B9BB205EBC4015800A5F87D
:103710000090488025F83420A6F8029025F808305B
:1037200005EBC70321465A8842F001025A80284619
:10373000BDE8F843FFF790BDE6AC02006EAC0200B6
:10374000ACAC0200FCAC020013AD020034AD0200D0
:103750004DAD020076AD020008B5024821F058F9DF
:10376000002008BDA9AD02002DE9F04F91B08407FB
:10377000009302F004030293C2F3C20303F10103B6
:10378000DDF868A0039205460E46059340F0C88117
:10379000041D002838D101F00706341DC6F10806C3
:1037A000009B4FF000085A1E04274FF0FF3301938F
:1037B000CDF81080C146C3463B460DB1009921604B
:1037C0000598002800F3C18094480099814203D3F2
:1037D00093488142C0F0B980039911F0020CA4EB28
:1037E000050040F0CB80B9F10F0F40F2CA808D493F
:1037F0008D4A8E4840F2812321F020F98C4821F037
:103800001DF940F28121B6E00729C9D86FF01B00ED
:1038100011B0BDE8F08F7A285AD84B280FD8472826
:1038200056D829282DD825284FD051D8202818BF60
:1038300023280CBF4FF0010B4FF0000B6EE04C380B
:103840002E2845D8DFE800F06A4444444444444408
:103850004444444447444444444444444454444712
:10386000475454546A4768446A4418471844447C8F
:103870007A47444447447A0000204FF0000B042765
:1038800034E02A38C0B2012101FA00F010EA0E0F2C
:1038900044D110F0625C2BD110EA010B3ED060469F
:1038A000013C3C44B4FBF7F47C4325B1A3EB050C8D
:1038B000A444B445AAD8002800F09780059901399E
:1038C00005915AF8041B009177E70199013901919C
:1038D0004FF0000B22E012F8010C6C2832D112F8E4
:1038E000023C00206C2B8346C9D108273B46D7E712
:1038F0000AF1070A2AF0070A0734FAE802BC24F0A2
:10390000070435B106982044B0423FF67FAFC4E9C2
:1039100000BC08344FF0000B08273B4612F8010F9B
:10392000002800F08980BBF1000F7FF474AF2528D8
:10393000F4D1019B013301934FF0010B0427ECE715
:1039400058469AE700208346AAE7039988072FD5AF
:10395000601B4FF0010CB0F5007FFFF444AF31491C
:10396000314A32484FF41F7321F068F8314821F092
:1039700065F84FF41F712C4821F057F84FF0000CF8
:10398000E9E705B309F140010DEB010EC0F3870033
:1039900001990EF8200C0EF8101CBCF1000F0ED08F
:1039A00060F07F000EF8200C08F1010809F1010910
:1039B000C5F10801043406914FF6DA7EAEE70498AB
:1039C00001300490F2E7BCF1000F01D00136EDE7C1
:1039D000029802360028E9D10098CDE90632FDF7B9
:1039E00087F8DDE906320644E0E7042B08D10AF146
:1039F000040015B1DAF800102160043482468DE726
:103A00000AF1070323F0070303F1080A1DB1D3E904
:103A10000001C4E90001083408237FE7848902001B
:103A200078F7020040E70200E4AD0200ACAC02000F
:103A300033AE020012AE0200631BB3F5806F0CD3ED
:103A400039493A4A3A4840F2D22320F0F7FF394840
:103A500020F0F4FF40F2D2218DE71DB9A6F1080451
:103A6000E018D5E6029A28609B082B709DF810306C
:103A7000BAB1EB7085F80280B8F1000F05D008A844
:103A80000022C5F1010791450DD1C5F1010308AF31
:103A90004FF0000A01930DF1300BD14512D1601B9C
:103AA000B6E66B70E6E710F8013B190608D507EBA0
:103AB000040CB44503F07F033FF6A8AE04F8013BC5
:103AC0000132E0E7B8F1000F03D097F90020002A97
:103AD00016DB029BC3B11AF80B2004F8012B00225D
:103AE000019B18191044B0423FF690AE387804F8A4
:103AF000010B00990392204624F009FE039A144416
:103B00000AF1010A0137C8E73A7855F822300093E4
:103B1000029B45F822300098FCF7EAFF421CDFE7E1
:103B20006FF00D0074E600BF40E70200E4AD020054
:103B3000ACAC02004DAE0200014B1860704700BFF4
:103B4000000200202DE9F84F05460846AB8B190707
:103B5000904616D501280CBF43F0100343F0200314
:103B6000AB83143528461DF053FC002840F0B1818A
:103B7000AE49AF4AAF484FF4997320F05FFF294632
:103B80009DE0022803F0070140F07D81284620F0E7
:103B90007DFF052800F2FA8001A353F820F000BF52
:103BA000633B0000873E00008D3D0000313C00007B
:103BB000CB3C00002B3D000002F00702531F012BFD
:103BC0001AD80023062A2E68A4B2C5E9003309D109
:103BD000334603E0EA8B0132EA831B68002BF9D1FC
:103BE00044F00204AC83284620F050FF002800F087
:103BF0005A8144F0200455E1042A0DD1A4B2AC83CB
:103C0000284620F043FF0646002800F04C8144F08F
:103C10002004AC83002646E18749884A854840F263
:103C20001B1320F00BFF40F21B11844820F0FDFE17
:103C300049B18349814A7F484FF4AB7320F0FEFEBF
:103C40004FF4AB71F1E72B684BB97E497B4A794859
:103C500040F2571320F0F2FE40F25711E5E72B69CE
:103C60001F684FB97849754A72484FF4AD7320F018
:103C7000E5FE4FF4AD71D8E7AC8B24F0070444F0B7
:103C80000604A4B2AC830E468A464FF00609AB6820
:103C9000002B00F00F814FF0010B44F00804AC83BF
:103CA00005F1140420461DF0B3FB002878D15F49CC
:103CB0005F4A60484FF4997320F0C0FE2146634884
:103CC00020F0BCFE4FF499718EE0022909D06049C2
:103CD0005A4A584840F25D1320F0B0FE40F25D11A0
:103CE000A3E7EE8B4EB15B49544A52484FF4AF7391
:103CF00020F0A4FE4FF4AF7197E72B695F684FB9CE
:103D000051494E4A4B4840F2611320F097FE40F271
:103D100061118AE7AC8B24F0070444F00404A4B2D8
:103D2000AC83B2464FF00409B1E7012909D04A49F2
:103D3000424A40484FF4B27320F080FE4FF4B27113
:103D400073E72B684BB93F493C4A3A4840F2651348
:103D500020F074FE40F2651167E72B699F684FB948
:103D60003949364A33484FF4B47320F067FE4FF4B4
:103D7000B4715AE7AC8B24F0070444F00504A4B2F4
:103D80000026AC83B2464FF0050980E72A492B4A4A
:103D9000284840F26B1320F051FE40F26B1144E7CB
:103DA00088F31188BFF36F8FBBF1000F1ED1002E77
:103DB00033D117B129492846B847EFF3118820239A
:103DC00083F31288BFF36F8F20461DF013FB00288A
:103DD0004AD1174A22491748842320F02FFE214652
:103DE000204820F02BFE842111481FE7A9680029F4
:103DF000DDD0D1F800800029D9D0D1F804B05346E5
:103E00004A462846D847B8F1000F04D0D8F8003009
:103E100041469846EFE74346FAE7314653464A465D
:103E20002846366820F05EFEC1E700BF53AF0200AF
:103E300026AF0200ACAC020040E7020080AE0200F8
:103E4000A5AE0200B1AE0200D4AE02006AAF02001D
:103E5000EBAE020001AF020010AF0200E13E000035
:103E60007FAF020094AF020020461DF0E7FAAC8B52
:103E700024F00804A4B2AC83E20621D524F0100398
:103E8000AB8304F00701D5F818A0AA8BBAF1000F94
:103E900022F00704BFF690AE00232E68C5E9003378
:103EA00044F00104AC8304F0070989454FF0000792
:103EB0007FF4EDAE0EB9002FDED04FF0000BECE634
:103EC000A3067FF54EAE24F02003AB8304F0070178
:103ED0005CE688F31188BFF36F8FBDE8F88F00BFF1
:103EE000F8B504460D4600F11406EFF311872023C0
:103EF00083F31288BFF36F8F30461DF07BFA68B9E9
:103F00000C4A0D490D48842320F098FD0C48314699
:103F100020F094FD0748842120F087FD30461DF0F5
:103F20008DFAA5613A4620460121BDE8F840FFF729
:103F300009BE00BF26AF02007FAF0200ACAC02009A
:103F400094AF02002DE9F04704460E4620F0BAFD7A
:103F5000051E66DB04F11409EFF3118A202383F3B5
:103F60001288BFF36F8F48461DF044FA804660B94F
:103F7000374A38493848842320F060FD494637489D
:103F800020F05CFD8421324843E048461DF056FA9B
:103F9000E38BA78B4FF6FF72934207F0070743D0DE
:103FA000062F2CD8DFE807F01F43092B1F041F0042
:103FB0006FF085054FF0000802E00133E38302252E
:103FC00048461DF025FA002834D1214A24492248C8
:103FD0004FF4997320F032FD4946224820F02EFD1F
:103FE0004FF49971CFE700233360636823B9C4E9C4
:103FF000006687B13D46DDE71E606660F9E71A4955
:1040000015481A4A4FF4E47320F018FD17484FF48E
:10401000E47120F00AFD524602212046FFF792FD8E
:104020003D462846BDE8F0876FF00A05C2E76FF00D
:104030000405BFE78AF31188BFF36F8FB8F1000F53
:10404000EFD000233A463146204620F04BFDE8E70A
:1040500026AF02007FAF0200ACAC020094AF0200BA
:1040600053AF02006AAF020010AF020080AE020040
:10407000F8B5054600F11406EFF31187202383F30A
:104080001288BFF36F8F30461DF0B4F960B9264A2D
:1040900026492748842320F0D1FC3146254820F0CA
:1040A000CDFC842120482BE030461DF0C7F9AC8BB5
:1040B00004F00704022C17D0012C0CBF6FF004048D
:1040C0006FF0850430461DF0A3F938BB164A1A4933
:1040D00017484FF4997320F0B1FC3146174820F08F
:1040E000ADFC4FF49971DDE7EB8B5BB914491048D7
:1040F000144A40F2EF1320F0A1FC124840F2EF11F5
:1041000020F093FC013B9BB2EB83002BDAD13A46C3
:1041100021462846FFF716FD2046F8BD87F3118893
:10412000BFF36F8FF8E700BF26AF02007FAF02003A
:10413000ACAC020094AF020053AF02006AAF0200C1
:10414000AAAF020080AE02002DE9F0410F460546FD
:10415000002850D000294ED000F11406EFF311884A
:10416000202383F31288BFF36F8F30461DF042F98E
:1041700060B9224A22492348842320F05FFC31465B
:10418000214820F05BFC84211C4817E030461DF0DC
:1041900055F939462846AC8B20F05DFC80B104F01F
:1041A0000704231F022B0DD918491648184A40F25C
:1041B0002D2320F043FC164840F22D2120F035FC41
:1041C0006FF0770430461DF023F968B90B4A1149A6
:1041D0000C484FF4997320F031FC31460E4820F022
:1041E0002DFC4FF49971CFE788F31188BFF36F8FDF
:1041F0002046BDE8F0816FF01504F9E726AF020014
:104200007FAF0200ACAC020094AF0200B8AF020076
:1042100080AE020053AF02006AAF020008B54268E8
:10422000816002F00302032A03460AD06AB90849F2
:104230000848094A452320F001FC0748452120F0A1
:10424000F4FB006800225A6008BD0020FAE700BFB6
:1042500040E70200ACAC02002FB0020008B558B92C
:1042600007490848084A40F2351320F0E7FB0648A2
:1042700040F2351120F0D9FB4368587908BD00BFE2
:104280008DB00200ACAC020055B0020010B548B9C8
:1042900008490948094AA02320F0D0FB0748A0217B
:1042A00020F0C3FB03681B6913B1BDE81040184739
:1042B000184610BD8DB00200ACAC020055B0020033
:1042C0002DE9F84FDFF8ECA0DFF8EC80AAEB08034B
:1042D0008F2B81460F460BD93849394A394840F26D
:1042E000531320F0ABFB40F25311354820F09DFBF7
:1042F000354820F036FC064650B3BDE8F88F237BE6
:104300008BB12368DB680BB1204698476368204671
:1043100083F806B0FFF7BAFFB0B9636804221968E2
:10432000204620F043FC01361034544515D9274966
:10433000234A244840F25F1320F080FB244820F0F9
:104340007DFB40F25F11D0E70BFA06F31D43EAE76D
:10435000444605464FF0010BE7E7D0D3B9F1000F13
:10436000CBD04FF00109002DC7D02E4695FAA5F409
:10437000B4FA84F409FA04F308EB04146FEA030AAC
:1043800025EA0305237B5BB12046FFF77FFF38B9A1
:10439000636804221968204606EA0A0620F006FC33
:1043A000002DE3D127B14FF4A47000211CF0C2FD11
:1043B0003546D8E70C8E0200FC8D0200D1B0020019
:1043C000A4B00200ACAC02000413002001B1020052
:1043D00022B10200014B53F820007047C88F020041
:1043E00008B5034608462BB1044A136000F0EAFA08
:1043F000002008BD6FF01500FBE700BF0802002099
:10440000144A1548002310B51370144A1360144A57
:104410004FF400411360FFF7E3FF124B12491846B7
:104420008B4215D91149124A124840F22B1320F041
:1044300005FB114820F002FB0D4840F22B1120F043
:10444000F4FA1A1A5C681211013222711033E7E78C
:10445000F7D310BDD53200205F4B0200FC120020C4
:1044600000130020FC8D02000C8E020001B102003E
:10447000A4B00200ACAC020022B1020070B5134D32
:10448000297811BB0120FFF71BFF114C114EB442DC
:1044900018D91149114A124840F2CF1320F0CEFA30
:1044A000104820F0CBFA0D4840F2CF1120F0BDFAB1
:1044B0002046FFF7D3FE18B1236820469B68984733
:1044C0001034E4E7F4D301232B7070BDD532002003
:1044D000FC8D02000C8E020001B10200A4B00200AB
:1044E000ACAC020022B1020010B50446084820F02E
:1044F00038FB5CB1BFF35B8F064B53E8001F0139FB
:1045000043E80012002AF8D1BFF35B8F10BD00BF53
:10451000FC1200200013002070B5154B1B680546E7
:104520009847A860134BBFF35B8F1B68BFF35B8F8B
:10453000114C124EB44219D91149124A124840F294
:104540000A2320F07BFA114820F078FA0D4840F257
:104550000A2120F06AFA2046FFF780FE20B1236886
:1045600029461B68204698471034E3E7F3D370BD13
:104570000802002004020020FC8D02000C8E0200C4
:1045800001B10200A4B00200ACAC020022B10200F2
:10459000044A054B9B1AB1EBD30F34BF52F83100DC
:1045A00000207047F48C0200FC8D02002DE9F04FD2
:1045B00087B004AFD7E90EBA3E6B0546884614466D
:1045C0009946BBF1000F2CD0C7F804A0CDF800A08D
:1045D0007A6B5B4610210020FFF7C6F800280BDA43
:1045E00029492A4A2A484FF4B47320F027FA4FF495
:1045F000B471264820F019FAB0F5006F014612D3C5
:1046000040F2FF730393234B02930023CDE9003361
:1046100021490222184620F0EBFA0C37BD46BDE8CE
:10462000F08F5946584604F0070205F00704E400ED
:1046300044EA821444EA402444EA065417360E44FD
:1046400026F00706ADEB060D04ADBBF1000F13D04D
:10465000CDF800A07A6B5B4605F11000FFF784F8F7
:10466000002809DA0849094A094840F28D1320F068
:10467000E5F940F28D11BCE74B46224641462846FB
:1046800020F09DFAC9E700BF7AB102004EB10200E6
:10469000ACAC020084B102009C8D0200406820B1E5
:1046A000034BC01A40F3CF0070474FF0FF30704704
:1046B000F48C02000EB403B503AB014653F8042B8F
:1046C0000448019301F0B8F902B05DF804EB03B0BF
:1046D000704700BF2D4C0200CA0605D48B064CBFA4
:1046E00002490349FFF7E6BF704700BF79E90200BE
:1046F000BCB102002DE9F04F89B004469DF850701E
:10470000DDF858A0DDF8608005920D469946002F2F
:1047100000F0AC80914B042FDB5D06930BD99049E0
:10472000904A91484FF4187320F088F94FF41871AB
:104730008C4820F07AF908F48073079320F034FA5B
:1047400008F0020B024600285DD088492046FFF79A
:10475000B1FF0646BBF1000F08D018F0440F54D14A
:1047600083492A462046FFF7A5FF064408F00103C7
:1047700053B1804B804953F82720804B2046002AB4
:1047800008BF1A46FFF796FF08F48073002B08F065
:10479000080318BF4FF00009002B62D0784B79490D
:1047A00053F827202046FFF785FF0546059B2BB1D0
:1047B00075491A462046FFF77DFF0544B9F1000F01
:1047C0000CD0069B002B4FD07049714B042F18BFA3
:1047D00019464A462046FFF76DFF05446D483544AB
:1047E000159B002B48D06C49224620F0DCF80028AD
:1047F00042DA6A495B4A5C4840F2BD2320F01EF968
:1048000040F2BD2194E70646A4E7654B18680028EE
:10481000ABD0644B4FF47A7B1B68B5FBF3F54FF4D8
:104820006163B5FBF0F100FB11550BFB05F54FF093
:104830003C0CB1FBF3F203FB1211B5FBF0FEB1FB34
:10484000FCF300FB1E550CFB13110BFB05F500914F
:10485000B5FBF0F55449CDE901E52046FFF72AFF05
:1048600083E708F00805A1E74949B2E7012B0CBF2F
:1048700048484E483D46B3E7179B002B54D0DDF81F
:104880005C904146B9F1100F204628BF4FF0100947
:10489000FFF722FF0026B54218DC002633461AF83F
:1048A000032043492046FFF705FF0136102E13D0A1
:1048B000720703D13F492046FFF7FCFEB14533465E
:1048C000EDD83D492046FFF7F5FEEEE73949204691
:1048D000FFF7F0FE0136DEE7384920460026FFF7F5
:1048E000E9FE33461AF803203549A2F120035F2B75
:1048F00028BF2E222046FFF7DDFE0136102E0DD0F8
:10490000730703D12B492046FFF7D4FEB145334648
:10491000E8D828492046FFF7CDFEEEE7179BB3EB1A
:104920000903CA441793AAD15FB118F0010F04D04C
:10493000124A11492046FFF7BDFE41462046FFF7C7
:10494000CBFE6268A1682068D2E9002320F060F9FC
:10495000636800221A6009B0BDE8F08F31F40200EC
:10496000FCB10200CDB10200ACAC020007B2020003
:104970000BB20200D88F02004EC40200BFB1020089
:10498000EC8F020030B2020036B20200C4B1020065
:10499000C8B102002D4C0200395A00003AB20200A0
:1049A0000C1300200813002014B20200494C02002E
:1049B00043B202004BB2020049B202004DB2020003
:1049C0004FB20200074A00210123904206D8064A4E
:1049D00001B901231360054B1860704740085B0064
:1049E0000121F2E740420F00081300200C130020C1
:1049F000F8B5074F0D4604464618B44201D1284683
:104A0000F8BD14F8011BBB6801485B689847F4E7E0
:104A10008C8A020010B543681C68094822F031FBFB
:104A200048B908490848094A992320F007F8074877
:104A300099211FF0FAFF23685B685C6010BD00BF1E
:104A40008C8A0200B0B20200ACAC020072B202006A
:104A5000014B0360002070473490020010B5DFF86E
:104A600024C086B04FF42814CDE904C4082402946D
:104A700004AC0194BDF82040009421F06EFC06B017
:104A800010BD00BF1800280080B505460E46174629
:104A900098461CF04BFB034600F0A8FDDFF83C9065
:104AA000044649F80030424639463046A8470C4B88
:104AB0001B7873B90B490C4A0C4840F246331FF07F
:104AC000BDFF0B481FF0BAFF074840F246311FF008
:104AD000ACFF54F8090000F025FD00BF08000000FD
:104AE000163400200FB30200E4B20200ACAC0200A6
:104AF00022B3020008B50348034A0021121A20F02D
:104B000049F908BD18070020183400200748084A52
:104B1000084908B5121A20F03FF90748074A084922
:104B2000BDE80840121A20F037B900BF000000208D
:104B30001807002078F70200000000200000002085
:104B400078F7020070B5064686B00D46002938D0C9
:104B50008B6805934B6804930B6803930024244BE4
:104B600024490293012223462046CDE9004420F047
:104B700015F96B6905932B690493EB6803931E4B3E
:104B80001C490094CDE9014301222346204620F030
:104B900005F9EB690393194B16490094CDE90143DC
:104BA00001222346204620F0F9F8AB690393144B09
:104BB00010490094CDE9014301222346204620F00C
:104BC000EDF8012E0DD1EFF30583103B03930D4B50
:104BD00002930023CDE9003306493246184620F0FF
:104BE000DDF82946304606B0BDE8704019F04CBAF1
:104BF00044B30200CC8D020073B30200A2B30200E2
:104C0000B1B30200DFB3020030BFFFF7FDBF00BF4A
:104C10002DE9F0410B4EDFF8308006EB0807CC1B86
:104C2000054632460949204623F071FDA019424647
:104C30000021083C23F092FD2C6707F10800BDE835
:104C4000F08100BF00000000080000000C8E020090
:104C50002DE9F04385B00024564B0293CDE9004482
:104C6000234680468946204653491646012220F0B5
:104C7000B0F8524B9B6AD80640D5514B0094CDE911
:104C80000143204623464C49012220F0A2F811247A
:104C90004A4B9B6A19070AD54A4B02930023CDE978
:104CA000003345490122184620F093F81224434D61
:104CB000AB6A9A0724D50024434B0293CDE9004404
:104CC00023463D490122204620F083F86F6BAB6AF2
:104CD0001B0659D53D4B38490397CDE90143009454
:104CE00023460122204620F074F8B9F1000F03D0CA
:104CF000AB6A23F08003AB62132403E01024C7E700
:104D00006FF015072D4B9B6AD8070AD5304B0293DD
:104D10000023CDE9003328490122184620F059F834
:104D20001424264B9B6A99060AD52A4B029300232A
:104D3000CDE9003320490122184620F04AF8152415
:104D40001E4DAB6ADA0602D4AB6A9B070AD56B68C4
:104D5000180507D54146384600F09AFBB8B180F3F4
:104D600009880224154B9A6A920642BF5A6A22F4B5
:104D700000525A629A6A42F0FF029A622046002369
:104D8000337005B0BDE8F0836FF01507B4E7AB6A88
:104D9000D906E7D51049114A114840F227131FF0F0
:104DA0004DFE10481FF04AFE0C4840F227111FF03C
:104DB0003CFE00BFF2B30200CC8D020000ED00E02B
:104DC00008B402003BB402004EB4020066B4020014
:104DD0007CB402009BB40200FCB40200CAB402001E
:104DE000ACAC020046B502001FB50024374B02935D
:104DF00001222346CDE90044354920461FF0E9FF52
:104E0000344B9B6A9A015ED5334B31490094CDE90E
:104E100001432046234601221FF0DBFF1E202D4BBD
:104E20009B6ADB010AD52D4B029300231846CDE97E
:104E30000033274901221FF0CCFF1F20254B9B6A1E
:104E40001C030AD5264B029300231846CDE90033F4
:104E50001F4901221FF0BDFF21201E4B9B6A5903F1
:104E60000AD5204B029300231846CDE90033184998
:104E700001221FF0AEFF2220164B9B6A9A030AD52F
:104E8000194B029300231846CDE900331049012243
:104E90001FF09FFF23200F4B9B6ADB030AD5134BA8
:104EA000029300231846CDE90033094901221FF07F
:104EB00090FF2420074A936A6FEA03436FEA134383
:104EC000936204B010BD1D20A9E700BF69B50200C0
:104ED000CC8D020000ED00E081B5020094B5020027
:104EE000AEB50200CCB50200F1B502000BB602006F
:104EF000F0B585B00024434B0293CDE9004423462E
:104F000007460E460122404920461FF062FF3F4BF4
:104F10009B6ADB0465D53E4B3B490094CDE90143D8
:104F20002046234601221FF054FF1720374B9B6A6F
:104F30001D050AD5374B029300231846CDE90033EF
:104F4000314901221FF045FF1820304DAB6A9C0506
:104F50001FD50024304B0293012223462046CDE981
:104F6000004429491FF035FFAB6BAA6A10040FD526
:104F700003932A4B24490094CDE90143012223469F
:104F800020461FF026FF1FB1AB6A23F40043AB623B
:104F900019201E4B9B6A59050AD5214B0293002309
:104FA0001846CDE90033184901221FF012FF1A20DC
:104FB000164A936A13F4807315D01A4B0293002398
:104FC0001846CDE90033104901221FF002FF1B20D3
:104FD0000E4A936A43F47F4393620023337005B013
:104FE000F0BD1620A2E7926A9204F1D50E4A064956
:104FF0000093CDE90132184601221FF0EAFE1C2081
:10500000E6E700BF36B60200CC8D020000ED00E0FE
:105010004CB602003BB402005DB6020076B6020058
:105020008BB60200A6B602009BB402002DE9F04147
:105030008D4B0446586890B0C0F30806002383F3F4
:105040001188BFF36F8F02F07F45B5F17F4F0CD110
:1050500002F00C05082D17D1844A85490093CDE94B
:105060000132184601221FF0B4FE8249824A834869
:1050700040F21B431FF0E2FC81481FF0DFFC40F2CE
:105080001B417D481FF0D1FC120746BF0C461D4650
:105090000125002CE9D00027F31E8DF81F70092B85
:1050A00000F2CA80DFE803F005BEC2A1C8C8C8C8C4
:1050B000C8C6744B6E49DFF8B0810097CDE9017323
:1050C0000023012218461FF084FE8DF81F70D8F8C7
:1050D0002C6016F0020604D06B4B0097CDE90173EB
:1050E00007E0D8F82C30002B0BDA684B0096CDE99E
:1050F000016300235E49012218461FF06AFE002268
:1051000039E0D8F82C305B007FD5614B58490096C8
:10511000CDE901630122334630461FF05AFED8F82C
:105120001430A26943F48073C8F81430BFF34F8F72
:10513000BFF36F8F32F8023CD8F8142022F480724B
:10514000C8F81420BFF34F8FBFF36F8F03F47F4273
:10515000B2F55F4F2FD1DBB2022B2CD12368039322
:105160004C4B43490096CDE901630122334630465A
:105170001FF02FFE22689DF81F30CBB908AE04F156
:10518000200720686168334603C30834BC421E46CA
:10519000F7D10F9B002D63D0C3F3080121B96FEA4B
:1051A00053236FEA43230F9308A91046FFF7CAFC65
:1051B00010B0BDE8F0812C4B9A6AD2B23AB10DF131
:1051C0001F0201212046FFF743FD0246D3E79A6AFA
:1051D00012F47F4F05D00DF11F010120FFF788FE6B
:1051E000F3E79B6AB3F5803F02D3FFF7FDFDECE7E1
:1051F0002949214A214840F2ED231FF01FFC27488E
:105200001FF01CFC40F2ED213BE723491A4A1B48E2
:105210004FF43C731FF012FC21481FF00FFC4FF4B9
:105220003C712EE70DF11F020021CBE70DF11F01AC
:105230000020D3E71B4B50E71B4A1C4B0C4910F4D2
:10524000F87F08BF1346103ECDE90336184B029392
:105250000023CDE90033012218461FF0BAFD4EE7C6
:105260006FF308039FE700BF00ED00E0ECB602001B
:10527000CC8D020017B70200CAB40200ACAC020029
:105280002AB7020068B702007FB70200A0B7020089
:10529000AEB70200CDB7020040E70200E9B7020056
:1052A0000DB802003DB80200BEB60200D3B602003F
:1052B00061B80200044B5A6942F010025A615A69FF
:1052C00022F008025A61704700ED00E0EFF3088019
:1052D000EFF3098101B57246FFF7A8FE01BD00BFDB
:1052E0000B4880F3088817F073FE202080F31188A4
:1052F00008484FF40461401880F30988EFF31480E4
:105300000221084380F31488BFF36F8F00F088F800
:10531000C05A0020004900201EF0040F0CBFEFF31C
:105320000880EFF30980816911F8021C0229FFD07F
:1053300001B572461FF042FD01BD00BF40B200281A
:1053400007DB044A4109012300F01F00834042F8B3
:105350002130704700E100E040B200280CDB430937
:10536000064900F01F0020330122824041F823202B
:10537000BFF34F8FBFF36F8F704700BF00E100E0B6
:10538000054B420900F01F0053F82220012303FAC5
:1053900000F01040704700BF00E100E038B54B1C42
:1053A000072B04460D460FD9114A124912486B23A8
:1053B0001FF044FB11482946072322461FF03EFBFD
:1053C0000B486B211FF031FB40B20028ACBF00F14D
:1053D00060400B4A4FEA4313B8BF00F00F00DBB246
:1053E000AABF00F56140135480F8003338BD00BFF8
:1053F00074B80200ABB80200ACAC0200C6B8020040
:1054000014ED00E0044B054A23F07F039360BFF3E3
:105410004F8FBFF36F8F70470000000000ED00E07A
:1054200008B5FFF7EFFF0B4AD2F8883023F470037A
:10543000C2F88830EFF3148323F0040383F3148855
:10544000BFF36F8FFFF756FBFFF760FB00F0B0F87C
:1054500018F068FF00ED00E042F8203C009B42F8A5
:105460001C3C0A49019B42F8183C029B42F8143C40
:1054700021F001014FF0807342F8043C42F8081C0F
:105480000023203A02654367704700BF894A000045
:10549000094A0346906870B113F1160F006E05D0EB
:1054A000A0F14002934205D3834203D2814228BF38
:1054B0000020704700207047AC2B002008B515462F
:1054C0000B4A0C4B9060026F1A600E4600F0A0F879
:1054D0002C4686F309880020034B9847204600217C
:1054E00000220023014C2047014E0200894A00009F
:1054F000AC2B002034130020014B10221A6170479E
:1055000000ED00E0054B5A699B689A421FBF044AB0
:10551000536843F080535360704700BFAC2B0020AA
:1055200000ED00E0084B9B6883420BD1EFF305834D
:1055300043B1064B5A6842F080525A605A6A22F4CC
:1055400000425A621AF064BEAC2B002000ED00E06D
:1055500014498A684FF030001044EFF3098C80E85A
:10556000F01F202080F31288BFF36F8F0E4F4FF093
:1055700000664A698A603E60106F0C4C2060506F74
:105580000023536780F3118804B5104600F040F8FB
:10559000BDE8044002F1300090E8F01F8CF3098868
:1055A00070470000AC2B002004ED00E03413002015
:1055B000044800232021C2180133302B82F8001345
:1055C000F9D1704700E100E008B5EFF30583064A22
:1055D000103B02EBC30152F8330049688847BDE82D
:1055E0000840FFF78FBF00BFC48A0200014800686F
:1055F0007047000034130020024B034A0348012186
:1056000000F096B80000042000000020C0900200C6
:10561000036E054A403B1360044B4021C2E901136D
:105620001046012100F0AAB83813002000000B1525
:105630001FB5144AD2F89030C3F30723013B9842B8
:105640000FD9114B029300230390CDE90033184684
:105650000E4901221FF007FC6FF0150005B05DF840
:1056600004FBC2F898000B6823F01F03034343F0C8
:105670001003C2F89C308B6843F00103C2F8A030DD
:10568000ECE700BF00ED00E00AB90200B48D0200B3
:10569000F0B50E4689B01F4604460025B54212DA21
:1056A000606838B3BFB1431E18420FD0134B02934A
:1056B0000023CDE9003312490395012218461FF05B
:1056C000D2FB6FF01502104609B0F0BD1F28EDD9CE
:1056D00021680B42EAD1236805931FF0B4FBA3684D
:1056E00005A90343D0B20793FFF7A2FF10F1160FED
:1056F000E7D0421C01350C34D0E700BF30B90200BE
:10570000B48D0200044B0522C3F89420BFF34F8FE1
:10571000BFF36F8F704700BF00ED00E0BFF35F8FF6
:10572000024B0022C3F89420704700BF00ED00E058
:1057300038B50D4D01232A780C46FFF7A9FF2870D4
:1057400016300FD1094A0A490A4840F289131FF05E
:1057500075F9094821461FF071F9044840F2891192
:105760001FF063F938BD00BFD732002056B90200E0
:1057700040E70200ACAC020085B9020010B5144A43
:10578000002312780C46FFF783FF10F1160F08D0A4
:10579000104A0021D2F89030C3F30723984210DB5F
:1057A00010BD0D4A0D490E484FF4D4731FF046F951
:1057B0000C4821461FF042F907484FF4D4711FF0FE
:1057C00034F9C2F89800C2F8A0100130E2E700BF37
:1057D000D732002000ED00E056B9020040E7020099
:1057E000ACAC0200B1B902002DE9F04F834C844902
:1057F000D4F890300D68C3F307239D4285B013D9C8
:10580000804A8149814840F202231FF017F9D4F8F9
:1058100090207F482946C2F307221FF00FF940F27B
:10582000022178481FF001F9FFF778FF496800224C
:10583000954201F10C012DD1764F774C3D706846B1
:10584000FFF706F9754D764E81464FF00008C145C9
:1058500033D13B7869490020D1F89020C2F3072268
:105860009342C0F2C180FFF74DFFD1F8903003F4AE
:105870007F43B3F5006F00F0BD806A49614A634819
:1058800040F27D231FF0DAF867481FF0D7F840F2A6
:105890007D21C6E7C4F8982051F80C3C23F01F0383
:1058A000134343F01003C4F89C3051F8043C43F018
:1058B0000103C4F8A0300132BAE7009A02EB0813E2
:1058C0004FEA0811D3F80CA00AEA0400B0F5000F63
:1058D00066D00BD8B0F5001F3CD0B0F5800F52D089
:1058E000B0F5801F16D008F10108B0E7B0F1007FD5
:1058F00061D0B0F1805F69D0B0F1807FF3D198685A
:10590000D3F804A052581FF09EFACDE901A240F04E
:1059100088700BE09868D3F804A052581FF093FAEF
:10592000CDE901A240F0885040F43020039038784F
:1059300001A9FFF77DFE002852DA3349314A334886
:1059400040F235231FF07AF838481FF077F840F21C
:10595000352166E79868D3F804B052581FF073FAFF
:105960001AF0010F40EA0600CDE901B20390DED043
:105970002F49244A254884231FF060F82D481FF042
:105980005DF884214DE79868D3F804A052581FF0C1
:105990005AFA40F0C060CDE901A240F40030C5E7FA
:1059A0009868D3F804A052581FF04DFACDE901A22F
:1059B00040F08270BAE79868D3F804A052581FF0FC
:1059C00042FACDE901A240F48020AFE79868D3F80D
:1059D00004A052581FF037FACDE901A22843A5E7E9
:1059E0003B7801333B707EE7C1F89830C1F8A000E6
:1059F000013331E7002005B0BDE8F08F00ED00E095
:105A0000CC90020056B9020040E70200ACAC0200A4
:105A1000DEB90200D73200200000F0FF00000211C2
:105A20000000081191BA0200E1BA020067BA020050
:105A300012BA020038BA0200F0B587B007460E4627
:105A400014460021102268461D4622F087FE0223DC
:105A50008DF802302A46054B019321466846CDE970
:105A600004761DF0CBFC07B0F0BD00BF874E0200EE
:105A700008B5024B1B689847002008BD441300205E
:105A8000034B044A1860937843F002039370704705
:105A9000441300202C02002008B50649064821F0D6
:105AA0000701C1F1005202F58022FDF7C3FD00207D
:105AB00008BD00BF1F6F00204813002008B509482B
:105AC0004FF0FF324FF0FF3318F072FE48B1064935
:105AD0000648074A7F231EF0B1FF05487F211EF0CC
