:10000000C05A0020AD430000892F02009943000030
:10001000994300009943000099430000000000004C
:10002000000000000000000000000000E5430000A8
:1000300099430000000000001D46000099430000A5
:10004000954600003D85010095460000954600005C
:100050009546000095460000954600009546000034
:100060009546000095460000954600009546000024
:100070009546000095460000954600009546000014
:100080009546000095460000954600009546000004
:1000900095460000954600009546000095460000F4
:1000A00095460000954600009546000095460000E4
:1000B00095460000954600009546000095460000D4
:1000C00095460000954600009546000095460000C4
:1000D00095460000954600009546000095460000B4
:1000E00095460000954600009546000095460000A4
:1000F0009546000095460000954600009546000094
:1001000053B94AB9002908BF00281CBF4FF0FF317E
:100110004FF0FF3000F00CB8ADF1080C6DE904CEE3
:1001200000F018F8DDF804E0DDE9022304B07047C0
:10013000704700BF034611F8012B03F8012B002A7A
:10014000F9D17047034613F8012B002AFBD1181A86
:10015000013870472DE9F0478C468E46089E1546BB
:1001600004461946002B40F0D080724547D9B2FAB8
:1001700082F74FB1C7F120030EFA07FC20FA03F310
:10018000BD4043EA0C0CBC404FEA154EA8B2BCFB84
:10019000FEF8230C0EFB18CC08FB00F943EA0C43D5
:1001A000994528D9EB1808F1FF3204D2994502D9B4
:1001B000A8F102022B44A3EB0903A4B2B3FBFEFC9B
:1001C0000EFB1C330CFB00F044EA0344A04214D99C
:1001D0002C190CF1FF3304D2A04202D9ACF1020376
:1001E0002C44241A43EA02401EB1FC400023346030
:1001F0007360BDE8F0874246DDE76346F1E7002A19
:1002000079D0B2FA82F3002B3FD01946C1F1200316
:1002100002FA01F52EFA03F20EFA01FE20FA03F3B8
:1002200043EA0E034FEA154E00FA01F4B2FBFEFC5E
:10023000AFB20EFB1C201A0C0CFB07F842EA00427E
:1002400090455AD9AA180CF1FF3004D2904502D932
:10025000ACF102002A44A2EB08029BB2B2FBFEFC06
:100260000EFB1C220CFB07F743EA02439F4246D9D0
:10027000EB180CF1FF3204D29F4202D9ACF102021A
:100280002B44DB1B42EA004202E0AEEB02030122F8
:100290004FEA154EAFB2B3FBFEFC200C0EFB1C3335
:1002A0000CFB07F840EA034398452AD9EB180CF1F8
:1002B000FF3004D2984502D9ACF102002B44A3EBE5
:1002C0000803A4B2B3FBFEFC0EFB1C330CFB07F7C8
:1002D00044EA0344A74216D92C190CF1FF3304D287
:1002E000A74202D9ACF102032C44E41B43EA0040CC
:1002F0000F46114678E71F2188E76046ABE7624664
:10030000BFE76046DBE76346EFE7734506D916B9FA
:10031000002108466DE7C6E9000EF9E7B3FA83F756
:1003200087B9734501D3824207D8841A6EEB030361
:1003300001209C461EB900215BE73846FAE7C6E972
:10034000004CF8E7C7F1200CBB4022FA0CF51D4326
:1003500020FA0CF12EFA0CF30EFA07FE41EA0E0118
:100360004FEA154900FA07F4B3FBF9F81FFA85FEC6
:1003700009FB18300B0C08FB0EFA43EA00439A45C0
:1003800002FA07F240D9EB1808F1FF3004D29A457F
:1003900002D9A8F102002B44A3EB0A0389B2B3FBF4
:1003A000F9F809FB183308FB0EFE41EA03418E45BC
:1003B0002CD9691808F1FF3304D28E4502D9A8F16F
:1003C0000203294443EA0040A0FB0298A1EB0E017E
:1003D0004145CE46434602D306D14C4504D2B9EB43
:1003E000020E68EB05030138002EA4D0B4EB0E0218
:1003F00061EB030101FA0CFC22FA07F34CEA030358
:10040000F940C6E9003196E74046C5E74346D9E7DB
:10041000F0B500228BB0114640F6034006F01CFAFE
:10042000044600285ED105F0DBFF214609AA41F20F
:10043000030006F011FA0446002853D1099A2B4D07
:10044000D168D1F80100D1F8051005F1780303C394
:10045000104604F0FDFD214609AA41F2010006F014
:10046000FBF9044600283DD10998C3685A7885F8FD
:100470006F205A88A5F872201A7985F87020B3F891
:100480000720A5F87420B3F80530A5F8763004F0FD
:10049000DFFD214609AA41F2020006F0DDF904461B
:1004A00000BB099FFA6805F18006531C41321868A9
:1004B0005968344603C4083393422646F7D1384678
:1004C00004F0C6FD95F87C3013F0400314D1084ABF
:1004D00008490093CDE901321846012222F004FFB9
:1004E0006FF0120420460BB0F0BD00BF00000020EA
:1004F000B8A20200086E020009AA002142F203001D
:1005000006F0AAF904460028ECD1099AB24BD1684A
:10051000D1F80100D1F8051003C3104604F098FD8E
:10052000214609AA42F2020006F096F90446002884
:10053000D8D1099FFE68B6F801309AB2BAB1F27804
:10054000AAB1A5F8FC30F378032B0BD00322CDE938
:100550000332A24BA2490090CDE9010302220346D7
:1005600022F0C2FEF2789F48114624F0F1FE384690
:1005700004F06EFD95F87C601F2316F02006A5F8A8
:10058000103119D14FF0FF304FF0FF3105F050FF1F
:100590000446002800F0B88102210C3004F0AAFEC5
:1005A0000123037046702146324640F66D4006F046
:1005B00053F90446002895D195F89C301E0712D5B2
:1005C00009AA002142F21C0006F046F90446002860
:1005D00088D10998C368D3F80120D3F80530C5E95C
:1005E000382304F035FD95F8D8309C0626D50DF15A
:1005F000220108A806F0CEF9044600287FF472AF65
:100600004FF0FF304FF0FF3105F012FF0646002893
:1006100000F07A8104210C3004F06CFEBDF820302B
:100620000380BDF8223043802246314642F2240046
:1006300006F012F9044600287FF454AF95F8D8303C
:10064000580610D509AA002142F22A0006F004F942
:10065000044600287FF446AF0998C3685B7885F8A4
:10066000123104F0F5FC4FF0FF304FF0FF3105F090
:10067000DFFE0646002800F0478108210C3004F018
:1006800039FE95F8D84014F0400F40F2022308BF1D
:100690000323A10795F8D9104CBF43F02C0343F076
:1006A0000C03A70648BF43F0400311F0090F18BF21
:1006B00043F4006304F001040246002143EA0410FD
:1006C00022F042FE0022314642F2010006F0C4F858
:1006D000044600287FF406AF95F87C30B5F8FC108E
:1006E0009E0661D4C9B909AA41F2050006F0B4F822
:1006F000044600287FF4F6AEB5F8FC30099C4BB9EF
:10070000E368B3F80120A5F8FC209A883548114623
:1007100024F01EFE204604F09BFC4FF0FF304FF00B
:10072000FF3105F085FE0446002800F0ED80082129
:100730000C3004F0DFFD95F8D830D907024641D4DB
:1007400029484FF0005122F0FFFD2146002240F6DB
:10075000014006F081F8044600287FF4C3AE01464C
:1007600009AA4FF6014006F077F8002842D01F4B47
:100770000094CDE90143234619490222184622F08C
:10078000B3FDEB79002B40F0AF8007F009F9044688
:1007900000287FF4A7AE09F0D9F8044600287FF4BA
:1007A000A1AE05F04BFF9DE60029B6D1104B0C49D8
:1007B0000090CDE901030122034622F095FD6FF080
:1007C00004048FE602A1D1E90001BCE7AFF3008089
:1007D0009088000200800020D8000020DCA20200E7
:1007E000086E0200000100201088000245A30200EC
:1007F00022A30200099E5249F468B4F80130042B88
:1008000096BF504A504A52F82320CDE903234F4B5C
:1008100002930023CDE900330322184622F064FD41
:10082000B4F80130B4F80320022B39D1052A37D8A7
:10083000474B53F822304249CDE90332454B0293EE
:10084000002303221846CDE9003322F04DFDD4F8F1
:10085000091063790791B4F807100691032BA17969
:1008600096BF3D4A384A52F8232003920024CDE92E
:1008700004313A4B32490293032223462046CDE904
:10088000004422F031FD304604F0E2FB09AA214683
:100890004FF6024005F0E0FF064618B1304B67E71F
:1008A000294BC8E70998C368B3F80130A5F8C130EF
:1008B00004F0CEFB95F8C1305A077FF562AF09AA64
:1008C00031464FF6034005F0C7FF28B1254B00968F
:1008D000CDE9016333464FE70998C3685B7885F833
:1008E000C03004F0B5FB4CE72E78002E7FF44DAFFE
:1008F00095F8C1309B061FD54FF0FF304FF0FF3108
:1009000005F096FD044610B96FF06804EAE506218B
:100910000C3004F0EFFCD5F801300360124B9B88DB
:100920008380214632464FF6064005F095FF044687
:1009300000283FF42AAFD5E56FF08504D2E500BF6B
:10094000086E02000C720200CDA0020069A3020032
:10095000F471020082A30200E47102009AA3020073
:10096000C7A30200F0A30200010000200000000065
:100970002DE9F843D0E90738856903EB08042F34E3
:10098000A5420F46164619D8DFF86C80A3FB080174
:1009900017A3D3E90023FFF7B3FB0346601BA0FBBB
:1009A000080123F07F4412A3D3E90023FFF7A8FB3B
:1009B00020F07F403C603060BDE8F883DFF838907D
:1009C0000BA3D3E90023A5FB0901FFF799FB20F056
:1009D0007F440A480A2106A3D3E90023E8FB090162
:1009E000FFF78EFB20F07F403C603060BDE8F8836D
:1009F0008D49FD1A0700000000CA9A3B00166BF1F2
:100A0000002800F051812DE9F04FCB4C94F85E2086
:100A100012F001058DB040F03481607EFF2300F0BC
:100A20000300A37617F068FA94F85E00420700F11D
:100A30002C81627F94F8293004EB820204EB83035B
:100A4000166AD3F82C8086B1BB48314611F010FEEF
:100A500033785B0605D506210DF042FC002800F036
:100A60005581B548414611F003FE337813F00E0F5F
:100A700040F0918063691BB10C200DB0BDE8F08F90
:100A80000FF034FC8146002800F049810FF03AFC59
:100A90008246002800F0408112F030F80546002818
:100AA00000F05A81D0F888004FF6FF73AB8405F14F
:100AB000100B002800F0358105F17C0205F178016A
:100AC0000DF01AFCB5F8763023F4EF6323F007033A
:100AD00043F48C7343F00103A5F8763095F8373072
:100AE00003F03F0363F07F0385F8373095F88E30CD
:100AF00023F0070385F88E3095F83C3023F00F0380
:100B0000002785F83C304FF4C023C5F88E312846C5
:100B1000C5E91277C5F88870A5F88C7085F839702A
:100B20006F85C5F82E702F65A5F86071A5F89471D2
:100B3000A5F88A7113F078FF85F86471C5F868919B
:100B400012F0A4FA95F89C3160F3020385F89C3109
:100B500012F0A2FA95F89C3160F3C50385F89C3138
:100B600095F8623167F34103012185F86231284627
:100B700012F026FE05F1E00013F076FDC4E9159AA7
:100B8000C4F814B0C5E902772F702D6118F096F9FA
:100B9000002840F0BD80237E0121C3F342030DF104
:100BA0002B008DF82B300DF049FD024600287DD03A
:100BB0004146304611F054FB604A614BB4F85C800A
:100BC0000721E0FB023100251846C4E9025558A36D
:100BD000D3E900232570FFF793FA60600EF0B8FEAA
:100BE00000F10907B8F1000F07D1357805F00F05BE
:100BF000A5F10105B5FA85F56D09207E636865F3F9
:100C0000000010F00105207657D04E4A09920020CE
:100C1000106002254C4ADFF8348104930BAE019337
:100C200005920321CDE90200069400903B46CDF8E1
:100C30001C8008962A460B950EF0AEFD31460FF04B
:100C4000D7FB98BB424905914AF2D8330093CDE9CE
:100C50000300CDE90100CDF81C80089606943B46C0
:100C6000012203210B950EF07BFD31460FF0C0FBF6
:100C7000E0B994F85E300120034384F85E3017F049
:100C80001DF900200DB0BDE8F08F2A4604F15F0188
:100C9000C0F3C00017F076FAFF28A0763FF4C9AE83
:100CA000284617F043F9C4E611F072BA6369002BC5
:100CB0003FF4E2AE11F042FADEE6224A2548049300
:100CC00003F247130694029591211360A8FB0003D9
:100CD00001FB08311D4B07931B4B05934FF6FF7328
:100CE00009924FF0020803930BAE11A3D3E900233E
:100CF000CDF82C800896FFF703FA3B46CDE900506B
:100D00004246284603210EF047FDAEE71220B4E626
:100D100011F014FA0320B0E648460FF0EDFA072070
:100D2000ABE605F18000C5F88800C5E6AFF30080AA
:100D30008D49FD1A070000006C20002000CA9A3B74
:100D40008C49FD1A60200020D92201004DFA0000D4
:100D5000FD1F0100002AE78450460FF0D9FA4846EB
:100D60000FF0CAFADBE700BF70B5037E8AB0C3F3A9
:100D700042030D46044601210DF1230016468DF86D
:100D800023300DF05BFC31460246284611F068FA2C
:100D90001D4A1E4B0721E0FB0231184618A3D3E978
:100DA0000023FFF7ADF963689842054621D21B1A6C
:100DB00000220192164A0293164BA21AA3FB02329A
:100DC0000221520900230A4409AE099112490591F2
:100DD000CDE9033303210696D2B2009318460EF0F4
:100DE00031FD31460FF004FB38B9656000200AB0D0
:100DF00070BDFBD9C21A0023DBE70C200AB070BD1E
:100E00008D49FD1A0700000000CA9A3B8C49FD1A63
:100E10006C2000204FECC44E4DFA00000000000092
:100E20002DE9F04F05468BB08B46012002219946F3
:100E3000144619F029FE00220221824601200DF0FD
:100E4000AFFA2F494FF4D47228460DF035FAC61C7C
:100E50002C4B0093F6B201954B46324601210020FF
:100E60000EF03EFD10F0FD0F42D1274BA4FB0348CE
:100E7000204621A3D3E900234146FFF741F9089515
:100E800006956B680493214B20F07F47A7FB033145
:100E9000E01A1F4B07934FF007021E4B059302FB0E
:100EA00007114FF6FE7368EB010103934FF47A725A
:100EB0000023FFF725F9CDF800B0CDE901704B46CE
:100EC0003246012100200EF04BFC10F0FD0F0DD139
:100ED000BAF1000F02D10BB0BDE8F08F0122022160
:100EE00010460BB0BDE8F04F0DF05ABA00DEEFE748
:100EF00000DEBAE7AFF300808D49FD1A070000005D
:100F0000500D0020B929010000CA9A3B8D49FD1AF5
:100F1000A1290100457301002DE9F0418468A28CEC
:100F20004FF6FF739A428CB000F0C0800546204611
:100F300013F0F6FF2B7D012B00F0E680022B00F072
:100F4000B88033B994F88E3003F01803182B00F0F2
:100F50001C8194F86471002F40F0AE802B8AE68DDE
:100F600094F93720CDE90A77002B00F0AC80002AF5
:100F7000C0F221810023A4F89031AB7CA28D03F054
:100F80000303551C012BADB200F0BA80B4F89431C4
:100F9000002B00F0BF80AB4240F237815B1B9BB25D
:100FA000062BA4F894314FF000028CBF00230123DC
:100FB000E2851F4694F83C2063F3820284F83C20CB
:100FC00029460DF12702204613F06AFD743000F027
:100FD0001681B4F88E312BB1AB4240F2BF805B1B5F
:100FE000A4F88E31B4F88A312BB1AB4240F2C680FE
:100FF0005B1BA4F88A31E58D17B9AE4200F0AC80D6
:101000000135ADB294F8D13013F0010609D1DDE914
:101010000AC3B3BBBCF1000F00F0E9801E461946BD
:1010200030E094F9372023F00103002A84F8D1300E
:10103000C0F28A8094F87600C0F3C00100F0070087
:1010400017F0BAFDB4F86E20B4F86C301344E28B9C
:1010500003F23F13134418448D4A8E4B0721E0FBE3
:101060000231184688A3D3E90023FFF749F86168E5
:1010700020F07F408142DDE90AC380F0B280461A49
:1010800060600021A28C24690694CDE903570332E5
:10109000814D0291CDE900C6D2B201210020059513
:1010A0000EF0D0FB10F0FD0F40F0B4800CB0BDE8A6
:1010B000F0813D2784F86471394620460CB0BDE8C4
:1010C000F04112F0A3B8002AB8BF84F8D570AB7C09
:1010D000A28D03F00303551C012BADB210D0B4F860
:1010E0009031002B3FF452AFAB4240F29A805B1B31
:1010F000A4F89031B4F89431002B7FF44CAF59E749
:101100000023A4F8943155E70023A4F88E31A4F805
:101110008A311EE7E38C052B8BBF40F2E2424FF48D
:10112000FA725A4303FB0222B4F8923142F2107170
:1011300001FB0323013BB3FBF2F39BB2A4F8943110
:10114000002B7FF428AF35E794F87700012100F0F9
:10115000070017F033FD75E73D4653E70FF018F928
:101160000146002864D00023A4F88E31A38CC380EC
:101170001B23037100680FF0DDF833E70023A4F8A8
:101180008A31204613F01EFD35E7218DB4F88C21FD
:101190008B1D9A42C4BF931F5B1AB4F88811CCBF51
:1011A0009BB21346994256D0A4F88831A4F88A31EC
:1011B000A4F88E21CDE694F8D530002B3CD0013B2D
:1011C00084F8D53004F1E008404613F08FFA002887
:1011D00055D0404613F08AFA002842D00023E38518
:1011E000C8E6091A6060A3BB51EA0C021ED115B90A
:1011F000002F3FF45BAF00263146334642E79DF8AF
:101200002710204612F002F850E70821204611F07E
:10121000FDFF4BE70FF016F984423FF447AF00DEC5
:1012200044E73E21204611F0F1FF3FE71E4629E743
:101230000123A4F88E31D5E60AAA0BA92846FFF7A8
:1012400097FBDDE90A231343BCD0237884F8D5301B
:10125000B8E7002616E7B4F88E1100297FF479AEBE
:10126000A4E70246D4E91E010DF05EF80028B5D1CE
:1012700094F83C301B0744BF238DE3857AE6FF20BA
:1012800011F086FFA5E700BF8D49FD1A0700000099
:1012900000CA9A3B8C49FD1AF929010000000000A0
:1012A0002DE9F04F87B0B0F86071BDF84C90009117
:1012B000CDE90423B0F82431BDF840A01F44BFB2EB
:1012C0000446A7EB090390F87600D4F81C819EB27F
:1012D000BDF844300193C0F3C001BDF84830039617
:1012E00000F00700029317F067FCE58C052D40F233
:1012F000A38015FB06F5ADB240F2E24BBAF1050F43
:1013000040F28E80B4F86E20B4F86C30134403F2CF
:10131000D5130344764A77480721E3FB02014FF0D7
:101320009613E361962323846FA3D3E90023FEF78A
:10133000E7FE564620F07F4040F2E2430BFB05F209
:1013400003FB06F6531E3344B3FBF6F31FFA83FB8D
:1013500060600BFB06F082425D4653D26449801AFE
:10136000A0FB010160A3D3E90023FEF7C9FE20F032
:101370007F408044B4F82421B4F86031A9EB070918
:101380004D44ADB213442B44A4F86031638D134433
:101390001D4494F837306585DB0955D100DE002700
:1013A0003546019B2385029BA4F8923131462046A5
:1013B000A4F826A013F0A0FB4F4B218D3344881DC9
:1013C000B3FBF6F39AB29042A4F88C2104D2C1F593
:1013D0007F41FA310A4492B2009BA4F8882113B1EC
:1013E0000023A4F8943143462A4639462046FFF7A5
:1013F00017FD94F8623143F0010384F8623107B0BD
:10140000BDE8F08F121A3A48A2FB000136A3D3E9D7
:101410000023FEF775FE20F07F40A8EB0008A9E747
:101420004FF096130AF10106E36196232384B6B2C6
:101430000A204FF4FA7381E7039B013515FB03F58E
:10144000ADB24FF4FA7B59E7216CA36C284F01FB36
:101450000233039A01FB1233A3640023C4F8DC3087
:1014600017F07EFD054694F8D400C0F3420017F053
:1014700079FD054406FB05F5204B1E4805F574254E
:1014800005F23F25A3FB0535AD0CA36C25640BFBD2
:1014900005FB72085B44963A934228BF1346C4E9A1
:1014A0001123049B40F2E24909FB03F30721236562
:1014B000EBFB07010CA3D3E90023FEF721FE104B41
:1014C000059AA8EB0008A3FB0230800A09FB00F094
:1014D000A0FB070104A3D3E90023FEF711FE751B4F
:1014E00020F07F475DE700BF8D49FD1A070000002F
:1014F00000CA9A3B8C49FD1A7FC3C90183DE1B4396
:101500005917B7D1000000002DE9F04F0D461668BD
:1015100095F8118009681446027FD1F8009093B0C5
:101520008346C2F38012D0F81E008DF83720B8F140
:10153000FF0FBBF822201090ADF8442057D110AB1C
:1015400093E803000E90ADF83C105A46BBF82E10FD
:1015500052F82EAB9278A2722181DBF82A206260C9
:10156000DBF83A20C4F8222004F122009BF83E2048
:10157000027105210DF062F894F8272000F03F0079
:1015800060F3050284F827209BF83F20C2F3040192
:1015900084F82810BBF83410E182012802F01F0201
:1015A00089B20AD91B3202F01F020B2A05D806396C
:1015B00089B240F67A42914225D90021C9F8081033
:1015C00094F82C2061F3000284F82C20DBF80C4006
:1015D0000125504659468BF804500EF09FFE2068B6
:1015E000257121460EF0A6FE13B0BDE8F08F0EAABD
:1015F0000DF13701404616F0BFF99DF83720023251
:101600008DF83720A1E72A6800215160BBF8362009
:10161000E78A228340F2E24303FB07F73046BBF838
:1016200032300B9313F07CFA9BF83F2096F8D410DD
:10163000520962F3430186F8D41017F091FC0A9026
:1016400096F8D400C0F3420017F08CFC0A9A1044BC
:1016500007FB00F0AE4A00F5742000F23F20A2FB29
:1016600000207A08800C963A206362639BF8312050
:1016700040F2E24303FB02F26264BBF83820A6F8B2
:1016800092213946304613F037FAA24AA249C6F8E9
:1016900098113A44B2FBF7F290B2A6F88C01218B74
:1016A00001F1060C604504DDC1F57F41FA310144CA
:1016B00088B25A46A6F8880112F81C3FC3F34013BB
:1016C000D2070A9300F115814FF48072ABF81C2009
:1016D00099F81A0016F09AFE002800F0EA80DBF86C
:1016E0002420CBF82B20BBF82820ABF82F20B8F112
:1016F000FF0F00F0F880BDF844201098ABF82920C7
:10170000CBF825009DF837208BF81E200E98BDF8E9
:101710003C20CBF81F00ABF82320E28AABF8322044
:10172000228BABF83420B6F89221ABF8362096F82D
:10173000D420C2F342028BF83820304611F0EAF987
:10174000A082ABF80600D5F80480504659460EF04A
:10175000E5FD1C23A28A88F804300A9BD8F800A073
:10176000A8F80620002B40F0B180DDF828B088F8FA
:101770001CB0414650460EF0DDFD94F86700B4F809
:101780005CA0B4F85E80012100F0070017F016FAA3
:10179000D04408F2D51808EB00038246DFF87C81BC
:1017A0005F480721E3FB08014FF09613C4E90333B8
:1017B00055A3D3E90023FEF7A3FC20F07F4070601F
:1017C000EB680B98226B40F2E24101FB003404F21B
:1017D000B3440221A41A0120BF1A00220CF0E0FD3C
:1017E000484610F003FFA4EB0A0447A3D3E9002303
:1017F0008246A4FB0801FEF783FCCDF80490AB6899
:101800004849009120F07F480AF10202363BD2B2EB
:101810004344012100200EF063F801286BD099F8B1
:101820001830DB074AD4304611F074F93B4CA7FB63
:10183000044935A3D3E90023834649462046FEF7F1
:101840005FFCAB68384A0792A3F1360A374B06961D
:1018500020F07F47A7FB0331E01A354B05934FF487
:10186000F8730893736804934FF0070303FB0711A1
:1018700069EB010100244FF47A7200230394FEF710
:101880003FFC0BF10305EDB2CDE90170CDF800800E
:1018900053462A46012120460DF062FF10F0FD0F4D
:1018A0002FD10122022110460CF07AFD13B0BDE8C1
:1018B000F08FCBF82B00ABF82F0018E700230122A4
:1018C0000093184611460DF0D5FFACE794F8273089
:1018D00043F0400384F82730201D15F021FE4FF01F
:1018E000010B208543E70021CBF82510ABF8291028
:1018F00008E700DEE8E60EF0A5FD81458FD000DEAA
:101900008DE700DECDE700BF8D49FD1A070000001E
:1019100083DE1B437FC3C901404B4C0000CA9A3B86
:101920008C49FD1ACD7301001D7301008D49FD1A0C
:101930004573010000000000F0B5C468636883B01F
:101940000546002B54D118F0E5FB002018F006FCEA
:101950000021084618F0F4FB00222521082018F089
:101960005BFC414B019301A818F042FC3F4940F257
:101970005B6018F0F3FC237AC3F3420262F30613B0
:101980002372204617F07CFC16F0C8FD637A03F042
:10199000030348BBFBB927682E68384617F0C6F822
:1019A00006446A6806F10901012018F01FFE18F0CC
:1019B000DFFE204610F026FE811C3246C9B23846B2
:1019C00017F0B6F8054600BB204617F08BF8D0B9E3
:1019D000002003B0F0BD012016F066FA4178821CA9
:1019E000007818F0A3FDD6E7181E18BF0120F3E712
:1019F00093F82C309B07A6D01D48214618F05EFBBB
:101A000018F056FCE4E700DEE2E71A4A1A491B48E0
:101A100040F2114321F0F4F8194B0721A5FB030311
:101A200001FB05310EA3D3E90023FEF769FB15493D
:101A30000246154821F0E4F8002585F31188BFF32C
:101A40006F8F0323184602DF1048214618F036FB3B
:101A500018F02EFC6FF08B00BBE700BFAFF30080E7
:101A600000CA9A3B00000000D6BE898E555555002D
:101A7000758C010034790200807902001077020031
:101A80008D49FD1AC87A020084790200718F010025
:101A90002DE9F043C468A28A4FF6FF739A4283B0DF
:101AA00000F0FD80064617F09FFE3389628B208C84
:101AB00094F82710A3831A4492B2104480B2431CB6
:101AC00023840023638301F03F034906E28300F18E
:101AD000A48094F82810009304F1290004F1220353
:101AE00015F0E0FC0546D4E90C31A26BA08BA36392
:101AF00003FB0022E36B8A4294BF9B185B188B4266
:101B000028BF0B46626CE363236C94F867101A4499
:101B100094F82C3061F306130021C4E9101294F8F4
:101B20007E2084F82C3012F0040200F0898018F036
:101B3000F1FA002018F012FB201D18F059FB238940
:101B4000A17A40F25B6043EA014118F007FC2846A5
:101B500016F0FEFF2146584818F0B0FAA08918F098
:101B600039FD94F8662094F86700C2F3C0030021A1
:101B700002F0070200F0070018F056FC204617F0AC
:101B8000CDFED4F800803768404616F0CFFF0744FA
:101B9000726807F10901002018F028FD814618F04D
:101BA000BBFD002018F0D2FDE36B94F8670003F151
:101BB0002F02636C012100F0070003EB420518F0CF
:101BC00069FB4D44054494F8670000F007000228C3
:101BD00034D004280CBF4FF4BC73282301211D44CA
:101BE00018F05AFB284418F089FDA18A03313A46BF
:101BF000C9B2404616F09CFF0546A8B1B37A13F06F
:101C000002062BD000252D48214618F057FA18F06F
:101C10004FFB284603B0BDE8F083218D04F122027A
:101C200015F082FC05465EE7204616F05BFF0028B3
:101C30003CD10025284603B0BDE8F0831823CDE74A
:101C4000D4E91A010CF070FB00287FF470AF94F80F
:101C50007E3043F0040384F87E3068E7184A19495F
:101C600019484FF4AC7320F0CBFF18480721A5FBAF
:101C7000000301FB05310EA3D3E90023FEF740FA70
:101C800013490246134820F0BBFF86F31188BFF3C7
:101C90006F8F0323184602DF6FF08B05B3E70E4802
:101CA000214618F00BFA18F003FBC2E700DEC0E78C
:101CB00000CA9A3B00000000419B0100518C0100CA
:101CC000B079020080790200107702008D49FD1A78
:101CD000D47A020084790200758C010030B50C467C
:101CE0008FB071B1114BCDE90313114B0293002357
:101CF000CDE900330F490222184620F04CFE0FB008
:101D000030BD0D4A06AD012111700146284607F08D
:101D1000E5FC0A4B07490395CDE9014300942346AE
:101D20000322204620F037FEE9E700BF3FC602004D
:101D3000BE850200A06E0200AA320020E1850200EA
:101D40007FB50C4A002313700B4A13700B4A1370B3
:101D50000B4A13700B4A0093CDE903120A4A0B4950
:101D6000CDE901321846032220F015FE07B05DF8D8
:101D700004FB00BFAA320020AD320020AC320020AC
:101D8000AB3200203FC60200EF850200A06E0200C9
:101D90001FB501290B4B0C490CBF012200221A7000
:101DA0000A4A0B4B08BF134603930A4B02930023C6
:101DB000CDE900330322184620F0EDFD05B05DF8B3
:101DC00004FB00BFAD320020A06E020010860200AE
:101DD00018860200218602001FB501290B4B0C4911
:101DE0000CBF012200221A700A4A0B4B08BF13468F
:101DF00003930A4B02930023CDE9003303221846D4
:101E000020F0C9FD05B05DF804FB00BFAC32002036
:101E1000A06E020010860200188602003E860200B4
:101E20001FB501290B4B0C490CBF012200221A706F
:101E30000A4A0B4B08BF134603930A4B0293002335
:101E4000CDE900330322184620F0A5FD05B05DF86A
:101E500004FB00BFAB320020A06E0200108602001F
:101E6000188602005A8602007FB5BDF820401D4644
:101E700054BB012B28D113785A1E092A27D8154E96
:101E8000154933710393154B0094CDE90143204666
:101E90002346032220F07FFD36794FF47A735E43A8
:101EA000214640F2E7304FF400444FF47A720023A9
:101EB000E6FB0401FEF724F902460B4608481CF035
:101EC0004BFF284604B070BD6FF00C00FAE76FF0CE
:101ED0001200F7E70C020020A06E020073860200D9
:101EE000300700201D4BAF221A7059225A701C4A2D
:101EF00011689970C1F30720090C1971090A597109
:101F00005168D8709971C1F30720090C1972090A38
:101F100059729168D8719972C1F30720090C19732D
:101F2000090A5973B2F90C109973C1F30721D973D7
:101F3000D1891974090A5974118A9974090AD974D2
:101F4000917C526919755A75C2F30721120CDA7522
:101F5000120AD87299751A76704700BFAE32002007
:101F6000F401002070B504468AB060B1264B02939C
:101F70000023CDE90033039024490122184620F0C4
:101F80000AFD0AB070BD224B224E20490090CDE9D7
:101F900001030322034620F0FEFCFFF7A3FF0FCE50
:101FA00005AD0FC533682B601B4900942346022200
:101FB00005A805F0DFFD054630B1184B0390CDE9CB
:101FC000014300942346D7E7154B0090CDE9010368
:101FD0000E490346032220F0DEFC124B1C794FF41D
:101FE0007A735C43294640F2E7304FF400454FF4E2
:101FF0007A720023E4FB0501FEF782F802460B46E5
:1020000009481CF0A9FEBCE795860200A06E0200FC
:10201000B4860200C06E0200786F0200CA86020019
:10202000EF8602000C02002030070020F0B58A4D38
:102030008A4CAB681E2101331C20B3FBF1F201FB7B
:102040001232B3FBF0F100FB11313E3191B0A970B7
:102050002821AB60B3FBF1F001FB1033C3F1640343
:1020600002EB8202EB7002F62E127D4B92B22A80B6
:102070001A7009225A7020F084FC7A4BB0FBF3F2FC
:1020800002FB1300784B0344636020F07AFC774B2B
:10209000774A984294BF0023012303FB1200754B3B
:1020A0000344A36020F06DFC42F61963B0FBF3F229
:1020B00002FB130000F59660A08120F062FC41F65F
:1020C0002143B0FBF3F202FB130000F5E160E08175
:1020D00020F057FC4FF46163B0FBF3F202FB1300F6
:1020E000208220F04EFC5123B0FBF3F202FB1300E0
:1020F0001430A07423F00BFA4FF47A72A0FB0203A1
:1021000002FB0133C20B42EA4342E089278A626143
:10211000D4E901310E92A27C0D920A22B7FBF2FCA7
:1021200002FB1C77BFB2CDE90BC7B0FBF2F702FB95
:10213000170080B2CDE90970B4F90C2008924E4A1C
:1021400091FBF2F002FB10110029B8BF4942CDE922
:10215000060193FBF2F102FB1133002BB8BF5B4287
:10216000CDE9041323680393444B45490026032219
:102170003046CDE901630096334620F00CFCFFF7B2
:10218000B1FE404833463246022105F0D9FC50B139
:102190003D4B0390CDE90163394900963346022255
:1021A000304620F0F8FB394B1B78002B3BD0384BE6
:1021B0001B7883B12A493748022220F0FBFB50B13B
:1021C000354B029300230390CDE900332C490222C2
:1021D000184620F0E0FB314B1B7883B13049314881
:1021E000012220F0E7FB50B12F4B02930023039014
:1021F000CDE9003322490222184620F0CCFB2B4BBC
:102200001B7883B12A492B48012220F0D3FB50B11F
:10221000294B029300230390CDE900331849022291
:10222000184620F0B8FB2C794FF47A735C434FF4D6
:10223000004540F2E73000214FF47A720023E4FBBE
:102240000501FDF75DFF02461C480B4611B0BDE8D5
:10225000F0401CF081BD00BF0C020020F401002002
:10226000C732002001D2496B00175BCA00A493D685
:1022700001A493D6002EB69480969800238702007E
:10228000A06E0200786F020087870200AA32002049
:10229000AD320020B06F0200AF870200AC320020E8
:1022A0000E020020EC6F0200D4870200AB32002047
:1022B0000F02002028700200F8870200300700207B
:1022C0001FB5114B0293002318461049CDE9003386
:1022D000032220F060FB0E4B0E4AB3F9003013705E
:1022E000C3F307235370FFF7FDFD0B480B491CF0A8
:1022F000FBFB0B4804F0BCFC4FF0FF314FF0FF300C
:102300001DF07EFEF8E700BF19880200A06E0200F3
:102310000C020020C7320020300700202D200000D2
:10232000651F00002DE9F04F85B0044620F056FBF4
:10233000B0FA80F0C0F11F0004EB8006CD00D6F8A3
:10234000109005F1040A0B4606358FB2B9F1000F63
:102350000BD1E268012181400A43E260336124F835
:102360000A70675305B0BDE8F08F4FEAC90604361E
:1023700034F806B04FEACB0808F1060834F8083004
:10238000994511D00C4B02930023CDE90033184638
:102390000A49012220F02CFB002383F31188BFF3AC
:1023A0006F8F0423184602DF24F80AB024F8059042
:1023B00024F80870A753D5E751880200806E020008
:1023C0002DE9FF4700EBC1030446B3F80680414501
:1023D00002F104090CD1012303FA02F2C36823EAD3
:1023E0000203C360002340F8293004B0BDE8F08741
:1023F000B3F804A04FEACA0706374FEAC806C35B22
:10240000994206F1040602D1835B994211D000255E
:102410000B4B0293CDE900550A492B460122284671
:1024200020F0E6FA85F31188BFF36F8F0423184676
:1024300002DF44F8298024F8078024F806A0D4E7B6
:1024400051880200806E02001FB500EBC1030446F4
:102450005B88DB070A460ED420F0C5FA34F830302A
:10246000C01A814207D134F831102046511A20F0A9
:10247000BAFA824211D00024094B0293CDE90044FC
:10248000084923460122204620F0B2FA84F311883D
:10249000BFF36F8F0423184602DF04B010BD00BFE6
:1024A00075880200806E02002DE9F043884685B0F1
:1024B000002900F0908004680E1F361BF50826F0F6
:1024C000070604EB0609B9F8027017F0010711D1ED
:1024D000424B0391CDE90173414900973B460122EC
:1024E000384620F085FA87F31188BFF36F8F0423F5
:1024F000184602DF2946204620F075FA34F83030BD
:10250000C01A854213D00027364B0293CDE90077DD
:102510003349CDF80C803B460122384620F068FA5A
:1025200087F31188BFF36F8F0423184602DFA15B86
:102530002046691A20F057FAA84213D000272A4BE8
:102540000293CDE900772649CDF80C803B46012265
:10255000384620F04DFA87F31188BFF36F8F0423BC
:10256000184602DFB9F8023023F00103A9F802305F
:102570002946204620F037FA04EBC00307465B8863
:10258000DA070CD401462046FFF75EFF39462046A5
:1025900020F03EFA3A462946204620F085FAA65B0E
:1025A000AE1B04EBC6035B88DB070DD43146204627
:1025B000FFF74AFF3146204620F02AFA2A463146E4
:1025C000204620F071FA35462946204605B0BDE880
:1025D000F043FFF7A7BE05B0BDE8F0830E89020007
:1025E000806E0200BE880200E78802002DE9F047F5
:1025F00014464A4202EA010931EA020203461AD0AD
:102600004A46042A4F4628BF0422A1EB090909F1D2
:10261000FF3A1AEA090F18D03549364A36484FF4BE
:10262000F57320F0EDFA354820F0EAFA31484FF41E
:10263000F57120F0DCFA042904D82146BDE8F04702
:1026400020F063BA00270422E1E71CB900252846E0
:10265000BDE8F0871E68A9EB020204F0070302F050
:1026600007010B330B44E10801EBD20101EBD3016D
:10267000B368994228BF1946304620F0D6F9804603
:102680000028E3D03D1D05EBC00535445544B5FB9E
:10269000F9F509FB05F5ED1B2C442B1F07349B1B9B
:1026A00024F00704A41BB0EBD30F4FEAD3074FEA83
:1026B000E40408D201463A46304620F00BFA41467F
:1026C0003046FFF72FFE3946304620F08CF9A04205
:1026D00007D93046224620F0FDF921463046FFF763
:1026E00021FE06EBC706738843F001037380AEE753
:1026F0005689020033890200718902008E89020026
:10270000B2F5802F2DE9F8430ED33E493E4A3F48AB
:1027100040F2DD2320F074FA3D4820F071FA40F2D7
:10272000DD21394820F063FA042A0CD83949364AA9
:1027300036484FF4397320F063FA374820F060FAD6
:102740004FF43971EDE7043ACD1D114425F007052A
:1027500021F00706A6EB0508B8F1170F4FEAD807D6
:102760000CD82E49284A294840F2ED2320F048FA97
:10277000294820F045FA40F2ED21D2E7B7FA87F474
:10278000C4F12002C4F12404A4000734E408631C4B
:102790004FF00009BB420560AF60C5F80C900CD942
:1027A0001F49194A194840F2033320F029FA1A4800
:1027B00020F026FA40F20331B3E74946920005F1D2
:1027C000100024F0ADF8A2B2530043F001036B8077
:1027D0003B1B9BB205EBC4015800A5F80090488054
:1027E00025F83420A6F8029025F8083005EBC70339
:1027F00021465A8842F001025A802846BDE8F84333
:10280000FFF790BDAB890200338902007189020095
:10281000C1890200D8890200F9890200128A0200E7
:102820003B8A020008B5024820F0D4F9002008BD18
:102830006E8A02002DE9F04F91B08407009302F0F8
:1028400004030293C2F3C20303F10103DDF868A09D
:10285000039205460E46059340F0C881041D0028EA
:1028600038D101F00706341DC6F10806009B4FF071
:1028700000085A1E04274FF0FF330193CDF8108053
:10288000C146C3463B460DB100992160059800281A
:1028900000F3C18094480099814203D39348814258
:1028A000C0F0B980039911F0020CA4EB050040F0D0
:1028B000CB80B9F10F0F40F2CA808D498D4A8E4806
:1028C00040F2812320F09CF98C4820F099F940F2E5
:1028D0008121B6E00729C9D86FF01B0011B0BDE80F
:1028E000F08F7A285AD84B280FD8472856D829284D
:1028F0002DD825284FD051D8202818BF23280CBF09
:102900004FF0010B4FF0000B6EE04C382E2845D8ED
:10291000DFE800F06A4444444444444444444444AA
:10292000474444444444444444544447475454541E
:102930006A4768446A4418471844447C7A474444C8
:1029400047447A0000204FF0000B042734E02A3877
:10295000C0B2012101FA00F010EA0E0F44D110F0CC
:10296000625C2BD110EA010B3ED06046013C3C4436
:10297000B4FBF7F47C4325B1A3EB050CA444B445A8
:10298000AAD8002800F097800599013905915AF8D6
:10299000041B009177E70199013901914FF0000B79
:1029A00022E012F8010C6C2832D112F8023C00200F
:1029B0006C2B8346C9D108273B46D7E70AF1070AA3
:1029C0002AF0070A0734FAE802BC24F0070435B1FC
:1029D00006982044B0423FF67FAFC4E900BC0834FB
:1029E0004FF0000B08273B4612F8010F002800F0BB
:1029F0008980BBF1000F7FF474AF2528F4D1019BCF
:102A0000013301934FF0010B0427ECE758469AE796
:102A100000208346AAE7039988072FD5601B4FF053
:102A2000010CB0F5007FFFF444AF3149314A324820
:102A30004FF41F7320F0E4F8314820F0E1F84FF430
:102A40001F712C4820F0D3F84FF0000CE9E705B3D4
:102A500009F140010DEB010EC0F3870001990EF85A
:102A6000200C0EF8101CBCF1000F0ED060F07F009F
:102A70000EF8200C08F1010809F10109C5F108015F
:102A8000043406914FF6DA7EAEE7049801300490E4
:102A9000F2E7BCF1000F01D00136EDE702980236F3
:102AA0000028E9D10098CDE90632FDF74BFBDDE9BE
:102AB00006320644E0E7042B08D10AF1040015B100
:102AC000DAF800102160043482468DE70AF107032A
:102AD00023F0070303F1080A1DB1D3E90001C4E99B
:102AE0000001083408237FE7306A02003CD402006A
:102AF00005C40200A98A020071890200F88A020056
:102B0000D78A0200631BB3F5806F0CD339493A4A68
:102B10003A4840F2D22320F073F8394820F070F898
:102B200040F2D2218DE71DB9A6F10804E018D5E6E0
:102B3000029A28609B082B709DF81030BAB1EB7098
:102B400085F80280B8F1000F05D008A80022C5F171
:102B5000010791450DD1C5F1010308AF4FF0000AFF
:102B600001930DF1300BD14512D1601BB6E66B70AD
:102B7000E6E710F8013B190608D507EB040CB4454D
:102B800003F07F033FF6A8AE04F8013B0132E0E713
:102B9000B8F1000F03D097F90020002A16DB029B42
:102BA000C3B11AF80B2004F8012B0022019B18195D
:102BB0001044B0423FF690AE387804F8010B00990B
:102BC0000392204623F085FE039A14440AF1010A79
:102BD0000137C8E73A7855F822300093029B45F850
:102BE00022300098FDF7AEFA421CDFE76FF00D00CF
:102BF00074E600BF05C40200A98A020071890200C0
:102C0000128B0200014B1860704700BF18020020B1
:102C10002DE9F84F05460846AB8B1907904616D5A7
:102C200001280CBF43F0100343F02003AB8314359D
:102C300028461DF053FC002840F0B181AE49AF4A50
:102C4000AF484FF499731FF0DBFF29469DE002283F
:102C500003F0070140F07D8128461FF0F9FF0528A9
:102C600000F2FA8001A353F820F000BF2F2C0000DF
:102C7000532F0000592E0000FD2C0000972D00005E
:102C8000F72D000002F00702531F012B1AD8002372
:102C9000062A2E68A4B2C5E9003309D1334603E001
:102CA000EA8B0132EA831B68002BF9D144F002045D
:102CB000AC8328461FF0CCFF002800F05A8144F076
:102CC000200455E1042A0DD1A4B2AC8328461FF09C
:102CD000BFFF0646002800F04C8144F02004AC837E
:102CE000002646E18749884A854840F21B131FF0B9
:102CF00087FF40F21B1184481FF079FF49B18349D7
:102D0000814A7F484FF4AB731FF07AFF4FF4AB71E9
:102D1000F1E72B684BB97E497B4A794840F257135B
:102D20001FF06EFF40F25711E5E72B691F684FB99E
:102D30007849754A72484FF4AD731FF061FF4FF444
:102D4000AD71D8E7AC8B24F0070444F00604A4B2BC
:102D5000AC830E468A464FF00609AB68002B00F0A4
:102D60000F814FF0010B44F00804AC8305F114040B
:102D700020461DF0B3FB002878D15F495F4A6048C8
:102D80004FF499731FF03CFF214663481FF038FF52
:102D90004FF499718EE0022909D060495A4A584887
:102DA00040F25D131FF02CFF40F25D11A3E7EE8BA4
:102DB0004EB15B49544A52484FF4AF731FF020FFA5
:102DC0004FF4AF7197E72B695F684FB951494E4A8D
:102DD0004B4840F261131FF013FF40F261118AE784
:102DE000AC8B24F0070444F00404A4B2AC83B246D4
:102DF0004FF00409B1E7012909D04A49424A404845
:102E00004FF4B2731FF0FCFE4FF4B27173E72B68FE
:102E10004BB93F493C4A3A4840F265131FF0F0FE77
:102E200040F2651167E72B699F684FB93949364A07
:102E300033484FF4B4731FF0E3FE4FF4B4715AE714
:102E4000AC8B24F0070444F00504A4B20026AC8344
:102E5000B2464FF0050980E72A492B4A284840F23C
:102E60006B131FF0CDFE40F26B1144E788F311881D
:102E7000BFF36F8FBBF1000F1ED1002E33D117B1FE
:102E800029492846B847EFF31188202383F3128895
:102E9000BFF36F8F20461DF013FB00284AD1174A5D
:102EA0002249174884231FF0ABFE214620481FF01B
:102EB000A7FE842111481FE7A9680029DDD0D1F8B9
:102EC00000800029D9D0D1F804B053464A4628469C
:102ED000D847B8F1000F04D0D8F8003041469846E2
:102EE000EFE74346FAE7314653464A4628463668F6
:102EF0001FF0DAFEC1E700BF188C0200EB8B020066
:102F00007189020005C40200458B02006A8B020031
:102F1000768B0200998B02002F8C0200B08B02008E
:102F2000C68B0200D58B0200AD2F0000448C02003E
:102F3000598C020020461DF0E7FAAC8B24F00804FF
:102F4000A4B2AC83E20621D524F01003AB8304F0D5
:102F50000701D5F818A0AA8BBAF1000F22F00704D8
:102F6000BFF690AE00232E68C5E9003344F001049B
:102F7000AC8304F0070989454FF000077FF4EDAEFC
:102F80000EB9002FDED04FF0000BECE6A3067FF564
:102F90004EAE24F02003AB8304F007015CE688F317
:102FA0001188BFF36F8FBDE8F88F00BFF8B50446F6
:102FB0000D4600F11406EFF31187202383F31288E6
:102FC000BFF36F8F30461DF07BFA68B90C4A0D498C
:102FD0000D4884231FF014FE0C4831461FF010FEEC
:102FE000074884211FF003FE30461DF08DFAA561CD
:102FF0003A4620460121BDE8F840FFF709BE00BF70
:10300000EB8B0200448C020071890200598C020093
:103010002DE9F04704460E461FF036FE051E66DB1E
:1030200004F11409EFF3118A202383F31288BFF30C
:103030006F8F48461DF044FA804660B9374A3849D8
:10304000384884231FF0DCFD494637481FF0D8FD7F
:103050008421324843E048461DF056FAE38BA78BA3
:103060004FF6FF72934207F0070743D0062F2CD884
:10307000DFE807F01F43092B1F041F006FF08505D1
:103080004FF0000802E00133E383022548461DF0BB
:1030900025FA002834D1214A244922484FF4997353
:1030A0001FF0AEFD494622481FF0AAFD4FF499716A
:1030B000CFE700233360636823B9C4E9006687B1B2
:1030C0003D46DDE71E606660F9E71A4915481A4A71
:1030D0004FF4E4731FF094FD17484FF4E4711FF0B0
:1030E00086FD524602212046FFF792FD3D462846C6
:1030F000BDE8F0876FF00A05C2E76FF00405BFE78F
:103100008AF31188BFF36F8FB8F1000FEFD000235F
:103110003A46314620461FF0C7FDE8E7EB8B020038
:10312000448C020071890200598C0200188C020044
:103130002F8C0200D58B0200458B0200F8B50546A6
:1031400000F11406EFF31187202383F31288BFF3F5
:103150006F8F30461DF0B4F960B9264A26492748DA
:1031600084231FF04DFD314625481FF049FD842181
:1031700020482BE030461DF0C7F9AC8B04F0070463
:10318000022C17D0012C0CBF6FF004046FF08504E3
:1031900030461DF0A3F938BB164A1A4917484FF4B8
:1031A00099731FF02DFD314617481FF029FD4FF48C
:1031B0009971DDE7EB8B5BB914491048144A40F272
:1031C000EF131FF01DFD124840F2EF111FF00FFD2D
:1031D000013B9BB2EB83002BDAD13A4621462846CD
:1031E000FFF716FD2046F8BD87F31188BFF36F8FF8
:1031F000F8E700BFEB8B0200448C020071890200EB
:10320000598C0200188C02002F8C02006F8C020077
:10321000458B02002DE9F0410F460546002850D0AD
:1032200000294ED000F11406EFF31188202383F318
:103230001288BFF36F8F30461DF042F960B9224A01
:103240002249234884231FF0DBFC314621481FF02C
:10325000D7FC84211C4817E030461DF055F939464B
:103260002846AC8B1FF0D9FC80B104F00704231F63
:10327000022B0DD918491648184A40F22D231FF089
:10328000BFFC164840F22D211FF0B1FC6FF077040F
:1032900030461DF023F968B90B4A11490C484FF428
:1032A00099731FF0ADFC31460E481FF0A9FC4FF496
:1032B0009971CFE788F31188BFF36F8F2046BDE87F
:1032C000F0816FF01504F9E7EB8B0200448C0200EB
:1032D00071890200598C02007D8C0200458B02002E
:1032E000188C02002F8C020008B54268816002F041
:1032F0000302032A03460AD06AB908490848094A62
:1033000045231FF07DFC074845211FF070FC006835
:1033100000225A6008BD0020FAE700BF05C4020081
:1033200071890200F48C020008B558B907490848B1
:10333000084A40F235131FF063FC064840F235118D
:103340001FF055FC4368587908BD00BF528D02003C
:10335000718902001A8D020010B548B90849094860
:10336000094AA0231FF04CFC0748A0211FF03FFC96
:1033700003681B6913B1BDE810401847184610BD1B
:10338000528D0200718902001A8D02002DE9F84F5A
:10339000DFF8ECA0DFF8EC80AAEB08038F2B814666
:1033A0000F460BD93849394A394840F253131FF0B8
:1033B00027FC40F2531135481FF019FC35481FF027
:1033C000B2FC064650B3BDE8F88F237B8BB123686F
:1033D000DB680BB1204698476368204683F806B047
:1033E000FFF7BAFFB0B963680422196820461FF0DE
:1033F000BFFC01361034544515D92749234A2448C7
:1034000040F25F131FF0FCFB24481FF0F9FB40F271
:103410005F11D0E70BFA06F31D43EAE74446054681
:103420004FF0010BE7E7D0D3B9F1000FCBD04FF04D
:103430000109002DC7D02E4695FAA5F4B4FA84F4FC
:1034400009FA04F308EB04146FEA030A25EA0305FA
:10345000237B5BB12046FFF77FFF38B96368042206
:103460001968204606EA0A061FF082FC002DE3D107
:1034700027B14FF4A47000211CF0C2FD3546D8E7F7
:10348000B86E0200A86E0200968D0200698D0200DF
:1034900071890200F8120020C68D0200E78D02003B
:1034A000014B53F8200070477870020008B50346BE
:1034B00008462BB1044A136000F0EAFA002008BD68
:1034C0006FF01500FBE700BF20020020144A1548EA
:1034D000002310B51370144A1360144A4FF40041CE
:1034E0001360FFF7E3FF124B124918468B4215D9C0
:1034F0001149124A124840F22B131FF081FB114868
:103500001FF07EFB0D4840F22B111FF070FB1A1AC2
:103510005C681211013222711033E7E7F7D310BD56
:10352000C9320020232D0200F0120020F4120020E6
:10353000A86E0200B86E0200C68D0200698D0200FE
:1035400071890200E78D020070B5134D297811BB17
:103550000120FFF71BFF114C114EB44218D911493D
:10356000114A124840F2CF131FF04AFB10481FF0D7
:1035700047FB0D4840F2CF111FF039FB2046FFF703
:10358000D3FE18B1236820469B6898471034E4E7BF
:10359000F4D301232B7070BDC9320020A86E020045
:1035A000B86E0200C68D0200698D020071890200AA
:1035B000E78D020010B5044608481FF0B4FB5CB16B
:1035C000BFF35B8F064B53E8001F013943E800123D
:1035D000002AF8D1BFF35B8F10BD00BFF0120020AE
:1035E000F412002070B5154B1B6805469847A8607B
:1035F000134BBFF35B8F1B68BFF35B8F114C124EF5
:10360000B44219D91149124A124840F20A231FF054
:10361000F7FA11481FF0F4FA0D4840F20A211FF0A2
:10362000E6FA2046FFF780FE20B1236829461B6892
:10363000204698471034E3E7F3D370BD2002002002
:103640001C020020A86E0200B86E0200C68D0200A7
:10365000698D020071890200E78D0200044A054B62
:103660009B1AB1EBD30F34BF52F8310000207047E2
:10367000A06D0200A86E02002DE9F04F87B004AFE4
:10368000D7E90EBA3E6B0546884614469946BBF10B
:10369000000F2CD0C7F804A0CDF800A07A6B5B46D1
:1036A00010210020FFF7C6F800280BDA29492A4A22
:1036B0002A484FF4B4731FF0A3FA4FF4B4712648AC
:1036C0001FF095FAB0F5006F014612D340F2FF7378
:1036D0000393234B02930023CDE9003321490222B7
:1036E00018461FF067FB0C37BD46BDE8F08F594602
:1036F000584604F0070205F00704E40044EA821487
:1037000044EA402444EA065417360E4426F00706DD
:10371000ADEB060D04ADBBF1000F13D0CDF800A04A
:103720007A6B5B4605F11000FFF784F8002809DA90
:103730000849094A094840F28D131FF061FA40F226
:103740008D11BCE74B462246414628461FF019FB27
:10375000C9E700BF3F8E0200138E0200718902008C
:10376000498E0200486E0200406820B1034BC01A27
:1037700040F3CF0070474FF0FF307047A06D02005C
:103780000EB403B503AB014653F8042B0448019370
:1037900001F0B8F902B05DF804EB03B0704700BF68
:1037A000F12D0200CA0605D48B064CBF024903491D
:1037B000FFF7E6BF704700BF3EC60200818E0200E1
:1037C0002DE9F04F89B004469DF85070DDF858A0FF
:1037D000DDF8608005920D469946002F00F0AC8020
:1037E000914B042FDB5D06930BD99049904A914889
:1037F0004FF418731FF004FA4FF418718C481FF03F
:10380000F6F908F4807307931FF0B0FA08F0020B82
:10381000024600285DD088492046FFF7B1FF0646E2
:10382000BBF1000F08D018F0440F54D183492A4649
:103830002046FFF7A5FF064408F0010353B1804B73
:10384000804953F82720804B2046002A08BF1A469B
:10385000FFF796FF08F48073002B08F0080318BFE9
:103860004FF00009002B62D0784B794953F827209C
:103870002046FFF785FF0546059B2BB175491A4683
:103880002046FFF77DFF0544B9F1000F0CD0069BE1
:10389000002B4FD07049714B042F18BF19464A4670
:1038A0002046FFF76DFF05446D483544159B002BFE
:1038B00048D06C4922461FF058F9002842DA6A497C
:1038C0005B4A5C4840F2BD231FF09AF940F2BD21EB
:1038D00094E70646A4E7654B18680028ABD0644B14
:1038E0004FF47A7B1B68B5FBF3F54FF46163B5FBCE
:1038F000F0F100FB11550BFB05F54FF03C0CB1FB53
:10390000F3F203FB1211B5FBF0FEB1FBFCF300FB7D
:103910001E550CFB13110BFB05F50091B5FBF0F5E3
:103920005449CDE901E52046FFF72AFF83E708F077
:103930000805A1E74949B2E7012B0CBF48484E48AA
:103940003D46B3E7179B002B54D0DDF85C90414611
:10395000B9F1100F204628BF4FF01009FFF722FFE2
:103960000026B54218DC002633461AF803204349E6
:103970002046FFF705FF0136102E13D0720703D142
:103980003F492046FFF7FCFEB1453346EDD83D499F
:103990002046FFF7F5FEEEE739492046FFF7F0FE37
:1039A0000136DEE7384920460026FFF7E9FE3346B8
:1039B0001AF803203549A2F120035F2B28BF2E22DD
:1039C0002046FFF7DDFE0136102E0DD0730703D120
:1039D0002B492046FFF7D4FEB1453346E8D82849A5
:1039E0002046FFF7CDFEEEE7179BB3EB0903CA4471
:1039F0001793AAD15FB118F0010F04D0124A1149F0
:103A00002046FFF7BDFE41462046FFF7CBFE626829
:103A1000A1682068D2E900231FF0DCF96368002266
:103A20001A6009B0BDE8F08FF6D00200C18E020026
:103A3000928E020071890200CC8E0200D08E0200AC
:103A40008870020013A10200848E02009C700200A4
:103A5000F58E0200FB8E0200898E02008D8E020020
:103A6000F12D0200054B0000FF8E02000013002024
:103A7000FC120020D98E02000D2E0200088F0200D9
:103A8000108F02000E8F0200128F0200148F0200AE
:103A9000074A00210123904206D8064A01B90123B2
:103AA0001360054B1860704740085B000121F2E786
:103AB00040420F00FC12002000130020F8B5074F11
:103AC0000D4604464618B44201D12846F8BD14F804
:103AD000011BBB6801485B689847F4E7386B02003C
:103AE00010B543681C68094821F0ADFB48B9084986
:103AF0000848094A99231FF083F8074899211FF0C5
:103B000076F823685B685C6010BD00BF386B02000C
:103B1000758F020071890200378F0200014B03602C
:103B200000207047E470020010B5DFF824C086B0B2
:103B30004FF42814CDE904C40824029404AC019481
:103B4000BDF82040009420F0EAFC06B010BD00BF94
:103B50001800280080B505460E46174698461CF00A
:103B60004BFB034600F0A8FDDFF83C90044649F803
:103B70000030424639463046A8470C4B1B7873B993
:103B80000B490C4A0C4840F246331FF039F80B48F9
:103B90001FF036F8074840F246311FF028F854F875
:103BA000090000F025FD00BF080000000A340020D5
:103BB000D48F0200A98F020071890200E78F0200F2
:103BC00008B50348034A0021121A1FF0C5F908BDC1
:103BD000300700200C3400200748084A084908B57F
:103BE000121A1FF0BBF90748074A0849BDE8084008
:103BF000121A1FF0B3B900BF0000002030070020E8
:103C00003CD4020000000020000000203CD4020050
:103C100070B5064686B00D46002938D08B680593EE
:103C20004B6804930B6803930024244B24490293AC
:103C3000012223462046CDE900441FF091F96B692B
:103C400005932B690493EB6803931E4B1C49009466
:103C5000CDE901430122234620461FF081F9EB699B
:103C60000393194B16490094CDE9014301222346E1
:103C700020461FF075F9AB690393144B104900946B
:103C8000CDE901430122234620461FF069F9012EA8
:103C90000DD1EFF30583103B03930D4B02930023EB
:103CA000CDE900330649324618461FF059F9294636
:103CB000304606B0BDE8704019F04CBA09900200D9
:103CC000786E020038900200679002007690020041
:103CD000A490020030BFFFF7FDBF00BF2DE9F04107
:103CE0000B4EDFF8308006EB0807CC1B054632464A
:103CF0000949204622F0EDFDA01942460021083C6A
:103D000022F00EFE2C6707F10800BDE8F08100BF2D
:103D10000000000008000000B86E02002DE9F0432A
:103D200085B00024564B0293CDE9004423468046DB
:103D3000894620465349164601221FF02CF9524B62
:103D40009B6AD80640D5514B0094CDE901432046EB
:103D500023464C4901221FF01EF911244A4B9B6A4D
:103D600019070AD54A4B02930023CDE90033454990
:103D7000012218461FF00FF91224434DAB6A9A072F
:103D800024D50024434B0293CDE9004423463D490A
:103D9000012220461FF0FFF86F6BAB6A1B0659D556
:103DA0003D4B38490397CDE9014300942346012256
:103DB00020461FF0F0F8B9F1000F03D0AB6A23F0F2
:103DC0008003AB62132403E01024C7E76FF01507EC
:103DD0002D4B9B6AD8070AD5304B02930023CDE9BF
:103DE00000332849012218461FF0D5F81424264B29
:103DF0009B6A99060AD52A4B02930023CDE900332A
:103E00002049012218461FF0C6F815241E4DAB6A42
:103E1000DA0602D4AB6A9B070AD56B68180507D58A
:103E20004146384600F09AFBB8B180F30988022475
:103E3000154B9A6A920642BF5A6A22F400525A629D
:103E40009A6A42F0FF029A6220460023337005B05E
:103E5000BDE8F0836FF01507B4E7AB6AD906E7D584
:103E60001049114A114840F227131EF0C9FE1048AC
:103E70001EF0C6FE0C4840F227111EF0B8FE00BF2F
:103E8000B7900200786E020000ED00E0CD900200D5
:103E900000910200139102002B9102004191020057
:103EA00060910200C19102008F91020071890200AD
:103EB0000B9202001FB50024374B029301222346C8
:103EC000CDE90044354920461FF065F8344B9B6A24
:103ED0009A015ED5334B31490094CDE90143204628
:103EE000234601221FF057F81E202D4B9B6ADB0151
:103EF0000AD52D4B029300231846CDE900332749FC
:103F000001221FF048F81F20254B9B6A1C030AD58D
:103F1000264B029300231846CDE900331F490122A6
:103F20001FF039F821201E4B9B6A59030AD5204BFC
:103F3000029300231846CDE90033184901221FF0EF
:103F40002AF82220164B9B6A9A030AD5194B029332
:103F500000231846CDE90033104901221FF01BF859
:103F600023200F4B9B6ADB030AD5134B02930023DC
:103F70001846CDE90033094901221FF00CF824202E
:103F8000074A936A6FEA03436FEA1343936204B0EC
:103F900010BD1D20A9E700BF2E920200786E02001E
:103FA00000ED00E046920200599202007392020076
:103FB00091920200B6920200D0920200F0B585B054
:103FC0000024434B0293CDE90044234607460E46A6
:103FD0000122404920461EF0DEFF3F4B9B6ADB0476
:103FE00065D53E4B3B490094CDE90143204623462D
:103FF00001221EF0D0FF1720374B9B6A1D050AD502
:10400000374B029300231846CDE900333149012292
:104010001EF0C1FF1820304DAB6A9C051FD500244F
:10402000304B0293012223462046CDE90044294922
:104030001EF0B1FFAB6BAA6A10040FD503932A4B95
:1040400024490094CDE901430122234620461EF075
:10405000A2FF1FB1AB6A23F40043AB6219201E4BD1
:104060009B6A59050AD5214B029300231846CDE9D6
:104070000033184901221EF08EFF1A20164A936A57
:1040800013F4807315D01A4B029300231846CDE920
:104090000033104901221EF07EFF1B200E4A936A56
:1040A00043F47F4393620023337005B0F0BD1620C4
:1040B000A2E7926A9204F1D50E4A06490093CDE92F
:1040C0000132184601221EF066FF1C20E6E700BF01
:1040D000FB920200786E020000ED00E011930200F6
:1040E00000910200229302003B93020050930200D1
:1040F0006B930200609102002DE9F0418D4B044664
:10410000586890B0C0F30806002383F31188BFF30A
:104110006F8F02F07F45B5F17F4F0CD102F00C0597
:10412000082D17D1844A85490093CDE901321846FC
:1041300001221EF030FF8249824A834840F21B432D
:104140001EF05EFD81481EF05BFD40F21B417D4884
:104150001EF04DFD120746BF0C461D460125002CE2
:10416000E9D00027F31E8DF81F70092B00F2CA80DA
:10417000DFE803F005BEC2A1C8C8C8C8C8C6744BF2
:104180006E49DFF8B0810097CDE901730023012269
:1041900018461EF000FF8DF81F70D8F82C6016F03E
:1041A000020604D06B4B0097CDE9017307E0D8F805
:1041B0002C30002B0BDA684B0096CDE9016300230D
:1041C0005E49012218461EF0E6FE002239E0D8F8CA
:1041D0002C305B007FD5614B58490096CDE90163D7
:1041E0000122334630461EF0D6FED8F81430A269BC
:1041F00043F48073C8F81430BFF34F8FBFF36F8F51
:1042000032F8023CD8F8142022F48072C8F8142046
:10421000BFF34F8FBFF36F8F03F47F42B2F55F4F51
:104220002FD1DBB2022B2CD1236803934C4B434993
:104230000096CDE901630122334630461EF0ABFE05
:1042400022689DF81F30CBB908AE04F12007206822
:104250006168334603C30834BC421E46F7D10F9B46
:10426000002D63D0C3F3080121B96FEA53236FEA2D
:1042700043230F9308A91046FFF7CAFC10B0BDE80E
:10428000F0812C4B9A6AD2B23AB10DF11F02012192
:104290002046FFF743FD0246D3E79A6A12F47F4FA8
:1042A00005D00DF11F010120FFF788FEF3E79B6A9F
:1042B000B3F5803F02D3FFF7FDFDECE72949214A22
:1042C000214840F2ED231EF09BFC27481EF098FC8D
:1042D00040F2ED213BE723491A4A1B484FF43C7357
:1042E0001EF08EFC21481EF08BFC4FF43C712EE733
:1042F0000DF11F020021CBE70DF11F010020D3E7D4
:104300001B4B50E71B4A1C4B0C4910F4F87F08BFAD
:104310001346103ECDE90336184B02930023CDE936
:104320000033012218461EF036FE4EE76FF30803F5
:104330009FE700BF00ED00E0B1930200786E02003D
:10434000DC9302008F91020071890200EF9302005A
:104350002D940200449402006594020073940200BC
:104360009294020005C40200AE940200D2940200AE
:1043700002950200839302009893020026950200A2
:10438000044B5A6942F010025A615A6922F008023D
:104390005A61704700ED00E0EFF30880EFF3098108
:1043A00001B57246FFF7A8FE01BD00BF0B4880F3C0
:1043B000088817F073FE202080F3118808484FF416
:1043C0000461401880F30988EFF314800221084348
:1043D00080F31488BFF36F8F00F088F8C05A002074
:1043E000004900201EF0040F0CBFEFF30880EFF32C
:1043F0000980816911F8021C0229FFD001B57246BB
:104400001EF0BEFD01BD00BF40B2002807DB044A1C
:104410004109012300F01F00834042F8213070471A
:1044200000E100E040B200280CDB4309064900F03F
:104430001F0020330122824041F82320BFF34F8F19
:10444000BFF36F8F704700BF00E100E0054B4209EA
:1044500000F01F0053F82220012303FA00F010405F
:10446000704700BF00E100E038B54B1C072B044645
:104470000D460FD9114A124912486B231EF0C0FB9A
:1044800011482946072322461EF0BAFB0B486B2130
:104490001EF0ADFB40B20028ACBF00F160400B4AFB
:1044A0004FEA4313B8BF00F00F00DBB2AABF00F51C
:1044B0006140135480F8003338BD00BF39950200C5
:1044C00070950200718902008B95020014ED00E0E6
:1044D000044B054A23F07F039360BFF34F8FBFF374
:1044E0006F8F70470000000000ED00E008B5FFF797
:1044F000EFFF0B4AD2F8883023F47003C2F88830FB
:10450000EFF3148323F0040383F31488BFF36F8F56
:10451000FFF756FBFFF760FB00F0B0F818F068FFFC
:1045200000ED00E042F8203C009B42F81C3C0A49A8
:10453000019B42F8183C029B42F8143C21F0010117
:104540004FF0807342F8043C42F8081C0023203AE4
:1045500002654367704700BF553B0000094A0346A8
:10456000906870B113F1160F006E05D0A0F14002F3
:10457000934205D3834203D2814228BF0020704773
:1045800000207047A02B002008B515460B4A0C4BA5
:104590009060026F1A600E4600F0A0F82C4686F379
:1045A00009880020034B9847204600210022002361
:1045B000014C2047C52F0200553B0000A02B0020D6
:1045C00028130020014B10221A61704700ED00E013
:1045D000054B5A699B689A421FBF044A536843F0CF
:1045E00080535360704700BFA02B002000ED00E017
:1045F000084B9B6883420BD1EFF3058343B1064B15
:104600005A6842F080525A605A6A22F400425A6252
:104610001AF064BEA02B002000ED00E014498A6867
:104620004FF030001044EFF3098C80E8F01F202099
:1046300080F31288BFF36F8F0E4F4FF000664A6908
:104640008A603E60106F0C4C2060506F00235367EF
:1046500080F3118804B5104600F040F8BDE804402E
:1046600002F1300090E8F01F8CF3098870470000D9
:10467000A02B002004ED00E02813002004480023B4
:104680002021C2180133302B82F80013F9D1704772
:1046900000E100E008B5EFF30583064A103B02EBAA
:1046A000C30152F8330049688847BDE80840FFF766
:1046B0008FBF00BF706B02000148006870470000A8
:1046C00028130020024B034A0348012100F096B84A
:1046D000000004200000002070710200036E054AF3
:1046E000403B1360044B4021C2E9011310460121F5
:1046F00000F0AAB82C13002000000B151FB5144AB7
:10470000D2F89030C3F30723013B98420FD9114BE5
:10471000029300230390CDE9003318460E4901228D
:104720001EF083FC6FF0150005B05DF804FBC2F8C5
:1047300098000B6823F01F03034343F01003C2F8F3
:104740009C308B6843F00103C2F8A030ECE700BF57
:1047500000ED00E0CF950200606E0200F0B50E465D
:1047600089B01F4604460025B54212DA606838B3A6
:10477000BFB1431E18420FD0134B02930023CDE963
:10478000003312490395012218461EF04EFC6FF0CB
:104790001502104609B0F0BD1F28EDD921680B4263
:1047A000EAD1236805931EF030FCA36805A90343F2
:1047B000D0B20793FFF7A2FF10F1160FE7D0421C0B
:1047C00001350C34D0E700BFF5950200606E0200A1
:1047D000044B0522C3F89420BFF34F8FBFF36F8FB4
:1047E000704700BF00ED00E0BFF35F8F024B002277
:1047F000C3F89420704700BF00ED00E038B50D4DC0
:1048000001232A780C46FFF7A9FF287016300FD134
:10481000094A0A490A4840F289131EF0F1F9094889
:1048200021461EF0EDF9044840F289111EF0DFF92F
:1048300038BD00BFCB3200201B96020005C4020029
:10484000718902004A96020010B5144A00231278BA
:104850000C46FFF783FF10F1160F08D0104A002115
:10486000D2F89030C3F30723984210DB10BD0D4AF5
:104870000D490E484FF4D4731EF0C2F90C4821467E
:104880001EF0BEF907484FF4D4711EF0B0F9C2F81B
:104890009800C2F8A0100130E2E700BFCB32002040
:1048A00000ED00E01B96020005C4020071890200C1
:1048B000769602002DE9F04F834C8449D4F890306D
:1048C0000D68C3F307239D4285B013D9804A8149FF
:1048D000814840F202231EF093F9D4F890207F48DB
:1048E0002946C2F307221EF08BF940F202217848D4
:1048F0001EF07DF9FFF778FF49680022954201F12B
:104900000C012DD1764F774C3D706846FFF706F9C4
:10491000754D764E81464FF00008C14533D13B7846
:1049200069490020D1F89020C2F307229342C0F2D7
:10493000C180FFF74DFFD1F8903003F47F43B3F50A
:10494000006F00F0BD806A49614A634840F27D23F0
:104950001EF056F967481EF053F940F27D21C6E774
:10496000C4F8982051F80C3C23F01F03134343F084
:104970001003C4F89C3051F8043C43F00103C4F820
:10498000A0300132BAE7009A02EB08134FEA08118F
:10499000D3F80CA00AEA0400B0F5000F66D00BD8DB
:1049A000B0F5001F3CD0B0F5800F52D0B0F5801F9D
:1049B00016D008F10108B0E7B0F1007F61D0B0F186
:1049C000805F69D0B0F1807FF3D19868D3F804A0FC
:1049D00052581EF01AFBCDE901A240F088700BE09E
:1049E0009868D3F804A052581EF00FFBCDE901A23D
:1049F00040F0885040F430200390387801A9FFF748
:104A00007DFE002852DA3349314A334840F23523DB
:104A10001EF0F6F838481EF0F3F840F2352166E74C
:104A20009868D3F804B052581EF0EFFA1AF0010F4C
:104A300040EA0600CDE901B20390DED02F49244AB6
:104A4000254884231EF0DCF82D481EF0D9F8842177
:104A50004DE79868D3F804A052581EF0D6FA40F0FB
:104A6000C060CDE901A240F40030C5E79868D3F8F2
:104A700004A052581EF0C9FACDE901A240F082709C
:104A8000BAE79868D3F804A052581EF0BEFACDE9F0
:104A900001A240F48020AFE79868D3F804A05258F0
:104AA0001EF0B3FACDE901A22843A5E73B78013314
:104AB0003B707EE7C1F89830C1F8A000013331E7C0
:104AC000002005B0BDE8F08F00ED00E07C71020031
:104AD0001B96020005C4020071890200A396020021
:104AE000CB3200200000F0FF00000211000008118E
:104AF00056970200A69702002C970200D796020054
:104B0000FD960200F0B587B007460E461446002118
:104B1000102268461D4621F003FF02238DF8023063
:104B20002A46054B019321466846CDE904761DF0DF
:104B3000CBFC07B0F0BD00BF4B30020008B5024B04
:104B40001B689847002008BD38130020034B044A17
:104B50001860937843F00203937070473813002075
:104B60004402002008B50649064821F00701C1F1BA
:104B7000005202F58022FDF7C3FD002008BD00BFF2
:104B80001F6F00203C13002008B509484FF0FF328A
:104B90004FF0FF3318F072FE48B106490648074A45
:104BA0007F231EF02DF805487F211EF020F808BD58
:104BB000540200201098020071890200D69702006A
:104BC000014818F023BF00BF5402002038B5054645
:104BD000FFF7DAFF08482A460821FDF707FD0446DB
:104BE00028B925B1FFF768FD044B0C221A50FFF7D6
:104BF000E7FF204638BD00BF3C1300200C0000003A
:104C000010B50446FFF7C0FF21460348FDF74CFCF2
:104C1000BDE81040FFF7D4BF3C13002070B5A0FBE7
:104C2000015434B92846FFF7D1FF064640B9304653
:104C300070BDFFF741FD054B0C221A500026F6E728
:104C40002A46214621F06CFEF1E700BF0C0000006F
:104C500070B54169867A0B4D044659B1437ADB073A
:104C600006D42C2303FB06535B6A1B689B6898479A
:104C7000002363612C20214600FB0650BDE87040F4
:104C800020F058BBFC050020024B2C2202FB003018
:104C9000704700BFFC050020827A064B2C2101FBE7
:104CA00002339A6A1B7F1B33801A23F00303B0FB85
:104CB000F3F07047FC05002038B5074B827A2C24AE
:104CC00004FB02335B6AD3E901240C601568FFF72B
:104CD000E3FF04FB005038BDFC05002008B5436825
:104CE0004BB107490748084A63231DF089FF06486E
:104CF00063211DF07CFF03824369C36008BD00BFD0
:104D000043980200718902001E9802002DE9FF47B6
:104D100005466846039117461C4620F0FAFBDDE97C
:104D2000008955B95C495D4A5D484FF485731DF0B3
:104D300067FF4FF48571594818E005F11406EFF349
:104D4000118A202383F31288BFF36F8F30461BF044
:104D5000B7FB68B9534A5449514884231DF050FFAA
:104D6000314652481DF04CFF84214E481DF03FFF54
:104D700030461BF0C9FB6B8B002B5AD02A8B9A4212
:104D800039D900220023284619F068F80446002883
:104D900031D030461BF0A2FB68B9424A4449404832
:104DA0004FF499731DF02CFF314642481DF028FF47
:104DB0004FF49971D9E78AF31188BFF36F8F039D80
:104DC000002D59D042464B46684620F0C7FBA27AD8
:104DD000394B2C2101FB023320465B6A1B6803A977
:104DE0001E68DDE90023B0476061002837D1204606
:104DF000FFF72EFF2EE06C8B631E6B8330461BF09B
:104E00006DFB0028C9D08AF31188BFF36F8F2B7F09
:104E10002A8B1B33121BAC6A23F0030302FB0344EF
:104E2000254B264AEB1A9B105343A3722B7FE37248
:104E3000C5E730461BF052FB0028AED08AF311883C
:104E4000BFF36F8F23463A46284619F007F8044609
:104E50000028B4D10024204604B0BDE8F087039BAD
:104E60009D420BD916490D4A0D4840F25F131DF0C3
:104E7000C7FE40F25F115EE765612B46002101220B
:104E800022816160E27A638204F1180021F048FD1A
:104E90002046FFF723FFDEE7CDB402001E98020094
:104EA00071890200EB8B0200448C0200598C0200D5
:104EB000188C02002F8C0200FC050020A38B2EBA58
:104EC0005D98020070B50C46054658B92849294A34
:104ED00029484FF4D3731DF093FE4FF4D371254846
:104EE0001DF085FE49B92549224A234840F2A713FF
:104EF0001DF086FE40F2A711F1E7EFF311862023A3
:104F000083F31288BFF36F8F1D481BF0D9FA60B985
:104F10001C4A1D49184884231DF072FE18491B487D
:104F20001DF06EFE84211748DAE715481BF0ECFAF5
:104F3000002323606B689BB9C5E9004410481BF04F
:104F4000CDFA80B90F4A12490B484FF499731DF0FE
:104F500057FE0B490F481DF053FE4FF49971E2E7DD
:104F60001C606C60EAE786F31188BFF36F8F70BD39
:104F700067A702001E98020071890200469F020086
:104F800048130020EB8B0200448C0200598C020075
:104F9000188C02002F8C020070B5044658B92349C2
:104FA0002348244A40F2B3131DF02AFE214840F260
:104FB000B3111DF01CFEEFF31186202383F312883A
:104FC000BFF36F8F1C481BF07BFA60B91B4A1C496A
:104FD000174884231DF014FE17491A481DF010FECF
:104FE00084211648E5E714481BF08EFA25682DB198
:104FF00062682B682360954208BF63600E481BF00F
:105000006DFA68B90D4A104909484FF499731DF0BB
:10501000F7FD09490D481DF0F3FD4FF49971E0E7E4
:1050200086F31188BFF36F8F284670BD67A7020013
:10503000718902001E98020048130020EB8B0200C9
:10504000448C0200598C0200188C02002F8C020044
:105050002DE9F041044618B3204F00264FF02C08EC
:10506000254605F108026468BFF35B8F52E8003FF4
:10507000591E42E800100028F8D1BFF35B8F13F0EF
:10508000FF0319D1164A1749174840F2D7131DF0EC
:10509000B7FD294615481DF0B3FD40F2D71108E0D1
:1050A00013490F4A10484FF4E2731DF0A9FD4FF465
:1050B000E2710B481DF09BFD012B0AD1AB7AEE602B
:1050C00008FB03736E601B6A284623B19847002CC7
:1050D000C6D1BDE8F081FFF7BBFDF8E7FC05002075
:1050E0001E9802006E980200718902007B980200EF
:1050F000469F020038B5044658B91549154A164866
:105100004FF4FE731DF07CFD4FF4FE7111481DF04D
:105110006EFD00F10802BFF35B8F52E8003F591C9F
:1051200042E80015002DF8D1BFF35B8FDBB2FF2BF7
:105130000DD1084A094908484FF400731DF060FD7D
:10514000214607481DF05CFD4FF40071DEE738BDD5
:10515000469F02001E98020071890200909802008A
:10516000A098020008B5034658B908490848094AFA
:1051700040F249231DF044FD064840F249211DF04C
:1051800036FD18465B68002BFBD108BD469F020028
:10519000718902001E98020070B50D46044658B988
:1051A0000F49104A10484FF415731DF029FD4FF4B4
:1051B00015710C481DF01BFD49B90C49094A0A48F4
:1051C00040F255231DF01CFD40F25521F1E74668E1
:1051D0001EB10846FFF7C6FF4660656070BD00BFA0
:1051E0002C9C02001E98020071890200DB980200CC
:1051F00038B505460C4659B90C490D480D4A4FF4CF
:1052000018731DF0FDFC0B484FF418711DF0EFFCF6
:1052100020B9BDE838400846FFF76CBFFFF7A2FF92
:105220002146FFF7B9FF284638BD00BFDB980200D2
:10523000718902001E980200034610B5084659B94C
:105240001649174A174840F275231DF0D9FC40F261
:10525000752113481DF0CBFCCBB15A684AB91249ED
:105260000F4A10484FF41E731DF0CAFC4FF41E7114
:10527000EFE78A4209D00D49094A0A4840F27923EA
:105280001DF0BEFC40F27921E3E74A685A604468A9
:1052900000234360FFF7DCFE204610BDDB980200D0
:1052A0001E98020071890200BC980200CA98020090
:1052B00008B548B90B490C4A0C482B231DF0A0FC3B
:1052C0002B2109481DF093FC83883BB10849064A0D
:1052D00006482C231DF094FC2C21F2E783680B4434
:1052E000036008BD469F0200E89802007189020031
:1052F0001499020070B5034605688288DC889E68B0
:10530000A818A41AAD1B641BA14209D90649074875
:10531000074A3E231DF074FC05483E211DF067FC42
:105320000A449A8070BD00BF23990200718902006F
:10533000E898020008B5034600689A68821A91420C
:105340000BD9094909480A4A40F255131DF058FC87
:10535000074840F255111DF04AFC9A88401A114442
:105360001860998008BD00BF57990200718902003A
:10537000E898020008B582888A4203460BD20949A0
:1053800009480A4A40F2C3131DF03AFC074840F2AC
:10539000C3111DF02CFC521A82800068084418606A
:1053A00008BD00BF4799020071890200E898020019
:1053B00008B5034600689A888A420BD20849094812
:1053C000094A40F2CF131DF01BFC074840F2CF11F1
:1053D0001DF00DFC521A01449A80196008BD00BFEF
:1053E0004799020071890200E89802000C4B0122E3
:1053F000C3F840254FF080434FF08051C3F8782523
:10540000D1F83001082805D1D1F83411022908BF9C
:10541000C3F838260122C3F880250020704700BF5A
:1054200000E0014048B1054B054A1B68B3FBF2F3AD
:105430005843044B43F001031847704748050020C8
:1054400040420F00706F020008B5054A054B13601B
:1054500010463C23536016F0F7FE002008BD00BF45
:105460004C1300203FC00F00F7B506460D4614460A
:10547000194F38461FF0E7FE50B3AAB2BB681B684D
:1054800063B91649164A17487E231DF0B9FB164822
:105490001DF0B6FB12487E211DF0A9FB31463846AF
:1054A0009847002802DB002003B0F0BD002CFBD1A0
:1054B000AC42F8D22F1B042F28BF04271FF00EFD8B
:1054C0003A46019001A9301921F003FA3C44EFE774
:1054D0006FF01200E8E700BF1C6B0200C2990200E7
:1054E0008E99020071890200E299020070B50B7872
:1054F00092B006460C4607AD032B31D8DFE803F027
:10550000022A2C2E19492846FAF714FE05956378CD
:105510000493A3780393E378029323790193637947
:105520000093A379124A1E210AA81CF0A3FF10AD14
:105530000AAB32461C4603CCAC4210605160234695
:1055400002F10802F6D120681060A38893803046EB
:1055500012B070BD0749D6E70749D4E70749D2E73B
:10556000074A0A2128461CF085FFCFE7089A020067
:105570002A9A02000F9A0200169A0200209A02004C
:10558000C0BD02000E4B402970B528BF40210D4C14
:1055900046181D46B04203F1020304D1002305F86A
:1055A0001130074870BD02781209A25C03F8022C82
:1055B00010F8012B02F00F02A25C03F8012CE9E7BE
:1055C000CC32002015D1020010B586B0094B0A4834
:1055D00003930024CDE9044419F0FCF903AB0093D4
:1055E000064905480A234FF4B06219F00DFA204627
:1055F00006B010BD549A020060070020403400201D
:105600000146014819F09CBA600700200146014894
:105610001FF0FFBE60070020884208B501F11003AB
:1056200010D9984213D20E490E4A0F4840F2B323C4
:105630001DF0E6FA0D481DF0E3FA0A4840F2B321E6
:105640001DF0D5FAEFD000F110029142EAE70138DF
:1056500013F8012D00F8012F8B42F9D108BD00BFCE
:105660008F9A02005D9A020071890200E69A020098
:1056700038B5044608462378012B11D0022B21D0DF
:105680002BBB1A4B0A4603F1100153F8045B42F896
:10569000045B8B42F9D163881A0A8270C37038BDEB
:1056A000124B0A4603F1100153F8045B42F8045B05
:1056B0008B42F9D163681A0C190E42700170C3F362
:1056C0000722EAE7611CBDE83840FFF7A5BF084A9A
:1056D0000849094837231DF093FA217807481DF03F
:1056E0008FFA034837211DF082FA00BF26D102004D
:1056F000189B020005C4020071890200489B020049
:1057000010B51DF097FD1FF094FE044608B91AF07D
:10571000AFFCBFF35B8F064B1B68BFF35B8F0BB116
:105720000A2098471CB9BDE810401AF00FBD10BD03
:1057300054130020811EC9B21E2938B5044604D86E
:105740001A4820FA01F1C9070CD41949194A1A4814
:105750007A231DF055FA19481DF052FA15487A219E
:105760001DF045FA16481DF07CFC0546D0B1082C0A
:105770001AD00CD8022C10D0042C15D011490E4888
:10578000114A52231DF03CFA0F485221E8E7102C31
:1057900001D0202CF2D1052100E0042105F10C00FC
:1057A0001DF076FC284638BD0221F7E74100004095
:1057B0008F9B0200609B020071890200D49B020053
:1057C000D806002005C40200F49B02000F2810B583
:1057D0000CD80D280CD90A481DF043FC044618B11A
:1057E00004210C301DF054FC204610BD1328F2D0CB
:1057F00009B10448F0E7BDE810400220FFF79ABF66
:10580000040700205406002038B50B6805460C46F6
:105810004BB90E490E480F4AFA231DF0F1F90D4815
:10582000FA211DF0E4F94A68DA600B684A895A8265
:105830000868FFF70DFC20461022002121F070F8C7
:105840002846BDE838401DF0F5BC00BF269C02008C
:1058500071890200609B02002DE9F84305460C4661
:105860001F4616464AB92649264A2748D6231DF020
:10587000C7F9D62123481DF0BAF938B92349214A7E
:105880002148D7231DF0BCF9D721F3E74A69CB683B
:105890009A4207D11E491B4A1B48DB231DF0B0F971
:1058A000DB21E7E708461DF0DDFC804638B11949E9
:1058B000144A1548DD231DF0A3F9DD21DAE701F1D3
:1058C0000C09484605F10C011DF0CFFBE368626945
:1058D0002E829B1A13FA86F36B8201236B72314678
:1058E0004846FFF747FDE3687B60638AC4F80C8095
:1058F0007B81A4F812803C602846BDE8F88300BF95
:1059000077990200609B020071890200339C0200BB
:10591000389C0200559C020038B5C5682B7893B9B5
:10592000B5F801400F21204603F0F6F9EB78054663
:1059300050B90A4A118831B96FEA04506FEA105021
:105940001080074A137038BD0373012103F000F97A
:105950002846BDE8384003F069B800BF8032002017
:105960004D33002010B586B003AB002400930749E7
:10597000074805944FF0FF334FF48062CDE90344AC
:1059800019F042F8204606B010BD00BF003A0020D2
:105990000008002010B5084C0146062294F86E005D
:1059A00003F07AFE38B994F86E000449BDE810405F
:1059B000052203F071BE10BD00000020FBD00200E4
:1059C0001FB501460B48FFF77DFA0B490B481FF046
:1059D00020FD00280ADA0A4B029300230390CDE948
:1059E00000330849012218461DF07EFC05B05DF821
:1059F00004FB00BF3401002008030020A0080020A1
:105A00007D9C0200086E02001FB501210C30FFF7DB
:105A1000CFFC03780393064B02930023CDE90033B8
:105A20000449012218461DF05FFC05B05DF804FB37
:105A30009A9C0200086E02001FB5C3681C880121F1
:105A4000204603F069F9034650B9084A084903940F
:105A5000CDE90102009001221DF046FC04B010BD0A
:105A600004B0BDE8104002F0E1BF00BFBC9C0200E2
:105A7000086E02001FB5C368B3F80140012120463B
:105A800003F04AF9034650B9074A08490394CDE99F
:105A90000102009001221DF027FC04B010BD04B0EB
:105AA000BDE8104002F0C2BFBC9C0200086E0200BC
:105AB0007FB5C3681D788DB9B3F801600F213046FA
:105AC00003F02AF9044658B90A4B0B490396CDE96D
:105AD00001030090034601221DF006FC04B070BDD6
